:0A0000000C949F010C9400000C9476
:10000A0000000C9400000C9400000C9400000C9466
:10001A0000000C9400000C9400000C9400000C9456
:10002A0000000C9400000C9400000C9400000C9446
:10003A0000000C9400000C94EA010C9400000C944B
:10004A0000000C9400000C9400000C9400000C9426
:10005A0000000C9400000C9400000C9400000C9416
:10006A0000000C9400000C9400000C9400000C9406
:10007A0000000C9400000C9400000C9400000C94F6
:10008A0000001027E80364000A00010000100001C4
:10009A0010000100202020202020202020202020C5
:1000AA002020202020202020202020202020202046
:1000BA0020202020202020202020202000496E6996
:1000CA00636A616C697A756A65206D61737A796EA3
:1000DA0065005779637A79737A637A6F6E6F206DE8
:1000EA0061737A796E65004D61737A796E61207AEF
:1000FA0061696E69636A616C697A6F77616E6100C2
:10010A00437A656B616D206E612070726574206739
:10011A0077696E746F77616E7900507261636100FE
:10012A005A616B726563696C656D2077737A79734E
:10013A00746B6965207A6164616E652070756368A5
:10014A00617279004272616B2077796D6167616EC5
:10015A0065676F206369736E69656E696120362011
:10016A0062617200446F7A6F776E696B206B6C659F
:10017A006A7520707265746F77206E696520676F83
:10018A00746F777900446F7A6F776E696B206B6C46
:10019A00656A75206E616B726574656B206E696540
:1001AA0020676F746F77790057796C61637A206D75
:1001BA0061737A796E65206920706F637A656B6105
:1001CA006A2031206D696E757465004F64736C6FB7
:1001DA006E2069207A7265736574756A206B757210
:1001EA0074796E65004D6F6E7465722033206E6986
:1001FA0065206E616369736E616C20706564616C01
:10020A006100437A656B616D206E61207275636867
:10021A00206C616E637563686100506F70726177FC
:10022A002070726574207A2067727A79626B6965C8
:10023A006D2069206E616369736E696A2067757AD9
:10024A00696B005573756E2070726574207A65202B
:10025A00737A637A656B2069206E616369736E696C
:10026A006A2067757A696B0057796D69656E206CCB
:10027A007562206E616B7265632F646F6B72656362
:10028A002067727A7962656B2069206E616369738F
:10029A006E696A2067757A696B004D6F6E74657254
:1002AA002033202D207A64656D6F6E74756A207014
:1002BA007563686172206920706F7477696572640A
:1002CA007A004D6F6E7465722033202D2077797A0B
:1002DA00776F6C207265637A6E696520637A756AD6
:1002EA006E696B207075636861726100202020203E
:1002FA0020202020202020202020202020202020F4
:10030A0020202020202020202020202020202020E3
:10031A002020202020202020202020202020000013
:10032A0001002D4E414E00494E4600000100AF0526
:10033A002A030000F894EE27ECBBF1E0F5BFE5BF15
:10034A00E0936C00F8E1F1BDE1BD8DE0A2E0BB27CE
:10035A00ED938A95E9F780E090E1A0E0B1E0ED93B2
:10036A000197E9F7E6E3F3E085919591009761F04B
:10037A00A591B59105901590BF01F00105900D92D8
:10038A000197E1F7FB01F0CF8BBFEFEFEDBFE0E1A3
:10039A00EEBFC0E0D5E00C94D40D1A930A93E09115
:1003AA009B001E2FE078D9F300919C00E12FEC719D
:1003BA0011F4E02FA3C0F3CFE0919B00E072E1F3C8
:1003CA00E881E0939C00219608956A937A93AA9310
:1003DA00BA93EA93FA93EFB7EA93A6E3B5E00E94D9
:1003EA007410A6E4B5E00E947410AAE3B5E00E9476
:1003FA007410AAE4B5E00E947410AEE3B5E00E945E
:10040A007410AEE4B5E00E947410A2E4B5E00E9454
:10041A007410A2E5B5E00E947410AEE5B5E00E9442
:10042A007410A2E6B5E00E947410A6E6B5E00E9438
:10043A007410E991EFBFF991E991B991A991799174
:10044A0069911895C99B12C0949AE0918305F0911D
:10045A008405309751F4A5E8B5E00E947D10E1E0EB
:10046A00F0E0E0938305F093840506C09498E0E0F9
:10047A00E0938305E093840508951A930A93A09163
:10048A008505B091860517971CF400E010E002C0BC
:10049A0001E010E0A0918505B0918605E7E0F0E063
:1004AA000E94F2140E2EA0E0C999A1E0E0E00E9499
:1004BA00E114E02911F001E010E001E010E0F80198
:1004CA001DC00E948310C99B02C0949AFCCF0E944F
:1004DA0088100431E0E01E075CF4C99B06C0C99B82
:1004EA0002C0949AFCCF0E9488100F5F1F4FF1CF71
:1004FA00E4E1F0E0E0938505F0938605099119910E
:10050A0008950E9490100E9498100E94A4100E94C0
:10051A00A810E0E001C2E0E0E09382050E9490109A
:10052A000E94AC100E94A4100E94B510E0938205AC
:10053A00F0E00895A9E8B5E00E947D100E94CB1072
:10054A000E9490100E94D110E7C10E9490100E9450
:10055A00DF100E94E8100E94EC10E7E10E94F510FB
:10056A000E94E810E7ECF0E0BAC00E949010EBE1BC
:10057A000E94F5100E94E810E1EFF0E0B0C00E947E
:10058A009010ECE10E94F5100E94E810EAE0F1E018
:10059A00A6C00E9490100E94DF100E94E8100E94DC
:1005AA00EC10E8E00E94F5100E94E810E4E2F1E0A5
:1005BA0096C00E949010EBE10E94F5100E94E8108C
:1005CA00EEEAF0E00E94FD100E949010E6E20E941E
:1005DA00F5100E94E810EAE2F1E081C00E94901052
:1005EA00E2E20E94F5100E94E810EEE4F1E077C022
:1005FA00E881F981309751F40E9490100E94DF102F
:10060A000E94E810EEE6F1E00E94FD10A881B9818F
:10061A00119759F40E949010E5E20E94F5100E9489
:10062A00E810EFE8F1E00E94FD105EC00E94901011
:10063A00E5E20E94F5100E94E810E2EBF1E04FC0FB
:10064A000E949010ECE10E94F5100E94E810E5ED7E
:10065A00F1E045C00E949010EFE10E94F5100E945F
:10066A00E810EFEEF1E03BC00E949010EAE10E9430
:10067A00F5100E94E810ECE0F2E031C00E94901000
:10068A00EBE20E94F5100E94E810E4E2F2E027C0D3
:10069A000E949010E7E20E94F5100E94E810EDE433
:1006AA00F2E01DC00E949010E4E30E94F5100E943F
:1006BA00E810E2E7F2E013C00E949010ECE20E9418
:1006CA00F5100E94E810ECECF2E009C00E949010CC
:1006DA00E5E30E94F5100E94E810E6EFF2E0FA93D3
:1006EA00EA9380E00E943810229608951A930A939A
:1006FA001F9AEA81EA9360DEEB810E9404111F9837
:10070A00198108811FC10E946915E0E0E093820502
:10071A0010E0AC81BD81119711F00C94D3030E94B3
:10072A0090100E94AC100E940C110E94B510F0E0CB
:10073A00E0933405F09335050E9490100E94101141
:10074A000E941C110E94B5102E2F3327022E032A55
:10075A0039F4E1E0F0E0E0939105F093920505C0E9
:10076A00E0E0E0939105E09392050E9490100E94C8
:10077A0010110E9420110E94B5102E2F3327022E2D
:10078A00032A39F4E1E0F0E0E0938F05F093900555
:10079A0005C0E0E0E0938F05E09390050E94901079
:1007AA000E94AC10E0E5EA930E94F40E0E94B51094
:1007BA00F0E0E0932E05F0932F05AC81BD811197EF
:1007CA0071F50E9490100E94AC10E0E6EA930E9434
:1007DA00F40EE1E0EA930E94F40E0E9424110E94B2
:1007EA0024110E94F00E0E94F00E10E00E94F00EFA
:1007FA001E2FE12FF0E00E94D714A0916A05B09154
:10080A006B0580916C0590916D050E943415E093FB
:10081A005605F09357056093580570935905E09172
:10082A009705F0919805309791F41A93E2E0EA93CC
:10083A005DDFE1E0F0E0E0939705F0939805E09141
:10084A005605F0915705E0939905F0939A050E9491
:10085A002A11A0919905B0919A050E94DC140E9470
:10086A00621529F0E0E0E0939705E0939805D60138
:10087A000E9433110E2EAC81BD810E943811E021F5
:10088A0099F00E9490100E94AC10E0E7EA930E944F
:10089A00F40E0E94B510F0E0E0933205F0933305B0
:1008AA00E0939B05F0939C050E9470156FC00E940F
:1008BA0090100E9498100E940C110E94A810E091BA
:1008CA0034050E943D110E949810E0E50E944111F2
:1008DA00E0912E050E943D110E949810E0E60E94C8
:1008EA004111E7E00E943D110E949810E0E70E9442
:1008FA004111E5E00E943D110E9445110E941C1120
:10090A000E94A810E1E00E943D110E9445110E9438
:10091A0020110E94A810E1E0EA930E94F40E0895C3
:10092A000E9490100E949810E0E80E944111EA810A
:10093A000E943D110E9445110E940C110E94A810AC
:10094A000E94A810249608950E9490100E94981060
:10095A000E941C110E94A810E0E0EA930E94F40E83
:10096A000E9490100E9498100E9420110E94A810C4
:10097A00E0E0EA930E94F40E0E9490100E94451152
:10098A000E94A4100E94A8100E94A81026960895FA
:10099A00959A08950E9483101F9AE4E6F0E00E9457
:1009AA004E11FBDC0E2F1127002E012A21F40E9482
:1009BA0052111EDEF2DC1F9898C2E0E00799E1E0CE
:1009CA00E03011F00C943E05E0919505F091960502
:1009DA00309739F47BDE1D9A0E9457110E945A11F2
:1009EA0047C0E130A0E0FA0731F41D980E94571180
:1009FA000E9461113DC0E230A0E0FA0741F41E9A5C
:100A0A00069903C00E94681101C02EDE31C0E3308E
:100A1A00A0E0FA07D1F4069B17C058DEA09193050F
:100A2A00B0919405129721F4E3E0F0E00E9472116C
:100A3A00E0919305F0919405309721F4E2E0F0E01B
:100A4A000E9472110E94771113C0E430A0E0FA07E5
:100A5A0079F40E947E11129729F40E9457110E947C
:100A6A00611106C0E1E0F0E00E9472110E94831158
:100A7A0009C0E13039F4E4DD1D981E980E948911FD
:100A8A000E948F11E0919305F0919405089528979B
:100A9A000E94671540E050E020E030E00E94CB1051
:100AAA000E9492110E94981101E010E00E948311A5
:100ABA00E8E0F0E0CE16DF061CF00E94831102C0C7
:100ACA000E949E11D8010E9438110E94A5110E940D
:100ADA00B6110E9433110E94B6110E9438110E9469
:100AEA00B6110E94BC110E94B611E3E0F0E00E9428
:100AFA00E6140E94B611E4E0F0E00E94E614E02950
:100B0A0011F40C94CF06D8010E9438110E94A51145
:100B1A00E02911F40C944106F801E130A0E0FA074B
:100B2A0051F5D9010E9438110E2ED601E8E0F0E005
:100B3A000E94F2140E220E94C111E0E2FEE460E07B
:100B4A0070E00E940C15E0211E2ED601E8E0F0E0CC
:100B5A000E94F8140E2E0E94C111E8EBFBE060E03F
:100B6A0070E00E940C15E021E12921F002E010E07A
:100B7A000E94981181C0E230A0E0FA0739F50E947C
:100B8A00C6110E94CD11E02911F0C5981AC00E9421
:100B9A00D511E1E00E94E114E02159F0CBDC78DDC7
:100BAA00C598E1EAF6E861E070E0EE83FF836887C2
:100BBA0079870E94D5110E94E11139F087DD0E94E0
:100BCA009811C298C69803E010E056C0E330A0E03E
:100BDA00FA0711F00C943006A091A305B091A40570
:100BEA00119711F5A0913405B0913505E6E4F0E0CE
:100BFA000E94F8140E2E0E94E611E1E0F0E00E9435
:100C0A00FE140E94EB110E94F2140E220E94F011AF
:100C1A000E943311E02109F0A89AC798909AE0E05F
:100C2A00E093A305E093A405A0E0CC99A1E00E947B
:100C3A00F511A091A305B091A4050E943311E021FA
:100C4A0049F0909A0E94FA110E9401120E9407121A
:100C5A0004E010E011C0E430A0E0FA0769F4029958
:100C6A0006C0E1E0F0E0E093A705F093A805CC996F
:100C7A0003C0909805E010E0E0E00799E1E0E03079
:100C8A0011F00C94A306E0919505F0919605309722
:100C9A0099F40E941012A0E00399A1E00E94E111C8
:100CAA0049F040E050E012DD1D9A0E9492110E9424
:100CBA005A1101C042C041C0E130A0E0FA0799F4DC
:100CCA000E941012A0E0C199A1E00E94E11149F02E
:100CDA000E9418122CF01D980E9461110E94921114
:100CEA0001C02BC02AC0E230A0E0FA07A9F4079994
:100CFA0011C00E9418126CF01E9A069909C021E0D0
:100D0A0030E00E9498110E9468110E94921101C05D
:100D1A00ABDC01C012C011C0E330A0E0FA0739F41D
:100D2A00069B04C0D3DC1E980E94771106C0E430EB
:100D3A00A0E0FA0711F40E949E1113C0E13089F471
:100D4A00C5DC7EDC1D981E980E9483110E949211B8
:100D5A00042E052A31F441E050E0ABEAB5E00E94E6
:100D6A007D10EA85FB856C857D85EF5FFF4F6F4FB0
:100D7A007F4FEA87FB876C877D87EE81FF816885D5
:100D8A007985EF5FFF4F6F4F7F4FEE83FF83688751
:100D9A00798798CE0E946E152E96089588DDC89997
:100DAA0002C01CDCFCCF92DCF3DD90DCCEDBF2DD92
:100DBA008DDCCC9B02C0909AFCCF0E94FA119098CD
:100DCA00AB98A998AA9A1A98C7987BDB7FDCCDDBE7
:100DDA00E0918205E03001F50E94521194DCA09165
:100DEA008F05B09190051197A1F40E948F110E946E
:100DFA002412A99AE8EBFBE00E944E11AA9A1A98CB
:100E0A00E0EDF7E00E944E110E942412A9980EDC30
:100E1A00FFCF0E942912DCCFE0E0E093820537DEA3
:100E2A00AD9A0E948F11AD9832DE0E948F112FDE8B
:100E3A000E948F112CDE0E9489110E947E110E944D
:100E4A0033110E2E0E947E110E94BC110E2A0E949E
:100E5A007E11E3E0F0E00E94E614E02921F0ADDD26
:100E6A000E947211EACFE0E0E0939305E0939405C3
:100E7A000E948F110E94521146DCE1E0F0E00895D1
:100E8A00E1E0F0E00E942E12E0917A05F0917B05F4
:100E9A0008951A930A931F9AE4E00E9404111F9876
:100EAA00002E012A79F4A091A105B091A205159707
:100EBA0019F4D0DB0E943312A1EAB5E00E947D103A
:100ECA000E9439120E94451261F40E943312A091C5
:100EDA007805B0917905119711F40E944A120E947F
:100EEA005212E0917E05F0917F05099119910895BA
:100EFA001A930A931F9AE6E00E9404111F98002E83
:100F0A00012A79F4A091A105B091A205159719F4C7
:100F1A00D3DB0E943312A1EAB5E00E947D100E9441
:100F2A0039120E94451261F40E943312A091780589
:100F3A00B0917905119711F40E944A120E94521237
:100F4A00E0917E05F0917F05BBC31A930A931F9A1D
:100F5A00E1E00E9404111F98002E012A81F40E94E8
:100F6A00521146DB0E948F11E0E0E0937C05E0938A
:100F7A007D05E1E0F0E0E0937605F09377050E94C5
:100F8A00451281F4A0917605B0917705119731F455
:100F9A009DDBE0E0E0937605E0937705E1E0F0E0A1
:100FAA000E945912E0917C05F0917D0589C30E9447
:100FBA008310E0911405F0911505309729F4E1E0CA
:100FCA00F0E00E945E12C2C0E130A0E0FA07D9F454
:100FDA00AF9A0E9463120E94E11199F0E0E0E09357
:100FEA004605E0934705E0934805E09349050E94CA
:100FFA006E12E2E0F0E00E945E120E947812C9DAF4
:10100A0001C0BDDAA3C0E230A0E0FA0769F40E9489
:10101A007F120E9488123CF0AF980E946E12E3E0A1
:10102A00F0E00E945E1292C0E330A0E0FA0759F4A1
:10103A000E9490123CF0AE9A0E946E12E4E0F0E038
:10104A000E945E1283C0E430A0E0FA0761F40E94B5
:10105A00901244F0AE98C49A0E946E12E5E0F0E055
:10106A000E945E1273C0E530A0E0FA0769F40E949C
:10107A007F120E9499123CF0C4980E946E12E6E018
:10108A00F0E00E945E1262C0E630A0E0FA07E9F4DE
:10109A000E946312E0E00E94E114E02989F0E3E093
:1010AA00F0E00E945E12E5E1F0E060E070E0E093BB
:1010BA003605F0933705609338057093390504C0F7
:1010CA00E7E0F0E00E945E1241C0E730A0E0FA07D4
:1010DA0059F40E9490123CF0AD9A0E946E12E8E018
:1010EA00F0E00E945E1232C0E830A0E0FA0759F43C
:1010FA000E9490123CF0AD980E946E12E9E0F0E076
:10110A000E945E1223C0E930A0E0FA0751F40E945F
:10111A007F120E94A11224F0EAE0F0E00E945E121F
:10112A0015C0EA30A0E0FA0789F40E946E12E0E0E6
:10113A00E0931405E093150501E010E0E1E0F0E02A
:10114A00EC15FD0519F4E2E0F0E06F01B8C20E9467
:10115A008310E0911605F0911705309771F4E0E0DD
:10116A00E0934A05E0934B05E0934C05E0934D0567
:10117A000E94A9120E94AE124DC0E130A0E0FA0707
:10118A0089F40E94B3120E9499120CF0AC9A0E9440
:10119A00B3120E9488122CF01C9A0E94A9120E9473
:1011AA00BC1238C0E230A0E0FA0759F40E94B31228
:1011BA000E94C1122CF01C980E94A9120E94C91206
:1011CA0029C0E330A0E0FA0749F40E94CE122CF0BD
:1011DA00AC980E94A9120E94D7121CC0E430A0E069
:1011EA00FA0741F40E94CE1224F0E6E1F5E00E94EB
:1011FA00DC1210C0E530A0E0FA0761F40E94A912DF
:10120A000E94E112E3E0F0E0EC15FD0519F4E4E0D8
:10121A00F0E06F0154C20E948310E0911805F0912A
:10122A001905309791F4E0E0E0934E05E0934F05FD
:10123A00E0935005E09351050E94E812C398AA98DA
:10124A00E8E1F5E00E94AE12FFC0E130A0E0FA0743
:10125A0069F40E94F2120E94A1123CF01A9A0E94AA
:10126A00E812E8E1F5E00E94BC12EEC0E230A0E02C
:10127A00FA07A1F40E94F011119721F40E94FB12BF
:10128A000E9402130E94091344F0A99AC79A0E9465
:10129A00E812E8E1F5E00E94C912D6C0E330A0E006
:1012AA00FA07A1F40E94F2120E94121374F0A9988C
:1012BA00A5E8B5E0ED91FD913197FE93EE930E947A
:1012CA00E812E8E1F5E00E94D712BEC0E430A0E0DF
:1012DA00FA0739F40E94E812E8E1F5E00E94DC120C
:1012EA00B3C0E530A0E0FA0781F40E94F2120E942E
:1012FA001A1354F0C39A1A980E942213E8E1F5E0EF
:10130A00A6E0B0E0A083B1839FC0E630A0E0FA0770
:10131A0071F40E94091354F0919AAB9A0E94E81250
:10132A00E8E1F5E0A7E0B0E0A083B1838DC0E73043
:10133A00A0E0FA07D1F5A0E00599A1E00E942813E0
:10134A000E942D130E943311E02111F00E94FB121A
:10135A000E942D130E9438110E2EE0912E05F09155
:10136A002F050E94F2120E94D7140E940415E02150
:10137A0031F0C39891980E94E8120E943213E091CA
:10138A003005F09131050E94F2120E94D7140E9492
:10139A00621554F4C3989198A5EAB5E00E947D10AD
:1013AA000E9422130E9432134FC0E830A0E0FA07CD
:1013BA00C9F40E9439130E943811E02131F0AB9828
:1013CA00AA9A0E94E8120E9402130E9439130E94EC
:1013DA003311E02131F0AB98AA9A0E94E8120E94D8
:1013EA00021332C0E930A0E0FA07A1F40E94F21217
:1013FA00A630E0E0BE07E0E08E07E0E09E074CF092
:10140A00C7980E94E812E8E1F5E0AAE0B0E0A083FC
:10141A00B1831AC0EA30A0E0FA07B1F4E0918B0573
:10142A00F0918C05E0938D05F0938E050E94E812E9
:10143A00E8E1F5E00E94E112E5E0F0E0EC15FD05D7
:10144A0019F4E6E0F0E06F013AC10E948310E091DE
:10145A001A05F0911B05309781F4E0E0E0935205FC
:10146A00E0935305E0935405E09355050E94421317
:10147A000E94AE120E94CB1022C1E130A0E0FA070E
:10148A0029F40E9442130E94BC1219C1E230A0E062
:10149A00FA0769F40E944E130E9412133CF0A898AE
:1014AA00C19AC09A0E9442130E94C91208C1E3302D
:1014BA00A0E0FA07F1F5A0918D05B0918E050E9482
:1014CA0038110E2E0E94F0110E9433110E22A091A3
:1014DA009D05B0919E050E9433110E22A091A70589
:1014EA00B091A8050E943811E021E1F423D8A09117
:1014FA00A705B091A8050E9433110E2ED601E7E088
:10150A00F0E00E94F214E02121F0A9EAB5E00E947D
:10151A007D10C8D8E1E0F0E0E0939D05F0939E05C8
:10152A00CF9906C0EAE1F5E00E94D7120E9457134C
:10153A00C6C0E430A0E0FA0761F4C8D8E0E0E0935E
:10154A009D05E0939E05C59A0E9442130E94DC12F3
:10155A00B6C0E530A0E0FA07F1F50E944E13E9E1C2
:10156A00F0E060E070E00E940C150E94CD110E229E
:10157A00A0E0C599A1E0E1E00E94E114E02139F080
:10158A00C69A0E944213A6E0B0E0A083B1830E94EB
:10159A004E13E2E3F0E060E070E00E940C150E2EBC
:1015AA000E94C611E02131F00E9457130E949F0247
:1015BA0065D8C598A0E0C599A1E00E942813A0E0CB
:1015CA00CF99A1E00E94E11129F080D8EAE1F5E083
:1015DA000E94D71274C0E630A0E0FA0791F40E9484
:1015EA004E13AA31E0E0BE07E0E08E07E0E09E0776
:1015FA003CF0C29A0E944213A7E0B0E0A083B183F4
:10160A005EC0E730A0E0FA0769F40E944E130E9418
:10161A00C1123CF0C0980E944213A8E0B0E0A08337
:10162A00B1834DC0E830A0E0FA0769F40E944E1376
:10163A000E94C1123CF0C5980E944213A9E0B0E092
:10164A00A083B1833CC0E930A0E0FA0759F40E94B4
:10165A0061133CF0C2980E944213AAE0B0E0A08352
:10166A00B1832DC0EA30A0E0FA0759F40E94611351
:10167A003CF0C1980E944213ABE0B0E0A083B18372
:10168A001EC0EB30A0E0FA07D1F40E944E130E946C
:10169A001A13ACF00E9442130E94E112A2E3B5E0D1
:1016AA00ED91FD913197FE93EE93E7E0F0E0EC15B2
:1016BA00FD0529F4E8E0F0E06F010E946A13F801E1
:1016CA000991199108950E9484130E9433110E946E
:1016DA008913E02129F06BDCE0930005F093010502
:1016EA000E9490130E9495130E949A130E94A213BB
:1016FA00E02129F02CDDE0930205F09303050E9416
:10170A00A7130E9495130E949A130E94AC130E9479
:10171A00A213E02129F07FDDE0930405F09305058B
:10172A00E0910605F09107050E9495130E949A130D
:10173A000E94AC13D601E5E0F0E00E94EC140E948E
:10174A00EB110E94EC140E220E94A213E02129F050
:10175A007CDEE0930605F09307050895AA24BB24CE
:10176A000E94BD130E946A1308950E94C4130E2E8C
:10177A00D6010E94BC11E02199F00E9429120E9410
:10178A00C6130E94D5130E94DA130E94E013E021C7
:10179A0039F00E94E6130E94F413E3E0F0E06F01CF
:1017AA000E94C4130E2E0E9490130E94FA13D601AF
:1017BA00E4E0F0E00E94E614E021A9F00E94291278
:1017CA000E94C6130E94D5130E94DA130E94E013E6
:1017DA00E02149F00E94E6130E940014E5E0F0E0DF
:1017EA006F010E94F4130E94C4130E2E0E949013DC
:1017FA000E94FA130E94A713A1E0B0E00E94E61427
:10180A000E94EB110E94E614E021B9F00E9429120D
:10181A000E94C6130E94D5130E94DA130E94E01395
:10182A00E02159F00E94E6130E9400140E94071456
:10183A000E94F413E7E0F0E06F010E94C4130E2E39
:10184A000E9490130E94FA130E94A7130E94FA138F
:10185A00E0910605F09107050E94FA13D601E8E027
:10186A00F0E00E94F214E02111F40C94FD0C0E94A5
:10187A00291206DB0E942E1268DB0E9459120E946E
:10188A004202E0938705F0938805D5010E9438113A
:10189A000E2EA0918205E1E00E94E1140E220E9420
:1018AA00D5130E94DA130E94E013E02111F40C947C
:1018BA00FD0C0E940E140E9414140E2E0E9419147C
:1018CA0031F0E7DAE0937E05F0937F05F4CFA0913B
:1018DA009F05B091A005119739F4049B03C00E949B
:1018EA002014FBCF0E9420140E9426144CF00E9460
:1018FA00311434F0E1E0EA93E3E0EA930E947B03D7
:10190A00C6D80E942614B4F00E94311434F0E1E0E3
:10191A00EA93E5E0EA930E947B030E940E140E9478
:10192A0014140E94361431F0E3DAE0937E05F09342
:10193A007F05F5CFE0E0F0E0FA93EA930E9488038E
:10194A00F60131966F01E8EEF3E0EC15FD051CF4A3
:10195A00E4E6F0E06F010E94E611E3E0F0E00E94A5
:10196A00FE140E2E0E94A213E02141F00E94F413ED
:10197A000E943E140E9407140E9444140E94E61119
:10198A00139744F00E9478120E9400140E940714D0
:10199A000E9444140E94E611129734F00E947812B1
:1019AA000E9407140E9444140E94E6110E945E15C8
:1019BA0024F40E9478120E944414D0DE0E944B1430
:1019CA00A0919B05B0919C050E94E6140E2EA09151
:1019DA009F05B091A0050E943311E02149F00E94B1
:1019EA00DE020E948602E0E0E0938205CC24DD2438
:1019FA000895D601E8E0F0E00E94E6140E2ED50123
:101A0A000E943311E02119F0E1E0F0E05F01D60114
:101A1A00E9E0F0E00E94F2140E2ED5010E94331183
:101A2A00E02111F40C94A50D042C0528A1F40E94C0
:101A3A002A11A0915E05B0915F0580916005909191
:101A4A0061050E94511421F0AEE6B5E00E947D10B6
:101A5A00E1E0F0E02F01062C0728A1F40E942A11E8
:101A6A00A0916205B0916305809164059091650526
:101A7A000E94511421F0A0E7B5E00E947D10E1E038
:101A8A00F0E03F01A0E00499A1E00E942813D401EC
:101A9A000E9433110E22D601EBE0F0E00E94F81406
:101AAA00E021C9F00E94541421F0A2E7B5E00E9497
:101ABA007D100E94311464F0A8E2B5E00E947D1006
:101ACA00ADEAB5E00E947D100E944B140E945E149C
:101ADA00E1E0F0E04F01A0E00499A1E00E942813A0
:101AEA00D4010E9433110E2A0E941914C9F00E94CF
:101AFA00541421F0A2E7B5E00E947D100E9431142F
:101B0A0064F0A8E2B5E00E947D10ADEAB5E00E945B
:101B1A007D100E944B140E945E14E1E0F0E04F0138
:101B2A00D2010E9438110E2ED3010E9438110E22C2
:101B3A00D4010E943811E02119F0E1E0F0E05F01E0
:101B4A0008950C2C0D2851F5E0918205E03019F426
:101B5A000E94291223C00E9452110E9488030E94E7
:101B6A007D140E9483140E943E140E9407140E944E
:101B7A0044140E947D140E946B03E0912805F091A1
:101B8A002905FA93EA93E091AD05F091AE05FA932F
:101B9A00EA930E949504E1E0F0E06F010895E0E025
:101BAA00EBBBEABBE8BBEFEFE7BBE0E0E5BBEFEF7F
:101BBA00E4BBE0E0E2BBEFEFE1BBE0E0E3B9EFEF6B
:101BCA00E2B9E0E0E0936200E0936100E09365002F
:101BDA00EFE1E0936400E0E0E0BFE7E0E3BFE0E0CC
:101BEA00E2BFE1BFEFBDEEBDEDBDECBDE7BDE6BDB9
:101BFA00EBBDEABDE9BDE8BDE0937900E09378006A
:101C0A00E5BDE4BDE3BDE0938B00E0938A00E09379
:101C1A008900E0938800E0938100E0938000E093DC
:101C2A008700E0938600E0938500E0938400E093C8
:101C3A008300E0938200E0936A00EABFE9BFE1E033
:101C4A00E7BFE0E0E0937D00EBB9E8E1EAB9E6E05E
:101C5A00E0939500E0E0E0939000E7E6E9B9E0E080
:101C6A00E0939B00E8E1E0939A00E6E0E0939D00B0
:101C7A00E0E0E0939800E7E6E0939900E0E8E8B94D
:101C8A00E0E0E0BDE6B9EDB9E09374007894E0E4F1
:101C9A00FFE10E944E11E0EDF7E00E944E110E9412
:101CAA0090100E94D110EA939AD0CC24DD24E0E06F
:101CBA00E0935605E0935705E0935805E0935905DC
:101CCA000E94BD13AA24BB24E4E6F0E060E070E0C1
:101CDA00E0935A05F0935B0560935C0570935D058C
:101CEA000E94F413EEE3F0E060E070E0E0936A052E
:101CFA00F0936B0560936C0570936D050E948911D2
:101D0A00ECEDF0E0E0933005F0933105E7E3F0E025
:101D1A00E0932E05F0932F05E6E4F0E0E093340516
:101D2A00F0933505E0E0E0932A05E0932B050E9445
:101D3A007D140E948314E0E0E0938005E09381051E
:101D4A00E0939705E0939805E0939905E0939A0547
:101D5A00E0939D05E0939E050E9433120E94201491
:101D6A00E0E0E093A305E093A405E093A505E093E2
:101D7A00A6050E940112E093AB05E093AC05E0E0F2
:101D8A00E093AD05E093AE05E0938205E093740518
:101D9A00E0937505E0937605E0937705E09378057F
:101DAA00E0937905E0937A05E0937B05E0937C055F
:101DBA00E0937D050E940E140C2C0D2821F40E943C
:101DCA00D3066F01F9CF0E942702BBDE7CDC11DE4D
:101DDA00CCDCF9CFFFCF5F9BFECFECB108955D9BC2
:101DEA00FECFE881ECB921960895EA81EA93F7DFFC
:101DFA00A881B9810E947D102396089526970E9492
:101E0A00671510E0AC85BD85E0E0F0E0ED93FC934A
:101E1A00EA89FB893196EA8BFB8B3197E4912E2F65
:101E2A00E03011F40C943010E12FE03039F425320F
:101E3A0011F411E002C00E9492140CC1E130A9F41D
:101E4A00253219F40E94921404C112E040E000E025
:101E5A002D3211F401E0FEC02B3211F44BE2FAC02C
:101E6A00203211F440E2F6C002C0E23039F450E008
:101E7A0013E0203311F40068EDC004C0E33011F020
:101E8A000C942F10203310F02A3308F007C0AAE070
:101E9A005A9F502DE22FE0535E0FDCC0E22FE3364B
:101EAA0049F40E949B14E889F989A481AA930E94A3
:101EBA00A114CFC0E33741F40E949B140E94A914D5
:101ECA000E945F101E2F0AC0E03761F40E949B1423
:101EDA000E94A9140E9469101E2F086002600F77E1
:101EEA0030E035C0E43611F0E93611F4046002C07E
:101EFA00E53731F4ECE8F0E0EE83FF8315E00DC03E
:101F0A00E83511F4086004C0E83711F00C942E107B
:101F1A00E6E9F0E0EE83FF8314E002FF14C00E94BA
:101F2A009B140E94B314AB85AA233AF4EA85FB8575
:101F3A000E94CB14EA87FB874DE2403011F01F5F05
:101F4A0001C00B7F04C00E949B140E94B31400FDC1
:101F5A0011C0151778F407FF08C002FF04C00B7FF1
:101F6A00242F115001C020E301C020E20E949214E4
:101F7A005150EFCF312F01FF17C03030A1F003FFCE
:101F8A0006C0EE81FF812591EE83FF8305C0AE81F5
:101F9A00BF812D91AE83BF830E949214503009F005
:101FAA0051503150EACF4BC020E3EE81FF810E94AD
:101FBA005A15E887F987EE81FF813296EE83FF830F
:101FCA00E885F985AA85BB85AE17BF0750F02F5F54
:101FDA00A885B985EA85FB85EA1BFB0BEA87FB879F
:101FEA00EFCF2A3328F003FF02C0295F01C0295D21
:101FFA0004FD1AC0213320F4A885B985119709F484
:10200A0009C0531710F000FF01C013C020E207FFF8
:10201A000BC020E3006102FF07C00B7F4A930E94B6
:10202A00A114503009F051500E949214503009F016
:10203A0051503150A885B985129708F0B5CF00FFE5
:10204A0008C0503031F05150E0E2EA930E94A114E6
:10205A00F8CF10E0DDCEAC85BD850E944C150E94FC
:10206A006E1564960895FF92F82E26971A930A938E
:10207A00DE0114960E94C7148D01E0E0EC83ED8323
:10208A00EE83EF83DE0118960E94C7140E944C1556
:10209A00FA93EA931A930A93EAEFFEE0FA93EA9321
:1020AA00FE013896FA93EA93A9DE198108812896E7
:1020BA00FF900895A991B991EE27FF276D916623A4
:1020CA0011F03196FBCF0895AA27BB27E991F99120
:1020DA000590002011F01196FBCFFD0108950E9492
:1020EA005015EF5FFF4F6F4F7F4F0E9455150895B0
:1020FA00ED91FD913196FE93EE9308951A930A930A
:10210A0000E010E00895E0EDF7E0FA93EA930E9408
:10211A00BB1494980895EAE5EA930E94F40EE5EA5E
:10212A00EA930C94F40EE5E0EA930E94F40EE2E8D6
:10213A00EA930E94F40EE0E0EA930C94F40EE0E3D2
:10214A00EA930C94F40EE0E0EA930C94F40EE4E0C3
:10215A00EA930E94F40EE3E8EA930E94F40EF3CFA6
:10216A00E1E0EA930E94F40E0E94F00E0E94F00E43
:10217A000E94F00E0E94F00E0E94F00E0E94F00ED5
:10218A000E94F00E0E94F00E0C94F00EE0E0E09334
:10219A008905E0938A050895E3E0EA930E94F40E24
:1021AA00E0E8EA930E94F40EE2E0EA930E94F40E59
:1021BA00E0E10895E3E2EA930E94F40EE2E8EA938A
:1021CA000E94F40EC0CFE0E9EA930C94F40EEEE913
:1021DA00F0E0FA93EA9380E00E94381022969BCFAF
:1021EA00EA930E94F40EE2E8EA930E94F40EABCF5F
:1021FA00FA93EA9380E00E94381022960895EA93AF
:10220A000E94E1010E94D2010E2F11270895E0E4F5
:10221A00EA930C94F40EE4E0EA930E94F40EE3E8E5
:10222A00EA930E94F40EE0E1EA930C94F40EE0E1E2
:10223A00EA930C94F40EE0E2EA930C94F40E0E94F2
:10224A00F00E0E94F00E0C94F00EE0915605F091FB
:10225A00570560915805709159050895E0E0F0E03E
:10226A000E94E6140895E1E0F0E00E94E614089561
:10227A00EA930E94F40E4FCFEA930E94F40E63CFC2
:10228A00E5E0EA930E94F40EE2E8EA930E94F40E73
:10229A00CECFFA93EA930C94BB14E1E0F0E0FA9300
:1022AA00EA930895E0E9F1E0F4CFE1E0F0E0E093A9
:1022BA009505F09396050895E2E0F0E0E093950520
:1022CA00F093960508950E946B03E3E0F0E0E09333
:1022DA009505F09396051E980895E0939305F0935B
:1022EA0094050895E4E0F0E0E0939505F0939605EF
:1022FA000895A0919305B09194050895E0E0E093C4
:10230A009505E09396050895E0E0E0939305E09340
:10231A009405F4CFE8EEF3E0BCCFE0E0EA87EB8780
:10232A00EC87ED870895E0E0EE83EF83E887E9879D
:10233A000895E5E0F0E0E0939505F0939605089599
:10234A000E2ED801E2E0F0E00E94E6140E2AE3E045
:10235A00F0E00E94E6140E2AE4E0F0E00E94E6149F
:10236A0008950E2AA0919505B09196050895E2E088
:10237A00F0E00E94E6140895AE81BF8188859985B0
:10238A000895A0E0CD99A1E0E0E00E94E11408954B
:10239A000E2EA0E0CD99A1E0E1E00E94E11408959B
:1023AA00EBDFE0EAF6E861E070E00E940C150E2E21
:1023BA00A0E0CF99A1E00895E0E00E94E114E021B5
:1023CA000895A0913205B091330508950E22D601E1
:1023DA00E6E0F0E00895A0919105B0919205089584
:1023EA00E1E00E94E1140E2E0895E1E0F0E0E093AE
:1023FA00A305F093A4050895E0E0E093A705E09310
:10240A00A8050895E0933A05E0933B05E0933C055F
:10241A00E0933D050895A0E00799A1E0E0E00E945D
:10242A00E1140E2E0895AA85BB858C859D85A93E4B
:10243A00E3E0BE07E0E08E07E0E09E070895AA9871
:10244A001A9AE8EBFBE025CF0E949002E0938205FE
:10245A000895E0937A05F0937B050895E0E0E09310
:10246A00A105E093A2050895E0E0E0937E05E093DC
:10247A007F05E1E0F0E0E0937805F09379050895AF
:10248A00E1E0F0E0E017F10708950E946B03E0E055
:10249A00E0937805E09379050895E1E0F0E0E093B0
:1024AA007E05F0937F050895E0937C05F0937D0502
:1024BA000895E0931405F09315050895A0E0CA99CC
:1024CA00A1E0E0E00E94E1140E2EA0E0CB99A1E089
:1024DA000895E0E0E0933605E0933705E093380588
:1024EA00E09339050895E1E0F0E0E0932C05F093DC
:1024FA002D050895A0913605B091370580913805CC
:10250A00909139050895AD33E0E0BE07E0E08E070B
:10251A00E0E09E070895EEDFA531E0E0BE07E0E0C7
:10252A008E07E0E09E070895A932E0E0BE07E0E0EA
:10253A008E07E0E09E070895A230E0E0BE07E0E0E3
:10254A008E07E0E09E070895E0E05CDFE6E1F5E053
:10255A000895A1E0B0E0A083B1830895A0913A055F
:10256A00B0913B0580913C0590913D050895A2E00C
:10257A00B0E0A083B1830895AF31E0E0BE07E0E0A8
:10258A008E07E0E09E070895A3E0B0E0A083B18340
:10259A000895E4DFA333E0E0BE07E0E08E07E0E061
:1025AA009E070895A4E0B0E0A083B1830895A5E052
:1025BA00B0E0A083B1830895A0E0B0E0A083B18326
:1025CA0001E010E00895E0E0E0933E05E0933F0566
:1025DA00E0934005E09341050895A0913E05B0912E
:1025EA003F0580914005909141050895E1E0F0E0B2
:1025FA00E0938B05F0938C05E6CFE8E1F5E0A9E0DE
:10260A00B0E0A083B1830895E8DFAB30E0E0BE0715
:10261A00E0E08E07E0E09E070895A333E0E0BE07FE
:10262A00E0E08E07E0E09E070895A531E0E0BE07EE
:10263A00E0E08E07E0E09E070895E0E0E0938B0576
:10264A00E0938C05C0CFE0E00E94E1140E2E0895BD
:10265A00A0918B05B0918C050895E8E1F5E0A8E01A
:10266A00B0E0A083B1830895B8DFEAE0F0E060E06B
:10267A0070E00E940C150E2EEBCFE0E0E0934205CD
:10268A00E0934305E0934405E0934505EAE1F5E06C
:10269A000895A0914205B091430580914405909117
:1026AA0045050895E0E0E0934205E0934305E09391
:1026BA004405E09345050895ECDFAB30E0E0BE0742
:1026CA00E0E08E07E0E09E070895E0E0E0935E0513
:1026DA00E0935F05E0936005E0936105E09362058E
:1026EA00E0936305E0936405E0936505E09366056E
:1026FA00E0936705E0936805E09369050895A09162
:10270A000005B091010508950E2ED601E0E0F0E033
:10271A000E94EC140895E0910205F09103050895D2
:10272A00A0E0B0E00E94E614EFCF0E22D601E1E06D
:10273A00F0E00E94EC140E220895A0912C05B091AD
:10274A002D0591CDE0910405F09105050895D60176
:10275A00E2E0F0E00E94EC140E22E3E0F0E00E94D6
:10276A00EC140E22E4E0F0E00E94EC140E2208952C
:10277A004424552466247724882499240895BFDFA5
:10278A0072CD0E94450765DE0E94AA078DDE0E946F
:10279A004202E0938705F0938805A091820520CE36
:1027AA00A0917A05B0917B055ECD0E22A0917C05A1
:1027BA00B0917D0558CD0E22A0918705B09188056C
:1027CA0052CD0E944C05E0E0F0E0FA93EA930E94B1
:1027DA008803E0E0E0930005E09301050895E0E056
:1027EA00E0932C05E0932D050895A1E0B0E00E9446
:1027FA00E6140E220895E2E0F5E0A0E0B0E0A0833E
:10280A00B1830895E4E0F5E0A0E0B0E0A083B183ED
:10281A000895E0E0E0937E05E0937F050895A09196
:10282A007E05B0917F051ACDD601EBE0F0E00E945B
:10283A00F214E0210895E0E0E0939F05E093A005FB
:10284A000895E0919B05F0919C05A0912805B0910F
:10285A002905EA17FB070895EAE0F0E0CE16DF063D
:10286A0008950E2ED601EAE0F0E00E94F214E0216B
:10287A000895E0E0E0930005E0930105BCCFE6E0AF
:10288A00F5E0A0E0B0E0A083B1830895E0912805C7
:10289A00F0912905319708950E940C15E2CFD5DCF5
:1028AA00A0916605B09167058091680590916905C8
:1028BA00F3CFFA93EA93E091AD05F091AE05319723
:1028CA00FA93EA930E949504E091A905F091AA056A
:1028DA00FA93EA93E091A505F091A605FA93EA9393
:1028EA00E091AB05F091AC05FA93EA930C94A90434
:1028FA00E0E0E0932805E09329050895EFEFFFEF64
:10290A00E0936E05F0936F05E0937005F0937105FF
:10291A00E0937205F093730508952A93ED85FE8579
:10292A00FA93EA93E989FA8909950895E889F98970
:10293A003497E88BF98B0895ED85FE85FA93EA932F
:10294A00E989FA8909950895A889B98914960E948E
:10295A004C15EE83FF83FA93EA930895A889B989FF
:10296A0014960E944C15EA87FB870895E991F9911C
:10297A00309639F080EA9FE00197F1F7A8953197F0
:10298A00C9F708950024AF0DB01D0895F195E1959A
:10299A00F0400895F09560957095E195FF4F6F4F5F
:1029AA007F4F08956F2F660F660B762F08958B2F32
:1029BA00880F880B982F0895EA17E1E009F0EE27AF
:1029CA000895EA17FB07E1E009F0EE270895EA17F0
:1029DA00FB07E1E009F4EE270895AE17BF07E1E02F
:1029EA000CF4EE270895AE17BF07E1E00CF0EE27CE
:1029FA000895EA17FB07E1E00CF0EE270895AE17F9
:102A0A00BF0786079707E1E00CF4EE270895EA1757
:102A1A00FB0768077907E1E00CF0EE2708957A9F33
:102A2A00702D6B9F700DF89F700DE99F700D6A9F56
:102A3A00602D710DFB9F600D711DE89F600D711D6A
:102A4A008827FA9FF02D610D781FEB9FF00D611D0D
:102A5A00781FEA9FE02DF10D681F781F089504D0B2
:102A6A00DEDF0EF497DF0895E89477FF02C092DF65
:102A7A00689497FF0BC00024A095B0958095909517
:102A8A001196801D901D00F8039400FA0895ED91A7
:102A9A00FC9111970895ED91FD916D917D910895A5
:102AAA007E936E93FE93EE9308950590F491E02D34
:102ABA00089500240A160B060895EA17FB0768070B
:102ACA00790708955A934A933A932A931A930A9341
:102ADA0008955D814C813B812A811981088108957D
:00000001FF
