:0A0000000C949F010C9400000C9476
:10000A0000000C9400000C9400000C9400000C9466
:10001A0000000C9400000C9400000C9400000C9456
:10002A0000000C9400000C9400000C9400000C9446
:10003A0000000C9400000C94EA010C9400000C944B
:10004A0000000C9400000C9400000C9400000C9426
:10005A0000000C9400000C9400000C9400000C9416
:10006A0000000C9400000C9400000C9400000C9406
:10007A0000000C9400000C9400000C9400000C94F6
:10008A0000001027E80364000A00010000100001C4
:10009A0010000100202020202020202020202020C5
:1000AA002020202020202020202020202020202046
:1000BA0020202020202020202020202000496E6996
:1000CA00636A616C697A756A65206D61737A796EA3
:1000DA0065005779637A79737A637A6F6E6F206DE8
:1000EA0061737A796E65004D61737A796E61207AEF
:1000FA0061696E69636A616C697A6F77616E6100C2
:10010A00437A656B616D206E612070726574206739
:10011A0077696E746F77616E7900507261636100FE
:10012A005A616B726563696C656D2077737A79734E
:10013A00746B6965207A6164616E652070756368A5
:10014A00617279004272616B2077796D6167616EC5
:10015A0065676F206369736E69656E696120362011
:10016A0062617200446F7A6F776E696B206B6C659F
:10017A006A7520707265746F77206E696520676F83
:10018A00746F777900446F7A6F776E696B206B6C46
:10019A00656A75206E616B726574656B206E696540
:1001AA0020676F746F77790057796C61637A206D75
:1001BA0061737A796E65206920706F637A656B6105
:1001CA006A2031206D696E757465004F64736C6FB7
:1001DA006E2069207A7265736574756A206B757210
:1001EA0074796E65004D6F6E7465722033206E6986
:1001FA0065206E616369736E616C20706564616C01
:10020A006100437A656B616D206E61207275636867
:10021A00206C616E637563686100506F70726177FC
:10022A002070726574207A2067727A79626B6965C8
:10023A006D2069206E616369736E696A2067757AD9
:10024A00696B005573756E2070726574207A65202B
:10025A00737A637A656B2069206E616369736E696C
:10026A006A2067757A696B0057796D69656E206CCB
:10027A007562206E616B7265632F646F6B72656362
:10028A002067727A7962656B2069206E616369738F
:10029A006E696A2067757A696B004D6F6E74657254
:1002AA002033202D207A64656D6F6E74756A207014
:1002BA007563686172206920706F7477696572640A
:1002CA007A004D6F6E7465722033202D2077797A0B
:1002DA00776F6C207265637A6E696520637A756AD6
:1002EA006E696B207075636861726100202020203E
:1002FA0020202020202020202020202020202020F4
:10030A0020202020202020202020202020202020E3
:10031A002020202020202020202020202020000013
:10032A0001002D4E414E00494E4600000100AF0526
:10033A002A030000F894EE27ECBBF1E0F5BFE5BF15
:10034A00E0936C00F8E1F1BDE1BD8DE0A2E0BB27CE
:10035A00ED938A95E9F780E090E1A0E0B1E0ED93B2
:10036A000197E9F7E6E3F3E085919591009761F04B
:10037A00A591B59105901590BF01F00105900D92D8
:10038A000197E1F7FB01F0CF8BBFEFEFEDBFE0E1A3
:10039A00EEBFC0E0D5E00C94D10D1A930A93E09118
:1003AA009B001E2FE078D9F300919C00E12FEC719D
:1003BA0011F4E02FA3C0F3CFE0919B00E072E1F3C8
:1003CA00E881E0939C00219608956A937A93AA9310
:1003DA00BA93EA93FA93EFB7EA93A6E3B5E00E94D9
:1003EA007110A6E4B5E00E947110AAE3B5E00E947C
:1003FA007110AAE4B5E00E947110AEE3B5E00E9464
:10040A007110AEE4B5E00E947110A2E4B5E00E945A
:10041A007110A2E5B5E00E947110AEE5B5E00E9448
:10042A007110A2E6B5E00E947110A6E6B5E00E943E
:10043A007110E991EFBFF991E991B991A991799177
:10044A0069911895C99B12C0949AE0918305F0911D
:10045A008405309751F4A5E8B5E00E947A10E1E0EE
:10046A00F0E0E0938305F093840506C09498E0E0F9
:10047A00E0938305E093840508951A930A93A09163
:10048A008505B091860517971CF400E010E002C0BC
:10049A0001E010E0A0918505B0918605E7E0F0E063
:1004AA000E94EA140E2EA0E0C999A1E0E0E00E94A1
:1004BA00D914E02911F001E010E001E010E0F801A0
:1004CA001DC00E948010C99B02C0949AFCCF0E9452
:1004DA0085100431E0E01E075CF4C99B06C0C99B85
:1004EA0002C0949AFCCF0E9485100F5F1F4FF1CF74
:1004FA00E4E1F0E0E0938505F0938605099119910E
:10050A0008950E948D100E9495100E94A1100E94C9
:10051A00A510E0E001C2E0E0E09382050E948D10A0
:10052A000E94A9100E94A1100E94B210E0938205B5
:10053A00F0E00895A9E8B5E00E947A100E94C81078
:10054A000E948D100E94CE10E7C10E948D100E9459
:10055A00DC100E94E5100E94E910E7E10E94F21007
:10056A000E94E510E7ECF0E0BAC00E948D10EBE1C2
:10057A000E94F2100E94E510E1EFF0E0B0C00E9484
:10058A008D10ECE10E94F2100E94E510EAE0F1E021
:10059A00A6C00E948D100E94DC100E94E5100E94E5
:1005AA00E910E8E00E94F2100E94E510E4E2F1E0AE
:1005BA0096C00E948D10EBE10E94F2100E94E51095
:1005CA00EEEAF0E00E94FA100E948D10E6E20E9424
:1005DA00F2100E94E510EAE2F1E081C00E948D105B
:1005EA00E2E20E94F2100E94E510EEE4F1E077C028
:1005FA00E881F981309751F40E948D100E94DC1035
:10060A000E94E510EEE6F1E00E94FA10A881B98195
:10061A00119759F40E948D10E5E20E94F2100E948F
:10062A00E510EFE8F1E00E94FA105EC00E948D101A
:10063A00E5E20E94F2100E94E510E2EBF1E04FC001
:10064A000E948D10ECE10E94F2100E94E510E5ED87
:10065A00F1E045C00E948D10EFE10E94F2100E9465
:10066A00E510EFEEF1E03BC00E948D10EAE10E9436
:10067A00F2100E94E510ECE0F2E031C00E948D1009
:10068A00EBE20E94F2100E94E510E4E2F2E027C0D9
:10069A000E948D10E7E20E94F2100E94E510EDE43C
:1006AA00F2E01DC00E948D10E4E30E94F2100E9445
:1006BA00E510E2E7F2E013C00E948D10ECE20E941E
:1006CA00F2100E94E510ECECF2E009C00E948D10D5
:1006DA00E5E30E94F2100E94E510E6EFF2E0FA93D9
:1006EA00EA9380E00E943510229608951A930A939D
:1006FA001F9AEA81EA9360DEEB810E9401111F983A
:10070A00198108811FC10E946115E0E0E09382050A
:10071A0010E0AC81BD81119711F00C94D3030E94B3
:10072A008D100E94A9100E9409110E94B210F0E0D7
:10073A00E0933405F09335050E948D100E940D1147
:10074A000E9419110E94B2102E2F3327022E032A5B
:10075A0039F4E1E0F0E0E0939105F093920505C0E9
:10076A00E0E0E0939105E09392050E948D100E94CB
:10077A000D110E941D110E94B2102E2F3327022E36
:10078A00032A39F4E1E0F0E0E0938F05F093900555
:10079A0005C0E0E0E0938F05E09390050E948D107C
:1007AA000E94A910E0E5EA930E94F10E0E94B2109D
:1007BA00F0E0E0932E05F0932F05AC81BD811197EF
:1007CA0071F50E948D100E94A910E0E6EA930E943A
:1007DA00F10EE1E0EA930E94F10E0E9421110E94BB
:1007EA0021110E94ED0E0E94ED0E10E00E94ED0E06
:1007FA001E2FE12FF0E00E94CF14A0916A05B0915C
:10080A006B0580916C0590916D050E942C15E09303
:10081A005605F09357056093580570935905E09172
:10082A009705F0919805309791F41A93E2E0EA93CC
:10083A005DDFE1E0F0E0E0939705F0939805E09141
:10084A005605F0915705E0939905F0939A050E9491
:10085A002711A0919905B0919A050E94D4140E947B
:10086A005A1529F0E0E0E0939705E0939805D60140
:10087A000E9430110E2EAC81BD810E943511E021FB
:10088A0099F00E948D100E94A910E0E7EA930E9455
:10089A00F10E0E94B210F0E0E0933205F0933305B6
:1008AA00E0939B05F0939C050E9468156FC00E9417
:1008BA008D100E9495100E9409110E94A510E091C6
:1008CA0034050E943A110E949510E0E50E943E11FB
:1008DA00E0912E050E943A110E949510E0E60E94CE
:1008EA003E11E7E00E943A110E949510E0E70E944B
:1008FA003E11E5E00E943A110E9442110E9419112C
:10090A000E94A510E1E00E943A110E9442110E9441
:10091A001D110E94A510E1E0EA930E94F10E0895CC
:10092A000E948D100E949510E0E80E943E11EA8113
:10093A000E943A110E9442110E9409110E94A510B8
:10094A000E94A510249608950E948D100E94951069
:10095A000E9419110E94A510E0E0EA930E94F10E8C
:10096A000E948D100E9495100E941D110E94A510D0
:10097A00E0E0EA930E94F10E0E948D100E9442115B
:10098A000E94A1100E94A5100E94A5102696089503
:10099A00959A08950E9480101F9AE4E6F0E00E945A
:1009AA004B11FBDC0E2F1127002E012A21F40E9485
:1009BA004F111EDEF2DC1F9898C2E0E00799E1E0D1
:1009CA00E03011F00C943E05E0919505F091960502
:1009DA00309739F47BDE1D9A0E9454110E945711F8
:1009EA0047C0E130A0E0FA0731F41D980E94541183
:1009FA000E945E113DC0E230A0E0FA0741F41E9A5F
:100A0A00069903C00E94651101C02EDE31C0E33091
:100A1A00A0E0FA07D1F4069B17C058DEA09193050F
:100A2A00B0919405129721F4E3E0F0E00E946F116F
:100A3A00E0919305F0919405309721F4E2E0F0E01B
:100A4A000E946F110E94741113C0E430A0E0FA07EB
:100A5A0079F40E947B11129729F40E9454110E9482
:100A6A005E1106C0E1E0F0E00E946F110E94801161
:100A7A0009C0E13039F4E4DD1D981E980E94861100
:100A8A000E948C11E0919305F0919405089528979E
:100A9A000E945F1540E050E020E030E00E94C8105C
:100AAA000E948F110E94951101E010E00E948011AE
:100ABA00E8E0F0E0CE16DF061CF00E94801102C0CA
:100ACA000E949B11D8010E9435110E94A2110E9416
:100ADA00B3110E9430110E94B3110E9435110E9475
:100AEA00B3110E94B9110E94B311E3E0F0E00E9431
:100AFA00DE140E94B311E4E0F0E00E94DE14E02963
:100B0A0011F40C94CF06D8010E9435110E94A2114B
:100B1A00E02911F40C944106F801E130A0E0FA074B
:100B2A0051F5D9010E9435110E2ED601E8E0F0E008
:100B3A000E94EA140E220E94BE11E0E2FEE460E086
:100B4A0070E00E940415E0211E2ED601E8E0F0E0D4
:100B5A000E94F0140E2E0E94BE11E8EBFBE060E04A
:100B6A0070E00E940415E021E12921F002E010E082
:100B7A000E94951181C0E230A0E0FA0739F50E947F
:100B8A00C3110E94CA11E02911F0C5981AC00E9427
:100B9A00D211E1E00E94D914E02159F0CBDC78DDD2
:100BAA00C598E1EAF6E861E070E0EE83FF836887C2
:100BBA0079870E94D2110E94DE1139F087DD0E94E6
:100BCA009511C298C69803E010E056C0E330A0E041
:100BDA00FA0711F00C943006A091A305B091A40570
:100BEA00119711F5A0913405B0913505E6E4F0E0CE
:100BFA000E94F0140E2E0E94E311E1E0F0E00E9440
:100C0A00F6140E94E8110E94EA140E220E94ED11C5
:100C1A000E943011E02109F0A89AC798909AE0E062
:100C2A00E093A305E093A405A0E0CC99A1E00E947B
:100C3A00F211A091A305B091A4050E943011E02100
:100C4A0049F0909A0E94F7110E94FE110E94041224
:100C5A0004E010E011C0E430A0E0FA0769F4029958
:100C6A0006C0E1E0F0E0E093A705F093A805CC996F
:100C7A0003C0909805E010E0E0E00799E1E0E03079
:100C8A0011F00C94A306E0919505F0919605309722
:100C9A0099F40E940D12A0E00399A1E00E94DE11CE
:100CAA0049F040E050E012DD1D9A0E948F110E9427
:100CBA00571101C042C041C0E130A0E0FA0799F4DF
:100CCA000E940D12A0E0C199A1E00E94DE1149F034
:100CDA000E9415122CF01D980E945E110E948F111D
:100CEA0001C02BC02AC0E230A0E0FA07A9F4079994
:100CFA0011C00E9415126CF01E9A069909C021E0D3
:100D0A0030E00E9495110E9465110E948F1101C066
:100D1A00ABDC01C012C011C0E330A0E0FA0739F41D
:100D2A00069B04C0D3DC1E980E94741106C0E430EE
:100D3A00A0E0FA0711F40E949B1113C0E13089F474
:100D4A00C5DC7EDC1D981E980E9480110E948F11BE
:100D5A00042E052A31F441E050E0ABEAB5E00E94E6
:100D6A007A10EA85FB856C857D85EF5FFF4F6F4FB3
:100D7A007F4FEA87FB876C877D87EE81FF816885D5
:100D8A007985EF5FFF4F6F4F7F4FEE83FF83688751
:100D9A00798798CE0E9466152E96089588DDC8999F
:100DAA0002C01CDCFCCF92DCF3DD90DCCEDBF2DD92
:100DBA008DDCCC9B02C0909AFCCF0E94F7119098D0
:100DCA00AB98A998AA9A1A98C7987BDB7FDCCDDBE7
:100DDA00E0918205E03001F50E944F1194DCA09168
:100DEA008F05B09190051197A1F40E948C110E9471
:100DFA002112A99AE8EBFBE00E944B11AA9A1A98D1
:100E0A00E0EDF7E00E944B110E942112A9980EDC36
:100E1A00FFCF0E942612DCCFE0E0E093820537DEA6
:100E2A00AD9A0E948C11AD9832DE0E948C112FDE91
:100E3A000E948C112CDE0E9486110E947B110E9456
:100E4A0030110E2E0E947B110E94B9110E2A0E94A7
:100E5A007B11E3E0F0E00E94DE14E02921F0ADDD31
:100E6A000E946F11EACFE0E0E0939305E0939405C6
:100E7A000E948C110E944F1146DCE1E0F0E00895D7
:100E8A00E1E0F0E00E942B12E0917A05F0917B05F7
:100E9A0008951A930A931F9AE4E00E9401111F9879
:100EAA00002E012A79F4A091A105B091A205159707
:100EBA0019F4D0DB0E943012A1EAB5E00E947A1040
:100ECA000E9436120E94421261F40E943012A091CE
:100EDA007805B0917905119711F40E9447120E9482
:100EEA004F12E0917E05F0917F05099119910895BD
:100EFA001A930A931F9AE6E00E9401111F98002E86
:100F0A00012A79F4A091A105B091A205159719F4C7
:100F1A00D3DB0E943012A1EAB5E00E947A100E9447
:100F2A0036120E94421261F40E943012A091780592
:100F3A00B0917905119711F40E9447120E944F123D
:100F4A00E0917E05F0917F05B8C31A930A931F9A20
:100F5A00E1E00E9401111F98002E012A81F40E94EB
:100F6A004F1146DB0E948C11E0E0E0937C05E09390
:100F7A007D05E1E0F0E0E0937605F09377050E94C5
:100F8A00421281F4A0917605B0917705119731F458
:100F9A009DDBE0E0E0937605E0937705E1E0F0E0A1
:100FAA000E945612E0917C05F0917D0586C30E944D
:100FBA008010E0911405F0911505309729F4E1E0CD
:100FCA00F0E00E945B12C2C0E130A0E0FA07D9F457
:100FDA00AF9A0E9460120E94DE1199F0E0E0E0935D
:100FEA004605E0934705E0934805E09349050E94CA
:100FFA006B12E2E0F0E00E945B120E947512C9DAFD
:10100A0001C0BDDAA3C0E230A0E0FA0769F40E9489
:10101A007C120E9485123CF0AF980E946B12E3E0AA
:10102A00F0E00E945B1292C0E330A0E0FA0759F4A4
:10103A000E948D123CF0AE9A0E946B12E4E0F0E03E
:10104A000E945B1283C0E430A0E0FA0761F40E94B8
:10105A008D1244F0AE98C49A0E946B12E5E0F0E05B
:10106A000E945B1273C0E530A0E0FA0769F40E949F
:10107A007C120E9496123CF0C4980E946B12E6E021
:10108A00F0E00E945B1262C0E630A0E0FA07E9F4E1
:10109A000E946012E0E00E94D914E02989F0E3E09E
:1010AA00F0E00E945B12E5E1F0E060E070E0E093BE
:1010BA003605F0933705609338057093390504C0F7
:1010CA00E7E0F0E00E945B1241C0E730A0E0FA07D7
:1010DA0059F40E948D123CF0AD9A0E946B12E8E01E
:1010EA00F0E00E945B1232C0E830A0E0FA0759F43F
:1010FA000E948D123CF0AD980E946B12E9E0F0E07C
:10110A000E945B1223C0E930A0E0FA0751F40E9462
:10111A007C120E949E1224F0EAE0F0E00E945B1228
:10112A0015C0EA30A0E0FA0789F40E946B12E0E0E9
:10113A00E0931405E093150501E010E0E1E0F0E02A
:10114A00EC15FD0519F4E2E0F0E06F01B5C20E946A
:10115A008010E0911605F0911705309771F4E0E0E0
:10116A00E0934A05E0934B05E0934C05E0934D0567
:10117A000E94A6120E94AB124FC0E130A0E0FA070B
:10118A0089F40E94B0120E9496120CF0AC9A0E9446
:10119A00B0120E9485122CF01C9A0E94A6120E947C
:1011AA00B9123AC0E230A0E0FA0769F40E94B0121C
:1011BA000E94BE123CF01C980E94A612A3E0B0E066
:1011CA00A083B18329C0E330A0E0FA0749F40E9462
:1011DA00C6122CF0AC980E94A6120E94CF121CC014
:1011EA00E430A0E0FA0741F40E94C61224F0E6E1D6
:1011FA00F5E00E94D41210C0E530A0E0FA0761F4CD
:10120A000E94A6120E94D912E3E0F0E0EC15FD0557
:10121A0019F4E4E0F0E06F014FC20E948010E091FF
:10122A001805F0911905309791F4E0E0E0934E0526
:10123A00E0934F05E0935005E09351050E94E012B8
:10124A00C398AA98E8E1F5E00E94AB12F8C0E13031
:10125A00A0E0FA0769F40E94EA120E949E123CF08A
:10126A001A9A0E94E012E8E1F5E00E94B912E7C07A
:10127A00E230A0E0FA0769F40E94ED11119721F417
:10128A000E94F3120E94FA120E9401130CF0A99A0A
:10129A00D6C0E330A0E0FA07A1F40E94EA120E9445
:1012AA000A1374F0A998A5E8B5E0ED91FD9131977C
:1012BA00FE93EE930E94E012E8E1F5E00E94CF125D
:1012CA00BEC0E430A0E0FA0739F40E94E012E8E177
:1012DA00F5E00E94D412B3C0E530A0E0FA0781F429
:1012EA000E94EA120E94121354F0C39A1A980E949A
:1012FA001A13E8E1F5E0A6E0B0E0A083B1839FC04D
:10130A00E630A0E0FA0771F40E94011354F0919AB2
:10131A00AB9A0E94E012E8E1F5E0A7E0B0E0A08312
:10132A00B1838DC0E730A0E0FA07D1F5A0E00599B6
:10133A00A1E00E9420130E9425130E943011E0218F
:10134A0011F00E94F3120E9425130E9435110E2EED
:10135A00E0912E05F0912F050E94EA120E94CF1407
:10136A000E94FC14E02131F0C39891980E94E01287
:10137A000E942A13E0913005F09131050E94EA1289
:10138A000E94CF140E945A1554F4C3989198A5EA62
:10139A00B5E00E947A100E941A130E942A134FC0C5
:1013AA00E830A0E0FA07C9F40E9431130E9435110F
:1013BA00E02131F0AB98AA9A0E94E0120E94FA1238
:1013CA000E9431130E943011E02131F0AB98AA9AA1
:1013DA000E94E0120E94FA1232C0E930A0E0FA0735
:1013EA00A1F40E94EA12A630E0E0BE07E0E08E0710
:1013FA00E0E09E074CF0C7980E94E012E8E1F5E0B1
:10140A00AAE0B0E0A083B1831AC0EA30A0E0FA07EC
:10141A00B1F4E0918B05F0918C05E0938D05F09382
:10142A008E050E94E012E8E1F5E00E94D912E5E09B
:10143A00F0E0EC15FD0519F4E6E0F0E06F013CC1BF
:10144A000E948010E0911A05F0911B05309781F4F3
:10145A00E0E0E0935205E0935305E0935405E093EE
:10146A0055050E943A130E94AB120E94C81024C16B
:10147A00E130A0E0FA0729F40E943A130E94B91257
:10148A001BC1E230A0E0FA0779F40E9446130E94D9
:10149A000A134CF0A898C19AC09A0E943A13A3E082
:1014AA00B0E0A083B18308C1E330A0E0FA07F1F508
:1014BA00A0918D05B0918E050E9435110E2E0E94C5
:1014CA00ED110E9430110E22A0919D05B0919E054A
:1014DA000E9430110E22A091A705B091A8050E9482
:1014EA003511E021E1F426D8A091A705B091A8050D
:1014FA000E9430110E2ED601E7E0F0E00E94EA14B5
:10150A00E02121F0A9EAB5E00E947A10CBD8E1E007
:10151A00F0E0E0939D05F0939E05CF9906C0EAE1BD
:10152A00F5E00E94CF120E944F13C6C0E430A0E03B
:10153A00FA0761F4CBD8E0E0E0939D05E0939E05BD
:10154A00C59A0E943A130E94D412B6C0E530A0E0B0
:10155A00FA07F1F50E944613E9E1F0E060E070E075
:10156A000E9404150E94CA110E22A0E0C599A1E0AA
:10157A00E1E00E94D914E02139F0C69A0E943A1398
:10158A00A6E0B0E0A083B1830E944613E2E3F0E054
:10159A0060E070E00E9404150E2E0E94C311E02143
:1015AA0031F00E944F130E949F0268D8C598A0E0AC
:1015BA00C599A1E00E942013A0E0CF99A1E00E9462
:1015CA00DE1129F083D8EAE1F5E00E94CF1274C057
:1015DA00E630A0E0FA0791F40E944613AA31E0E04F
:1015EA00BE07E0E08E07E0E09E073CF0C29A0E9448
:1015FA003A13A7E0B0E0A083B1835EC0E730A0E071
:10160A00FA0769F40E9446130E94BE123CF0C09881
:10161A000E943A13A8E0B0E0A083B1834DC0E8303D
:10162A00A0E0FA0769F40E9446130E94BE123CF039
:10163A00C5980E943A13A9E0B0E0A083B1833CC0E8
:10164A00E930A0E0FA0759F40E9459133CF0C29815
:10165A000E943A13AAE0B0E0A083B1832DC0EA3019
:10166A00A0E0FA0759F40E9459133CF0C1980E946D
:10167A003A13ABE0B0E0A083B1831EC0EB30A0E028
:10168A00FA07D1F40E9446130E941213ACF00E948A
:10169A003A130E94D912A2E3B5E0ED91FD91319778
:1016AA00FE93EE93E7E0F0E0EC15FD0529F4E8E09F
:1016BA00F0E06F010E946213F801099119910895EF
:1016CA000E947C130E9430110E948113E02129F0AC
:1016DA006EDCE0930005F09301050E9488130E94D6
:1016EA008D130E9492130E949A13E02129F02FDD94
:1016FA00E0930205F09303050E949F130E948D1345
:10170A000E9492130E94A4130E949A13E02129F0C6
:10171A0084DDE0930405F0930505E0910605F09158
:10172A0007050E948D130E9492130E94A413D601EA
:10173A00E5E0F0E00E94E4140E94E8110E94E4143B
:10174A000E220E949A13E02129F07ADEE093060520
:10175A00F09307050895AA24BB240E94B5130E949A
:10176A00621308950E94BC130E2ED6010E94B9116D
:10177A00E02199F00E9426120E94BE130E94CD1306
:10178A000E94D2130E94D813E02139F00E94DE137E
:10179A000E94EC13E3E0F0E06F010E94BC130E2EEE
:1017AA000E9488130E94F213D601E4E0F0E00E943E
:1017BA00DE14E021A9F00E9426120E94BE130E94A4
:1017CA00CD130E94D2130E94D813E02149F00E943F
:1017DA00DE130E94F813E5E0F0E06F010E94EC13BB
:1017EA000E94BC130E2E0E9488130E94F2130E94BC
:1017FA009F13A1E0B0E00E94DE140E94E8110E944B
:10180A00DE14E021B9F00E9426120E94BE130E9443
:10181A00CD130E94D2130E94D813E02159F00E94DE
:10182A00DE130E94F8130E94FF130E94EC13E7E0F4
:10183A00F0E06F010E94BC130E2E0E9488130E94D2
:10184A00F2130E949F130E94F213E0910605F09191
:10185A0007050E94F213D601E8E0F0E00E94EA14BC
:10186A00E02111F40C94FA0C0E94261209DB0E9462
:10187A002B126BDB0E9456120E944202E0938705EC
:10188A00F0938805D5010E9435110E2EA09182058C
:10189A00E1E00E94D9140E220E94CD130E94D213B5
:1018AA000E94D813E02111F40C94FA0C0E94061439
:1018BA000E940C140E2E0E94111431F0EADAE09301
:1018CA007E05F0937F05F4CFA0919F05B091A00506
:1018DA00119739F4049B03C00E941814FBCF0E948D
:1018EA0018140E941E144CF00E94291434F0E1E0EE
:1018FA00EA93E3E0EA930E947B03C9D80E941E148C
:10190A00B4F00E94291434F0E1E0EA93E5E0EA93A6
:10191A000E947B030E9406140E940C140E942E143B
:10192A0031F0E6DAE0937E05F0937F05F5CFE0E04B
:10193A00F0E0FA93EA930E948803F60131966F0168
:10194A00E8EEF3E0EC15FD051CF4E4E6F0E06F01C7
:10195A000E94E311E3E0F0E00E94F6140E2E0E94CA
:10196A009A13E02141F00E94EC130E9436140E945F
:10197A00FF130E943C140E94E311139744F00E9443
:10198A0075120E94F8130E94FF130E943C140E94D1
:10199A00E311129734F00E9475120E94FF130E94FD
:1019AA003C140E94E3110E94561524F40E947512F9
:1019BA000E943C14D0DE0E944314A0919B05B09172
:1019CA009C050E94DE140E2EA0919F05B091A005E1
:1019DA000E943011E02149F00E94DE020E94860234
:1019EA00E0E0E0938205CC24DD240895D601E8E006
:1019FA00F0E00E94DE140E2ED5010E943011E02183
:101A0A0019F0E1E0F0E05F01D601E9E0F0E00E94C0
:101A1A00EA140E2ED5010E943011E02111F40C9423
:101A2A00A20D042C0528A1F40E942711A0915E059D
:101A3A00B0915F0580916005909161050E944914FB
:101A4A0021F0AEE6B5E00E947A10E1E0F0E02F0165
:101A5A00062C0728A1F40E942711A0916205B091D3
:101A6A00630580916405909165050E94491421F0EF
:101A7A00A0E7B5E00E947A10E1E0F0E03F01A0E0C3
:101A8A000499A1E00E942013D4010E9430110E2271
:101A9A00D601EBE0F0E00E94F014E021C9F00E94C8
:101AAA004C1421F0A2E7B5E00E947A100E94291492
:101ABA0064F0A8E2B5E00E947A10ADEAB5E00E94AF
:101ACA007A100E9443140E945614E1E0F0E04F019C
:101ADA00A0E00499A1E00E942013D4010E943011D1
:101AEA000E2A0E941114C9F00E944C1421F0A2E798
:101AFA00B5E00E947A100E94291464F0A8E2B5E0C9
:101B0A000E947A10ADEAB5E00E947A100E9443144E
:101B1A000E945614E1E0F0E04F01D2010E94351113
:101B2A000E2ED3010E9435110E22D4010E943511C6
:101B3A00E02119F0E1E0F0E05F0108950C2C0D2896
:101B4A0051F5E0918205E03019F40E94261223C073
:101B5A000E944F110E9488030E9475140E947B14F0
:101B6A000E9436140E94FF130E943C140E947514AE
:101B7A000E946B03E0912805F0912905FA93EA93F4
:101B8A00E091AD05F091AE05FA93EA930E949504AF
:101B9A00E1E0F0E06F010895E0E0EBBBEABBE8BBEF
:101BAA00EFEFE7BBE0E0E5BBEFEFE4BBE0E0E2BB71
:101BBA00EFEFE1BBE0E0E3B9EFEFE2B9E0E0E09399
:101BCA006200E0936100E0936500EFE1E093640056
:101BDA00E0E0E0BFE7E0E3BFE0E0E2BFE1BFEFBD86
:101BEA00EEBDEDBDECBDE7BDE6BDEBBDEABDE9BDB1
:101BFA00E8BDE0937900E0937800E5BDE4BDE3BD7C
:101C0A00E0938B00E0938A00E0938900E0938800D8
:101C1A00E0938100E0938000E0938700E0938600E0
:101C2A00E0938500E0938400E0938300E0938200D0
:101C3A00E0936A00EABFE9BFE1E0E7BFE0E0E093D2
:101C4A007D00EBB9E8E1EAB9E6E0E0939500E0E06F
:101C5A00E0939000E7E6E9B9E0E0E0939B00E8E171
:101C6A00E0939A00E6E0E0939D00E0E0E0939800BC
:101C7A00E7E6E0939900E0E8E8B9E0E0E0BDE6B91C
:101C8A00EDB9E09374007894E0E4FFE10E944B110F
:101C9A00E0EDF7E00E944B110E948D100E94CE10D9
:101CAA00EA939AD0CC24DD24E0E0E0935605E09351
:101CBA005705E0935805E09359050E94B513AA24E5
:101CCA00BB24E4E6F0E060E070E0E0935A05F093AC
:101CDA005B0560935C0570935D050E94EC13EEE36F
:101CEA00F0E060E070E0E0936A05F0936B056093C2
:101CFA006C0570936D050E948611ECEDF0E0E0939F
:101D0A003005F0933105E7E3F0E0E0932E05F09318
:101D1A002F05E6E4F0E0E0933405F0933505E0E0C2
:101D2A00E0932A05E0932B050E9475140E947B1408
:101D3A00E0E0E0938005E0938105E0939705E09366
:101D4A009805E0939905E0939A05E0939D05E09341
:101D5A009E050E9430120E941814E0E0E093A30549
:101D6A00E093A405E093A505E093A6050E94FE1161
:101D7A00E093AB05E093AC05E0E0E093AD05E093BA
:101D8A00AE05E0938205E0937405E0937505E09350
:101D9A007605E0937705E0937805E0937905E0937B
:101DAA007A05E0937B05E0937C05E0937D050E942C
:101DBA0006140C2C0D2821F40E94D3066F01F9CFCA
:101DCA000E942702BBDE7CDC11DECCDCF9CFFFCF20
:101DDA005F9BFECFECB108955D9BFECFE881ECB925
:101DEA0021960895EA81EA93F7DFA881B9810E94D2
:101DFA007A102396089526970E945F1510E0AC8505
:101E0A00BD85E0E0F0E0ED93FC93EA89FB89319629
:101E1A00EA8BFB8B3197E4912E2FE03011F40C946E
:101E2A002D10E12FE03039F4253211F411E002C00F
:101E3A000E948A140CC1E130A9F4253219F40E94D7
:101E4A008A1404C112E040E000E02D3211F401E0EE
:101E5A00FEC02B3211F44BE2FAC0203211F440E2F8
:101E6A00F6C002C0E23039F450E013E0203311F436
:101E7A000068EDC004C0E33011F00C942C1020333C
:101E8A0010F02A3308F007C0AAE05A9F502DE22F1B
:101E9A00E0535E0FDCC0E22FE33649F40E9493144C
:101EAA00E889F989A481AA930E949914CFC0E337DB
:101EBA0041F40E9493140E94A1140E945C101E2FE8
:101ECA000AC0E03761F40E9493140E94A1140E9490
:101EDA0066101E2F086002600F7730E035C0E436C6
:101EEA0011F0E93611F4046002C0E53731F4ECE888
:101EFA00F0E0EE83FF8315E00DC0E83511F40860C9
:101F0A0004C0E83711F00C942B10E6E9F0E0EE83F8
:101F1A00FF8314E002FF14C00E9493140E94AB14C2
:101F2A00AB85AA233AF4EA85FB850E94C314EA87A3
:101F3A00FB874DE2403011F01F5F01C00B7F04C0E8
:101F4A000E9493140E94AB1400FD11C0151778F477
:101F5A0007FF08C002FF04C00B7F242F115001C0E5
:101F6A0020E301C020E20E948A145150EFCF312FA2
:101F7A0001FF17C03030A1F003FF06C0EE81FF81D8
:101F8A002591EE83FF8305C0AE81BF812D91AE837B
:101F9A00BF830E948A14503009F051503150EACF61
:101FAA004BC020E3EE81FF810E945215E887F98732
:101FBA00EE81FF813296EE83FF83E885F985AA8553
:101FCA00BB85AE17BF0750F02F5FA885B985EA8594
:101FDA00FB85EA1BFB0BEA87FB87EFCF2A3328F046
:101FEA0003FF02C0295F01C0295D04FD1AC0213325
:101FFA0020F4A885B985119709F409C0531710F080
:10200A0000FF01C013C020E207FF0BC020E30061FC
:10201A0002FF07C00B7F4A930E949914503009F0BF
:10202A0051500E948A14503009F051503150A885FD
:10203A00B985129708F0B5CF00FF08C0503031F0CB
:10204A005150E0E2EA930E949914F8CF10E0DDCEF5
:10205A00AC85BD850E9444150E9466156496089554
:10206A00FF92F82E26971A930A93DE0114960E947D
:10207A00BF148D01E0E0EC83ED83EE83EF83DE0194
:10208A0018960E94BF140E944415FA93EA931A9371
:10209A000A93E7EFFEE0FA93EA93FE013896FA9381
:1020AA00EA93A9DE198108812896FF900895A991DB
:1020BA00B991EE27FF276D91662311F03196FBCF78
:1020CA000895AA27BB27E991F9910590002011F0FC
:1020DA001196FBCFFD0108950E944815EF5FFF4F4F
:1020EA006F4F7F4F0E944D150895ED91FD913196E6
:1020FA00FE93EE9308951A930A9300E010E0089570
:10210A00E0EDF7E0FA93EA930E94B31494980895E5
:10211A00EAE5EA930E94F10EE5EAEA930C94F10EDD
:10212A00E5E0EA930E94F10EE2E8EA930E94F10EDA
:10213A00E0E0EA930C94F10EE0E3EA930C94F10EDA
:10214A00E0E0EA930C94F10EE4E0EA930E94F10EC7
:10215A00E3E8EA930E94F10EF3CFE1E0EA930E94EA
:10216A00F10E0E94ED0E0E94ED0E0E94ED0E0E94ED
:10217A00ED0E0E94ED0E0E94ED0E0E94ED0E0E94E1
:10218A00ED0E0C94ED0EE0E0E0938905E0938A05EC
:10219A000895E3E0EA930E94F10EE0E8EA930E94D0
:1021AA00F10EE2E0EA930E94F10EE0E10895E3E223
:1021BA00EA930E94F10EE2E8EA930E94F10EC0CF80
:1021CA00E0E9EA930C94F10EEEE9F0E0FA93EA936F
:1021DA0080E00E94351022969BCFEA930E94F10E6E
:1021EA00E2E8EA930E94F10EABCFFA93EA9380E019
:1021FA000E94351022960895EA930E94E1010E94F6
:10220A00D2010E2F11270895E0E4EA930C94F10EFF
:10221A00E4E0EA930E94F10EE3E8EA930E94F10EE9
:10222A00E0E1EA930C94F10EE0E1EA930C94F10EEA
:10223A00E0E2EA930C94F10E0E94ED0E0E94ED0E7C
:10224A000C94ED0EE0915605F091570560915805F2
:10225A00709159050895E0E0F0E00E94DE140895B7
:10226A00E1E0F0E00E94DE140895EA930E94F10E84
:10227A004FCFEA930E94F10E63CFE5E0EA930E9402
:10228A00F10EE2E8EA930E94F10ECECFFA93EA93B6
:10229A000C94B314E1E0F0E0FA93EA930895E0E9CC
:1022AA00F1E0F4CFE1E0F0E0E0939505F0939605D4
:1022BA000895E2E0F0E0E0939505F093960508951D
:1022CA000E946B03E3E0F0E0E0939505F093960536
:1022DA001E980895E0939305F09394050895E4E019
:1022EA00F0E0E0939505F09396050895A091930583
:1022FA00B09194050895E0E0E0939505E093960582
:10230A000895E0E0E0939305E0939405F4CFE8EEB6
:10231A00F3E0BCCFE0E0EA87EB87EC87ED8708952E
:10232A00E0E0EE83EF83E887E9870895E5E0F0E0EF
:10233A00E0939505F093960508950E2ED801E2E0F4
:10234A00F0E00E94DE140E2AE3E0F0E00E94DE14C0
:10235A000E2AE4E0F0E00E94DE1408950E2AA0910D
:10236A009505B09196050895E2E0F0E00E94DE142A
:10237A000895AE81BF81888599850895A0E0CD9999
:10238A00A1E0E0E00E94D91408950E2EA0E0CD99B4
:10239A00A1E0E1E00E94D9140895EBDFE0EAF6E853
:1023AA0061E070E00E9404150E2EA0E0CF99A1E032
:1023BA000895E0E00E94D914E0210895A091320521
:1023CA00B091330508950E22D601E6E0F0E00895B3
:1023DA00A0919105B09192050895E1E00E94D91467
:1023EA000E2E0895E1E0F0E0E093A305F093A40532
:1023FA000895E0E0E093A705E093A8050895E09327
:10240A003A05E0933B05E0933C05E0933D050895CA
:10241A00A0E00799A1E0E0E00E94D9140E2E0895E9
:10242A00AA85BB858C859D85A93EE3E0BE07E0E0D1
:10243A008E07E0E09E070895AA981A9AE8EBFBE057
:10244A0025CF0E949002E09382050895E0937A05D1
:10245A00F0937B050895E0E0E093A105E093A205DF
:10246A000895E0E0E0937E05E0937F05E1E0F0E087
:10247A00E0937805F09379050895E1E0F0E0E0173C
:10248A00F10708950E946B03E0E0E0937805E0937A
:10249A0079050895E1E0F0E0E0937E05F0937F0589
:1024AA000895E0937C05F0937D050895E093140563
:1024BA00F09315050895A0E0CA99A1E0E0E00E9412
:1024CA00D9140E2EA0E0CB99A1E00895E0E0E093A4
:1024DA003605E0933705E0933805E093390508950A
:1024EA00E1E0F0E0E0932C05F0932D050895A0912A
:1024FA003605B091370580913805909139050895D0
:10250A00AD33E0E0BE07E0E08E07E0E09E07089505
:10251A00EEDFA531E0E0BE07E0E08E07E0E09E07CF
:10252A000895A932E0E0BE07E0E08E07E0E09E07EA
:10253A000895A230E0E0BE07E0E08E07E0E09E07E3
:10254A000895E0E05CDFE6E1F5E00895A1E0B0E09F
:10255A00A083B1830895A0913A05B0913B0580917B
:10256A003C0590913D050895A2E0B0E0A083B183B7
:10257A000895AF31E0E0BE07E0E08E07E0E09E0795
:10258A000895E9DFA333E0E0BE07E0E08E07E0E06C
:10259A009E070895A4E0B0E0A083B1830895A5E062
:1025AA00B0E0A083B1830895A0E0B0E0A083B18336
:1025BA0001E010E00895E0E0E0933E05E0933F0576
:1025CA00E0934005E09341050895A0913E05B0913E
:1025DA003F0580914005909141050895E1E0F0E0C2
:1025EA00E0938B05F0938C05E6CFE8E1F5E0A9E0EE
:1025FA00B0E0A083B1830895E8DFAB30E0E0BE0726
:10260A00E0E08E07E0E09E070895A333E0E0BE070E
:10261A00E0E08E07E0E09E070895A531E0E0BE07FE
:10262A00E0E08E07E0E09E070895E0E0E0938B0586
:10263A00E0938C05C0CFE0E00E94D9140E2E0895D5
:10264A00A0918B05B0918C050895E8E1F5E0A8E02A
:10265A00B0E0A083B1830895B8DFEAE0F0E060E07B
:10266A0070E00E9404150E2EEBCFE0E0E0934205E5
:10267A00E0934305E0934405E0934505EAE1F5E07C
:10268A000895A0914205B091430580914405909127
:10269A0045050895E0E0E0934205E0934305E093A1
:1026AA004405E09345050895ECDFAB30E0E0BE0752
:1026BA00E0E08E07E0E09E070895E0E0E0935E0523
:1026CA00E0935F05E0936005E0936105E09362059E
:1026DA00E0936305E0936405E0936505E09366057E
:1026EA00E0936705E0936805E09369050895A09172
:1026FA000005B091010508950E2ED601E0E0F0E044
:10270A000E94E4140895E0910205F09103050895EA
:10271A00A0E0B0E00E94DE14EFCF0E22D601E1E085
:10272A00F0E00E94E4140E220895A0912C05B091C5
:10273A002D0596CDE0910405F09105050895D60181
:10274A00E2E0F0E00E94E4140E22E3E0F0E00E94EE
:10275A00E4140E22E4E0F0E00E94E4140E2208954C
:10276A004424552466247724882499240895BFDFB5
:10277A0077CD0E9445076ADE0E94AA0792DE0E9470
:10278A004202E0938705F0938805A091820525CE41
:10279A00A0917A05B0917B0563CD0E22A0917C05AC
:1027AA00B0917D055DCD0E22A0918705B091880577
:1027BA0057CD0E944C05E0E0F0E0FA93EA930E94BC
:1027CA008803E0E0E0930005E09301050895E0E066
:1027DA00E0932C05E0932D050895A1E0B0E00E9456
:1027EA00DE140E220895E2E0F5E0A0E0B0E0A08356
:1027FA00B1830895E4E0F5E0A0E0B0E0A083B183FE
:10280A000895E0E0E0937E05E0937F050895A091A6
:10281A007E05B0917F051FCDD601EBE0F0E00E9466
:10282A00EA14E0210895E0E0E0939F05E093A00513
:10283A000895E0919B05F0919C05A0912805B0911F
:10284A002905EA17FB070895EAE0F0E0CE16DF064D
:10285A0008950E2ED601EAE0F0E00E94EA14E02183
:10286A000895E0E0E0930005E0930105BCCFE6E0BF
:10287A00F5E0A0E0B0E0A083B1830895E0912805D7
:10288A00F0912905319708950E940415E2CFDADC08
:10289A00A0916605B09167058091680590916905D8
:1028AA00F3CFFA93EA93E091AD05F091AE05319733
:1028BA00FA93EA930E949504E091A905F091AA057A
:1028CA00FA93EA93E091A505F091A605FA93EA93A3
:1028DA00E091AB05F091AC05FA93EA930C94A90444
:1028EA00E0E0E0932805E09329050895EFEFFFEF74
:1028FA00E0936E05F0936F05E0937005F093710510
:10290A00E0937205F093730508952A93ED85FE8589
:10291A00FA93EA93E989FA8909950895E889F98980
:10292A003497E88BF98B0895ED85FE85FA93EA933F
:10293A00E989FA8909950895A889B98914960E949E
:10294A004415EE83FF83FA93EA930895A889B98917
:10295A0014960E944415EA87FB870895E991F99134
:10296A00309639F080EA9FE00197F1F7A895319700
:10297A00C9F708950024AF0DB01D0895F195E195AA
:10298A00F0400895F09560957095E195FF4F6F4F6F
:10299A007F4F08956F2F660F660B762F08958B2F42
:1029AA00880F880B982F0895EA17E1E009F0EE27BF
:1029BA000895EA17FB07E1E009F0EE270895EA1700
:1029CA00FB07E1E009F4EE270895AE17BF07E1E03F
:1029DA000CF4EE270895AE17BF07E1E00CF0EE27DE
:1029EA000895EA17FB07E1E00CF0EE270895AE1709
:1029FA00BF0786079707E1E00CF4EE270895EA1768
:102A0A00FB0768077907E1E00CF0EE2708957A9F43
:102A1A00702D6B9F700DF89F700DE99F700D6A9F66
:102A2A00602D710DFB9F600D711DE89F600D711D7A
:102A3A008827FA9FF02D610D781FEB9FF00D611D1D
:102A4A00781FEA9FE02DF10D681F781F089504D0C2
:102A5A00DEDF0EF497DF0895E89477FF02C092DF75
:102A6A00689497FF0BC00024A095B0958095909527
:102A7A001196801D901D00F8039400FA0895ED91B7
:102A8A00FC9111970895ED91FD916D917D910895B5
:102A9A007E936E93FE93EE9308950590F491E02D44
:102AAA00089500240A160B060895EA17FB0768071B
:102ABA00790708955A934A933A932A931A930A9351
:102ACA0008955D814C813B812A811981088108958D
:00000001FF
