:100000000C949F010C9400000C9400000C940000D0
:100010000C9400000C9400000C9400000C94000060
:100020000C9400000C9400000C9400000C94000050
:100030000C9400000C9400000C9400000C94000040
:100040000C94EA010C9400000C9400000C94000045
:100050000C9400000C9400000C9400000C94000020
:100060000C9400000C9400000C9400000C94000010
:100070000C9400000C9400000C9400000C94000000
:100080000C9400000C9400000C9400001027E8036E
:1000900064000A000100001000011000010020208F
:1000A0002020202020202020202020202020202050
:1000B0002020202020202020202020202020202040
:1000C00020202020202000496E69636A616C697AD3
:1000D000756A65206D61737A796E65005779637A08
:1000E00079737A637A6F6E6F206D61737A796E655A
:1000F000004D61737A796E61207A61696E69636A15
:10010000616C697A6F77616E6100437A656B616DCE
:10011000206E612070726574206777696E746F77E6
:10012000616E79005072616361005A616B72656340
:10013000696C656D2077737A7973746B6965207A61
:100140006164616E652070756368617279004272E6
:10015000616B2077796D6167616E65676F20636998
:10016000736E69656E696120362062617200446F4A
:100170007A6F776E696B206B6C656A75207072653B
:10018000746F77206E696520676F746F77790044AC
:100190006F7A6F776E696B206B6C656A75206E6124
:1001A0006B726574656B206E696520676F746F771D
:1001B000790057796C61637A206D61737A796E6525
:1001C000206920706F637A656B616A2031206D69E8
:1001D0006E757465004F64736C6F6E2069207A725F
:1001E00065736574756A206B757274796E65004D00
:1001F0006F6E7465722033206E6965206E6163696D
:10020000736E616C20706564616C6100437A656B2C
:10021000616D206E612072756368206C616E63751C
:1002200063686100506F707261772070726574202E
:100230007A2067727A79626B69656D2069206E61D8
:100240006369736E696A2067757A696B00557375A7
:100250006E2070726574207A6520737A637A656B9C
:100260002069206E616369736E696A2067757A69B7
:100270006B0057796D69656E206C7562206E616BDD
:100280007265632F646F6B7265632067727A79623F
:10029000656B2069206E616369736E696A2067759A
:1002A0007A696B004D6F6E7465722033202D207A51
:1002B00064656D6F6E74756A207075636861722015
:1002C0006920706F7477696572647A004D6F6E741F
:1002D00065722033202D2077797A776F6C207265D4
:1002E000637A6E696520637A756A6E696B207075D2
:1002F00063686172610020202020202020202020BF
:1003000020202020202020202020202020202020ED
:1003100020202020202020202020202020202020DD
:100320002020202020202020000001002D4E414EC2
:1003300000494E4600000100AF052A030000F89472
:10034000EE27ECBBF1E0F5BFE5BFE0936C00F8E110
:10035000F1BDE1BD8DE0A2E0BB27ED938A95E9F701
:1003600080E090E1A0E0B1E0ED930197E9F7E6E3EA
:10037000F3E085919591009761F0A591B591059075
:100380001590BF01F00105900D920197E1F7FB0177
:10039000F0CF8BBFEFEFEDBFE0E1EEBFC0E0D5E007
:1003A0000C94CF0D1A930A93E0919B001E2FE078D6
:1003B000D9F300919C00E12FEC7111F4E02FA3C060
:1003C000F3CFE0919B00E072E1F3E881E0939C00C1
:1003D000219608956A937A93AA93BA93EA93FA932B
:1003E000EFB7EA93A6E3B5E00E946F10A6E4B5E08C
:1003F0000E946F10AAE3B5E00E946F10AAE4B5E076
:100400000E946F10AEE3B5E00E946F10AEE4B5E05D
:100410000E946F10A2E4B5E00E946F10A2E5B5E063
:100420000E946F10AEE5B5E00E946F10A2E6B5E045
:100430000E946F10A6E6B5E00E946F10E991EFBF31
:10044000F991E991B991A991799169911895C99B0F
:1004500012C0949AE0918305F0918405309751F48D
:10046000A5E8B5E00E947810E1E0F0E0E0938305B4
:10047000F093840506C09498E0E0E0938305E09350
:10048000840508951A930A93A0918505B091860575
:1004900017971CF400E010E002C001E010E0A0910A
:1004A0008505B0918605E7E0F0E00E94ED140E2E80
:1004B000A0E0C999A1E0E0E00E94DC14E02911F07D
:1004C00001E010E001E010E0F8011DC00E947E1084
:1004D000C99B02C0949AFCCF0E9483100431E0E0D3
:1004E0001E075CF4C99B06C0C99B02C0949AFCCF4E
:1004F0000E9483100F5F1F4FF1CFE4E1F0E0E09323
:100500008505F09386050991199108950E948B1035
:100510000E9493100E949F100E94A310E0E001C26D
:10052000E0E0E09382050E948B100E94A7100E94D9
:100530009F100E94B010E0938205F0E00895A9E8B2
:10054000B5E00E9478100E94C6100E948B100E9495
:10055000CC10E7C10E948B100E94DA100E94E310B9
:100560000E94E710E7E10E94F0100E94E310E7EC20
:10057000F0E0BAC00E948B10EBE10E94F0100E94E4
:10058000E310E1EFF0E0B0C00E948B10ECE10E94BC
:10059000F0100E94E310EAE0F1E0A6C00E948B1088
:1005A0000E94DA100E94E3100E94E710E8E00E9427
:1005B000F0100E94E310E4E2F1E096C00E948B107C
:1005C000EBE10E94F0100E94E310EEEAF0E00E94DE
:1005D000F8100E948B10E6E20E94F0100E94E310D7
:1005E000EAE2F1E081C00E948B10E2E20E94F0108A
:1005F0000E94E310EEE4F1E077C0E881F9813097E2
:1006000051F40E948B100E94DA100E94E310EEE673
:10061000F1E00E94F810A881B981119759F40E9465
:100620008B10E5E20E94F0100E94E310EFE8F1E089
:100630000E94F8105EC00E948B10E5E20E94F0104C
:100640000E94E310E2EBF1E04FC00E948B10ECE15E
:100650000E94F0100E94E310E5EDF1E045C00E9419
:100660008B10EFE10E94F0100E94E310EFEEF1E03A
:100670003BC00E948B10EAE10E94F0100E94E31040
:10068000ECE0F2E031C00E948B10EBE20E94F0102F
:100690000E94E310E4E2F2E027C00E948B10E7E240
:1006A0000E94F0100E94E310EDE4F2E01DC00E94F1
:1006B0008B10E4E30E94F0100E94E310E2E7F2E006
:1006C00013C00E948B10ECE20E94F0100E94E31015
:1006D000ECECF2E009C00E948B10E5E30E94F01000
:1006E0000E94E310E6EFF2E0FA93EA9380E00E94C2
:1006F0003310229608951A930A931F9AEA81EA9377
:1007000060DEEB810E94FF101F98198108811FC1D4
:100710000E946415E0E0E093820510E0AC81BD81A9
:10072000119711F00C94D3030E948B100E94A71014
:100730000E9407110E94B010F0E0E0933405F0939E
:1007400035050E948B100E940B110E9417110E9408
:10075000B0102E2F3327022E032A39F4E1E0F0E007
:10076000E0939105F093920505C0E0E0E0939105D8
:10077000E09392050E948B100E940B110E941B11A6
:100780000E94B0102E2F3327022E032A39F4E1E005
:10079000F0E0E0938F05F093900505C0E0E0E09372
:1007A0008F05E09390050E948B100E94A710E0E552
:1007B000EA930E94EF0E0E94B010F0E0E0932E0545
:1007C000F0932F05AC81BD81119771F50E948B10BC
:1007D0000E94A710E0E6EA930E94EF0EE1E0EA93A0
:1007E0000E94EF0E0E941F110E941F110E94EB0E2B
:1007F0000E94EB0E10E00E94EB0E1E2FE12FF0E0A6
:100800000E94D214A0916A05B0916B0580916C058D
:1008100090916D050E942F15E0935605F0935705B2
:100820006093580570935905E0919705F0919805EC
:10083000309791F41A93E2E0EA935DDFE1E0F0E0B3
:10084000E0939705F0939805E0915605F0915705D0
:10085000E0939905F0939A050E942511A0919905BE
:10086000B0919A050E94D7140E945D1529F0E0E02E
:10087000E0939705E0939805D6010E942E110E2E65
:10088000AC81BD810E943311E02199F00E948B1050
:100890000E94A710E0E7EA930E94EF0E0E94B010BA
:1008A000F0E0E0933205F0933305E0939B05F0937D
:1008B0009C050E946B156FC00E948B100E949310C4
:1008C0000E9407110E94A310E09134050E94381184
:1008D0000E949310E0E50E943C11E0912E050E94D9
:1008E00038110E949310E0E60E943C11E7E00E945C
:1008F00038110E949310E0E70E943C11E5E00E944D
:1009000038110E9440110E9417110E94A310E1E0CB
:100910000E9438110E9440110E941B110E94A310D6
:10092000E1E0EA930E94EF0E08950E948B100E946E
:100930009310E0E80E943C11EA810E9438110E9465
:1009400040110E9407110E94A3100E94A310249638
:1009500008950E948B100E9493100E9417110E940C
:10096000A310E0E0EA930E94EF0E0E948B100E9419
:1009700093100E941B110E94A310E0E0EA930E94D2
:10098000EF0E0E948B100E9440110E949F100E9447
:10099000A3100E94A31026960895959A08950E9488
:1009A0007E101F9AE4E6F0E00E944911FBDC0E2F56
:1009B0001127002E012A21F40E944D111EDEF2DCC7
:1009C0001F9898C2E0E00799E1E0E03011F00C9444
:1009D0003E05E0919505F0919605309739F47BDE60
:1009E0001D9A0E9452110E94551147C0E130A0E0AB
:1009F000FA0731F41D980E9452110E945C113DC00B
:100A0000E230A0E0FA0741F41E9A069903C00E9462
:100A1000631101C02EDE31C0E330A0E0FA07D1F44B
:100A2000069B17C058DEA0919305B09194051297CC
:100A300021F4E3E0F0E00E946D11E0919305F09164
:100A40009405309721F4E2E0F0E00E946D110E94DD
:100A5000721113C0E430A0E0FA0779F40E94791112
:100A6000129729F40E9452110E945C1106C0E1E025
:100A7000F0E00E946D110E947E1109C0E13039F44E
:100A8000E4DD1D981E980E9484110E948A11E09155
:100A90009305F0919405089528970E94621540E00F
:100AA00050E020E030E00E94C6100E948D110E94AC
:100AB000931101E010E00E947E11E8E0F0E0CE1614
:100AC000DF061CF00E947E1102C00E949911D8011D
:100AD0000E9433110E94A0110E94B1110E942E1198
:100AE0000E94B1110E9433110E94B1110E94B711EE
:100AF0000E94B111E3E0F0E00E94E1140E94B11104
:100B0000E4E0F0E00E94E114E02911F40C94CF0637
:100B1000D8010E9433110E94A011E02911F40C9415
:100B20004106F801E130A0E0FA0751F5D9010E9431
:100B300033110E2ED601E8E0F0E00E94ED140E22F3
:100B40000E94BC11E0E2FEE460E070E00E94071544
:100B5000E0211E2ED601E8E0F0E00E94F3140E2EF4
:100B60000E94BC11E8EBFBE060E070E00E9407151A
:100B7000E021E12921F002E010E00E94931181C000
:100B8000E230A0E0FA0739F50E94C1110E94C811B5
:100B9000E02911F0C5981AC00E94D011E1E00E942E
:100BA000DC14E02159F0CBDC78DDC598E1EAF6E809
:100BB00061E070E0EE83FF83688779870E94D0113F
:100BC0000E94DC1139F087DD0E949311C298C6980B
:100BD00003E010E056C0E330A0E0FA0711F00C94F7
:100BE0003006A091A305B091A405119711F5A0912D
:100BF0003405B0913505E6E4F0E00E94F3140E2EC2
:100C00000E94E111E1E0F0E00E94F9140E94E61177
:100C10000E94ED140E220E94EB110E942E11E02181
:100C200009F0A89AC798909AE0E0E093A305E093B2
:100C3000A405A0E0CC99A1E00E94F011A091A30529
:100C4000B091A4050E942E11E02149F0909A0E94D3
:100C5000F5110E94FC110E94021204E010E011C084
:100C6000E430A0E0FA0769F4029906C0E1E0F0E0A0
:100C7000E093A705F093A805CC9903C0909805E0F0
:100C800010E0E0E00799E1E0E03011F00C94A306F9
:100C9000E0919505F0919605309799F40E940B121A
:100CA000A0E00399A1E00E94DC1149F040E050E08F
:100CB00012DD1D9A0E948D110E94551101C042C083
:100CC00041C0E130A0E0FA0799F40E940B12A0E0C5
:100CD000C199A1E00E94DC1149F00E9413122CF08E
:100CE0001D980E945C110E948D1101C02BC02AC06A
:100CF000E230A0E0FA07A9F4079911C00E9413128C
:100D00006CF01E9A069909C021E030E00E94931110
:100D10000E9463110E948D1101C0ABDC01C012C0A2
:100D200011C0E330A0E0FA0739F4069B04C0D3DC1D
:100D30001E980E94721106C0E430A0E0FA0711F478
:100D40000E94991113C0E13089F4C5DC7EDC1D9846
:100D50001E980E947E110E948D11042E052A31F4E6
:100D600041E050E0ABEAB5E00E947810EA85FB85EF
:100D70006C857D85EF5FFF4F6F4F7F4FEA87FB8765
:100D80006C877D87EE81FF8168857985EF5FFF4FF6
:100D90006F4F7F4FEE83FF836887798798CE0E94DD
:100DA00069152E96089588DDC89902C01CDCFCCF19
:100DB00092DCF3DD90DCCEDBF2DD8DDCCC9B02C07F
:100DC000909AFCCF0E94F5119098AB98A998AA9A96
:100DD0001A98C7987BDB7FDCCDDBE0918205E030A1
:100DE00001F50E944D1194DCA0918F05B091900502
:100DF0001197A1F40E948A110E941F12A99AE8EB90
:100E0000FBE00E944911AA9A1A98E0EDF7E00E94CF
:100E100049110E941F12A9980EDCFFCF0E942412D4
:100E2000DCCFE0E0E093820537DEAD9A0E948A11C4
:100E3000AD9832DE0E948A112FDE0E948A112CDECC
:100E40000E9484110E9479110E942E110E2E0E9480
:100E500079110E94B7110E2A0E947911E3E0F0E0A7
:100E60000E94E114E02921F0ADDD0E946D11EACF6E
:100E7000E0E0E0939305E09394050E948A110E94BC
:100E80004D1146DCE1E0F0E00895E1E0F0E00E9481
:100E90002912E0917A05F0917B0508951A930A933F
:100EA0001F9AE4E00E94FF101F98002E012A79F497
:100EB000A091A105B091A205159719F4D0DB0E946D
:100EC0002E12A1EAB5E00E9478100E9434120E940E
:100ED000401261F40E942E12A0917805B09179051C
:100EE000119711F40E9445120E944D12E0917E0567
:100EF000F0917F050991199108951A930A931F9A09
:100F0000E6E00E94FF101F98002E012A79F4A091BC
:100F1000A105B091A205159719F4D3DB0E942E12FA
:100F2000A1EAB5E00E9478100E9434120E9440129B
:100F300061F40E942E12A0917805B0917905119765
:100F400011F40E9445120E944D12E0917E05F0912D
:100F50007F05B6C31A930A931F9AE1E00E94FF101F
:100F60001F98002E012A81F40E944D1146DB0E9439
:100F70008A11E0E0E0937C05E0937D05E1E0F0E09C
:100F8000E0937605F09377050E94401281F4A091DA
:100F90007605B0917705119731F49DDBE0E0E093A1
:100FA0007605E0937705E1E0F0E00E945412E091CD
:100FB0007C05F0917D0584C30E947E10E0911405AC
:100FC000F0911505309729F4E1E0F0E00E94591204
:100FD000C2C0E130A0E0FA07D9F4AF9A0E945E12D5
:100FE0000E94DC1199F0E0E0E0934605E0934705AC
:100FF000E0934805E09349050E946912E2E0F0E0C1
:101000000E9459120E947312C9DA01C0BDDAA3C04E
:10101000E230A0E0FA0769F40E947A120E9483127B
:101020003CF0AF980E946912E3E0F0E00E94591290
:1010300092C0E330A0E0FA0759F40E948B123CF012
:10104000AE9A0E946912E4E0F0E00E94591283C057
:10105000E430A0E0FA0761F40E948B1244F0AE98ED
:10106000C49A0E946912E5E0F0E00E94591273C030
:10107000E530A0E0FA0769F40E947A120E94941207
:101080003CF0C4980E946912E6E0F0E00E94591218
:1010900062C0E630A0E0FA07E9F40E945E12E0E0E8
:1010A0000E94DC14E02989F0E3E0F0E00E9459128C
:1010B000E5E1F0E060E070E0E0933605F09337059D
:1010C000609338057093390504C0E7E0F0E00E94B2
:1010D000591241C0E730A0E0FA0759F40E948B1280
:1010E0003CF0AD9A0E946912E8E0F0E00E945912CB
:1010F00032C0E830A0E0FA0759F40E948B123CF0AD
:10110000AD980E946912E9E0F0E00E94591223C0F4
:10111000E930A0E0FA0751F40E947A120E949C1272
:1011200024F0EAE0F0E00E94591215C0EA30A0E095
:10113000FA0789F40E946912E0E0E0931405E09355
:10114000150501E010E0E1E0F0E0EC15FD0519F413
:10115000E2E0F0E06F01B3C20E947E10E09116055C
:10116000F0911705309771F4E0E0E0934A05E093C1
:101170004B05E0934C05E0934D050E94A4120E949C
:10118000A9124DC0E130A0E0FA0789F40E94AE1226
:101190000E9494120CF0AC9A0E94AE120E9483122C
:1011A0002CF01C9A0E94A4120E94B71238C0E230A0
:1011B000A0E0FA0759F40E94AE120E94BC122CF073
:1011C0001C980E94A4120E94C41229C0E330A0E01F
:1011D000FA0749F40E94C9122CF0AC980E94A4129C
:1011E0000E94D2121CC0E430A0E0FA0741F40E9431
:1011F000C91224F0E6E1F5E00E94D71210C0E530F4
:10120000A0E0FA0761F40E94A4120E94DC12E3E05D
:10121000F0E0EC15FD0519F4E4E0F0E06F014FC2D9
:101220000E947E10E0911805F0911905309791F415
:10123000E0E0E0934E05E0934F05E0935005E09326
:1012400051050E94E312C398AA98E8E1F5E00E94D4
:10125000A912FFC0E130A0E0FA0769F40E94ED1284
:101260000E949C123CF01A9A0E94E312E8E1F5E019
:101270000E94B712EEC0E230A0E0FA07A1F40E948B
:10128000EB11119721F40E94F6120E94FD120E94A8
:10129000041344F0A99AC79A0E94E312E8E1F5E02A
:1012A0000E94C412D6C0E330A0E0FA07A1F40E9465
:1012B000ED120E940D1374F0A998A5E8B5E0ED9128
:1012C000FD913197FE93EE930E94E312E8E1F5E081
:1012D0000E94D212BEC0E430A0E0FA0739F40E94A6
:1012E000E312E8E1F5E00E94D712B3C0E530A0E0D8
:1012F000FA0781F40E94ED120E94151354F0C39A6C
:101300001A980E941D13E8E1F5E0A6E0B0E0A08382
:10131000B1839FC0E630A0E0FA0771F40E94041385
:1013200054F0919AAB9A0E94E312E8E1F5E0A7E04D
:10133000B0E0A083B1838DC0E730A0E0FA07D1F51B
:10134000A0E00599A1E00E9423130E9428130E94A7
:101350002E11E02111F00E94F6120E9428130E9423
:1013600033110E2EE0912E05F0912F050E94ED1203
:101370000E94D2140E94FF14E02131F0C39891988A
:101380000E94E3120E942D13E0913005F091310587
:101390000E94ED120E94D2140E945D1554F4C3986D
:1013A0009198A5EAB5E00E9478100E941D130E9452
:1013B0002D134FC0E830A0E0FA07C9F40E9434139F
:1013C0000E943311E02131F0AB98AA9A0E94E312F7
:1013D0000E94FD120E9434130E942E11E02131F070
:1013E000AB98AA9A0E94E3120E94FD1232C0E93023
:1013F000A0E0FA07A1F40E94ED12A630E0E0BE07DB
:10140000E0E08E07E0E09E074CF0C7980E94E312F0
:10141000E8E1F5E0AAE0B0E0A083B1831AC0EA30C9
:10142000A0E0FA07B1F4E0918B05F0918C05E09310
:101430008D05F0938E050E94E312E8E1F5E00E942D
:10144000DC12E5E0F0E0EC15FD0519F4E6E0F0E073
:101450006F0135C10E947E10E0911A05F0911B05C5
:10146000309781F4E0E0E0935205E0935305E09378
:101470005405E09355050E943D130E94A9120E9455
:10148000C6101DC1E130A0E0FA0729F40E943D1307
:101490000E94B71214C1E230A0E0FA0761F40E9482
:1014A00049130E940D1334F0A898C19A0E943D136D
:1014B0000E94C41204C1E330A0E0FA07F1F5A09144
:1014C0008D05B0918E050E9433110E2E0E94EB11F6
:1014D0000E942E110E22A0919D05B0919E050E94A2
:1014E0002E110E22A091A705B091A8050E943311DC
:1014F000E021E1F424D8A091A705B091A8050E94AD
:101500002E110E2ED601E7E0F0E00E94ED14E0214E
:1015100021F0A9EAB5E00E947810C9D8E1E0F0E036
:10152000E0939D05F0939E05CF9906C0EAE1F5E0B2
:101530000E94D2120E945213C2C0E430A0E0FA0707
:1015400061F4C9D8E0E0E0939D05E0939E05C59A5B
:101550000E943D130E94D712B2C0E530A0E0FA0706
:10156000F1F50E944913E9E1F0E060E070E00E94CB
:1015700007150E94C8110E22A0E0C599A1E0E1E084
:101580000E94DC14E02139F0C69A0E943D13A6E0C7
:10159000B0E0A083B1830E944913E2E3F0E060E091
:1015A00070E00E9407150E2E0E94C111E02131F05B
:1015B0000E9452130E949F0266D8C598A0E0C59968
:1015C000A1E00E942313A0E0CF99A1E00E94DC11CA
:1015D00029F081D8EAE1F5E00E94D21270C0E6302D
:1015E000A0E0FA0771F40E944913AA31E0E0BE07B7
:1015F000E0E08E07E0E09E071CF0C29A0E945213C2
:101600005EC0E730A0E0FA0769F40E9449130E9427
:10161000BC123CF0C0980E943D13A8E0B0E0A0834B
:10162000B1834DC0E830A0E0FA0769F40E94491385
:101630000E94BC123CF0C5980E943D13A9E0B0E0A6
:10164000A083B1833CC0E930A0E0FA0759F40E94BE
:101650005C133CF0C2980E943D13AAE0B0E0A08366
:10166000B1832DC0EA30A0E0FA0759F40E945C1360
:101670003CF0C1980E943D13ABE0B0E0A083B18381
:101680001EC0EB30A0E0FA07D1F40E9449130E947B
:101690001513ACF00E943D130E94DC12A2E3B5E0EA
:1016A000ED91FD913197FE93EE93E7E0F0E0EC15BC
:1016B000FD0529F4E8E0F0E06F010E946513F801F0
:1016C0000991199108950E947F130E942E110E9482
:1016D0008413E02129F070DCE0930005F09301050C
:1016E0000E948B130E9490130E9495130E949D13D9
:1016F000E02129F031DDE0930205F09303050E941B
:10170000A2130E9490130E9495130E94A7130E9497
:101710009D13E02129F084DDE0930405F093050595
:10172000E0910605F09107050E9490130E94951321
:101730000E94A713D601E5E0F0E00E94E7140E94A2
:10174000E6110E94E7140E220E949D13E02129F069
:1017500081DEE0930605F09307050895AA24BB24D3
:101760000E94B8130E94651308950E94BF130E2EA5
:10177000D6010E94B711E02199F00E9424120E9424
:10178000C1130E94D0130E94D5130E94DB13E021E5
:1017900039F00E94E1130E94EF13E3E0F0E06F01E3
:1017A0000E94BF130E2E0E948B130E94F513D601C8
:1017B000E4E0F0E00E94E114E021A9F00E9424128C
:1017C0000E94C1130E94D0130E94D5130E94DB1304
:1017D000E02149F00E94E1130E94FB13E5E0F0E0F4
:1017E0006F010E94EF130E94BF130E2E0E948B13F5
:1017F0000E94F5130E94A213A1E0B0E00E94E11440
:101800000E94E6110E94E114E021B9F00E94241226
:101810000E94C1130E94D0130E94D5130E94DB13B3
:10182000E02159F00E94E1130E94FB130E94021470
:101830000E94EF13E7E0F0E06F010E94BF130E2E4D
:101840000E948B130E94F5130E94A2130E94F513AD
:10185000E0910605F09107050E94F513D601E8E036
:10186000F0E00E94ED14E02111F40C94F80C0E94B9
:1018700024120BDB0E9429126DDB0E9454120E947D
:101880004202E0938705F0938805D5010E94331149
:101890000E2EA0918205E1E00E94DC140E220E942F
:1018A000D0130E94D5130E94DB13E02111F40C9495
:1018B000F80C0E9409140E940F140E2E0E9414149A
:1018C00031F0ECDAE0937E05F0937F05F4CFA09140
:1018D0009F05B091A005119739F4049B03C00E94A5
:1018E0001B14FBCF0E941B140E9421144CF00E9479
:1018F0002C1434F0E1E0EA93E3E0EA930E947B03E6
:10190000CBD80E942114B4F00E942C1434F0E1E0F2
:10191000EA93E5E0EA930E947B030E9409140E9487
:101920000F140E94311431F0E8DAE0937E05F09351
:101930007F05F5CFE0E0F0E0FA93EA930E94880398
:10194000F60131966F01E8EEF3E0EC15FD051CF4AD
:10195000E4E6F0E06F010E94E111E3E0F0E00E94B4
:10196000F9140E2E0E949D13E02141F00E94EF1306
:101970000E9439140E9402140E943F140E94E11137
:10198000139744F00E9473120E94FB130E940214EA
:101990000E943F140E94E111129734F00E947312CA
:1019A0000E9402140E943F140E94E1110E945915E6
:1019B00024F40E9473120E943F14D0DE0E94461449
:1019C000A0919B05B0919C050E94E1140E2EA09160
:1019D0009F05B091A0050E942E11E02149F00E94C0
:1019E000DE020E948602E0E0E0938205CC24DD2442
:1019F0000895D601E8E0F0E00E94E1140E2ED50132
:101A00000E942E11E02119F0E1E0F0E05F01D60123
:101A1000E9E0F0E00E94ED140E2ED5010E942E1197
:101A2000E02111F40C94A00D042C0528A1F40E94CF
:101A30002511A0915E05B0915F05809160059091A0
:101A400061050E944C1421F0AEE6B5E00E947810CA
:101A5000E1E0F0E02F01062C0728A1F40E942511F7
:101A6000A0916205B0916305809164059091650530
:101A70000E944C1421F0A0E7B5E00E947810E1E04C
:101A8000F0E03F01A0E00499A1E00E942313D401FB
:101A90000E942E110E22D601EBE0F0E00E94F3141A
:101AA000E021C9F00E944F1421F0A2E7B5E00E94A6
:101AB00078100E942C1464F0A8E2B5E00E9478101F
:101AC000ADEAB5E00E9478100E9446140E945914B5
:101AD000E1E0F0E04F01A0E00499A1E00E942313AF
:101AE000D4010E942E110E2A0E941414C9F00E94E3
:101AF0004F1421F0A2E7B5E00E9478100E942C1448
:101B000064F0A8E2B5E00E947810ADEAB5E00E946A
:101B100078100E9446140E945914E1E0F0E04F0151
:101B2000D2010E9433110E2ED3010E9433110E22D6
:101B3000D4010E943311E02119F0E1E0F0E05F01EF
:101B400008950C2C0D2851F5E0918205E03019F430
:101B50000E94241223C00E944D110E9488030E94FB
:101B600078140E947E140E9439140E9402140E946C
:101B70003F140E9478140E946B03E0912805F091B5
:101B80002905FA93EA93E091AD05F091AE05FA9339
:101B9000EA930E949504E1E0F0E06F010895E0E02F
:101BA000EBBBEABBE8BBEFEFE7BBE0E0E5BBEFEF89
:101BB000E4BBE0E0E2BBEFEFE1BBE0E0E3B9EFEF75
:101BC000E2B9E0E0E0936200E0936100E093650039
:101BD000EFE1E0936400E0E0E0BFE7E0E3BFE0E0D6
:101BE000E2BFE1BFEFBDEEBDEDBDECBDE7BDE6BDC3
:101BF000EBBDEABDE9BDE8BDE0937900E093780074
:101C0000E5BDE4BDE3BDE0938B00E0938A00E09383
:101C10008900E0938800E0938100E0938000E093E6
:101C20008700E0938600E0938500E0938400E093D2
:101C30008300E0938200E0936A00EABFE9BFE1E03D
:101C4000E7BFE0E0E0937D00EBB9E8E1EAB9E6E068
:101C5000E0939500E0E0E0939000E7E6E9B9E0E08A
:101C6000E0939B00E8E1E0939A00E6E0E0939D00BA
:101C7000E0E0E0939800E7E6E0939900E0E8E8B957
:101C8000E0E0E0BDE6B9EDB9E09374007894E0E4FB
:101C9000FFE10E944911E0EDF7E00E9449110E9426
:101CA0008B100E94CC10EA939AD0CC24DD24E0E083
:101CB000E0935605E0935705E0935805E0935905E6
:101CC0000E94B813AA24BB24E4E6F0E060E070E0D0
:101CD000E0935A05F0935B0560935C0570935D0596
:101CE0000E94EF13EEE3F0E060E070E0E0936A053D
:101CF000F0936B0560936C0570936D050E948411E1
:101D0000ECEDF0E0E0933005F0933105E7E3F0E02F
:101D1000E0932E05F0932F05E6E4F0E0E093340520
:101D2000F0933505E0E0E0932A05E0932B050E944F
:101D300078140E947E14E0E0E0938005E093810532
:101D4000E0939705E0939805E0939905E0939A0551
:101D5000E0939D05E0939E050E942E120E941B14A5
:101D6000E0E0E093A305E093A405E093A505E093EC
:101D7000A6050E94FC11E093AB05E093AC05E0E002
:101D8000E093AD05E093AE05E0938205E093740522
:101D9000E0937505E0937605E0937705E093780589
:101DA000E0937905E0937A05E0937B05E0937C0569
:101DB000E0937D050E9409140C2C0D2821F40E944B
:101DC000D3066F01F9CF0E942702BBDE7CDC11DE57
:101DD000CCDCF9CFFFCF5F9BFECFECB108955D9BCC
:101DE000FECFE881ECB921960895EA81EA93F7DF06
:101DF000A881B9810E9478102396089526970E94A1
:101E0000621510E0AC85BD85E0E0F0E0ED93FC9359
:101E1000EA89FB893196EA8BFB8B3197E4912E2F6F
:101E2000E03011F40C942B10E12FE03039F425321E
:101E300011F411E002C00E948D140CC1E130A9F42C
:101E4000253219F40E948D1404C112E040E000E034
:101E50002D3211F401E0FEC02B3211F44BE2FAC036
:101E6000203211F440E2F6C002C0E23039F450E012
:101E700013E0203311F40068EDC004C0E33011F02A
:101E80000C942A10203310F02A3308F007C0AAE07F
:101E90005A9F502DE22FE0535E0FDCC0E22FE33655
:101EA00049F40E949614E889F989A481AA930E94B2
:101EB0009C14CFC0E33741F40E9496140E94A414EE
:101EC0000E945A101E2F0AC0E03761F40E94961437
:101ED0000E94A4140E9464101E2F086002600F77F5
:101EE00030E035C0E43611F0E93611F4046002C088
:101EF000E53731F4ECE8F0E0EE83FF8315E00DC048
:101F0000E83511F4086004C0E83711F00C9429108A
:101F1000E6E9F0E0EE83FF8314E002FF14C00E94C4
:101F200096140E94AE14AB85AA233AF4EA85FB8589
:101F30000E94C614EA87FB874DE2403011F01F5F14
:101F400001C00B7F04C00E9496140E94AE1400FDD5
:101F500011C0151778F407FF08C002FF04C00B7FFB
:101F6000242F115001C020E301C020E20E948D14F3
:101F70005150EFCF312F01FF17C03030A1F003FFD8
:101F800006C0EE81FF812591EE83FF8305C0AE81FF
:101F9000BF812D91AE83BF830E948D14503009F014
:101FA00051503150EACF4BC020E3EE81FF810E94B7
:101FB0005515E887F987EE81FF813296EE83FF831E
:101FC000E885F985AA85BB85AE17BF0750F02F5F5E
:101FD000A885B985EA85FB85EA1BFB0BEA87FB87A9
:101FE000EFCF2A3328F003FF02C0295F01C0295D2B
:101FF00004FD1AC0213320F4A885B985119709F48E
:1020000009C0531710F000FF01C013C020E207FF02
:102010000BC020E3006102FF07C00B7F4A930E94C0
:102020009C14503009F051500E948D14503009F02A
:1020300051503150A885B985129708F0B5CF00FFEF
:1020400008C0503031F05150E0E2EA930E949C14F5
:10205000F8CF10E0DDCEAC85BD850E9447150E940B
:10206000691564960895FF92F82E26971A930A939D
:10207000DE0114960E94C2148D01E0E0EC83ED8332
:10208000EE83EF83DE0118960E94C2140E9447156A
:10209000FA93EA931A930A93E5EFFEE0FA93EA9330
:1020A000FE013896FA93EA93A9DE198108812896F1
:1020B000FF900895A991B991EE27FF276D916623AE
:1020C00011F03196FBCF0895AA27BB27E991F9912A
:1020D0000590002011F01196FBCFFD0108950E949C
:1020E0004B15EF5FFF4F6F4F7F4F0E9450150895C4
:1020F000ED91FD913196FE93EE9308951A930A9314
:1021000000E010E00895E0EDF7E0FA93EA930E9412
:10211000B61494980895EAE5EA930E94EF0EE5EA72
:10212000EA930C94EF0EE5E0EA930E94EF0EE2E8EA
:10213000EA930E94EF0EE0E0EA930C94EF0EE0E3E6
:10214000EA930C94EF0EE0E0EA930C94EF0EE4E0D7
:10215000EA930E94EF0EE3E8EA930E94EF0EF3CFBA
:10216000E1E0EA930E94EF0E0E94EB0E0E94EB0E5C
:102170000E94EB0E0E94EB0E0E94EB0E0E94EB0EF3
:102180000E94EB0E0E94EB0E0C94EB0EE0E0E0934D
:102190008905E0938A050895E3E0EA930E94EF0E33
:1021A000E0E8EA930E94EF0EE2E0EA930E94EF0E6D
:1021B000E0E10895E3E2EA930E94EF0EE2E8EA9399
:1021C0000E94EF0EC0CFE0E9EA930C94EF0EEEE927
:1021D000F0E0FA93EA9380E00E94331022969BCFBE
:1021E000EA930E94EF0EE2E8EA930E94EF0EABCF73
:1021F000FA93EA9380E00E94331022960895EA93BE
:102200000E94E1010E94D2010E2F11270895E0E4FF
:10221000EA930C94EF0EE4E0EA930E94EF0EE3E8F9
:10222000EA930E94EF0EE0E1EA930C94EF0EE0E1F6
:10223000EA930C94EF0EE0E2EA930C94EF0E0E9406
:10224000EB0E0E94EB0E0C94EB0EE0915605F09114
:10225000570560915805709159050895E0E0F0E048
:102260000E94E1140895E1E0F0E00E94E114089575
:10227000EA930E94EF0E4FCFEA930E94EF0E63CFD6
:10228000E5E0EA930E94EF0EE2E8EA930E94EF0E87
:10229000CECFFA93EA930C94B614E1E0F0E0FA930F
:1022A000EA930895E0E9F1E0F4CFE1E0F0E0E093B3
:1022B0009505F09396050895E2E0F0E0E09395052A
:1022C000F093960508950E946B03E3E0F0E0E0933D
:1022D0009505F09396051E980895E0939305F09365
:1022E00094050895E4E0F0E0E0939505F0939605F9
:1022F0000895A0919305B09194050895E0E0E093CE
:102300009505E09396050895E0E0E0939305E0934A
:102310009405F4CFE8EEF3E0BCCFE0E0EA87EB878A
:10232000EC87ED870895E0E0EE83EF83E887E987A7
:102330000895E5E0F0E0E0939505F09396050895A3
:102340000E2ED801E2E0F0E00E94E1140E2AE3E054
:10235000F0E00E94E1140E2AE4E0F0E00E94E114B3
:1023600008950E2AA0919505B09196050895E2E092
:10237000F0E00E94E1140895AE81BF8188859985BF
:102380000895A0E0CD99A1E0E0E00E94DC1408955A
:102390000E2EA0E0CD99A1E0E1E00E94DC140895AA
:1023A000EBDFE0EAF6E861E070E00E9407150E2E30
:1023B000A0E0CF99A1E00895E0E00E94DC14E021C4
:1023C0000895A0913205B091330508950E22D601EB
:1023D000E6E0F0E00895A0919105B091920508958E
:1023E000E1E00E94DC140E2E0895E1E0F0E0E093BD
:1023F000A305F093A4050895E0E0E093A705E0931A
:10240000A8050895E0933A05E0933B05E0933C0569
:10241000E0933D050895A0E00799A1E0E0E00E9467
:10242000DC140E2E0895AA85BB858C859D85A93E5A
:10243000E3E0BE07E0E08E07E0E09E070895AA987B
:102440001A9AE8EBFBE025CF0E949002E093820508
:102450000895E0937A05F0937B050895E0E0E0931A
:10246000A105E093A2050895E0E0E0937E05E093E6
:102470007F05E1E0F0E0E0937805F09379050895B9
:10248000E1E0F0E0E017F10708950E946B03E0E05F
:10249000E0937805E09379050895E1E0F0E0E093BA
:1024A0007E05F0937F050895E0937C05F0937D050C
:1024B0000895E0931405F09315050895A0E0CA99D6
:1024C000A1E0E0E00E94DC140E2EA0E0CB99A1E098
:1024D0000895E0E0E0933605E0933705E093380592
:1024E000E09339050895E1E0F0E0E0932C05F093E6
:1024F0002D050895A0913605B091370580913805D6
:10250000909139050895AD33E0E0BE07E0E08E0715
:10251000E0E09E070895EEDFA531E0E0BE07E0E0D1
:102520008E07E0E09E070895A932E0E0BE07E0E0F4
:102530008E07E0E09E070895A230E0E0BE07E0E0ED
:102540008E07E0E09E070895E0E05CDFE6E1F5E05D
:102550000895A1E0B0E0A083B1830895A0913A0569
:10256000B0913B0580913C0590913D050895A2E016
:10257000B0E0A083B1830895AF31E0E0BE07E0E0B2
:102580008E07E0E09E070895A3E0B0E0A083B1834A
:102590000895E4DFA333E0E0BE07E0E08E07E0E06B
:1025A0009E070895A4E0B0E0A083B1830895A5E05C
:1025B000B0E0A083B1830895A0E0B0E0A083B18330
:1025C00001E010E00895E0E0E0933E05E0933F0570
:1025D000E0934005E09341050895A0913E05B09138
:1025E0003F0580914005909141050895E1E0F0E0BC
:1025F000E0938B05F0938C05E6CFE8E1F5E0A9E0E8
:10260000B0E0A083B1830895E8DFAB30E0E0BE071F
:10261000E0E08E07E0E09E070895A333E0E0BE0708
:10262000E0E08E07E0E09E070895A531E0E0BE07F8
:10263000E0E08E07E0E09E070895E0E0E0938B0580
:10264000E0938C05C0CFE0E00E94DC140E2E0895CC
:10265000A0918B05B0918C050895E8E1F5E0A8E024
:10266000B0E0A083B1830895B8DFEAE0F0E060E075
:1026700070E00E9407150E2EEBCFE0E0E0934205DC
:10268000E0934305E0934405E0934505EAE1F5E076
:102690000895A0914205B091430580914405909121
:1026A00045050895E0E0E0934205E0934305E0939B
:1026B0004405E09345050895ECDFAB30E0E0BE074C
:1026C000E0E08E07E0E09E070895E0E0E0935E051D
:1026D000E0935F05E0936005E0936105E093620598
:1026E000E0936305E0936405E0936505E093660578
:1026F000E0936705E0936805E09369050895A0916C
:102700000005B091010508950E2ED601E0E0F0E03D
:102710000E94E7140895E0910205F09103050895E1
:10272000A0E0B0E00E94E114EFCF0E22D601E1E07C
:10273000F0E00E94E7140E220895A0912C05B091BC
:102740002D0591CDE0910405F09105050895D60180
:10275000E2E0F0E00E94E7140E22E3E0F0E00E94E5
:10276000E7140E22E4E0F0E00E94E7140E22089540
:102770004424552466247724882499240895BFDFAF
:1027800072CD0E94450765DE0E94AA078DDE0E9479
:102790004202E0938705F0938805A091820520CE40
:1027A000A0917A05B0917B055ECD0E22A0917C05AB
:1027B000B0917D0558CD0E22A0918705B091880576
:1027C00052CD0E944C05E0E0F0E0FA93EA930E94BB
:1027D0008803E0E0E0930005E09301050895E0E060
:1027E000E0932C05E0932D050895A1E0B0E00E9450
:1027F000E1140E220895E2E0F5E0A0E0B0E0A0834D
:10280000B1830895E4E0F5E0A0E0B0E0A083B183F7
:102810000895E0E0E0937E05E0937F050895A091A0
:102820007E05B0917F051ACDD601EBE0F0E00E9465
:10283000ED14E0210895E0E0E0939F05E093A0050A
:102840000895E0919B05F0919C05A0912805B09119
:102850002905EA17FB070895EAE0F0E0CE16DF0647
:1028600008950E2ED601EAE0F0E00E94ED14E0217A
:102870000895E0E0E0930005E0930105BCCFE6E0B9
:10288000F5E0A0E0B0E0A083B1830895E0912805D1
:10289000F0912905319708950E940715E2CFD5DC04
:1028A000A0916605B09167058091680590916905D2
:1028B000F3CFFA93EA93E091AD05F091AE0531972D
:1028C000FA93EA930E949504E091A905F091AA0574
:1028D000FA93EA93E091A505F091A605FA93EA939D
:1028E000E091AB05F091AC05FA93EA930C94A9043E
:1028F000E0E0E0932805E09329050895EFEFFFEF6E
:10290000E0936E05F0936F05E0937005F093710509
:10291000E0937205F093730508952A93ED85FE8583
:10292000FA93EA93E989FA8909950895E889F9897A
:102930003497E88BF98B0895ED85FE85FA93EA9339
:10294000E989FA8909950895A889B98914960E9498
:102950004715EE83FF83FA93EA930895A889B9890E
:1029600014960E944715EA87FB870895E991F9912B
:10297000309639F080EA9FE00197F1F7A8953197FA
:10298000C9F708950024AF0DB01D0895F195E195A4
:10299000F0400895F09560957095E195FF4F6F4F69
:1029A0007F4F08956F2F660F660B762F08958B2F3C
:1029B000880F880B982F0895EA17E1E009F0EE27B9
:1029C0000895EA17FB07E1E009F0EE270895EA17FA
:1029D000FB07E1E009F4EE270895AE17BF07E1E039
:1029E0000CF4EE270895AE17BF07E1E00CF0EE27D8
:1029F0000895EA17FB07E1E00CF0EE270895AE1703
:102A0000BF0786079707E1E00CF4EE270895EA1761
:102A1000FB0768077907E1E00CF0EE2708957A9F3D
:102A2000702D6B9F700DF89F700DE99F700D6A9F60
:102A3000602D710DFB9F600D711DE89F600D711D74
:102A40008827FA9FF02D610D781FEB9FF00D611D17
:102A5000781FEA9FE02DF10D681F781F089504D0BC
:102A6000DEDF0EF497DF0895E89477FF02C092DF6F
:102A7000689497FF0BC00024A095B0958095909521
:102A80001196801D901D00F8039400FA0895ED91B1
:102A9000FC9111970895ED91FD916D917D910895AF
:102AA0007E936E93FE93EE9308950590F491E02D3E
:102AB000089500240A160B060895EA17FB07680715
:102AC000790708955A934A933A932A931A930A934B
:102AD00008955D814C813B812A8119810881089587
:00000001FF
