:020000000C945E
:100002009F010C9400000C9400000C9400000C94CE
:1000120000000C9400000C9400000C9400000C945E
:1000220000000C9400000C9400000C9400000C944E
:1000320000000C9400000C9400000C9400000C943E
:10004200EA010C9400000C9400000C9400000C9443
:1000520000000C9400000C9400000C9400000C941E
:1000620000000C9400000C9400000C9400000C940E
:1000720000000C9400000C9400000C9400000C94FE
:1000820000000C9400000C9400001027E8036400A8
:100092000A000100001000011000010020202020B1
:1000A200202020202020202020202020202020204E
:1000B200202020202020202020202020202020203E
:1000C2002020202000496E69636A616C697A756A32
:1000D20065206D61737A796E65005779637A7973F9
:1000E2007A637A6F6E6F206D61737A796E65004DF7
:1000F20061737A796E61207A61696E69636A616C93
:10010200697A6F77616E6100437A656B616D206E0B
:10011200612070726574206777696E746F77616EA3
:1001220079005072616361005A616B726563696C38
:10013200656D2077737A7973746B6965207A61646F
:10014200616E652070756368617279004272616BDD
:100152002077796D6167616E65676F206369736E81
:1001620069656E696120362062617200446F7A6F40
:10017200776E696B206B6C656A7520707265746F3F
:1001820077206E696520676F746F777900446F7AA4
:100192006F776E696B206B6C656A75206E616B722E
:1001A2006574656B206E696520676F746F7779007F
:1001B20057796C61637A206D61737A796E65206913
:1001C20020706F637A656B616A2031206D696E758C
:1001D2007465004F64736C6F6E2069207A72657368
:1001E2006574756A206B757274796E65004D6F6EF9
:1001F2007465722033206E6965206E616369736E67
:10020200616C20706564616C6100437A656B616D3D
:10021200206E612072756368206C616E637563681D
:100222006100506F707261772070726574207A205D
:1002320067727A79626B69656D2069206E616369A4
:10024200736E696A2067757A696B005573756E20E3
:1002520070726574207A6520737A637A656B20699F
:10026200206E616369736E696A2067757A696B00D3
:1002720057796D69656E206C7562206E616B72656F
:10028200632F646F6B7265632067727A7962656B44
:100292002069206E616369736E696A2067757A6985
:1002A2006B004D6F6E7465722033202D207A646569
:1002B2006D6F6E74756A2070756368617220692053
:1002C200706F7477696572647A004D6F6E746572CF
:1002D2002033202D2077797A776F6C207265637ACC
:1002E2006E696520637A756A6E696B2070756368E2
:1002F2006172610020202020202020202020202048
:1003020020202020202020202020202020202020EB
:1003120020202020202020202020202020202020DB
:10032200202020202020000001002D4E414E0049B7
:100332004E4600000100AF052A030000F894EE27A4
:10034200ECBBF1E0F5BFE5BFE0936C00F8E1F1BD75
:10035200E1BD8DE0A2E0BB27ED938A95E9F780E04D
:1003620090E1A0E0B1E0ED930197E9F7E6E3F3E075
:1003720085919591009761F0A591B59105901590A1
:10038200BF01F00105900D920197E1F7FB01F0CF5B
:100392008BBFEFEFEDBFE0E1EEBFC0E0D5E00C9424
:1003A200D00D1A930A93E0919B001E2FE078D9F3A7
:1003B20000919C00E12FEC7111F4E02FA3C0F3CF68
:1003C200E0919B00E072E1F3E881E0939C002196CA
:1003D20008956A937A93AA93BA93EA93FA93EFB73A
:1003E200EA93A6E3B5E00E947010A6E4B5E00E948D
:1003F2007010AAE3B5E00E947010AAE4B5E00E9472
:100402007010AEE3B5E00E947010AEE4B5E00E9459
:100412007010A2E4B5E00E947010A2E5B5E00E945F
:100422007010AEE5B5E00E947010A2E6B5E00E9441
:100432007010A6E6B5E00E947010E991EFBFF99145
:10044200E991B991A991799169911895C99B12C0C5
:10045200949AE0918305F0918405309751F4A5E8D0
:10046200B5E00E947910E1E0F0E0E0938305F093BB
:10047200840506C09498E0E0E0938305E093840548
:1004820008951A930A93A0918505B091860517974E
:100492001CF400E010E002C001E010E0A09185052C
:1004A200B0918605E7E0F0E00E94EE140E2EA0E087
:1004B200C999A1E0E0E00E94DD14E02911F001E019
:1004C20010E001E010E0F8011DC00E947F10C99BFE
:1004D20002C0949AFCCF0E9484100431E0E01E070F
:1004E2005CF4C99B06C0C99B02C0949AFCCF0E94CF
:1004F20084100F5F1F4FF1CFE4E1F0E0E093850538
:10050200F09386050991199108950E948C100E941A
:1005120094100E94A0100E94A410E0E001C2E0E04A
:10052200E09382050E948C100E94A8100E94A010E5
:100532000E94B110E0938205F0E00895A9E8B5E0C9
:100542000E9479100E94C7100E948C100E94CD1048
:10055200E7C10E948C100E94DB100E94E4100E94EE
:10056200E810E7E10E94F1100E94E410E7ECF0E0ED
:10057200BAC00E948C10EBE10E94F1100E94E410BC
:10058200E1EFF0E0B0C00E948C10ECE10E94F110AB
:100592000E94E410EAE0F1E0A6C00E948C100E94E2
:1005A200DB100E94E4100E94E810E8E00E94F110C3
:1005B2000E94E410E4E2F1E096C00E948C10EBE1AC
:1005C2000E94F1100E94E410EEEAF0E00E94F9109D
:1005D2000E948C10E6E20E94F1100E94E410EAE20E
:1005E200F1E081C00E948C10E2E20E94F1100E94B0
:1005F200E410EEE4F1E077C0E881F981309751F43C
:100602000E948C100E94DB100E94E410EEE6F1E0E2
:100612000E94F910A881B981119759F40E948C1097
:10062200E5E20E94F1100E94E410EFE8F1E00E947E
:10063200F9105EC00E948C10E5E20E94F1100E9447
:10064200E410E2EBF1E04FC00E948C10ECE10E945A
:10065200F1100E94E410E5EDF1E045C00E948C101B
:10066200EFE10E94F1100E94E410EFEEF1E03BC0D6
:100672000E948C10EAE10E94F1100E94E410ECE06A
:10068200F2E031C00E948C10EBE20E94F1100E9455
:10069200E410E4E2F2E027C00E948C10E7E20E943C
:1006A200F1100E94E410EDE4F2E01DC00E948C10F3
:1006B200E4E30E94F1100E94E410E2E7F2E013C0CA
:1006C2000E948C10ECE20E94F1100E94E410ECEC0B
:1006D200F2E009C00E948C10E5E30E94F1100E9432
:1006E200E410E6EFF2E0FA93EA9380E00E9434101D
:1006F200229608951A930A931F9AEA81EA9360DE7A
:10070200EB810E9400111F98198108811FC10E946C
:100712006515E0E0E093820510E0AC81BD811197A0
:1007220011F00C94D3030E948C100E94A8100E9416
:1007320008110E94B110F0E0E0933405F093350502
:100742000E948C100E940C110E9418110E94B1107C
:100752002E2F3327022E032A39F4E1E0F0E0E09352
:100762009105F093920505C0E0E0E0939105E093D6
:1007720092050E948C100E940C110E941C110E9472
:10078200B1102E2F3327022E032A39F4E1E0F0E0D4
:10079200E0938F05F093900505C0E0E0E0938F05AC
:1007A200E09390050E948C100E94A810E0E5EA9365
:1007B2000E94F00E0E94B110F0E0E0932E05F0933B
:1007C2002F05AC81BD81119771F50E948C100E949A
:1007D200A810E0E6EA930E94F00EE1E0EA930E949C
:1007E200F00E0E9420110E9420110E94EC0E0E9425
:1007F200EC0E10E00E94EC0E1E2FE12FF0E00E94A2
:10080200D314A0916A05B0916B0580916C0590910B
:100812006D050E943015E0935605F09357056093DD
:10082200580570935905E0919705F0919805309716
:1008320091F41A93E2E0EA935DDFE1E0F0E0E09305
:100842009705F0939805E0915605F0915705E093CE
:100852009905F0939A050E942611A0919905B091ED
:100862009A050E94D8140E945E1529F0E0E0E093F8
:100872009705E0939805D6010E942F110E2EAC81A8
:10088200BD810E943411E02199F00E948C100E94D7
:10089200A810E0E7EA930E94F00E0E94B110F0E087
:1008A200E0933205F0933305E0939B05F0939C05AA
:1008B2000E946C156FC00E948C100E9494100E94BE
:1008C20008110E94A410E09134050E9439110E947F
:1008D2009410E0E50E943D11E0912E050E9439112D
:1008E2000E949410E0E60E943D11E7E00E94391157
:1008F2000E949410E0E70E943D11E5E00E94391148
:100902000E9441110E9418110E94A410E1E00E946D
:1009120039110E9441110E941C110E94A410E1E0B1
:10092200EA930E94F00E08950E948C100E94941087
:10093200E0E80E943D11EA810E9439110E944111B2
:100942000E9408110E94A4100E94A41024960895E7
:100952000E948C100E9494100E9418110E94A410F0
:10096200E0E0EA930E94F00E0E948C100E94941024
:100972000E941C110E94A410E0E0EA930E94F00E73
:100982000E948C100E9441110E94A0100E94A4108B
:100992000E94A41026960895959A08950E947F10A9
:1009A2001F9AE4E6F0E00E944A11FBDC0E2F1127A9
:1009B200002E012A21F40E944E111EDEF2DC1F9845
:1009C20098C2E0E00799E1E0E03011F00C943E05B6
:1009D200E0919505F0919605309739F47BDE1D9AEA
:1009E2000E9453110E94561147C0E130A0E0FA075D
:1009F20031F41D980E9453110E945D113DC0E230F6
:100A0200A0E0FA0741F41E9A069903C00E946411FD
:100A120001C02EDE31C0E330A0E0FA07D1F4069B1C
:100A220017C058DEA0919305B0919405129721F456
:100A3200E3E0F0E00E946E11E0919305F0919405DD
:100A4200309721F4E2E0F0E00E946E110E947311EF
:100A520013C0E430A0E0FA0779F40E947A111297E9
:100A620029F40E9453110E945D1106C0E1E0F0E0FA
:100A72000E946E110E947F1109C0E13039F4E4DD59
:100A82001D981E980E9485110E948B11E09193057A
:100A9200F0919405089528970E94631540E050E074
:100AA20020E030E00E94C7100E948E110E94941133
:100AB20001E010E00E947F11E8E0F0E0CE16DF06D0
:100AC2001CF00E947F1102C00E949A11D8010E945C
:100AD20034110E94A1110E94B2110E942F110E9492
:100AE200B2110E9434110E94B2110E94B8110E94E8
:100AF200B211E3E0F0E00E94E2140E94B211E4E0DD
:100B0200F0E00E94E214E02911F40C94CF06D8011F
:100B12000E9434110E94A111E02911F40C944106A3
:100B2200F801E130A0E0FA0751F5D9010E94341131
:100B32000E2ED601E8E0F0E00E94EE140E220E9492
:100B4200BD11E0E2FEE460E070E00E940815E021E1
:100B52001E2ED601E8E0F0E00E94F4140E2E0E9450
:100B6200BD11E8EBFBE060E070E00E940815E021B7
:100B7200E12921F002E010E00E94941181C0E230EC
:100B8200A0E0FA0739F50E94C2110E94C911E029BA
:100B920011F0C5981AC00E94D111E1E00E94DD1443
:100BA200E02159F0CBDC78DDC598E1EAF6E861E0B6
:100BB20070E0EE83FF83688779870E94D1110E94DB
:100BC200DD1139F087DD0E949411C298C69803E0C6
:100BD20010E056C0E330A0E0FA0711F00C943006A2
:100BE200A091A305B091A405119711F5A091340528
:100BF200B0913505E6E4F0E00E94F4140E2E0E9456
:100C0200E211E1E0F0E00E94FA140E94E7110E9472
:100C1200EE140E220E94EC110E942F11E02109F025
:100C2200A89AC798909AE0E0E093A305E093A40500
:100C3200A0E0CC99A1E00E94F111A091A305B0918E
:100C4200A4050E942F11E02149F0909A0E94F6110A
:100C52000E94FD110E94031204E010E011C0E43072
:100C6200A0E0FA0769F4029906C0E1E0F0E0E0933F
:100C7200A705F093A805CC9903C0909805E010E071
:100C8200E0E00799E1E0E03011F00C94A306E09176
:100C92009505F0919605309799F40E940C12A0E008
:100CA2000399A1E00E94DD1149F040E050E012DD1D
:100CB2001D9A0E948E110E94561101C042C041C06D
:100CC200E130A0E0FA0799F40E940C12A0E0C19969
:100CD200A1E00E94DD1149F00E9414122CF01D982F
:100CE2000E945D110E948E1101C02BC02AC0E23009
:100CF200A0E0FA07A9F4079911C00E9414126CF03F
:100D02001E9A069909C021E030E00E9494110E94C7
:100D120064110E948E1101C0ABDC01C012C011C06F
:100D2200E330A0E0FA0739F4069B04C0D3DC1E9836
:100D32000E94731106C0E430A0E0FA0711F40E9489
:100D42009A1113C0E13089F4C5DC7EDC1D981E982F
:100D52000E947F110E948E11042E052A31F441E077
:100D620050E0ABEAB5E00E947910EA85FB856C851C
:100D72007D85EF5FFF4F6F4F7F4FEA87FB876C8761
:100D82007D87EE81FF8168857985EF5FFF4F6F4F29
:100D92007F4FEE83FF836887798798CE0E946A151A
:100DA2002E96089588DDC89902C01CDCFCCF92DC27
:100DB200F3DD90DCCEDBF2DD8DDCCC9B02C0909AC1
:100DC200FCCF0E94F6119098AB98A998AA9A1A980B
:100DD200C7987BDB7FDCCDDBE0918205E03001F55B
:100DE2000E944E1194DCA0918F05B091900511974D
:100DF200A1F40E948B110E942012A99AE8EBFBE059
:100E02000E944A11AA9A1A98E0EDF7E00E944A114C
:100E12000E942012A9980EDCFFCF0E942512DCCF7F
:100E2200E0E0E093820537DEAD9A0E948B11AD9827
:100E320032DE0E948B112FDE0E948B112CDE0E946B
:100E420085110E947A110E942F110E2E0E947A1192
:100E52000E94B8110E2A0E947A11E3E0F0E00E948B
:100E6200E214E02921F0ADDD0E946E11EACFE0E04C
:100E7200E0939305E09394050E948B110E944E111A
:100E820046DCE1E0F0E00895E1E0F0E00E942A12A1
:100E9200E0917A05F0917B0508951A930A931F9ABF
:100EA200E4E00E9400111F98002E012A79F4A0911B
:100EB200A105B091A205159719F4D0DB0E942F125B
:100EC200A1EAB5E00E9479100E9435120E944112F7
:100ED20061F40E942F12A0917805B09179051197C3
:100EE20011F40E9446120E944E12E0917E05F0918A
:100EF2007F050991199108951A930A931F9AE6E0C2
:100F02000E9400111F98002E012A79F4A091A105D8
:100F1200B091A205159719F4D3DB0E942F12A1EA12
:100F2200B5E00E9479100E9435120E94411261F4CC
:100F32000E942F12A0917805B0917905119711F4B2
:100F42000E9446120E944E12E0917E05F0917F05AA
:100F5200B7C31A930A931F9AE1E00E9400111F98E7
:100F6200002E012A81F40E944E1146DB0E948B1151
:100F7200E0E0E0937C05E0937D05E1E0F0E0E093C2
:100F82007605F09377050E94411281F4A0917605CF
:100F9200B0917705119731F49DDBE0E0E09376059F
:100FA200E0937705E1E0F0E00E945512E0917C05C4
:100FB200F0917D0585C30E947F10E0911405F091A8
:100FC2001505309729F4E1E0F0E00E945A12C2C000
:100FD200E130A0E0FA07D9F4AF9A0E945F120E94B2
:100FE200DD1199F0E0E0E0934605E0934705E093D8
:100FF2004805E09349050E946A12E2E0F0E00E948F
:101002005A120E947412C9DA01C0BDDAA3C0E230DA
:10101200A0E0FA0769F40E947B120E9484123CF05D
:10102200AF980E946A12E3E0F0E00E945A1292C066
:10103200E330A0E0FA0759F40E948C123CF0AE9A19
:101042000E946A12E4E0F0E00E945A1283C0E43087
:10105200A0E0FA0761F40E948C1244F0AE98C49AA0
:101062000E946A12E5E0F0E00E945A1273C0E53075
:10107200A0E0FA0769F40E947B120E9495123CF0EC
:10108200C4980E946A12E6E0F0E00E945A1262C01E
:10109200E630A0E0FA07E9F40E945F12E0E00E9465
:1010A200DD14E02989F0E3E0F0E00E945A12E5E164
:1010B200F0E060E070E0E0933605F093370560936E
:1010C20038057093390504C0E7E0F0E00E945A1237
:1010D20041C0E730A0E0FA0759F40E948C123CF0BC
:1010E200AD9A0E946A12E8E0F0E00E945A1232C001
:1010F200E830A0E0FA0759F40E948C123CF0AD9857
:101102000E946A12E9E0F0E00E945A1223C0E9301C
:10111200A0E0FA0751F40E947B120E949D1224F073
:10112200EAE0F0E00E945A1215C0EA30A0E0FA07A5
:1011320089F40E946A12E0E0E0931405E093150539
:1011420001E010E0E1E0F0E0EC15FD0519F4E2E069
:10115200F0E06F01B4C20E947F10E0911605F09199
:101162001705309771F4E0E0E0934A05E0934B05F0
:10117200E0934C05E0934D050E94A5120E94AA122D
:101182004DC0E130A0E0FA0789F40E94AF120E943C
:1011920095120CF0AC9A0E94AF120E9484122CF0AD
:1011A2001C9A0E94A5120E94B81238C0E230A0E038
:1011B200FA0759F40E94AF120E94BD122CF01C983B
:1011C2000E94A5120E94C51229C0E330A0E0FA07CE
:1011D20049F40E94CA122CF0AC980E94A5120E94F7
:1011E200D3121CC0E430A0E0FA0741F40E94CA12F4
:1011F20024F0E6E1F5E00E94D81210C0E530A0E04C
:10120200FA0761F40E94A5120E94DD12E3E0F0E009
:10121200EC15FD0519F4E4E0F0E06F0150C20E9404
:101222007F10E0911805F0911905309791F4E0E0F4
:10123200E0934E05E0934F05E0935005E09351058E
:101242000E94E412C398AA98E8E1F5E00E94AA126B
:10125200FFC0E130A0E0FA0769F40E94EE120E949A
:101262009D123CF01A9A0E94E412E8E1F5E00E9415
:10127200B812EEC0E230A0E0FA07A1F40E94EC112D
:10128200119721F40E94F7120E94FE120E94051388
:1012920044F0A99AC79A0E94E412E8E1F5E00E949C
:1012A200C512D6C0E330A0E0FA07A1F40E94EE1204
:1012B2000E940E1374F0A998A5E8B5E0ED91FD9196
:1012C2003197FE93EE930E94E412E8E1F5E00E946A
:1012D200D312BEC0E430A0E0FA0739F40E94E4124F
:1012E200E8E1F5E00E94D812B3C0E530A0E0FA07C9
:1012F20081F40E94EE120E94161354F0C39A1A98B7
:101302000E941E13E8E1F5E0A6E0B0E0A083B183FD
:101312009FC0E630A0E0FA0771F40E94051354F072
:10132200919AAB9A0E94E412E8E1F5E0A7E0B0E0FE
:10133200A083B1838DC0E730A0E0FA07D1F5A0E029
:101342000599A1E00E9424130E9429130E942F11E3
:10135200E02111F00E94F7120E9429130E94341119
:101362000E2EE0912E05F0912F050E94EE120E94A2
:10137200D3140E940015E02131F0C39891980E9485
:10138200E4120E942E13E0913005F09131050E9483
:10139200EE120E94D3140E945E1554F4C3989198E1
:1013A200A5EAB5E00E9479100E941E130E942E1336
:1013B2004FC0E830A0E0FA07C9F40E9435130E943A
:1013C2003411E02131F0AB98AA9A0E94E4120E94F3
:1013D200FE120E9435130E942F11E02131F0AB98CA
:1013E200AA9A0E94E4120E94FE1232C0E930A0E0E2
:1013F200FA07A1F40E94EE12A630E0E0BE07E0E098
:101402008E07E0E09E074CF0C7980E94E412E8E1E4
:10141200F5E0AAE0B0E0A083B1831AC0EA30A0E010
:10142200FA07B1F4E0918B05F0918C05E0938D05FC
:10143200F0938E050E94E412E8E1F5E00E94DD12CD
:10144200E5E0F0E0EC15FD0519F4E6E0F0E06F01EF
:1014520036C10E947F10E0911A05F0911B0530976A
:1014620081F4E0E0E0935205E0935305E0935405E4
:10147200E09355050E943E130E94AA120E94C710D3
:101482001EC1E130A0E0FA0729F40E943E130E9437
:10149200B81215C1E230A0E0FA0769F40E944A13BB
:1014A2000E940E133CF0A898C19AC09A0E943E1363
:1014B2000E94C51204C1E330A0E0FA07F1F5A09141
:1014C2008D05B0918E050E9434110E2E0E94EC11F2
:1014D2000E942F110E22A0919D05B0919E050E949F
:1014E2002F110E22A091A705B091A8050E943411D8
:1014F200E021E1F423D8A091A705B091A8050E94AC
:101502002F110E2ED601E7E0F0E00E94EE14E0214A
:1015120021F0A9EAB5E00E947910C8D8E1E0F0E034
:10152200E0939D05F0939E05CF9906C0EAE1F5E0B0
:101532000E94D3120E945313C2C0E430A0E0FA0703
:1015420061F4C8D8E0E0E0939D05E0939E05C59A5A
:101552000E943E130E94D812B2C0E530A0E0FA0702
:10156200F1F50E944A13E9E1F0E060E070E00E94C8
:1015720008150E94C9110E22A0E0C599A1E0E1E080
:101582000E94DD14E02139F0C69A0E943E13A6E0C3
:10159200B0E0A083B1830E944A13E2E3F0E060E08E
:1015A20070E00E9408150E2E0E94C211E02131F057
:1015B2000E9453130E949F0265D8C598A0E0C59966
:1015C200A1E00E942413A0E0CF99A1E00E94DD11C6
:1015D20029F080D8EAE1F5E00E94D31270C0E6302B
:1015E200A0E0FA0791F40E944A13AA31E0E0BE0794
:1015F200E0E08E07E0E09E073CF0C29A0E943E13B4
:10160200A7E0B0E0A083B1835AC0E730A0E0FA07B8
:1016120069F40E944A130E94BD123CF0C0980E94D5
:101622003E13A8E0B0E0A083B18349C0E830A0E057
:10163200FA0749F40E944A130E94BD121CF0C59891
:101642000E9453133CC0E930A0E0FA0759F40E940B
:101652005D133CF0C2980E943E13AAE0B0E0A08362
:10166200B1832DC0EA30A0E0FA0759F40E945D135D
:101672003CF0C1980E943E13ABE0B0E0A083B1837E
:101682001EC0EB30A0E0FA07D1F40E944A130E9478
:101692001613ACF00E943E130E94DD12A2E3B5E0E5
:1016A200ED91FD913197FE93EE93E7E0F0E0EC15BA
:1016B200FD0529F4E8E0F0E06F010E946613F801ED
:1016C2000991199108950E9480130E942F110E947E
:1016D2008513E02129F06FDCE0930005F09301050A
:1016E2000E948C130E9491130E9496130E949E13D3
:1016F200E02129F030DDE0930205F09303050E941A
:10170200A3130E9491130E9496130E94A8130E9491
:101712009E13E02129F083DDE0930405F093050593
:10172200E0910605F09107050E9491130E9496131D
:101732000E94A813D601E5E0F0E00E94E8140E949E
:10174200E7110E94E8140E220E949E13E02129F064
:1017520080DEE0930605F09307050895AA24BB24D2
:101762000E94B9130E94661308950E94C0130E2EA0
:10177200D6010E94B811E02199F00E9425120E9420
:10178200C2130E94D1130E94D6130E94DC13E021DF
:1017920039F00E94E2130E94F013E3E0F0E06F01DF
:1017A2000E94C0130E2E0E948C130E94F613D601C3
:1017B200E4E0F0E00E94E214E021A9F00E94251288
:1017C2000E94C2130E94D1130E94D6130E94DC13FE
:1017D200E02149F00E94E2130E94FC13E5E0F0E0F0
:1017E2006F010E94F0130E94C0130E2E0E948C13F0
:1017F2000E94F6130E94A313A1E0B0E00E94E2143B
:101802000E94E7110E94E214E021B9F00E94251221
:101812000E94C2130E94D1130E94D6130E94DC13AD
:10182200E02159F00E94E2130E94FC130E9403146B
:101832000E94F013E7E0F0E06F010E94C0130E2E49
:101842000E948C130E94F6130E94A3130E94F613A7
:10185200E0910605F09107050E94F613D601E8E033
:10186200F0E00E94EE14E02111F40C94F90C0E94B5
:1018720025120ADB0E942A126CDB0E9455120E947A
:101882004202E0938705F0938805D5010E94341146
:101892000E2EA0918205E1E00E94DD140E220E942C
:1018A200D1130E94D6130E94DC13E02111F40C9490
:1018B200F90C0E940A140E9410140E2E0E94151494
:1018C20031F0EBDAE0937E05F0937F05F4CFA0913F
:1018D2009F05B091A005119739F4049B03C00E94A3
:1018E2001C14FBCF0E941C140E9422144CF00E9474
:1018F2002D1434F0E1E0EA93E3E0EA930E947B03E3
:10190200CAD80E942214B4F00E942D1434F0E1E0EF
:10191200EA93E5E0EA930E947B030E940A140E9484
:1019220010140E94321431F0E7DAE0937E05F0934E
:101932007F05F5CFE0E0F0E0FA93EA930E94880396
:10194200F60131966F01E8EEF3E0EC15FD051CF4AB
:10195200E4E6F0E06F010E94E211E3E0F0E00E94B1
:10196200FA140E2E0E949E13E02141F00E94F01301
:101972000E943A140E9403140E9440140E94E21131
:10198200139744F00E9474120E94FC130E940314E5
:101992000E9440140E94E211129734F00E947412C5
:1019A2000E9403140E9440140E94E2110E945A15E0
:1019B20024F40E9474120E944014D0DE0E94471444
:1019C200A0919B05B0919C050E94E2140E2EA0915D
:1019D2009F05B091A0050E942F11E02149F00E94BD
:1019E200DE020E948602E0E0E0938205CC24DD2440
:1019F2000895D601E8E0F0E00E94E2140E2ED5012F
:101A02000E942F11E02119F0E1E0F0E05F01D60120
:101A1200E9E0F0E00E94EE140E2ED5010E942F1193
:101A2200E02111F40C94A10D042C0528A1F40E94CC
:101A32002611A0915E05B0915F058091600590919D
:101A420061050E944D1421F0AEE6B5E00E947910C6
:101A5200E1E0F0E02F01062C0728A1F40E942611F4
:101A6200A0916205B091630580916405909165052E
:101A72000E944D1421F0A0E7B5E00E947910E1E048
:101A8200F0E03F01A0E00499A1E00E942413D401F8
:101A92000E942F110E22D601EBE0F0E00E94F41416
:101AA200E021C9F00E94501421F0A2E7B5E00E94A3
:101AB20079100E942D1464F0A8E2B5E00E9479101A
:101AC200ADEAB5E00E9479100E9447140E945A14B0
:101AD200E1E0F0E04F01A0E00499A1E00E942413AC
:101AE200D4010E942F110E2A0E941514C9F00E94DF
:101AF200501421F0A2E7B5E00E9479100E942D1443
:101B020064F0A8E2B5E00E947910ADEAB5E00E9467
:101B120079100E9447140E945A14E1E0F0E04F014C
:101B2200D2010E9434110E2ED3010E9434110E22D2
:101B3200D4010E943411E02119F0E1E0F0E05F01EC
:101B420008950C2C0D2851F5E0918205E03019F42E
:101B52000E94251223C00E944E110E9488030E94F7
:101B620079140E947F140E943A140E9403140E9466
:101B720040140E9479140E946B03E0912805F091B1
:101B82002905FA93EA93E091AD05F091AE05FA9337
:101B9200EA930E949504E1E0F0E06F010895E0E02D
:101BA200EBBBEABBE8BBEFEFE7BBE0E0E5BBEFEF87
:101BB200E4BBE0E0E2BBEFEFE1BBE0E0E3B9EFEF73
:101BC200E2B9E0E0E0936200E0936100E093650037
:101BD200EFE1E0936400E0E0E0BFE7E0E3BFE0E0D4
:101BE200E2BFE1BFEFBDEEBDEDBDECBDE7BDE6BDC1
:101BF200EBBDEABDE9BDE8BDE0937900E093780072
:101C0200E5BDE4BDE3BDE0938B00E0938A00E09381
:101C12008900E0938800E0938100E0938000E093E4
:101C22008700E0938600E0938500E0938400E093D0
:101C32008300E0938200E0936A00EABFE9BFE1E03B
:101C4200E7BFE0E0E0937D00EBB9E8E1EAB9E6E066
:101C5200E0939500E0E0E0939000E7E6E9B9E0E088
:101C6200E0939B00E8E1E0939A00E6E0E0939D00B8
:101C7200E0E0E0939800E7E6E0939900E0E8E8B955
:101C8200E0E0E0BDE6B9EDB9E09374007894E0E4F9
:101C9200FFE10E944A11E0EDF7E00E944A110E9422
:101CA2008C100E94CD10EA939AD0CC24DD24E0E07F
:101CB200E0935605E0935705E0935805E0935905E4
:101CC2000E94B913AA24BB24E4E6F0E060E070E0CD
:101CD200E0935A05F0935B0560935C0570935D0594
:101CE2000E94F013EEE3F0E060E070E0E0936A053A
:101CF200F0936B0560936C0570936D050E948511DE
:101D0200ECEDF0E0E0933005F0933105E7E3F0E02D
:101D1200E0932E05F0932F05E6E4F0E0E09334051E
:101D2200F0933505E0E0E0932A05E0932B050E944D
:101D320079140E947F14E0E0E0938005E09381052E
:101D4200E0939705E0939805E0939905E0939A054F
:101D5200E0939D05E0939E050E942F120E941C14A1
:101D6200E0E0E093A305E093A405E093A505E093EA
:101D7200A6050E94FD11E093AB05E093AC05E0E0FF
:101D8200E093AD05E093AE05E0938205E093740520
:101D9200E0937505E0937605E0937705E093780587
:101DA200E0937905E0937A05E0937B05E0937C0567
:101DB200E0937D050E940A140C2C0D2821F40E9448
:101DC200D3066F01F9CF0E942702BBDE7CDC11DE55
:101DD200CCDCF9CFFFCF5F9BFECFECB108955D9BCA
:101DE200FECFE881ECB921960895EA81EA93F7DF04
:101DF200A881B9810E9479102396089526970E949E
:101E0200631510E0AC85BD85E0E0F0E0ED93FC9356
:101E1200EA89FB893196EA8BFB8B3197E4912E2F6D
:101E2200E03011F40C942C10E12FE03039F425321B
:101E320011F411E002C00E948E140CC1E130A9F429
:101E4200253219F40E948E1404C112E040E000E031
:101E52002D3211F401E0FEC02B3211F44BE2FAC034
:101E6200203211F440E2F6C002C0E23039F450E010
:101E720013E0203311F40068EDC004C0E33011F028
:101E82000C942B10203310F02A3308F007C0AAE07C
:101E92005A9F502DE22FE0535E0FDCC0E22FE33653
:101EA20049F40E949714E889F989A481AA930E94AF
:101EB2009D14CFC0E33741F40E9497140E94A514E9
:101EC2000E945B101E2F0AC0E03761F40E94971433
:101ED2000E94A5140E9465101E2F086002600F77F1
:101EE20030E035C0E43611F0E93611F4046002C086
:101EF200E53731F4ECE8F0E0EE83FF8315E00DC046
:101F0200E83511F4086004C0E83711F00C942A1087
:101F1200E6E9F0E0EE83FF8314E002FF14C00E94C2
:101F220097140E94AF14AB85AA233AF4EA85FB8585
:101F32000E94C714EA87FB874DE2403011F01F5F11
:101F420001C00B7F04C00E9497140E94AF1400FDD1
:101F520011C0151778F407FF08C002FF04C00B7FF9
:101F6200242F115001C020E301C020E20E948E14F0
:101F72005150EFCF312F01FF17C03030A1F003FFD6
:101F820006C0EE81FF812591EE83FF8305C0AE81FD
:101F9200BF812D91AE83BF830E948E14503009F011
:101FA20051503150EACF4BC020E3EE81FF810E94B5
:101FB2005615E887F987EE81FF813296EE83FF831B
:101FC200E885F985AA85BB85AE17BF0750F02F5F5C
:101FD200A885B985EA85FB85EA1BFB0BEA87FB87A7
:101FE200EFCF2A3328F003FF02C0295F01C0295D29
:101FF20004FD1AC0213320F4A885B985119709F48C
:1020020009C0531710F000FF01C013C020E207FF00
:102012000BC020E3006102FF07C00B7F4A930E94BE
:102022009D14503009F051500E948E14503009F026
:1020320051503150A885B985129708F0B5CF00FFED
:1020420008C0503031F05150E0E2EA930E949D14F2
:10205200F8CF10E0DDCEAC85BD850E9448150E9408
:102062006A1564960895FF92F82E26971A930A939A
:10207200DE0114960E94C3148D01E0E0EC83ED832F
:10208200EE83EF83DE0118960E94C3140E94481566
:10209200FA93EA931A930A93E6EFFEE0FA93EA932D
:1020A200FE013896FA93EA93A9DE198108812896EF
:1020B200FF900895A991B991EE27FF276D916623AC
:1020C20011F03196FBCF0895AA27BB27E991F99128
:1020D2000590002011F01196FBCFFD0108950E949A
:1020E2004C15EF5FFF4F6F4F7F4F0E9451150895C0
:1020F200ED91FD913196FE93EE9308951A930A9312
:1021020000E010E00895E0EDF7E0FA93EA930E9410
:10211200B71494980895EAE5EA930E94F00EE5EA6E
:10212200EA930C94F00EE5E0EA930E94F00EE2E8E6
:10213200EA930E94F00EE0E0EA930C94F00EE0E3E2
:10214200EA930C94F00EE0E0EA930C94F00EE4E0D3
:10215200EA930E94F00EE3E8EA930E94F00EF3CFB6
:10216200E1E0EA930E94F00E0E94EC0E0E94EC0E57
:102172000E94EC0E0E94EC0E0E94EC0E0E94EC0EED
:102182000E94EC0E0E94EC0E0C94EC0EE0E0E09348
:102192008905E0938A050895E3E0EA930E94F00E30
:1021A200E0E8EA930E94F00EE2E0EA930E94F00E69
:1021B200E0E10895E3E2EA930E94F00EE2E8EA9396
:1021C2000E94F00EC0CFE0E9EA930C94F00EEEE923
:1021D200F0E0FA93EA9380E00E94341022969BCFBB
:1021E200EA930E94F00EE2E8EA930E94F00EABCF6F
:1021F200FA93EA9380E00E94341022960895EA93BB
:102202000E94E1010E94D2010E2F11270895E0E4FD
:10221200EA930C94F00EE4E0EA930E94F00EE3E8F5
:10222200EA930E94F00EE0E1EA930C94F00EE0E1F2
:10223200EA930C94F00EE0E2EA930C94F00E0E9402
:10224200EC0E0E94EC0E0C94EC0EE0915605F0910F
:10225200570560915805709159050895E0E0F0E046
:102262000E94E2140895E1E0F0E00E94E214089571
:10227200EA930E94F00E4FCFEA930E94F00E63CFD2
:10228200E5E0EA930E94F00EE2E8EA930E94F00E83
:10229200CECFFA93EA930C94B714E1E0F0E0FA930C
:1022A200EA930895E0E9F1E0F4CFE1E0F0E0E093B1
:1022B2009505F09396050895E2E0F0E0E093950528
:1022C200F093960508950E946B03E3E0F0E0E0933B
:1022D2009505F09396051E980895E0939305F09363
:1022E20094050895E4E0F0E0E0939505F0939605F7
:1022F2000895A0919305B09194050895E0E0E093CC
:102302009505E09396050895E0E0E0939305E09348
:102312009405F4CFE8EEF3E0BCCFE0E0EA87EB8788
:10232200EC87ED870895E0E0EE83EF83E887E987A5
:102332000895E5E0F0E0E0939505F09396050895A1
:102342000E2ED801E2E0F0E00E94E2140E2AE3E051
:10235200F0E00E94E2140E2AE4E0F0E00E94E214AF
:1023620008950E2AA0919505B09196050895E2E090
:10237200F0E00E94E2140895AE81BF8188859985BC
:102382000895A0E0CD99A1E0E0E00E94DD14089557
:102392000E2EA0E0CD99A1E0E1E00E94DD140895A7
:1023A200EBDFE0EAF6E861E070E00E9408150E2E2D
:1023B200A0E0CF99A1E00895E0E00E94DD14E021C1
:1023C2000895A0913205B091330508950E22D601E9
:1023D200E6E0F0E00895A0919105B091920508958C
:1023E200E1E00E94DD140E2E0895E1E0F0E0E093BA
:1023F200A305F093A4050895E0E0E093A705E09318
:10240200A8050895E0933A05E0933B05E0933C0567
:10241200E0933D050895A0E00799A1E0E0E00E9465
:10242200DD140E2E0895AA85BB858C859D85A93E57
:10243200E3E0BE07E0E08E07E0E09E070895AA9879
:102442001A9AE8EBFBE025CF0E949002E093820506
:102452000895E0937A05F0937B050895E0E0E09318
:10246200A105E093A2050895E0E0E0937E05E093E4
:102472007F05E1E0F0E0E0937805F09379050895B7
:10248200E1E0F0E0E017F10708950E946B03E0E05D
:10249200E0937805E09379050895E1E0F0E0E093B8
:1024A2007E05F0937F050895E0937C05F0937D050A
:1024B2000895E0931405F09315050895A0E0CA99D4
:1024C200A1E0E0E00E94DD140E2EA0E0CB99A1E095
:1024D2000895E0E0E0933605E0933705E093380590
:1024E200E09339050895E1E0F0E0E0932C05F093E4
:1024F2002D050895A0913605B091370580913805D4
:10250200909139050895AD33E0E0BE07E0E08E0713
:10251200E0E09E070895EEDFA531E0E0BE07E0E0CF
:102522008E07E0E09E070895A932E0E0BE07E0E0F2
:102532008E07E0E09E070895A230E0E0BE07E0E0EB
:102542008E07E0E09E070895E0E05CDFE6E1F5E05B
:102552000895A1E0B0E0A083B1830895A0913A0567
:10256200B0913B0580913C0590913D050895A2E014
:10257200B0E0A083B1830895AF31E0E0BE07E0E0B0
:102582008E07E0E09E070895A3E0B0E0A083B18348
:102592000895E4DFA333E0E0BE07E0E08E07E0E069
:1025A2009E070895A4E0B0E0A083B1830895A5E05A
:1025B200B0E0A083B1830895A0E0B0E0A083B1832E
:1025C20001E010E00895E0E0E0933E05E0933F056E
:1025D200E0934005E09341050895A0913E05B09136
:1025E2003F0580914005909141050895E1E0F0E0BA
:1025F200E0938B05F0938C05E6CFE8E1F5E0A9E0E6
:10260200B0E0A083B1830895E8DFAB30E0E0BE071D
:10261200E0E08E07E0E09E070895A333E0E0BE0706
:10262200E0E08E07E0E09E070895A531E0E0BE07F6
:10263200E0E08E07E0E09E070895E0E0E0938B057E
:10264200E0938C05C0CFE0E00E94DD140E2E0895C9
:10265200A0918B05B0918C050895E8E1F5E0A8E022
:10266200B0E0A083B1830895B8DFEAE0F0E060E073
:1026720070E00E9408150E2EEBCFE0E0E0934205D9
:10268200E0934305E0934405E0934505EAE1F5E074
:102692000895A0914205B09143058091440590911F
:1026A20045050895E0E0E0934205E0934305E09399
:1026B2004405E09345050895ECDFAB30E0E0BE074A
:1026C200E0E08E07E0E09E070895E0E0E0935E051B
:1026D200E0935F05E0936005E0936105E093620596
:1026E200E0936305E0936405E0936505E093660576
:1026F200E0936705E0936805E09369050895A0916A
:102702000005B091010508950E2ED601E0E0F0E03B
:102712000E94E8140895E0910205F09103050895DE
:10272200A0E0B0E00E94E214EFCF0E22D601E1E079
:10273200F0E00E94E8140E220895A0912C05B091B9
:102742002D0591CDE0910405F09105050895D6017E
:10275200E2E0F0E00E94E8140E22E3E0F0E00E94E2
:10276200E8140E22E4E0F0E00E94E8140E2208953C
:102772004424552466247724882499240895BFDFAD
:1027820072CD0E94450765DE0E94AA078DDE0E9477
:102792004202E0938705F0938805A091820520CE3E
:1027A200A0917A05B0917B055ECD0E22A0917C05A9
:1027B200B0917D0558CD0E22A0918705B091880574
:1027C20052CD0E944C05E0E0F0E0FA93EA930E94B9
:1027D2008803E0E0E0930005E09301050895E0E05E
:1027E200E0932C05E0932D050895A1E0B0E00E944E
:1027F200E2140E220895E2E0F5E0A0E0B0E0A0834A
:10280200B1830895E4E0F5E0A0E0B0E0A083B183F5
:102812000895E0E0E0937E05E0937F050895A0919E
:102822007E05B0917F051ACDD601EBE0F0E00E9463
:10283200EE14E0210895E0E0E0939F05E093A00507
:102842000895E0919B05F0919C05A0912805B09117
:102852002905EA17FB070895EAE0F0E0CE16DF0645
:1028620008950E2ED601EAE0F0E00E94EE14E02177
:102872000895E0E0E0930005E0930105BCCFE6E0B7
:10288200F5E0A0E0B0E0A083B1830895E0912805CF
:10289200F0912905319708950E940815E2CFD5DC01
:1028A200A0916605B09167058091680590916905D0
:1028B200F3CFFA93EA93E091AD05F091AE0531972B
:1028C200FA93EA930E949504E091A905F091AA0572
:1028D200FA93EA93E091A505F091A605FA93EA939B
:1028E200E091AB05F091AC05FA93EA930C94A9043C
:1028F200E0E0E0932805E09329050895EFEFFFEF6C
:10290200E0936E05F0936F05E0937005F093710507
:10291200E0937205F093730508952A93ED85FE8581
:10292200FA93EA93E989FA8909950895E889F98978
:102932003497E88BF98B0895ED85FE85FA93EA9337
:10294200E989FA8909950895A889B98914960E9496
:102952004815EE83FF83FA93EA930895A889B9890B
:1029620014960E944815EA87FB870895E991F99128
:10297200309639F080EA9FE00197F1F7A8953197F8
:10298200C9F708950024AF0DB01D0895F195E195A2
:10299200F0400895F09560957095E195FF4F6F4F67
:1029A2007F4F08956F2F660F660B762F08958B2F3A
:1029B200880F880B982F0895EA17E1E009F0EE27B7
:1029C2000895EA17FB07E1E009F0EE270895EA17F8
:1029D200FB07E1E009F4EE270895AE17BF07E1E037
:1029E2000CF4EE270895AE17BF07E1E00CF0EE27D6
:1029F2000895EA17FB07E1E00CF0EE270895AE1701
:102A0200BF0786079707E1E00CF4EE270895EA175F
:102A1200FB0768077907E1E00CF0EE2708957A9F3B
:102A2200702D6B9F700DF89F700DE99F700D6A9F5E
:102A3200602D710DFB9F600D711DE89F600D711D72
:102A42008827FA9FF02D610D781FEB9FF00D611D15
:102A5200781FEA9FE02DF10D681F781F089504D0BA
:102A6200DEDF0EF497DF0895E89477FF02C092DF6D
:102A7200689497FF0BC00024A095B095809590951F
:102A82001196801D901D00F8039400FA0895ED91AF
:102A9200FC9111970895ED91FD916D917D910895AD
:102AA2007E936E93FE93EE9308950590F491E02D3C
:102AB200089500240A160B060895EA17FB07680713
:102AC200790708955A934A933A932A931A930A9349
:102AD20008955D814C813B812A8119810881089585
:00000001FF
