:0C0000000C9459000C9400000C940000BB
:10000C000C9400000C9400000C9400000C94000064
:10001C000C9400000C9400000C9400000C94A100B3
:10002C000C9400000C9400000C9400000C94000044
:10003C000C9400000C948C000C9400000C940000A8
:10004C000C9400000C9400000C9400000C94000024
:10005C000C9400000C9400000C9400000C94000014
:10006C000C9400000C9400000C9400000C94000004
:10007C000C9400000C9400000C9400000C940000F4
:10008C001027E80364000A000100001000011000B2
:10009C00010001002D4E414E00494E46000001006A
:1000AC008C059E000000F894EE27ECBBF1E0F5BF48
:1000BC00E5BFE0936C00F8E1F1BDE1BD8DE0A2E09D
:1000CC00BB27ED938A95E9F780E090E1A0E0B1E0E1
:1000DC00ED930197E9F7EAEAF0E0859195910097A5
:1000EC0061F0A591B59105901590BF01F0010590B7
:1000FC000D920197E1F7FB01F0CF8BBFEFEFEDBF56
:10010C00E0E1EEBFC0E0D5E00C943F030E94680430
:10011C00A0E0B5E00E947104A4E0B5E00E94710477
:10012C00A8E0B5E00E947104ACE0B5E00E94710457
:10013C00A0E1B5E008C00E946804A4E1B5E00E940B
:10014C007104A8E1B5E00E94E705EF5FFF4F6F4F28
:10015C007F4F0E94EC05E991EFBFF991E991B991BC
:10016C00A9917991699118951D98EA81FB81A091CB
:10017C001405B091150580911605909117050E94F4
:10018C0097050E94F1057CF01D9AE0E0E0931405C0
:10019C00E0931505E0931605E0931705E881F981C6
:1001AC003196E883F983E881F98124960895E091EA
:1001BC006C05F0916D05309711F00C943C01E0E06A
:1001CC00C899E1E0E03009F450C0E13011F00C9432
:1001DC003B01E2E3F0E00E947A04C89B46C0C99B55
:1001EC0004C0E2E3F0E00E947E04CA9B04C0E7E393
:1001FC00F0E00E947E04CB9B04C0ECE3F0E00E9494
:10020C007E04CC9B04C0E1E4F0E00E947E040E94DA
:10021C0083040E2EA0E0CC99A1E0E0E00E949C05A6
:10022C00E02121F0E6E4F0E00E947E04A0E0CC990D
:10023C00A1E0E1E00E949C050E2E0E948304E021C7
:10024C0021F0EBE4F0E00E947E041F9AE0E0E093E2
:10025C000805E0930905E0930A05E0930B05E1E03E
:10026C00F0E00E948A040E948F04B6C1E130A0E045
:10027C00FA0711F00C94A1010E94990439F4E09151
:10028C007205F09173050E94A40417C00E94AE047D
:10029C00A13CE3E0BE07E0E08E07E0E09E074CF0F7
:1002AC00A2E7B5E0ED91FD913197FE93EE930E949C
:1002BC008F04E0916E05F0916F05E0937005F0935B
:1002CC007105E0917805F09179050E94B704EA1761
:1002DC00FB0769F40E94BC041C9B03C0E2E0F0E045
:1002EC0002C0E3E0F0E0E0936C05F0936D050E9432
:1002FC00C204AB3AE0E0BE07E0E08E07E0E09E0708
:10030C00CCF00E94BC040E94CB040E94D104E0916A
:10031C007805F09179050E94D8040E948F041C9BEB
:10032C0003C0E2E0F0E002C0E3E0F0E0E0936C0533
:10033C00F0936D0551C1E230A0E0FA07E9F5089B96
:10034C0003C00E94DD042EC00E94EC04D29711F46D
:10035C000E94F1040E94EC04D79711F40E94F80457
:10036C000E94EC04DC9711F40E94FF040E94EC0440
:10037C00A134E0E0BE0711F40E9406050E94EC04D3
:10038C00A634E0E0BE0711F40E940D050E94EC04B7
:10039C00AB34E0E0BE0711F40E941405E4E0F0E099
:1003AC000E948A040E941B0531F0E2E0F0E00E94FA
:1003BC008A040E94D10410C1E330A0E0FA07E9F5E9
:1003CC00099B03C00E94DD042EC00E94EC04D2974E
:1003DC0011F40E94F1040E94EC04D79711F40E94CE
:1003EC00F8040E94EC04DC9711F40E94FF040E94B4
:1003FC00EC04A134E0E0BE0711F40E9406050E9453
:10040C00EC04A634E0E0BE0711F40E940D050E9436
:10041C00EC04AB34E0E0BE0711F40E941405E4E0F8
:10042C00F0E00E948A040E941B0531F0E3E0F0E04A
:10043C000E948A040E94D104CFC0E430A0E0FA07E5
:10044C0079F40E942D052CF40E9433050E943B0583
:10045C0006C00E94BC04E5E0F0E00E948A04BCC027
:10046C00E530A0E0FA0779F40E942D052CF40E94E7
:10047C0033050E943B0506C00E94BC04E6E0F0E098
:10048C000E948A04A9C0E630A0E0FA0779F40E9421
:10049C002D052CF40E9433050E943B0506C00E94DA
:1004AC00BC04E7E0F0E00E948A0496C0E730A0E0CC
:1004BC00FA0779F40E942D052CF40E9433050E9452
:1004CC003B0506C00E94BC04E8E0F0E00E948A04F0
:1004DC0083C0E830A0E0FA0711F5E0917405F091C3
:1004EC007505A0916E05B0916F05AE17BF072CF482
:1004FC000E9433050E943B0511C0EAE0F0E00E9427
:10050C008A040E948F04E0917205F091730536966F
:10051C000E94D8040E94BC040E94CB045DC0E93048
:10052C00A0E0FA0749F50E94990419F40E943305DA
:10053C0014C00E94AE04A13DE2E0BE07E0E08E07CD
:10054C00E0E09E0734F0A2E7B5E00E9440050E946F
:10055C008F04E0916E05F0916F05E0937005F093B8
:10056C0071050E94B704989731F40E94BC04EAE02C
:10057C00F0E00E948A0430C0EA30A0E0FA0761F58E
:10058C001F98A9980E94BC040E94CB04ECE3F0E0F5
:10059C000E94D804E0E0E0937A05E0937B051C9B75
:1005AC0002C01C9801C01C9AEBE0F0E00E948A0487
:1005BC00E0E0E0938A05E0938B05DF9AC89B02C0CC
:1005CC00DF9AFCCFE0E0E0936C05E0936D05E8EC7E
:1005DC00F0E00E947A04DF9808951F9A1C98099BFA
:1005EC0003C00E944605FBCF0E9451050E9467057F
:1005FC00A83EE3E0BE072CF40E9446050E946C0561
:10060C00F5CF0E946F050E946F051C98E0E0E09307
:10061C006A05E0936B05099B03C00E944605FBCF5E
:10062C000E9467051A972CF40E9446050E946C05DF
:10063C00F7CF099903C00E944605FBCFE0E0E09399
:10064C006A05E0936B050E9467051A972CF40E94CB
:10065C0046050E946C05F7CF099B03C00E94460516
:10066C00FBCF0E945105E8EBFBE00E947A041F9837
:10067C000895E0E0EBBBE0ECEABBE0E0E8BBEFEFB9
:10068C00E7BBE0E0E5BBEFEFE4BBE0E0E2BBEFEFA4
:10069C00E1BBE0E0E3B9E0EFE2B9E0E0E093620057
:1006AC00EFEFE0936100E0E0E0936500EFE1E093B1
:1006BC006400E0E0E0BFE7E0E3BFE0E0E2BFE1BF01
:1006CC00EFBDEEBDEDBDECBDE7BDE6BDEBBDEABDDE
:1006DC00E9BDE8BDE0937900E0937800E1E0E5BD89
:1006EC00E0E0E4BDE3BDE0938B00E0938A00E0938F
:1006FC008900E0938800E0938100E0938000E09310
:10070C008700E0938600E0938500E0938400E093FB
:10071C008300E0938200E0936A00EABFE9BFE1E462
:10072C00E7BFE0E0E0937D00EAB9E0939A00E0E8EF
:10073C00E8B9E0E0E0BDE6B9EDB9E0937400AD983E
:10074C00AE9AAB9AAF98E7E0F0E060E070E0E0932F
:10075C004805F093490560934A0570934B05EEE309
:10076C00F0E060E070E0E0934C05F0934D05609391
:10077C004E0570934F05A0914805B09149058091A5
:10078C004A0590914B050E94CF05E0934405F093E8
:10079C004505609346057093470544245524929A69
:1007AC00E1E0F0E04F0166247724AA24BB24E0E0CA
:1007BC00E0935005E09351050E947A05E0935405AF
:1007CC00E0935505E0E0E0935605E0935705CC2403
:1007DC00DD24E0935805E0935905E0935A05E09326
:1007EC005B05E0935C05E0935D05E0935E05E093AB
:1007FC005F05E0936005E0936105E0936205E0938B
:10080C006305E0936605E0936705E0937405E09358
:10081C007505E0937605E0937705E0938205E09308
:10082C008305E0938605E0938705E1E0F0E0E09333
:10083C005005F09351050E947A05E0935605E0931C
:10084C005705E0E0E0936805E0936905E2E0F0E02D
:10085C00E0936605F0936705E0E0E0938805E0938C
:10086C008905E0936C05E0936D050E94BC040E9421
:10087C00CB04ECE3F0E00E94D804E8E0F0E0E09375
:10088C007805F0937905E0E0E0938005E09381052D
:10089C00E0938A05E0938B05A89AA99A0E9480059B
:1008AC000E948005C89BFECF98DEDF9A0E948005CF
:1008BC00DF9878947CDC0A9902C0DE9801C0DE9A3D
:1008CC00F9CFFFCF6A937A93AA93BA93EA93FA93E8
:1008DC00EFB7EA9308950E94E705EF5FFF4F6F4F64
:1008EC007F4F0E94EC050895FA93EA930C948305CC
:1008FC00E0937605F09377050895A0E0CD99A1E0FB
:10090C00E1E00E949C050895E0936C05F0936D0561
:10091C000895E0E0E0931805E0931905E0931A05BB
:10092C00E0931B050895E0917005F0917105A0917D
:10093C006E05B0916F05EA17FB070895FA93EA93D9
:10094C00E0916E05F0916F05FA93EA930C94BA005E
:10095C00A0911805B091190580911A0590911B056D
:10096C000895A0917205B09173050895E0E0E093AD
:10097C006E05E0936F050895A0910805B0910905E7
:10098C0080910A0590910B050895E0E0E0937005C5
:10099C00E09371050895E9E1F0E0E0937A05F093B6
:1009AC007B050895E0937205F09373050895E0912B
:1009BC007A05F0917B05D5DFEA0FFB1FFA93EA93DA
:1009CC00E0E0F0E0FA93EA930C94BA00A09176057B
:1009DC00B09177050895EEE3F3E0E0937405F0939E
:1009EC0075050895E0E2F3E0E0937405F093750566
:1009FC000895E2E0F3E0E0937405F0937505089533
:100A0C00E4EEF2E0E0937405F09375050895E6ECDE
:100A1C00F2E0E0937405F09375050895E8EAF2E0CE
:100A2C00E0937405F09375050895A6DFEAEAF0E00B
:100A3C0060E070E00E94A7050E2EA0917A05B0919F
:100A4C007B05E0E0F0E00E94A105E0210895A09173
:100A5C006E05B0916F0512970895E0917A05F091AB
:100A6C007B057FDFEA0FFB1F69CFE0936E05F093E8
:100A7C006F050895ED91FD913196FE93EE930895D7
:100A8C001D9A80EA9FE00197F1F71D9880EA9FE09C
:100A9C000197F1F708951D9A80E49FE10197F1F712
:100AAC001D9880E49FE10197F1F71D9A80E89EE381
:100ABC000197F1F71D9880E89EE30197F1F71C9AD6
:100ACC000895A0916A05B0916B050895AAE6B5E06A
:100ADC00D1CF1D9A80E89EE30197F1F71D9880E82D
:100AEC009EE30197F1F70895E0E0E0935205E0935F
:100AFC0053050895E8EEF3E0F7CEE991F9913096BD
:100B0C0039F080EA9FE00197F1F7A8953197C9F782
:100B1C000895F09560957095E195FF4F6F4F7F4F5D
:100B2C0008956F2F660F660B762F0895EA17E1E094
:100B3C0009F0EE270895EA17FB07E1E009F0EE272C
:100B4C000895EA17FB0768077907E1E00CF0EE2738
:100B5C0008957A9F702D6B9F700DF89F700DE99F13
:100B6C00700D6A9F602D710DFB9F600D711DE89FCC
:100B7C00600D711D8827FA9FF02D610D781FEB9F7A
:100B8C00F00D611D781FEA9FE02DF10D681F781F95
:100B9C00089504D0DEDF0EF4BCDF0895E89477FFEF
:100BAC0002C0B7DF689497FF0BC00024A095B095E6
:100BBC00809590951196801D901D00F8039400FA75
:100BCC000895ED91FD916D917D9108957E936E93B5
:100BDC00FE93EE930895AE17BF0786079707089507
:00000001FF
