:200000000C94CB010C9400000C9400000C9400000C9400000C9400000C9400000C94000014
:200020000C9400000C9400000C9400000C9400000C9400000C9400000C9400000C940000C0
:200040000C940A020C9400000C9400000C9400000C9400000C9400000C9400000C94000094
:200060000C9400000C9400000C9400000C9400000C9400000C9400000C9400000C94000080
:200080000C9400000C9400000C9400001027E80364000A000100001000011000010020208D
:2000A000202020202020202020202020202020202020202020202020202020202020202040
:2000C00020202020202000496E69636A616C697A756A65206D61737A796E65005779637AAB
:2000E00079737A637A6F6E6F206D61737A796E65004D61737A796E61207A61696E69636A5F
:20010000616C697A6F77616E6100437A656B616D206E612070726574206777696E746F77C5
:20012000616E79005072616361005A616B726563696C656D2077737A7973746B6965207AD2
:200140006164616E652070756368617279004272616B2077796D6167616E65676F206369CF
:20016000736E69656E696120362062617200446F7A6F776E696B206B6C656A7520707265F6
:20018000746F77206E696520676F746F777900446F7A6F776E696B206B6C656A75206E6161
:2001A0006B726574656B206E696520676F746F77790057796C61637A206D61737A796E65F3
:2001C000206920706F637A656B616A2031206D696E757465004F64736C6F6E2069207A7218
:2001E00065736574756A206B757274796E65004D6F6E7465722033206E6965206E6163695E
:20020000736E616C20706564616C6100437A656B616D206E612072756368206C616E63755A
:2002200063686100506F707261772070726574207A2067727A79626B69656D2069206E6138
:200240006369736E696A2067757A696B005573756E2070726574207A6520737A637A656B95
:200260002069206E616369736E696A2067757A696B0057796D69656E206C7562206E616B06
:200280007265632F646F6B7265632067727A7962656B2069206E616369736E696A2067756B
:2002A0007A696B004D6F6E7465722033202D207A64656D6F6E74756A207075636861722018
:2002C0006920706F7477696572647A004D6F6E7465722033202D2077797A776F6C207265C5
:2002E000637A6E696520637A756A6E696B207075636861726100534C415645206E696520CC
:20030000706F7477696572647A696C20706F64616E6961206E616B7265746B6900534C41CB
:200320005645206E696520706F7477696572647A696C207A657A776F6C656E6961206E6192
:2003400020737A637A656B690020202020202020202020202020202020202020202020209A
:20036000202020202020202020202020202020202020202020202020202020003025640064
:200380003A0001002D4E414E00494E4600000100D50582030000F894EE27ECBBF1E0F5BF0E
:2003A000E5BFE0936C00F8E1F1BDE1BD8DE0A2E0BB27ED938A95E9F780E090E1A0E0B1E063
:2003C000ED930197E9F7EEE8F3E085919591009761F0A591B59105901590BF01F00105905C
:2003E0000D920197E1F7FB01F0CF8BBFEFEFEDBFE0E1EEBFC0E0D5E00C9432110E94E7131D
:200400000E94ED130E94F313E0E0E093C505E093C60508956A937A93AA93BA93EA93FA931C
:20042000EFB7EA93A6E3B5E00E94F913AAE3B5E00E94F913AEE3B5E00E94F913A2E4B5E00E
:200440000E94F913AFEBB5E00E940214A091BF05B091C005DC97D1F40E94E713A1ECB5E016
:200460000E9402140E940814DC9781F40E94ED13A3ECB5E00E9402140E940D14DC9731F445
:200480000E94F313A5ECB5E00E940214E991EFBFF991E991B991A991799169911895C99913
:2004A000949AA0E09499A1E00E9412140E941714E02121F0A3EBB5E00E94F9130E9417149B
:2004C0000E2EA091B305B091B4058091B5059091B6050E941E14E02141F00E942514949849
:2004E000E0E0E0938705E093880508951A930A9301E010E0F8011DC00E942F14C99B02C0A4
:20050000949AFCCF0E9434140431E0E01E075CF4C99B06C0C99B02C0949AFCCF0E9434145B
:200520000F5F1F4FF1CFE4E1F0E0E0938905F0938A050991199108950E943C140E944414AA
:200540000E9450140E945414E0E0DFC2E0E0E09386050E943C140E9458140E9450140E94C4
:200560006114E0938605F0E008950E943C140E9444140E9477140E945414E1E0C6C2CE99C8
:2005800002C0979801C0979A0895ADE8B5E00E9402140E947B140E943C140E948114B5C228
:2005A0000E943C140E948F140E9498140E949C14E7E10E94A5140E949814E7ECF0E092C0FE
:2005C0000E943C14EBE10E94A5140E949814E1EFF0E088C00E943C14ECE10E94A5140E9410
:2005E0009814EAE0F1E07EC00E943C140E948F140E9498140E949C14E8E00E94A5140E94DA
:200600009814E4E2F1E06EC00E943C14EBE10E94A5140E949814EEEAF0E00E94AD140E9455
:200620003C14E6E20E94A5140E949814EAE2F1E059C00E943C14E2E20E94A5140E949814E4
:20064000EEE4F1E04FC00E943C14E5E20E94A5140E949814E2EBF1E045C00E943C14ECE124
:200660000E94A5140E949814E5EDF1E03BC00E943C14EFE10E94A5140E949814EFEEF1E01A
:2006800031C00E943C14EAE10E94A5140E949814ECE0F2E027C00E943C14EBE20E94A51464
:2006A0000E949814E4E2F2E01DC00E943C14E7E20E94A5140E949814EDE4F2E013C00E94FB
:2006C0003C14E4E30E94A5140E949814E2E7F2E009C00E943C14E5E30E94A5140E94981493
:2006E000E9E4F3E0FA93EA9380E00E94AB13229608950E94761A40E050E0E0E0E0938605FB
:2007000010E0AE81BF811197C9F50E943C140E9458140E94B414F0E0E0933405F093350571
:200720000E943C140E94B9140E94C5140E9461140E94C91439F4E1E0F0E0E0939505F093F9
:20074000960505C0E0E0E0939505E09396050E943C140E94B9140E94CE140E9461140E94C0
:20076000C91439F4E1E0F0E0E0939305F093940505C0E0E0E0939305E09394050E943C1429
:200780000E9458140E94D214F0E0E0932E05F0932F050E94D7141E2EAE81BF810E94DE14BA
:2007A0000E94E414E4E0F0E00E94C719E021E12969F10E943C140E9458140E9477140E9455
:2007C00061140E94C91439F4E1E0F0E0E093B905F093BA0505C0E0E0E093B905E093BA050C
:2007E000E0916A05F0916B0560916C0570916D05A7E0B0E080E090E00E940A1AE0935605D8
:20080000F09357056093580570935905E0919B05F0919C05309771F4E1E0F0E0E0939B0545
:20082000F0939C05E0915605F0915705E0939D05F0939E050E94E914A0919D05B0919E055A
:200840000E94A5190E94711A29F0E0E0E0939B05E0939C05D6010E94DE140E94D714E02112
:2008600051F10E943C140E9458140E94F2140E94F6140E94FA140E94FA140E9463120E94C9
:2008800063124E2F55270E946312F0E00E9400150024041605066CF4FA01AFEFB0E00E94D8
:2008A000051A0E94E414EA0FFB1FE40FF51F0E9400150E940515AE81BF811197B9F40E948C
:2008C0003C140E940E150E9450140E9461140E94C91439F4E1E0F0E0E093CD05F093CE050E
:2008E00005C0E0E0E093CD05E093CE050E943C140E940E150E94B414F0E0E093CF05F0932D
:20090000D0050E943C140E940E150E94D214F0E0E093D305F093D405E091CD05F091CE05B5
:20092000309719F4E3E0F0E08EC00E941715E2E3F0E00E94AF19E02121F0E1E1F0E00E94EF
:2009400025150E941715E7E3F0E00E94AF19E02121F0E2E1F0E00E9425150E941715ECE36D
:20096000F0E00E94AF19E02121F0E3E1F0E00E9425150E941715E1E4F0E00E94AF19E021ED
:2009800021F0E4E1F0E00E9425150E941715E6E4F0E00E94AF19E02121F0E5E1F0E00E94B9
:2009A00025150E941715EBE4F0E00E94AF19E02121F0E6E1F0E00E9425150E942A15E2E3FB
:2009C000F0E00E94AF19E02121F0EBE0F0E00E9425150E942A15E7E3F0E00E94AF19E0216E
:2009E00021F0ECE0F0E00E9425150E942A15ECE3F0E00E94AF19E02121F0EDE0F0E00E9433
:200A000025150E942A15E1E4F0E00E94AF19E02121F0EEE0F0E00E9425150E942A15E6E485
:200A2000F0E00E94AF19E02121F0EFE0F0E00E9425150E942A15EBE4F0E00E94AF19E02104
:200A400031F0E0E1F0E0E093D105F093D2050E947D1AAAC00E943C140E9444140E943815C3
:200A6000E09134050E943D150E9444140E944115E0912E050E943D150E9444140E94771427
:200A80000E9454140E94F6140E943C140E9444140E94F2140E945414E5E00E943D150E94A7
:200AA00046150E94C5140E9454140E94F6140E943C140E9446150E94CE140E9454140E948B
:200AC000F6140E943C140E944615E0E8EA930E9467120E9454140E94F6140E943C140E9473
:200AE0004F150E9450140E9454140E94F6140E943C140E944F150E943815E2E00E943D1539
:200B00000E944F150E944115E2E3EA930E94671208950E94781A0E9458155CF00E945E1539
:200B20000E94221A8F010E945E150E94271A9F0102C00E9463150E943C140E944414E0E81F
:200B40000E9468150E9458151CF00E946E1506C0AF81AA2312F0EE8101C0E0E0EA930E9462
:200B600067120E9473155CF00E9479150E94221A8F010E9479150E94271A9F0102C00E94D1
:200B800063150E943C140E944615E0E40E9468150E9473151CF00E946E1501C0EC81EA9305
:200BA0000E9467120E947F1A289608950E943C140E947E150E94C5140E9408141A971CF463
:200BC000ECE7F3E002C0EDE7F3E0FA93EA930E9487150E9494150E940D141A971CF4ECE71C
:200BE000F3E002C0EDE7F3E0FA93EA930E9497150E949415A091C505B091C6051A971CF44E
:200C0000ECE7F3E002C0EDE7F3E0FA93EA930E94A41508950E943C140E947E150E94541492
:200C20000E9408141A971CF4ECE7F3E002C0EDE7F3E0FA93EA930E9487150E9494150E94F1
:200C40000D141A971CF4ECE7F3E002C0EDE7F3E0FA93EA930E9497150E949415A091C50505
:200C6000B091C6051A971CF4ECE7F3E002C0EDE7F3E0FA93EA930E94A41508950E943C14A4
:200C8000EBE0EA930E946712E2E8EA930E9467120E94C5140E949814E091C105F091C20547
:200CA0000E94B115EA0FFB1FE093C705F093C8050E94B115DD976CF0E091C705F091C80567
:200CC000FC97E093C705F093C805A9ECB5E00E940214E091C305F091C4050E94B615EA0F27
:200CE000FB1FE093C905F093CA050E94B615DD976CF0E091C905F091CA05FC97E093C905A7
:200D0000F093CA05ABECB5E00E940214E091C505F091C6050E94BB15EA0FFB1FE093CB054E
:200D2000F093CC050E94BB15DD9774F0E091CB05F091CC05FC97E093CB05F093CC05E0E098
:200D4000E093CB05E093CC050E94B1151A971CF4ECE7F3E002C0EDE7F3E0FA93EA93E09159
:200D6000C705F091C8050E94C0150E9494150E94B6151A971CF4ECE7F3E002C0EDE7F3E05A
:200D8000FA93EA93E091C905F091CA050E94C0150E9494150E94BB151A971CF4ECE7F3E01F
:200DA00002C0EDE7F3E0FA93EA93E091CB05F091CC050E94C01508950E94781A0E943C14F3
:200DC0000E9444140E94C5140E945414EE850E943D150E9444140E94CE140E945414EC8534
:200DE0000E943D150E9446150E9450140E945414EA850E943D150E9446150E944115E8852D
:200E0000EA930E9467120E9458155CF00E945E150E94221A8F010E945E150E94271A9F01C4
:200E200002C00E9463150E943C140E9446150E9477140A930E9467120E9458151CF00E9445
:200E40006E1506C0AF81AA2312F0EE8101C0E0E0EA930E9467120E9473155CF00E9479151C
:200E60000E94221A8F010E9479150E94271A9F0102C00E9463150E943C140E9446150E94E4
:200E8000F2140A930E9467120E9473151CF00E946E1506C0AD81AA2312F0EC8101C0E0E088
:200EA000EA930E9467120E947F1A60960895959A0895E0E00799E1E0E03011F00C94B70770
:200EC000E0919905F0919A05309749F402DC0E94C9151D9A0E94CF150E94D51547C0E130A0
:200EE000A0E0FA0731F41D980E94CF150E94DC153DC0E230A0E0FA0741F41E9A069903C09F
:200F00000E94E31501C0BDDB31C0E330A0E0FA07D1F4069B17C0DDDBA0919705B0919805B9
:200F2000129721F4E3E0F0E00E94ED15E0919705F0919805309721F4E2E0F0E00E94ED157F
:200F40000E94F21513C0E430A0E0FA0779F40E94F915129729F40E94CF150E94DC1506C0BE
:200F6000E1E0F0E00E94ED150E94FE1513C0E13089F473DB1D981E980E940416E091B70584
:200F8000F091B805309711F40E940A160E9413160E943916E0919705F09198050895289742
:200FA0000E94761A20E030E040E050E00E947B140E943F160E94451601E010E00E94FE15F4
:200FC000E8E0F0E0CE16DF061CF00E94FE1502C00E944B160E9452160E9467160E946D16DC
:200FE0000E9467160E9472160E9467160E9477160E946716E3E0F0E00E94AF190E9467161F
:20100000E4E0F0E00E94AF19E02911F40C9490090E945216E02911F40C94D508F801E130EC
:20102000A0E0FA0769F5DA010E9472160E2E0E947C160E220E948216E0E2FEE460E070E0BE
:201040000E94D519E0211E2ED601E8E0F0E00E94C1190E2E0E948216E8EBFBE060E070E014
:201060000E94D519E021E12951F0E8E0F0E0CE16DF060CF4C59A02E010E00E94451695C0B0
:20108000E230A0E0FA07D9F50E9487160E2ED601E8E0F0E00E94C119E0211E2EA0E0CD9956
:2010A000A1E00E9412140E947C16E021E12911F0C59820C00E9482160E941E140E948E1616
:2010C0000E94931659F061DAF0DAC598E1EAF6E861E070E0EE83FF83688779870E948216C4
:2010E0000E941E140E948E160E94981639F0F1DA0E944516C298C69803E010E056C0E330E1
:20110000A0E0FA0711F00C94C408A091A705B091A805119711F5A0913405B0913505E6E4B9
:20112000F0E00E94C1190E2E0E94E414E1E0F0E00E94C7190E949D160E94BB190E220E94DD
:20114000A2160E946D16E02109F01B9AC798909AE0E0E093A705E093A805A0E0CC99A1E015
:201160000E941214A091A705B091A8050E946D16E02149F0909A0E94A7160E94AE160E94EC
:20118000B41604E010E011C0E430A0E0FA0769F4029906C0E1E0F0E0E093AB05F093AC05A5
:2011A000CC9903C0909805E010E0E0E00799E1E0E03011F00C946809E0919905F0919A0598
:2011C000309719F50E94BD16A0E00399A1E00E94981649F00E94C9157CDA1D9A0E943F161B
:2011E0000E94D51511C0A0E00399A1E00E941214D9010E946D16E02131F0A4E7B5E00E944A
:20120000021421E030E063C062C0E130A0E0FA0799F40E94BD16A0E0C199A1E00E94981623
:2012200049F00E94C5162CF01D980E94DC150E943F1601C04CC04BC0E230A0E0FA07B1F48D
:20124000079911C00E94C5166CF01E9A069909C041E050E00E9445160E94E3150E943F1645
:2012600001C00FDA02C0C19832C031C0E330A0E0FA07B1F4069B13C02CDA1E98AA85BB85EE
:201280008C859D85A137E7E1BE07E0E08E07E0E09E071CF00E94F21502C00E94FE1517C0F9
:2012A000E430A0E0FA0799F40E944B160E94D1160E2E0E94D7160E946D16E02109F0929A6A
:2012C0000E94DC160E94E316E02109F0929A13C0E13089F4FED9C1D91D981E9892980E94B0
:2012E000FE150E943F16E091B705F091B805309711F40E940A16EA85FB856C857D850E9467
:20130000E516EA87FB876C877D87EE81FF81688579850E94E516EE83FF83688779875ACE67
:201320000E947D1A2E9608950E94781A0E946315969A0E94EA16EC81FD810E171F07E4F4E5
:20134000019B03C0939A21E030E0A0E00199A1E00E94F016D9010E947216E02119F0939874
:2013600022E030E0E2E0F0E0E217F30721F40F5F1F4F23E030E0DFCF0E94EA1696980E94B2
:201380007F1A2696089566DBC89902C052D9FCCFA0D98DDD9ED904D99CD9CC9B02C0909A02
:2013A000FCCF0E94A7169098AB98A998AA9A1A98C798A2D88ED904D9E0918605E030E9F45B
:2013C0000E94F516A0919305B0919405119791F40E9439160E94FB16A99AE8EBFBE00E9459
:2013E0000317AA9A1A980E9407170E94FB16A9982AD9FFCF0E940A17DFCFE0E0E093860529
:20140000CEDDAD9A0E943916AD98C9DD0E943916C6DD0E943916C3DD0E9404160E94F9156D
:201420000E94DE140E94F9150E9477160E2A0E94F915E3E0F0E00E94AF19E02921F039DD24
:201440000E94ED15EBCFE0E0E0939705E09398050E9439160E94F5160E94D716119711F475
:201460000E940F17E1E0F0E00895E1E0F0E00E941717E0917E05F0917F0508951A930A9335
:201480001F9A019903C001E010E002C000E010E0002E012AA9F4A091A505B091A60515976A
:2014A00019F4E5D80E941C17A5EAB5E00E9402140E942217E1E0F0E0E0937C05F0937D054C
:2014C000E1E0F0E0E017F107A1F40E941C17A0917C05B0917D05119731F4FBD8E0E0E093DA
:2014E0007C05E0937D05E1E0F0E00E9428171F989298E0918205F091830509911991089541
:201500000E942F14E0911405F0911505309729F40E942D170E94FE01DAC0E130A0E0FA072A
:20152000D9F4AF9A0E9434170E94381799F0E0E0E0934605E0934705E0934805E093490570
:201540000E943C17E2E0F0E00E9446170E944B174BD801C03FD8BBC0E230A0E0FA0769F49B
:201560000E9452170E945B173CF0AF980E943C17E3E0F0E00E944617AAC0E330A0E0FA0754
:2015800059F40E9463173CF0AE9A0E943C17E4E0F0E00E9446179BC0E430A0E0FA0761F4A1
:2015A0000E94631744F0AE98C49A0E943C17E5E0F0E00E9446178BC0E530A0E0FA0769F470
:2015C0000E9452170E945B173CF0C4980E943C17E6E0F0E00E9446177AC0E630A0E0FA0709
:2015E00099F50E943417A0E0CB99A1E00E94931621F00E942D170E946C17A0E0CA99A1E040
:201600000E9412140E94381721F00E942D170E946C170E9434170E94381731F0E3E0F0E063
:201620000E9446170E946C17A0E0CA99A1E00E941214A0E0CB99A1E00E94931621F0E7E0D2
:20164000F0E00E94461743C0E730A0E0FA0759F40E9463173CF0AD9A0E943C17E8E0F0E0B7
:201660000E94461734C0E830A0E0FA0761F40E94631744F0AD98C49A0E943C17E9E0F0E008
:201680000E94461724C0E930A0E0FA0759F40E9452170E9479172CF0C498EAE0F0E00E948F
:2016A000461715C0EA30A0E0FA0789F40E943C17E0E0E0931405E093150501E010E0E1E080
:2016C000F0E0EC15FD0519F4E2E0F0E06F01E9C20E942F14E0911605F0911705309771F443
:2016E000E0E0E0934A05E0934B05E0934C05E0934D050E9481170E94861756C0E130A0E0FC
:20170000FA07B1F40E948B170E945B170CF0AC9A0E948B17AD33E0E0BE07E0E08E07E0E0CB
:201720009E072CF01C9A0E9481170E9494173CC0E230A0E0FA0759F40E948B170E94991739
:201740002CF01C980E9481170E94A1172DC0E330A0E0FA0759F40E948B170E9479172CF0C5
:20176000AC980E9481170E94A6171EC0E430A0E0FA0751F40E948B170E94791724F0E6E183
:20178000F5E00E94AB1710C0E530A0E0FA0761F40E9481170E94B017E3E0F0E0EC15FD051C
:2017A00019F4E4E0F0E06F017CC20E942F14E0911805F0911905309791F4E0E0E0934E05F6
:2017C000E0934F05E0935005E09351050E94B717C398AA98E8E1F5E00E94861708C1E130ED
:2017E000A0E0FA0791F40E94C117A230E0E0BE07E0E08E07E0E09E073CF01A9A0E94B71708
:20180000E8E1F5E00E949417F2C0E230A0E0FA07B1F40E94A216119721F40E94CA170E94B7
:20182000D1170E94C1170E94D81744F0A99AC79A0E94B717E8E1F5E00E94A117D8C0E330CA
:20184000A0E0FA07A1F40E94C1170E94791774F0A998A9E8B5E0ED91FD913197FE93EE9315
:201860000E94B717E8E1F5E00E94A617C0C0E430A0E0FA0739F40E94B717E8E1F5E00E9409
:20188000AB17B5C0E530A0E0FA0781F40E94C1170E94E01754F0C39A1A980E94E817E8E136
:2018A000F5E0A6E0B0E0A083B183A1C0E630A0E0FA0781F40E94C1170E945B1754F0919A7C
:2018C000AB9A0E94B717E8E1F5E0A7E0B0E0A083B1838DC0E730A0E0FA07D1F5A0E005997E
:2018E000A1E00E94F0160E94EE170E946D16E02111F00E94CA170E94EE170E9472160E2E61
:20190000E0912E05F0912F050E94C1170E94A0190E94CD19E02131F0C39891980E94B717FB
:201920000E94F317E0913005F09131050E94C1170E94A0190E94711A54F4C3989198A9EA3D
:20194000B5E00E9402140E94E8170E94F3174FC0E830A0E0FA07C9F40E94FA170E947216AB
:20196000E02131F0AB98AA9A0E94B7170E94D1170E94FA170E946D16E02131F0AB98AA9A43
:201980000E94B7170E94D11732C0E930A0E0FA07A1F40E94C117A630E0E0BE07E0E08E0702
:2019A000E0E09E074CF0C7980E94B717E8E1F5E0AAE0B0E0A083B1831AC0EA30A0E0FA0733
:2019C000B1F4E0918F05F0919005E0939105F09392050E94B717E8E1F5E00E94B017E5E0E8
:2019E000F0E0EC15FD0519F4E6E0F0E06F0159C10E942F14E0911A05F0911B05309781F495
:201A0000E0E0E0935205E0935305E0935405E09355050E9403180E9486170E947B1441C1A9
:201A2000E130A0E0FA0729F40E9403180E94941738C1E230A0E0FA07B1F40E940F180E9451
:201A4000791784F0A0913405B0913505A634E0E0BE070CF41B98A898C19AC09A0E940318D9
:201A60000E94A1171EC1E330A0E0FA0711F00C94780DA0919105B09192050E9472160E2E6E
:201A80000E94A2160E946D160E22A091A105B091A2050E946D160E22A091AB05B091AC05B0
:201AA0000E947216E021E9F40E94C5020E945F03E1E0F0E0E093A105F093A205CF9917C09E
:201AC000A091AB05B091AC050E94DE14D601E7E0F0E00E94BB19E02121F0ADEAB5E00E94DB
:201AE0000214EAE1F5E00E94A6170E941818D9C0E430A0E0FA0769F40E946903E0E0E09333
:201B0000A105E093A205C59A0E9403180E94AB17C8C0E530A0E0FA0711F00C94D20D0E9445
:201B20000F18E9E1F0E060E070E00E94D5190E2EA0E0CD99A1E0E1E00E94AA190E22A0E04B
:201B4000C599A1E00E94931639F0C69A0E940318A6E0B0E0A083B1830E940F18E2E3F0E04A
:201B600060E070E00E94D5190E2E0E948716E02139F00E9418180E94C5020E944B03C59818
:201B8000A0E0C599A1E0E0E00E94AA190E948E160E94981631F00E946903EAE1F5E00E94BA
:201BA000A6177FC0E630A0E0FA0791F40E940F18AA31E0E0BE07E0E08E07E0E09E073CF0FE
:201BC000C29A0E940318A7E0B0E0A083B18369C0E730A0E0FA07A1F40E940F180E9499170D
:201BE00074F0009B05C0ABEBB5E00E9402143197C0980E940318A8E0B0E0A083B18351C0E1
:201C0000E830A0E0FA0769F40E940F180E9499173CF0C5980E940318A9E0B0E0A083B183FD
:201C200040C0E930A0E0FA0769F40E940F180E94D8173CF0C2980E940318AAE0B0E0A083D3
:201C4000B1832FC0EA30A0E0FA0769F40E940F180E94D8173CF0C1980E940318ABE0B0E0B2
:201C6000A083B1831EC0EB30A0E0FA07D1F40E940F180E94E017ACF00E9403180E94B017AA
:201C8000A2E3B5E0ED91FD913197FE93EE93E7E0F0E0EC15FD0529F4E8E0F0E06F010E94E3
:201CA0002218F8010991199108950E943C180E94DE140E944118E02129F022DCE0930005FB
:201CC000F09301050E9447180E944C180E9452180E945A18E02129F0FBDCE0930205F09366
:201CE00003050E945F180E944C180E9452180E9464180E945A18E02129F057DDE0930405B5
:201D0000F0930505E0910605F09107050E944C180E9452180E946418D601E5E0F0E00E94EF
:201D2000B5190E949D160E94B5190E220E945A18E02129F05DDEE0930605F09307050895CD
:201D4000AA24BB240E9475180E9422180E94D6050E94FE01089524971A930A930E947C18D5
:201D600000E010E00E9482180E2ED6010E947716E02199F00E940A170E9484180E9496183A
:201D80000E949B180E94A118E02139F00E94A7180E94B718E3E0F0E06F010E9482180E2E1C
:201DA0000E9447180E94BF18D601E4E0F0E00E94AF19E021B9F00E940A170E9484180E9487
:201DC00096180E949B180E94A118E02159F00E94A7180E94C5180E94FE01E5E0F0E06F01D5
:201DE0000E94CC180E9482180E2E0E9447180E94BF180E945F18A1E0B0E00E94AF190E9435
:201E00009D160E94AF19E021B9F00E940A170E9484180E9496180E949B180E94A118E021F9
:201E200059F00E94A7180E94C5180E94D2180E94B718E7E0F0E06F010E9482180E2E0E945B
:201E400047180E94BF180E945F180E94BF18E0910605F09107050E94BF180E947C16E02161
:201E600011F40C9426100E940A17FFDA0E941717E1E0F0E0E0938005F09381050E9476026F
:201E8000E0938B05F0938C05D5010E9472160E2EA0918605E1E00E94AA190E220E9496188D
:201EA0000E949B180E94A118E02111F40C9426100E9422170E947C180E94D9180E94DE185A
:201EC000E021C9F00E94E61819F4D8DA0E9428170E94FB1814F00E947C180E94D918D801AD
:201EE0000E946D16E02131F0A6E7B5E00E94021401E010E0E1CF0E94D9180E94D1160E22F4
:201F00000E94E316E02161F00E94E61819F4B6DA0E9428170E94FB1814F00E947C18EBCF0D
:201F20003ED8E0E0F0E0FA93EA930E947903A091B905B091BA050E9472160E2EA091BD058B
:201F4000B091BE050E946D16E021C9F0E0E0E093B905E093BA05E1E0F0E0E093BD05F09332
:201F6000BE050E94B502E4E0F0E00E9400150E940515EEEFFFEFE0932805F0932905F6012B
:201F800031966F01E8EEF3E0EC15FD051CF4E4E6F0E06F010E94E414E3E0F0E00E94C71995
:201FA0000E2E0E945A18E02141F00E94CC180E9407190E94D2180E940D190E94E4141397BF
:201FC00044F00E944B170E94C5180E94D2180E940D190E94E414129734F00E944B170E94E9
:201FE000D2180E940D190E94E4140E946D1A24F40E944B170E940D19A3DE0E941419A09107
:202000009F05B091A0050E94AF190E2EA091A305B091A4050E946D16E021C1F00E9404034D
:202020000E94E7130E94ED130E94F313E0E0E093C505E093C605949892980E94B5020E942E
:202040009C02E0E0E0938605CC24DD241981088126960895D601E8E0F0E00E94AF190E2EA2
:20206000D5010E946D16E02119F0E1E0F0E05F010E94DC16D5010E946D16E02111F40C9435
:20208000F910042C0528A9F40E94E914A0915E05B0915F0580916005909161050E941A1993
:2020A000E02121F0AEE6B5E00E940214E1E0F0E02F01062C0728A9F40E94E914A091620537
:2020C000B091630580916405909165050E941A19E02121F0A0E7B5E00E940214E1E0F0E006
:2020E0003F010E941E19D4010E946D160E22D601EBE0F0E00E94C1190E220E94D7160E944E
:202100006D16E021A1F00E942219E02111F00E942C190E942F1944F00E9434190E943719E5
:202120000E9414190E943A19E1E0F0E04F010E941E19D4010E946D160E22D601E9E0F0E087
:202140000E94AF190E220E94E316E02119F0E1E0F0E04F010E941E19D4010E946D160E2A54
:202160000E94D1160E220E94E316E021A1F00E942219E02111F00E942C190E942F1944F095
:202180000E9434190E9437190E9414190E943A19E1E0F0E04F010E941E19D4010E946D16E6
:2021A0000E2A0E94DE18E021A1F00E942219E02111F00E942C190E942F1944F00E943419EA
:2021C0000E9437190E9414190E943A19E1E0F0E04F01D2010E9472160E2ED3010E94721631
:2021E0000E22D4010E947216E02119F0E1E0F0E05F0108950C2C0D28A1F5E0918605E03009
:2022000029F40E940A170E940A062BC00E94F5160E940F170E9446190E944C190E94071902
:202220000E94D2180E940D190E9446190E9469039498E0E0E093BD05E093BE05E091280546
:20224000F0912905FA93EA93E091B105F091B205FA93EA930E9489050E943E06E1E0F0E0B5
:202260006F010895E0E0EBBBEABBE8BBEFEFE7BBE0E0E5BBEFEFE4BBE0E0E2BBEFEFE1BB6F
:20228000E0E0E3B9EFEFE2B9E0E0E0936200E0936100E0936500EFE1E0936400E0E0E0BF22
:2022A000E7E0E3BFE0E0E2BFE1BFEFBDEEBDEDBDECBDE7BDE6BDEBBDEABDE9BDE8BDE093B6
:2022C0007900E0937800E5BDE4BDE3BDE0938B00E0938A00E0938900E0938800E0938100D1
:2022E000E0938000E0938700E0938600E0938500E0938400E0938300E0938200E0936A0041
:20230000EABFE9BFE1E0E7BFE0E0E0937D00EBB9E8E1EAB9E6E0E0939500E0E0E0939000B4
:20232000E7E6E9B9E0E0E0939A00E0E8E8B9E0E0E0BDE6B9EDB9E09374007894E0E4FFE1BF
:202340000E9403170E9407170E9407170E9407170E943C140E948114EA93B9D0E3E0F0E0BF
:20236000FA93EA930E949409CC24DD24E0E0E0935605E0935705E0935805E09359050E9483
:202380007518AA24BB24E4E6F0E060E070E0E0935A05F0935B0560935C0570935D050E94C9
:2023A000CC18EEE3F0E060E070E0E0936A05F0936B0560936C0570936D050E940416ECEDC5
:2023C000F0E0E0933005F0933105E8E2F0E0E0932E05F0932F05E6E4F0E0E0933405F0930C
:2023E0003505E0E0E0932A05E0932B050E9446190E944C19E0E0E0938405E0938505E0936A
:202400009B05E0939C05E0939D05E0939E05E093A105E093A2050E941C17E0E0E093A305FA
:20242000E093A405E093A705E093A805E093A905E093AA05E093AD05E093AE050E94AE164D
:20244000E093AF05E093B005E0E0E093B105E093B2050E9425140E94C915E0E0E093BD05CA
:20246000E093BE05E093D105E093D205E093D305E093D405E0938605E0937805E09379051D
:20248000E0937A05E0937B05E0937C05E0937D05E0937E05E0937F05E0938005E093810590
:2024A0000E9422170C2C0D2821F40E94C3096F01F9CF0E944F029EDEF8DBCCDD4CDC0E9464
:2024C000BF02F7CFFFCF5F9BFECFECB108955D9BFECFE881ECB921960895EA81EA93F7DFC1
:2024E000A881B9810E9402142396089526970E94761A10E0AC85BD85E0E0F0E0ED93FC937A
:20250000EA89FB893196EA8BFB8B3197E4912E2FE03011F40C94A313E12FE03039F4253259
:2025200011F411E002C00E945B190CC1E130A9F4253219F40E945B1904C112E040E000E021
:202540002D3211F401E0FEC02B3211F44BE2FAC0203211F440E2F6C002C0E23039F450E0CF
:2025600013E0203311F40068EDC004C0E33011F00C94A213203310F02A3308F007C0AAE0D5
:202580005A9F502DE22FE0535E0FDCC0E22FE33649F40E946419E889F989A481AA930E94FB
:2025A0006A19CFC0E33741F40E9464190E9472190E94D2131E2F0AC0E03761F40E94641945
:2025C0000E9472190E94DC131E2F086002600F7730E035C0E43611F0E93611F4046002C036
:2025E000E53731F4ECE8F0E0EE83FF8315E00DC0E83511F4086004C0E83711F00C94A1137F
:20260000E6E9F0E0EE83FF8314E002FF14C00E9464190E947C19AB85AA233AF4EA85FB85EF
:202620000E949419EA87FB874DE2403011F01F5F01C00B7F04C00E9464190E947C1900FDD8
:2026400011C0151778F407FF08C002FF04C00B7F242F115001C020E301C020E20E945B19A3
:202660005150EFCF312F01FF17C03030A1F003FF06C0EE81FF812591EE83FF8305C0AE817F
:20268000BF812D91AE83BF830E945B19503009F051503150EACF4BC020E3EE81FF810E94C0
:2026A000641AE887F987EE81FF813296EE83FF83E885F985AA85BB85AE17BF0750F02F5F50
:2026C000A885B985EA85FB85EA1BFB0BEA87FB87EFCF2A3328F003FF02C0295F01C0295DDC
:2026E00004FD1AC0213320F4A885B985119709F409C0531710F000FF01C013C020E207FFB9
:202700000BC020E3006102FF07C00B7F4A930E946A19503009F051500E945B19503009F08D
:2027200051503150A885B985129708F0B5CF00FF08C0503031F05150E0E2EA930E946A197A
:20274000F8CF10E0DDCEAC85BD850E94561A0E947D1A64960895FF92F82E26971A930A9304
:20276000DE0114960E9490198D01E0E0EC83ED83EE83EF83DE0118960E9490190E94561A8B
:20278000FA93EA931A930A93EDE6F2E1FA93EA93FE013896FA93EA93A9DE198108812896F6
:2027A000FF900895A991B991EE27FF276D91662311F03196FBCF0895AA27BB27E991F991C1
:2027C0000590002011F01196FBCFFD010895E0E0E093BF05E093C0050895E0E0E093C10572
:2027E000E093C2050895E0E0E093C305E093C40508950E945A1AEF5FFF4F6F4F7F4F0E944E
:202800005F1A0895ED91FD913196FE93EE930895A091C105B091C2050895A091C305B0914A
:20282000C4050895E1E00E94AA190E2E0895A0E0C999A1E0E0E00E94AA190895E0EAF6E866
:2028400061E070E00E94D5190895E0E0E093B305E093B405E093B505E093B60508951A93FE
:202860000A9300E010E00895E0EDF7E0FA93EA930E94841994980895EAE5EA930E94671231
:20288000E5EAEA930C946712E5E0EA930E946712E2E8EA930E946712E0E0EA930C946712BE
:2028A000E0E3EA930C946712E0E0EA930C946712E4E0EA930E946712E3E8EA930E946712AA
:2028C000F3CFE1E0EA930E9467120E9463120E9463120E9463120E9463120E9463120E94C8
:2028E00063120E9463120E9463120C946312E0E6EA930C946712E0E0E0938D05E0938E05F9
:202900000895E3E0EA930E946712E0E8EA930E946712E2E0EA930E946712E0E10895E3E2E2
:20292000EA930E946712E2E8EA930E946712BCCFE0E9EA930C946712EEE9F0E0FA93EA9302
:2029400080E00E94AB13229697CFEA930E946712E2E8EA930E946712A7CFFA93EA9380E0BF
:202960000E94AB1322960895E0E4EA930E946712A8CFE4E0EA930E946712E3E8EA930E9489
:202980006712E0E1EA930C946712E0E1EA930C9467122E2F3327022E032A0895E0E2EA9320
:2029A0000C946712E0E5EA930E9467128ACFAE81BF81E1E0F0E00E94AF190895E0E0F0E0B1
:2029C0000E94AF190E2E0895A0913205B09133050895E0915605F09157056091580570913E
:2029E00059050895E0E7EA930C946712E1E0EA930C9467120E9463120E9463120C946312E5
:202A0000E0933205F09333050895E0913205F0913305E0939F05F093A0050895E4E0EA9336
:202A20000E946712E3E8EA930E946712B7CFA091CF05B091D005E1E0F0E00E94AF190E2E40
:202A4000A091D305B091D4050895E093D105F093D2050895A091CF05B091D005E2E0F0E0C9
:202A60000E94AF190E2EA091D305B091D4050895E0E4EA930E94671217CFEA930E94671216
:202A8000FBCEE0E5EA930E9467120ECFE5E0EA930E946712E2E8EA930E94671276CFE5E06A
:202AA000EA930E946712E2E8EA930E94671276CFAE81BF81A030E1E0BE070895AE81BF8106
:202AC000EFEFF0E0089500E010E020E030E00895EA930E9467120A930C946712AFEF0A0236
:202AE000F001E20F0895AC81BD81A030E1E0BE070895AC81BD81EFEFF0E00895EBE0EA93FB
:202B00000E946712E2E8EA930E94671247CFE091C105F091C2050E94A0190E94681A84E0C0
:202B20000E94AB1326960895E0E8F3E016CFE091C305F091C4050E94A0190E94681A84E0F6
:202B40000E94AB1326960895E091C505F091C6050E94A0190E94681A84E00E94AB13269636
:202B60000895A091C705B091C8050895A091C905B091CA050895A091CB05B091CC050895B4
:202B80000E94A0190E94681A84E00E94AB1326960895E0E0E093B705E093B8050895E0E914
:202BA000F1E0FA93EA930C948419E1E0F0E0E0939905F0939A050895E2E0F0E0E0939905F9
:202BC000F0939A0508950E946903E3E0F0E0E0939905F0939A051E980895E0939705F0937D
:202BE00098050895E4E0F0E0E0939905F0939A050895A0919705B09198050895E0E0E093BC
:202C00009905E0939A050895E0E0E0939705E0939805F4CFE1E0F0E0E093B705F093B805C5
:202C2000AFEAB5E0EFCDE091AD05F091AE05FA93EA93E091A905F091AA05FA93EA93E0917F
:202C4000AF05F091B005FA93EA93E091BB05F091BC05FA93EA93E0917405F0917505FA9391
:202C6000EA93E0917605F0917705FA93EA930C94DC06E8EEF3E0FA93EA930C948419E0E0B2
:202C8000EA87EB87EC87ED870895E0E0EE83EF83E887E9870895E5E0F0E0E0939905F09385
:202CA0009A050895D801E1E0F0E00E94AF190E2EE2E0F0E00E94AF190E2AE3E0F0E00E945F
:202CC000AF190E2AE4E0F0E00E94AF1908950E2AA0919905B0919A050895E0E0F0E00E94A3
:202CE000AF190895E1E0F0E00E94AF190895E2E0F0E00E94AF190895D601E8E0F0E00E942D
:202D0000BB190895AE81BF81888599850895A0E0CD99A1E0E0E00E94AA1908950E2EA0E026
:202D2000CF99A1E00895E1E00E94AA19E0210895E0E00E94AA19E02108950E22D601E6E0B9
:202D4000F0E00895A0919505B09196050895E1E0F0E0E093A705F093A8050895E0E0E09312
:202D6000AB05E093AC050895E0933A05E0933B05E0933C05E0933D050895A0E00799A1E0D6
:202D8000E0E00E94AA190E2E0895AA85BB858C859D85A93EE3E0BE07E0E08E07E0E09E076A
:202DA0000895D601EAE0F0E00E94BB190895A091CD05B091CE050895D601E9E0F0E00E942C
:202DC000BB190E2E0895F3DF8DCFEF5FFF4F6F4F7F4F0895E4EFF1E0FA93EA930C94841968
:202DE000E0E00E94AA190E2E0895E1E0F0E0FA93EA930C947903AA981A9AE8EBFBE0FA93ED
:202E0000EA930C948419FA93EA930C948419E0EDF7E0F9CF0E94A602E09386050895E091EF
:202E2000D105F091D205FA93EA930C949409E0937E05F0937F050895E0E0E093A505E09333
:202E4000A6050895E0E0E0938205E09383050895E0938205F09383050895E1E0F0E0E09332
:202E60001405F09315050895A0E0CA99A1E0B8CFA0E0CB99A1E05CCFE0E0E0933605E093A3
:202E80003705E0933805E09339050895E0931405F09315050895E1E0F0E0E0932C05F0937A
:202EA0002D050895A0913605B091370580913805909139050895A932E0E0BE07E0E08E075B
:202EC000E0E09E070895EEDFA531E0E0BE07E0E08E07E0E09E070895E5E1F0E060E070E04B
:202EE000E0933605F093370560933805709339050895A333E0E0BE07E0E08E07E0E09E0742
:202F00000895E0E031DFE6E1F5E00895A1E0B0E0A083B1830895A0913A05B0913B05809104
:202F20003C0590913D050895A2E0B0E0A083B1830895AF31E0E0BE07E0E08E07E0E09E072B
:202F40000895A3E0B0E0A083B1830895A4E0B0E0A083B1830895A5E0B0E0A083B1830895BC
:202F6000A0E0B0E0A083B18301E010E00895E0E0E0933E05E0933F05E0934005E0934105DE
:202F80000895A0913E05B0913F0580914005909141050895E1E0F0E0E0938F05F093900591
:202FA000E6CFE8E1F5E0A9E0B0E0A083B1830895AB30E0E0BE07E0E08E07E0E09E070895FA
:202FC000A531E0E0BE07E0E08E07E0E09E070895E0E0E0938F05E0939005C9CFA0918F0513
:202FE000B09190050895E8E1F5E0A8E0B0E0A083B1830895C6DFEAE0F0E060E070E00E9443
:20300000D5190E2EEBCFE0E0E0934205E0934305E0934405E0934505EAE1F5E00895A091B0
:203020004205B091430580914405909145050895E0E0E0934205E0934305E0934405E093FA
:2030400045050895E0E0E0935E05E0935F05E0936005E0936105E0936205E0936305E09343
:203060006405E0936505E0936605E0936705E0936805E09369050895A0910005B091010572
:203080000895D601E0E0F0E00E94B5190895E0910205F09103050895A0E0B0E00E94AF1907
:2030A0000E2EEFCF0E22D601E1E0F0E00E94B5190E220895A0912C05B0912D0513CEE0911A
:2030C0000405F09105050895D601E2E0F0E00E94B5190E22E3E0F0E00E94B5190E22E4E0BF
:2030E000F0E00E94B5190E2208954424552466247724882499240895E0E0EA83EB83EC83AD
:20310000ED830895B9DFEECD0E94350A90DEE1E0F0E0E0938005F09381050E947602E093E1
:203120008B05F0938C05A09186057CCBA0917E05B0917F05D7CD0E22A0918005B09181051E
:20314000D1CD0E22A0918B05B0918C05CBCD0E94CF070E94D605E0E0F0E0FA93EA930E9445
:203160007903E0E0E0930005E093010508950E94FE01E0E0E0932C05E0932D050895A1E0BD
:20318000B0E00E94AF190E220895E2E0F5E0A0E0B0E0A083B1830895E0E0E0932C05E093F6
:2031A0002D050895E4E0F5E0A0E0B0E0A083B1830895A0918205B091830500CCD601EBE0B4
:2031C000F0E00E94BB190E22F2DD87CDEA81FB816C817D81FADDEA83FB836C837D83AA81A8
:2031E000BB818C819D81A130E0E0BE07E0E08E07E0E09E070895AA81BB818C819D81A5364E
:20320000E0E0BE07E0E08E07E0E09E070895E0E0E0930005E0930105B8CFE6E0F5E0A0E07F
:20322000B0E0A083B1830895E0912805F0912905319708950E94D5190E2EB3CDA0E00499EF
:20324000A1E0CECDC6DBA0916605B09167058091680590916905EECFA2E7B5E0D3CAEAE019
:20326000F0E0CE16DF060895A8E2B5E0CBCAA1EBB5E0C8CAFA93EA93E091B105F091B20548
:203280003197FA93EA930E948905CDCCE0E0E0932805E09329050895EFEFFFEFE0936E0543
:2032A000F0936F05E0937005F0937105E0937205F093730508952A93ED85FE85FA93EA93F8
:2032C000E989FA8909950895E889F9893497E88BF98B0895ED85FE85FA93EA93E989FA8978
:2032E00009950895A889B98914960E94561AEE83FF83FA93EA930895A889B98914960E940B
:20330000561AEA87FB870895E991F991309639F080EA9FE00197F1F7A8953197C9F70895EF
:203320000024AF0DB01D0895F195E195F0400895F09560957095E195FF4F6F4F7F4F08950E
:203340006F2F660F660B762F08958B2F880F880B982F0895EA17E1E009F0EE270895EA17F1
:20336000FB07E1E009F0EE270895EA17FB07E1E009F4EE270895AE17BF07E1E00CF4EE270B
:203380000895AE17BF07E1E00CF0EE270895EA17FB07E1E00CF0EE270895AE17BF0786070C
:2033A0009707E1E00CF4EE270895EA17FB0768077907E1E00CF0EE270895FA9FF02DEB9F5B
:2033C000F00DEA9FE02DF10D08957A9F702D6B9F700DF89F700DE99F700D6A9F602D710D55
:2033E000FB9F600D711DE89F600D711D8827FA9FF02D610D781FEB9FF00D611D781FEA9F27
:20340000E02DF10D681F781F08952FD0D6DF0EF48BDF089538D0D9DF0EF48ADF089500243D
:20342000112490E1AA0FBB1F001C111C0E1A1F0A18F40E0E1F1E01C0A1609A9599F7FD01D5
:20344000D001089512D0EBDF0EF46EDF0895E894B7FF04C0A095B09511966894F7FD64DF1C
:20346000DEDFFD010EF460DF0895E894F7FF02C05BDF6894B7FF06C0A095B095119600F8B4
:20348000039400FA0895E89477FF02C051DF689497FF0BC00024A095B0958095909511963E
:2034A000801D901D00F8039400FA0895ED91FC9111970895ED91FD916D917D9108957E9386
:2034C0006E93FE93EE9308950590F491E02D08957A936A93FA93EA93089500240A160B0672
:2034E0000895EA17FB076807790708955A934A933A932A931A930A9308955D814C813B81FE
:203500002A81198108810895FFFFFFFFFFFFFFFFFFFFFFFFFFFFFFFFFFFFFFFFFFFFFFFF58
:20352000FFFFFFFFFFFFFFFFFFFFFFFFFFFFFFFFFFFFFFFFFFFFFFFFFFFFFFFFFFFFFFFFAB
:20354000FFFFFFFFFFFFFFFFFFFFFFFFFFFFFFFFFFFFFFFFFFFFFFFFFFFFFFFFFFFFFFFF8B
:20356000FFFFFFFFFFFFFFFFFFFFFFFFFFFFFFFFFFFFFFFFFFFFFFFFFFFFFFFFFFFFFFFF6B
:20358000FFFFFFFFFFFFFFFFFFFFFFFFFFFFFFFFFFFFFFFFFFFFFFFFFFFFFFFFFFFFFFFF4B
:020000040001F9
:200000000C94CB010C9400000C9400000C9400000C9400000C9400000C9400000C94000014
:200020000C9400000C9400000C9400000C9400000C9400000C9400000C9400000C940000C0
:200040000C940A020C9400000C9400000C9400000C9400000C9400000C9400000C94000094
:200060000C9400000C9400000C9400000C9400000C9400000C9400000C9400000C94000080
:200080000C9400000C9400000C9400001027E80364000A000100001000011000010020208D
:2000A000202020202020202020202020202020202020202020202020202020202020202040
:2000C00020202020202000496E69636A616C697A756A65206D61737A796E65005779637AAB
:2000E00079737A637A6F6E6F206D61737A796E65004D61737A796E61207A61696E69636A5F
:20010000616C697A6F77616E6100437A656B616D206E612070726574206777696E746F77C5
:20012000616E79005072616361005A616B726563696C656D2077737A7973746B6965207AD2
:200140006164616E652070756368617279004272616B2077796D6167616E65676F206369CF
:20016000736E69656E696120362062617200446F7A6F776E696B206B6C656A7520707265F6
:20018000746F77206E696520676F746F777900446F7A6F776E696B206B6C656A75206E6161
:2001A0006B726574656B206E696520676F746F77790057796C61637A206D61737A796E65F3
:2001C000206920706F637A656B616A2031206D696E757465004F64736C6F6E2069207A7218
:2001E00065736574756A206B757274796E65004D6F6E7465722033206E6965206E6163695E
:20020000736E616C20706564616C6100437A656B616D206E612072756368206C616E63755A
:2002200063686100506F707261772070726574207A2067727A79626B69656D2069206E6138
:200240006369736E696A2067757A696B005573756E2070726574207A6520737A637A656B95
:200260002069206E616369736E696A2067757A696B0057796D69656E206C7562206E616B06
:200280007265632F646F6B7265632067727A7962656B2069206E616369736E696A2067756B
:2002A0007A696B004D6F6E7465722033202D207A64656D6F6E74756A207075636861722018
:2002C0006920706F7477696572647A004D6F6E7465722033202D2077797A776F6C207265C5
:2002E000637A6E696520637A756A6E696B207075636861726100534C415645206E696520CC
:20030000706F7477696572647A696C20706F64616E6961206E616B7265746B6900534C41CB
:200320005645206E696520706F7477696572647A696C207A657A776F6C656E6961206E6192
:2003400020737A637A656B690020202020202020202020202020202020202020202020209A
:20036000202020202020202020202020202020202020202020202020202020003025640064
:200380003A0001002D4E414E00494E4600000100D50582030000F894EE27ECBBF1E0F5BF0E
:2003A000E5BFE0936C00F8E1F1BDE1BD8DE0A2E0BB27ED938A95E9F780E090E1A0E0B1E063
:2003C000ED930197E9F7EEE8F3E085919591009761F0A591B59105901590BF01F00105905C
:2003E0000D920197E1F7FB01F0CF8BBFEFEFEDBFE0E1EEBFC0E0D5E00C9432110E94E7131D
:200400000E94ED130E94F313E0E0E093C505E093C60508956A937A93AA93BA93EA93FA931C
:20042000EFB7EA93A6E3B5E00E94F913AAE3B5E00E94F913AEE3B5E00E94F913A2E4B5E00E
:200440000E94F913AFEBB5E00E940214A091BF05B091C005DC97D1F40E94E713A1ECB5E016
:200460000E9402140E940814DC9781F40E94ED13A3ECB5E00E9402140E940D14DC9731F445
:200480000E94F313A5ECB5E00E940214E991EFBFF991E991B991A991799169911895C99913
:2004A000949AA0E09499A1E00E9412140E941714E02121F0A3EBB5E00E94F9130E9417149B
:2004C0000E2EA091B305B091B4058091B5059091B6050E941E14E02141F00E942514949849
:2004E000E0E0E0938705E093880508951A930A9301E010E0F8011DC00E942F14C99B02C0A4
:20050000949AFCCF0E9434140431E0E01E075CF4C99B06C0C99B02C0949AFCCF0E9434145B
:200520000F5F1F4FF1CFE4E1F0E0E0938905F0938A050991199108950E943C140E944414AA
:200540000E9450140E945414E0E0DFC2E0E0E09386050E943C140E9458140E9450140E94C4
:200560006114E0938605F0E008950E943C140E9444140E9477140E945414E1E0C6C2CE99C8
:2005800002C0979801C0979A0895ADE8B5E00E9402140E947B140E943C140E948114B5C228
:2005A0000E943C140E948F140E9498140E949C14E7E10E94A5140E949814E7ECF0E092C0FE
:2005C0000E943C14EBE10E94A5140E949814E1EFF0E088C00E943C14ECE10E94A5140E9410
:2005E0009814EAE0F1E07EC00E943C140E948F140E9498140E949C14E8E00E94A5140E94DA
:200600009814E4E2F1E06EC00E943C14EBE10E94A5140E949814EEEAF0E00E94AD140E9455
:200620003C14E6E20E94A5140E949814EAE2F1E059C00E943C14E2E20E94A5140E949814E4
:20064000EEE4F1E04FC00E943C14E5E20E94A5140E949814E2EBF1E045C00E943C14ECE124
:200660000E94A5140E949814E5EDF1E03BC00E943C14EFE10E94A5140E949814EFEEF1E01A
:2006800031C00E943C14EAE10E94A5140E949814ECE0F2E027C00E943C14EBE20E94A51464
:2006A0000E949814E4E2F2E01DC00E943C14E7E20E94A5140E949814EDE4F2E013C00E94FB
:2006C0003C14E4E30E94A5140E949814E2E7F2E009C00E943C14E5E30E94A5140E94981493
:2006E000E9E4F3E0FA93EA9380E00E94AB13229608950E94761A40E050E0E0E0E0938605FB
:2007000010E0AE81BF811197C9F50E943C140E9458140E94B414F0E0E0933405F093350571
:200720000E943C140E94B9140E94C5140E9461140E94C91439F4E1E0F0E0E0939505F093F9
:20074000960505C0E0E0E0939505E09396050E943C140E94B9140E94CE140E9461140E94C0
:20076000C91439F4E1E0F0E0E0939305F093940505C0E0E0E0939305E09394050E943C1429
:200780000E9458140E94D214F0E0E0932E05F0932F050E94D7141E2EAE81BF810E94DE14BA
:2007A0000E94E414E4E0F0E00E94C719E021E12969F10E943C140E9458140E9477140E9455
:2007C00061140E94C91439F4E1E0F0E0E093B905F093BA0505C0E0E0E093B905E093BA050C
:2007E000E0916A05F0916B0560916C0570916D05A7E0B0E080E090E00E940A1AE0935605D8
:20080000F09357056093580570935905E0919B05F0919C05309771F4E1E0F0E0E0939B0545
:20082000F0939C05E0915605F0915705E0939D05F0939E050E94E914A0919D05B0919E055A
:200840000E94A5190E94711A29F0E0E0E0939B05E0939C05D6010E94DE140E94D714E02112
:2008600051F10E943C140E9458140E94F2140E94F6140E94FA140E94FA140E9463120E94C9
:2008800063124E2F55270E946312F0E00E9400150024041605066CF4FA01AFEFB0E00E94D8
:2008A000051A0E94E414EA0FFB1FE40FF51F0E9400150E940515AE81BF811197B9F40E948C
:2008C0003C140E940E150E9450140E9461140E94C91439F4E1E0F0E0E093CD05F093CE050E
:2008E00005C0E0E0E093CD05E093CE050E943C140E940E150E94B414F0E0E093CF05F0932D
:20090000D0050E943C140E940E150E94D214F0E0E093D305F093D405E091CD05F091CE05B5
:20092000309719F4E3E0F0E08EC00E941715E2E3F0E00E94AF19E02121F0E1E1F0E00E94EF
:2009400025150E941715E7E3F0E00E94AF19E02121F0E2E1F0E00E9425150E941715ECE36D
:20096000F0E00E94AF19E02121F0E3E1F0E00E9425150E941715E1E4F0E00E94AF19E021ED
:2009800021F0E4E1F0E00E9425150E941715E6E4F0E00E94AF19E02121F0E5E1F0E00E94B9
:2009A00025150E941715EBE4F0E00E94AF19E02121F0E6E1F0E00E9425150E942A15E2E3FB
:2009C000F0E00E94AF19E02121F0EBE0F0E00E9425150E942A15E7E3F0E00E94AF19E0216E
:2009E00021F0ECE0F0E00E9425150E942A15ECE3F0E00E94AF19E02121F0EDE0F0E00E9433
:200A000025150E942A15E1E4F0E00E94AF19E02121F0EEE0F0E00E9425150E942A15E6E485
:200A2000F0E00E94AF19E02121F0EFE0F0E00E9425150E942A15EBE4F0E00E94AF19E02104
:200A400031F0E0E1F0E0E093D105F093D2050E947D1AAAC00E943C140E9444140E943815C3
:200A6000E09134050E943D150E9444140E944115E0912E050E943D150E9444140E94771427
:200A80000E9454140E94F6140E943C140E9444140E94F2140E945414E5E00E943D150E94A7
:200AA00046150E94C5140E9454140E94F6140E943C140E9446150E94CE140E9454140E948B
:200AC000F6140E943C140E944615E0E8EA930E9467120E9454140E94F6140E943C140E9473
:200AE0004F150E9450140E9454140E94F6140E943C140E944F150E943815E2E00E943D1539
:200B00000E944F150E944115E2E3EA930E94671208950E94781A0E9458155CF00E945E1539
:200B20000E94221A8F010E945E150E94271A9F0102C00E9463150E943C140E944414E0E81F
:200B40000E9468150E9458151CF00E946E1506C0AF81AA2312F0EE8101C0E0E0EA930E9462
:200B600067120E9473155CF00E9479150E94221A8F010E9479150E94271A9F0102C00E94D1
:200B800063150E943C140E944615E0E40E9468150E9473151CF00E946E1501C0EC81EA9305
:200BA0000E9467120E947F1A289608950E943C140E947E150E94C5140E9408141A971CF463
:200BC000ECE7F3E002C0EDE7F3E0FA93EA930E9487150E9494150E940D141A971CF4ECE71C
:200BE000F3E002C0EDE7F3E0FA93EA930E9497150E949415A091C505B091C6051A971CF44E
:200C0000ECE7F3E002C0EDE7F3E0FA93EA930E94A41508950E943C140E947E150E94541492
:200C20000E9408141A971CF4ECE7F3E002C0EDE7F3E0FA93EA930E9487150E9494150E94F1
:200C40000D141A971CF4ECE7F3E002C0EDE7F3E0FA93EA930E9497150E949415A091C50505
:200C6000B091C6051A971CF4ECE7F3E002C0EDE7F3E0FA93EA930E94A41508950E943C14A4
:200C8000EBE0EA930E946712E2E8EA930E9467120E94C5140E949814E091C105F091C20547
:200CA0000E94B115EA0FFB1FE093C705F093C8050E94B115DD976CF0E091C705F091C80567
:200CC000FC97E093C705F093C805A9ECB5E00E940214E091C305F091C4050E94B615EA0F27
:200CE000FB1FE093C905F093CA050E94B615DD976CF0E091C905F091CA05FC97E093C905A7
:200D0000F093CA05ABECB5E00E940214E091C505F091C6050E94BB15EA0FFB1FE093CB054E
:200D2000F093CC050E94BB15DD9774F0E091CB05F091CC05FC97E093CB05F093CC05E0E098
:200D4000E093CB05E093CC050E94B1151A971CF4ECE7F3E002C0EDE7F3E0FA93EA93E09159
:200D6000C705F091C8050E94C0150E9494150E94B6151A971CF4ECE7F3E002C0EDE7F3E05A
:200D8000FA93EA93E091C905F091CA050E94C0150E9494150E94BB151A971CF4ECE7F3E01F
:200DA00002C0EDE7F3E0FA93EA93E091CB05F091CC050E94C01508950E94781A0E943C14F3
:200DC0000E9444140E94C5140E945414EE850E943D150E9444140E94CE140E945414EC8534
:200DE0000E943D150E9446150E9450140E945414EA850E943D150E9446150E944115E8852D
:200E0000EA930E9467120E9458155CF00E945E150E94221A8F010E945E150E94271A9F01C4
:200E200002C00E9463150E943C140E9446150E9477140A930E9467120E9458151CF00E9445
:200E40006E1506C0AF81AA2312F0EE8101C0E0E0EA930E9467120E9473155CF00E9479151C
:200E60000E94221A8F010E9479150E94271A9F0102C00E9463150E943C140E9446150E94E4
:200E8000F2140A930E9467120E9473151CF00E946E1506C0AD81AA2312F0EC8101C0E0E088
:200EA000EA930E9467120E947F1A60960895959A0895E0E00799E1E0E03011F00C94B70770
:200EC000E0919905F0919A05309749F402DC0E94C9151D9A0E94CF150E94D51547C0E130A0
:200EE000A0E0FA0731F41D980E94CF150E94DC153DC0E230A0E0FA0741F41E9A069903C09F
:200F00000E94E31501C0BDDB31C0E330A0E0FA07D1F4069B17C0DDDBA0919705B0919805B9
:200F2000129721F4E3E0F0E00E94ED15E0919705F0919805309721F4E2E0F0E00E94ED157F
:200F40000E94F21513C0E430A0E0FA0779F40E94F915129729F40E94CF150E94DC1506C0BE
:200F6000E1E0F0E00E94ED150E94FE1513C0E13089F473DB1D981E980E940416E091B70584
:200F8000F091B805309711F40E940A160E9413160E943916E0919705F09198050895289742
:200FA0000E94761A20E030E040E050E00E947B140E943F160E94451601E010E00E94FE15F4
:200FC000E8E0F0E0CE16DF061CF00E94FE1502C00E944B160E9452160E9467160E946D16DC
:200FE0000E9467160E9472160E9467160E9477160E946716E3E0F0E00E94AF190E9467161F
:20100000E4E0F0E00E94AF19E02911F40C9490090E945216E02911F40C94D508F801E130EC
:20102000A0E0FA0769F5DA010E9472160E2E0E947C160E220E948216E0E2FEE460E070E0BE
:201040000E94D519E0211E2ED601E8E0F0E00E94C1190E2E0E948216E8EBFBE060E070E014
:201060000E94D519E021E12951F0E8E0F0E0CE16DF060CF4C59A02E010E00E94451695C0B0
:20108000E230A0E0FA07D9F50E9487160E2ED601E8E0F0E00E94C119E0211E2EA0E0CD9956
:2010A000A1E00E9412140E947C16E021E12911F0C59820C00E9482160E941E140E948E1616
:2010C0000E94931659F061DAF0DAC598E1EAF6E861E070E0EE83FF83688779870E948216C4
:2010E0000E941E140E948E160E94981639F0F1DA0E944516C298C69803E010E056C0E330E1
:20110000A0E0FA0711F00C94C408A091A705B091A805119711F5A0913405B0913505E6E4B9
:20112000F0E00E94C1190E2E0E94E414E1E0F0E00E94C7190E949D160E94BB190E220E94DD
:20114000A2160E946D16E02109F01B9AC798909AE0E0E093A705E093A805A0E0CC99A1E015
:201160000E941214A091A705B091A8050E946D16E02149F0909A0E94A7160E94AE160E94EC
:20118000B41604E010E011C0E430A0E0FA0769F4029906C0E1E0F0E0E093AB05F093AC05A5
:2011A000CC9903C0909805E010E0E0E00799E1E0E03011F00C946809E0919905F0919A0598
:2011C000309719F50E94BD16A0E00399A1E00E94981649F00E94C9157CDA1D9A0E943F161B
:2011E0000E94D51511C0A0E00399A1E00E941214D9010E946D16E02131F0A4E7B5E00E944A
:20120000021421E030E063C062C0E130A0E0FA0799F40E94BD16A0E0C199A1E00E94981623
:2012200049F00E94C5162CF01D980E94DC150E943F1601C04CC04BC0E230A0E0FA07B1F48D
:20124000079911C00E94C5166CF01E9A069909C041E050E00E9445160E94E3150E943F1645
:2012600001C00FDA02C0C19832C031C0E330A0E0FA07B1F4069B13C02CDA1E98AA85BB85EE
:201280008C859D85A137E7E1BE07E0E08E07E0E09E071CF00E94F21502C00E94FE1517C0F9
:2012A000E430A0E0FA0799F40E944B160E94D1160E2E0E94D7160E946D16E02109F0929A6A
:2012C0000E94DC160E94E316E02109F0929A13C0E13089F4FED9C1D91D981E9892980E94B0
:2012E000FE150E943F16E091B705F091B805309711F40E940A16EA85FB856C857D850E9467
:20130000E516EA87FB876C877D87EE81FF81688579850E94E516EE83FF83688779875ACE67
:201320000E947D1A2E9608950E94781A0E946315969A0E94EA16EC81FD810E171F07E4F4E5
:20134000019B03C0939A21E030E0A0E00199A1E00E94F016D9010E947216E02119F0939874
:2013600022E030E0E2E0F0E0E217F30721F40F5F1F4F23E030E0DFCF0E94EA1696980E94B2
:201380007F1A2696089566DBC89902C052D9FCCFA0D98DDD9ED904D99CD9CC9B02C0909A02
:2013A000FCCF0E94A7169098AB98A998AA9A1A98C798A2D88ED904D9E0918605E030E9F45B
:2013C0000E94F516A0919305B0919405119791F40E9439160E94FB16A99AE8EBFBE00E9459
:2013E0000317AA9A1A980E9407170E94FB16A9982AD9FFCF0E940A17DFCFE0E0E093860529
:20140000CEDDAD9A0E943916AD98C9DD0E943916C6DD0E943916C3DD0E9404160E94F9156D
:201420000E94DE140E94F9150E9477160E2A0E94F915E3E0F0E00E94AF19E02921F039DD24
:201440000E94ED15EBCFE0E0E0939705E09398050E9439160E94F5160E94D716119711F475
:201460000E940F17E1E0F0E00895E1E0F0E00E941717E0917E05F0917F0508951A930A9335
:201480001F9A019903C001E010E002C000E010E0002E012AA9F4A091A505B091A60515976A
:2014A00019F4E5D80E941C17A5EAB5E00E9402140E942217E1E0F0E0E0937C05F0937D054C
:2014C000E1E0F0E0E017F107A1F40E941C17A0917C05B0917D05119731F4FBD8E0E0E093DA
:2014E0007C05E0937D05E1E0F0E00E9428171F989298E0918205F091830509911991089541
:201500000E942F14E0911405F0911505309729F40E942D170E94FE01DAC0E130A0E0FA072A
:20152000D9F4AF9A0E9434170E94381799F0E0E0E0934605E0934705E0934805E093490570
:201540000E943C17E2E0F0E00E9446170E944B174BD801C03FD8BBC0E230A0E0FA0769F49B
:201560000E9452170E945B173CF0AF980E943C17E3E0F0E00E944617AAC0E330A0E0FA0754
:2015800059F40E9463173CF0AE9A0E943C17E4E0F0E00E9446179BC0E430A0E0FA0761F4A1
:2015A0000E94631744F0AE98C49A0E943C17E5E0F0E00E9446178BC0E530A0E0FA0769F470
:2015C0000E9452170E945B173CF0C4980E943C17E6E0F0E00E9446177AC0E630A0E0FA0709
:2015E00099F50E943417A0E0CB99A1E00E94931621F00E942D170E946C17A0E0CA99A1E040
:201600000E9412140E94381721F00E942D170E946C170E9434170E94381731F0E3E0F0E063
:201620000E9446170E946C17A0E0CA99A1E00E941214A0E0CB99A1E00E94931621F0E7E0D2
:20164000F0E00E94461743C0E730A0E0FA0759F40E9463173CF0AD9A0E943C17E8E0F0E0B7
:201660000E94461734C0E830A0E0FA0761F40E94631744F0AD98C49A0E943C17E9E0F0E008
:201680000E94461724C0E930A0E0FA0759F40E9452170E9479172CF0C498EAE0F0E00E948F
:2016A000461715C0EA30A0E0FA0789F40E943C17E0E0E0931405E093150501E010E0E1E080
:2016C000F0E0EC15FD0519F4E2E0F0E06F01E9C20E942F14E0911605F0911705309771F443
:2016E000E0E0E0934A05E0934B05E0934C05E0934D050E9481170E94861756C0E130A0E0FC
:20170000FA07B1F40E948B170E945B170CF0AC9A0E948B17AD33E0E0BE07E0E08E07E0E0CB
:201720009E072CF01C9A0E9481170E9494173CC0E230A0E0FA0759F40E948B170E94991739
:201740002CF01C980E9481170E94A1172DC0E330A0E0FA0759F40E948B170E9479172CF0C5
:20176000AC980E9481170E94A6171EC0E430A0E0FA0751F40E948B170E94791724F0E6E183
:20178000F5E00E94AB1710C0E530A0E0FA0761F40E9481170E94B017E3E0F0E0EC15FD051C
:2017A00019F4E4E0F0E06F017CC20E942F14E0911805F0911905309791F4E0E0E0934E05F6
:2017C000E0934F05E0935005E09351050E94B717C398AA98E8E1F5E00E94861708C1E130ED
:2017E000A0E0FA0791F40E94C117A230E0E0BE07E0E08E07E0E09E073CF01A9A0E94B71708
:20180000E8E1F5E00E949417F2C0E230A0E0FA07B1F40E94A216119721F40E94CA170E94B7
:20182000D1170E94C1170E94D81744F0A99AC79A0E94B717E8E1F5E00E94A117D8C0E330CA
:20184000A0E0FA07A1F40E94C1170E94791774F0A998A9E8B5E0ED91FD913197FE93EE9315
:201860000E94B717E8E1F5E00E94A617C0C0E430A0E0FA0739F40E94B717E8E1F5E00E9409
:20188000AB17B5C0E530A0E0FA0781F40E94C1170E94E01754F0C39A1A980E94E817E8E136
:2018A000F5E0A6E0B0E0A083B183A1C0E630A0E0FA0781F40E94C1170E945B1754F0919A7C
:2018C000AB9A0E94B717E8E1F5E0A7E0B0E0A083B1838DC0E730A0E0FA07D1F5A0E005997E
:2018E000A1E00E94F0160E94EE170E946D16E02111F00E94CA170E94EE170E9472160E2E61
:20190000E0912E05F0912F050E94C1170E94A0190E94CD19E02131F0C39891980E94B717FB
:201920000E94F317E0913005F09131050E94C1170E94A0190E94711A54F4C3989198A9EA3D
:20194000B5E00E9402140E94E8170E94F3174FC0E830A0E0FA07C9F40E94FA170E947216AB
:20196000E02131F0AB98AA9A0E94B7170E94D1170E94FA170E946D16E02131F0AB98AA9A43
:201980000E94B7170E94D11732C0E930A0E0FA07A1F40E94C117A630E0E0BE07E0E08E0702
:2019A000E0E09E074CF0C7980E94B717E8E1F5E0AAE0B0E0A083B1831AC0EA30A0E0FA0733
:2019C000B1F4E0918F05F0919005E0939105F09392050E94B717E8E1F5E00E94B017E5E0E8
:2019E000F0E0EC15FD0519F4E6E0F0E06F0159C10E942F14E0911A05F0911B05309781F495
:201A0000E0E0E0935205E0935305E0935405E09355050E9403180E9486170E947B1441C1A9
:201A2000E130A0E0FA0729F40E9403180E94941738C1E230A0E0FA07B1F40E940F180E9451
:201A4000791784F0A0913405B0913505A634E0E0BE070CF41B98A898C19AC09A0E940318D9
:201A60000E94A1171EC1E330A0E0FA0711F00C94780DA0919105B09192050E9472160E2E6E
:201A80000E94A2160E946D160E22A091A105B091A2050E946D160E22A091AB05B091AC05B0
:201AA0000E947216E021E9F40E94C5020E945F03E1E0F0E0E093A105F093A205CF9917C09E
:201AC000A091AB05B091AC050E94DE14D601E7E0F0E00E94BB19E02121F0ADEAB5E00E94DB
:201AE0000214EAE1F5E00E94A6170E941818D9C0E430A0E0FA0769F40E946903E0E0E09333
:201B0000A105E093A205C59A0E9403180E94AB17C8C0E530A0E0FA0711F00C94D20D0E9445
:201B20000F18E9E1F0E060E070E00E94D5190E2EA0E0CD99A1E0E1E00E94AA190E22A0E04B
:201B4000C599A1E00E94931639F0C69A0E940318A6E0B0E0A083B1830E940F18E2E3F0E04A
:201B600060E070E00E94D5190E2E0E948716E02139F00E9418180E94C5020E944B03C59818
:201B8000A0E0C599A1E0E0E00E94AA190E948E160E94981631F00E946903EAE1F5E00E94BA
:201BA000A6177FC0E630A0E0FA0791F40E940F18AA31E0E0BE07E0E08E07E0E09E073CF0FE
:201BC000C29A0E940318A7E0B0E0A083B18369C0E730A0E0FA07A1F40E940F180E9499170D
:201BE00074F0009B05C0ABEBB5E00E9402143197C0980E940318A8E0B0E0A083B18351C0E1
:201C0000E830A0E0FA0769F40E940F180E9499173CF0C5980E940318A9E0B0E0A083B183FD
:201C200040C0E930A0E0FA0769F40E940F180E94D8173CF0C2980E940318AAE0B0E0A083D3
:201C4000B1832FC0EA30A0E0FA0769F40E940F180E94D8173CF0C1980E940318ABE0B0E0B2
:201C6000A083B1831EC0EB30A0E0FA07D1F40E940F180E94E017ACF00E9403180E94B017AA
:201C8000A2E3B5E0ED91FD913197FE93EE93E7E0F0E0EC15FD0529F4E8E0F0E06F010E94E3
:201CA0002218F8010991199108950E943C180E94DE140E944118E02129F022DCE0930005FB
:201CC000F09301050E9447180E944C180E9452180E945A18E02129F0FBDCE0930205F09366
:201CE00003050E945F180E944C180E9452180E9464180E945A18E02129F057DDE0930405B5
:201D0000F0930505E0910605F09107050E944C180E9452180E946418D601E5E0F0E00E94EF
:201D2000B5190E949D160E94B5190E220E945A18E02129F05DDEE0930605F09307050895CD
:201D4000AA24BB240E9475180E9422180E94D6050E94FE01089524971A930A930E947C18D5
:201D600000E010E00E9482180E2ED6010E947716E02199F00E940A170E9484180E9496183A
:201D80000E949B180E94A118E02139F00E94A7180E94B718E3E0F0E06F010E9482180E2E1C
:201DA0000E9447180E94BF18D601E4E0F0E00E94AF19E021B9F00E940A170E9484180E9487
:201DC00096180E949B180E94A118E02159F00E94A7180E94C5180E94FE01E5E0F0E06F01D5
:201DE0000E94CC180E9482180E2E0E9447180E94BF180E945F18A1E0B0E00E94AF190E9435
:201E00009D160E94AF19E021B9F00E940A170E9484180E9496180E949B180E94A118E021F9
:201E200059F00E94A7180E94C5180E94D2180E94B718E7E0F0E06F010E9482180E2E0E945B
:201E400047180E94BF180E945F180E94BF18E0910605F09107050E94BF180E947C16E02161
:201E600011F40C9426100E940A17FFDA0E941717E1E0F0E0E0938005F09381050E9476026F
:201E8000E0938B05F0938C05D5010E9472160E2EA0918605E1E00E94AA190E220E9496188D
:201EA0000E949B180E94A118E02111F40C9426100E9422170E947C180E94D9180E94DE185A
:201EC000E021C9F00E94E61819F4D8DA0E9428170E94FB1814F00E947C180E94D918D801AD
:201EE0000E946D16E02131F0A6E7B5E00E94021401E010E0E1CF0E94D9180E94D1160E22F4
:201F00000E94E316E02161F00E94E61819F4B6DA0E9428170E94FB1814F00E947C18EBCF0D
:201F20003ED8E0E0F0E0FA93EA930E947903A091B905B091BA050E9472160E2EA091BD058B
:201F4000B091BE050E946D16E021C9F0E0E0E093B905E093BA05E1E0F0E0E093BD05F09332
:201F6000BE050E94B502E4E0F0E00E9400150E940515EEEFFFEFE0932805F0932905F6012B
:201F800031966F01E8EEF3E0EC15FD051CF4E4E6F0E06F010E94E414E3E0F0E00E94C71995
:201FA0000E2E0E945A18E02141F00E94CC180E9407190E94D2180E940D190E94E4141397BF
:201FC00044F00E944B170E94C5180E94D2180E940D190E94E414129734F00E944B170E94E9
:201FE000D2180E940D190E94E4140E946D1A24F40E944B170E940D19A3DE0E941419A09107
:202000009F05B091A0050E94AF190E2EA091A305B091A4050E946D16E021C1F00E9404034D
:202020000E94E7130E94ED130E94F313E0E0E093C505E093C605949892980E94B5020E942E
:202040009C02E0E0E0938605CC24DD241981088126960895D601E8E0F0E00E94AF190E2EA2
:20206000D5010E946D16E02119F0E1E0F0E05F010E94DC16D5010E946D16E02111F40C9435
:20208000F910042C0528A9F40E94E914A0915E05B0915F0580916005909161050E941A1993
:2020A000E02121F0AEE6B5E00E940214E1E0F0E02F01062C0728A9F40E94E914A091620537
:2020C000B091630580916405909165050E941A19E02121F0A0E7B5E00E940214E1E0F0E006
:2020E0003F010E941E19D4010E946D160E22D601EBE0F0E00E94C1190E220E94D7160E944E
:202100006D16E021A1F00E942219E02111F00E942C190E942F1944F00E9434190E943719E5
:202120000E9414190E943A19E1E0F0E04F010E941E19D4010E946D160E22D601E9E0F0E087
:202140000E94AF190E220E94E316E02119F0E1E0F0E04F010E941E19D4010E946D160E2A54
:202160000E94D1160E220E94E316E021A1F00E942219E02111F00E942C190E942F1944F095
:202180000E9434190E9437190E9414190E943A19E1E0F0E04F010E941E19D4010E946D16E6
:2021A0000E2A0E94DE18E021A1F00E942219E02111F00E942C190E942F1944F00E943419EA
:2021C0000E9437190E9414190E943A19E1E0F0E04F01D2010E9472160E2ED3010E94721631
:2021E0000E22D4010E947216E02119F0E1E0F0E05F0108950C2C0D28A1F5E0918605E03009
:2022000029F40E940A170E940A062BC00E94F5160E940F170E9446190E944C190E94071902
:202220000E94D2180E940D190E9446190E9469039498E0E0E093BD05E093BE05E091280546
:20224000F0912905FA93EA93E091B105F091B205FA93EA930E9489050E943E06E1E0F0E0B5
:202260006F010895E0E0EBBBEABBE8BBEFEFE7BBE0E0E5BBEFEFE4BBE0E0E2BBEFEFE1BB6F
:20228000E0E0E3B9EFEFE2B9E0E0E0936200E0936100E0936500EFE1E0936400E0E0E0BF22
:2022A000E7E0E3BFE0E0E2BFE1BFEFBDEEBDEDBDECBDE7BDE6BDEBBDEABDE9BDE8BDE093B6
:2022C0007900E0937800E5BDE4BDE3BDE0938B00E0938A00E0938900E0938800E0938100D1
:2022E000E0938000E0938700E0938600E0938500E0938400E0938300E0938200E0936A0041
:20230000EABFE9BFE1E0E7BFE0E0E0937D00EBB9E8E1EAB9E6E0E0939500E0E0E0939000B4
:20232000E7E6E9B9E0E0E0939A00E0E8E8B9E0E0E0BDE6B9EDB9E09374007894E0E4FFE1BF
:202340000E9403170E9407170E9407170E9407170E943C140E948114EA93B9D0E3E0F0E0BF
:20236000FA93EA930E949409CC24DD24E0E0E0935605E0935705E0935805E09359050E9483
:202380007518AA24BB24E4E6F0E060E070E0E0935A05F0935B0560935C0570935D050E94C9
:2023A000CC18EEE3F0E060E070E0E0936A05F0936B0560936C0570936D050E940416ECEDC5
:2023C000F0E0E0933005F0933105E8E2F0E0E0932E05F0932F05E6E4F0E0E0933405F0930C
:2023E0003505E0E0E0932A05E0932B050E9446190E944C19E0E0E0938405E0938505E0936A
:202400009B05E0939C05E0939D05E0939E05E093A105E093A2050E941C17E0E0E093A305FA
:20242000E093A405E093A705E093A805E093A905E093AA05E093AD05E093AE050E94AE164D
:20244000E093AF05E093B005E0E0E093B105E093B2050E9425140E94C915E0E0E093BD05CA
:20246000E093BE05E093D105E093D205E093D305E093D405E0938605E0937805E09379051D
:20248000E0937A05E0937B05E0937C05E0937D05E0937E05E0937F05E0938005E093810590
:2024A0000E9422170C2C0D2821F40E94C3096F01F9CF0E944F029EDEF8DBCCDD4CDC0E9464
:2024C000BF02F7CFFFCF5F9BFECFECB108955D9BFECFE881ECB921960895EA81EA93F7DFC1
:2024E000A881B9810E9402142396089526970E94761A10E0AC85BD85E0E0F0E0ED93FC937A
:20250000EA89FB893196EA8BFB8B3197E4912E2FE03011F40C94A313E12FE03039F4253259
:2025200011F411E002C00E945B190CC1E130A9F4253219F40E945B1904C112E040E000E021
:202540002D3211F401E0FEC02B3211F44BE2FAC0203211F440E2F6C002C0E23039F450E0CF
:2025600013E0203311F40068EDC004C0E33011F00C94A213203310F02A3308F007C0AAE0D5
:202580005A9F502DE22FE0535E0FDCC0E22FE33649F40E946419E889F989A481AA930E94FB
:2025A0006A19CFC0E33741F40E9464190E9472190E94D2131E2F0AC0E03761F40E94641945
:2025C0000E9472190E94DC131E2F086002600F7730E035C0E43611F0E93611F4046002C036
:2025E000E53731F4ECE8F0E0EE83FF8315E00DC0E83511F4086004C0E83711F00C94A1137F
:20260000E6E9F0E0EE83FF8314E002FF14C00E9464190E947C19AB85AA233AF4EA85FB85EF
:202620000E949419EA87FB874DE2403011F01F5F01C00B7F04C00E9464190E947C1900FDD8
:2026400011C0151778F407FF08C002FF04C00B7F242F115001C020E301C020E20E945B19A3
:202660005150EFCF312F01FF17C03030A1F003FF06C0EE81FF812591EE83FF8305C0AE817F
:20268000BF812D91AE83BF830E945B19503009F051503150EACF4BC020E3EE81FF810E94C0
:2026A000641AE887F987EE81FF813296EE83FF83E885F985AA85BB85AE17BF0750F02F5F50
:2026C000A885B985EA85FB85EA1BFB0BEA87FB87EFCF2A3328F003FF02C0295F01C0295DDC
:2026E00004FD1AC0213320F4A885B985119709F409C0531710F000FF01C013C020E207FFB9
:202700000BC020E3006102FF07C00B7F4A930E946A19503009F051500E945B19503009F08D
:2027200051503150A885B985129708F0B5CF00FF08C0503031F05150E0E2EA930E946A197A
:20274000F8CF10E0DDCEAC85BD850E94561A0E947D1A64960895FF92F82E26971A930A9304
:20276000DE0114960E9490198D01E0E0EC83ED83EE83EF83DE0118960E9490190E94561A8B
:20278000FA93EA931A930A93EDE6F2E1FA93EA93FE013896FA93EA93A9DE198108812896F6
:2027A000FF900895A991B991EE27FF276D91662311F03196FBCF0895AA27BB27E991F991C1
:2027C0000590002011F01196FBCFFD010895E0E0E093BF05E093C0050895E0E0E093C10572
:2027E000E093C2050895E0E0E093C305E093C40508950E945A1AEF5FFF4F6F4F7F4F0E944E
:202800005F1A0895ED91FD913196FE93EE930895A091C105B091C2050895A091C305B0914A
:20282000C4050895E1E00E94AA190E2E0895A0E0C999A1E0E0E00E94AA190895E0EAF6E866
:2028400061E070E00E94D5190895E0E0E093B305E093B405E093B505E093B60508951A93FE
:202860000A9300E010E00895E0EDF7E0FA93EA930E94841994980895EAE5EA930E94671231
:20288000E5EAEA930C946712E5E0EA930E946712E2E8EA930E946712E0E0EA930C946712BE
:2028A000E0E3EA930C946712E0E0EA930C946712E4E0EA930E946712E3E8EA930E946712AA
:2028C000F3CFE1E0EA930E9467120E9463120E9463120E9463120E9463120E9463120E94C8
:2028E00063120E9463120E9463120C946312E0E6EA930C946712E0E0E0938D05E0938E05F9
:202900000895E3E0EA930E946712E0E8EA930E946712E2E0EA930E946712E0E10895E3E2E2
:20292000EA930E946712E2E8EA930E946712BCCFE0E9EA930C946712EEE9F0E0FA93EA9302
:2029400080E00E94AB13229697CFEA930E946712E2E8EA930E946712A7CFFA93EA9380E0BF
:202960000E94AB1322960895E0E4EA930E946712A8CFE4E0EA930E946712E3E8EA930E9489
:202980006712E0E1EA930C946712E0E1EA930C9467122E2F3327022E032A0895E0E2EA9320
:2029A0000C946712E0E5EA930E9467128ACFAE81BF81E1E0F0E00E94AF190895E0E0F0E0B1
:2029C0000E94AF190E2E0895A0913205B09133050895E0915605F09157056091580570913E
:2029E00059050895E0E7EA930C946712E1E0EA930C9467120E9463120E9463120C946312E5
:202A0000E0933205F09333050895E0913205F0913305E0939F05F093A0050895E4E0EA9336
:202A20000E946712E3E8EA930E946712B7CFA091CF05B091D005E1E0F0E00E94AF190E2E40
:202A4000A091D305B091D4050895E093D105F093D2050895A091CF05B091D005E2E0F0E0C9
:202A60000E94AF190E2EA091D305B091D4050895E0E4EA930E94671217CFEA930E94671216
:202A8000FBCEE0E5EA930E9467120ECFE5E0EA930E946712E2E8EA930E94671276CFE5E06A
:202AA000EA930E946712E2E8EA930E94671276CFAE81BF81A030E1E0BE070895AE81BF8106
:202AC000EFEFF0E0089500E010E020E030E00895EA930E9467120A930C946712AFEF0A0236
:202AE000F001E20F0895AC81BD81A030E1E0BE070895AC81BD81EFEFF0E00895EBE0EA93FB
:202B00000E946712E2E8EA930E94671247CFE091C105F091C2050E94A0190E94681A84E0C0
:202B20000E94AB1326960895E0E8F3E016CFE091C305F091C4050E94A0190E94681A84E0F6
:202B40000E94AB1326960895E091C505F091C6050E94A0190E94681A84E00E94AB13269636
:202B60000895A091C705B091C8050895A091C905B091CA050895A091CB05B091CC050895B4
:202B80000E94A0190E94681A84E00E94AB1326960895E0E0E093B705E093B8050895E0E914
:202BA000F1E0FA93EA930C948419E1E0F0E0E0939905F0939A050895E2E0F0E0E0939905F9
:202BC000F0939A0508950E946903E3E0F0E0E0939905F0939A051E980895E0939705F0937D
:202BE00098050895E4E0F0E0E0939905F0939A050895A0919705B09198050895E0E0E093BC
:202C00009905E0939A050895E0E0E0939705E0939805F4CFE1E0F0E0E093B705F093B805C5
:202C2000AFEAB5E0EFCDE091AD05F091AE05FA93EA93E091A905F091AA05FA93EA93E0917F
:202C4000AF05F091B005FA93EA93E091BB05F091BC05FA93EA93E0917405F0917505FA9391
:202C6000EA93E0917605F0917705FA93EA930C94DC06E8EEF3E0FA93EA930C948419E0E0B2
:202C8000EA87EB87EC87ED870895E0E0EE83EF83E887E9870895E5E0F0E0E0939905F09385
:202CA0009A050895D801E1E0F0E00E94AF190E2EE2E0F0E00E94AF190E2AE3E0F0E00E945F
:202CC000AF190E2AE4E0F0E00E94AF1908950E2AA0919905B0919A050895E0E0F0E00E94A3
:202CE000AF190895E1E0F0E00E94AF190895E2E0F0E00E94AF190895D601E8E0F0E00E942D
:202D0000BB190895AE81BF81888599850895A0E0CD99A1E0E0E00E94AA1908950E2EA0E026
:202D2000CF99A1E00895E1E00E94AA19E0210895E0E00E94AA19E02108950E22D601E6E0B9
:202D4000F0E00895A0919505B09196050895E1E0F0E0E093A705F093A8050895E0E0E09312
:202D6000AB05E093AC050895E0933A05E0933B05E0933C05E0933D050895A0E00799A1E0D6
:202D8000E0E00E94AA190E2E0895AA85BB858C859D85A93EE3E0BE07E0E08E07E0E09E076A
:202DA0000895D601EAE0F0E00E94BB190895A091CD05B091CE050895D601E9E0F0E00E942C
:202DC000BB190E2E0895F3DF8DCFEF5FFF4F6F4F7F4F0895E4EFF1E0FA93EA930C94841968
:202DE000E0E00E94AA190E2E0895E1E0F0E0FA93EA930C947903AA981A9AE8EBFBE0FA93ED
:202E0000EA930C948419FA93EA930C948419E0EDF7E0F9CF0E94A602E09386050895E091EF
:202E2000D105F091D205FA93EA930C949409E0937E05F0937F050895E0E0E093A505E09333
:202E4000A6050895E0E0E0938205E09383050895E0938205F09383050895E1E0F0E0E09332
:202E60001405F09315050895A0E0CA99A1E0B8CFA0E0CB99A1E05CCFE0E0E0933605E093A3
:202E80003705E0933805E09339050895E0931405F09315050895E1E0F0E0E0932C05F0937A
:202EA0002D050895A0913605B091370580913805909139050895A932E0E0BE07E0E08E075B
:202EC000E0E09E070895EEDFA531E0E0BE07E0E08E07E0E09E070895E5E1F0E060E070E04B
:202EE000E0933605F093370560933805709339050895A333E0E0BE07E0E08E07E0E09E0742
:202F00000895E0E031DFE6E1F5E00895A1E0B0E0A083B1830895A0913A05B0913B05809104
:202F20003C0590913D050895A2E0B0E0A083B1830895AF31E0E0BE07E0E08E07E0E09E072B
:202F40000895A3E0B0E0A083B1830895A4E0B0E0A083B1830895A5E0B0E0A083B1830895BC
:202F6000A0E0B0E0A083B18301E010E00895E0E0E0933E05E0933F05E0934005E0934105DE
:202F80000895A0913E05B0913F0580914005909141050895E1E0F0E0E0938F05F093900591
:202FA000E6CFE8E1F5E0A9E0B0E0A083B1830895AB30E0E0BE07E0E08E07E0E09E070895FA
:202FC000A531E0E0BE07E0E08E07E0E09E070895E0E0E0938F05E0939005C9CFA0918F0513
:202FE000B09190050895E8E1F5E0A8E0B0E0A083B1830895C6DFEAE0F0E060E070E00E9443
:20300000D5190E2EEBCFE0E0E0934205E0934305E0934405E0934505EAE1F5E00895A091B0
:203020004205B091430580914405909145050895E0E0E0934205E0934305E0934405E093FA
:2030400045050895E0E0E0935E05E0935F05E0936005E0936105E0936205E0936305E09343
:203060006405E0936505E0936605E0936705E0936805E09369050895A0910005B091010572
:203080000895D601E0E0F0E00E94B5190895E0910205F09103050895A0E0B0E00E94AF1907
:2030A0000E2EEFCF0E22D601E1E0F0E00E94B5190E220895A0912C05B0912D0513CEE0911A
:2030C0000405F09105050895D601E2E0F0E00E94B5190E22E3E0F0E00E94B5190E22E4E0BF
:2030E000F0E00E94B5190E2208954424552466247724882499240895E0E0EA83EB83EC83AD
:20310000ED830895B9DFEECD0E94350A90DEE1E0F0E0E0938005F09381050E947602E093E1
:203120008B05F0938C05A09186057CCBA0917E05B0917F05D7CD0E22A0918005B09181051E
:20314000D1CD0E22A0918B05B0918C05CBCD0E94CF070E94D605E0E0F0E0FA93EA930E9445
:203160007903E0E0E0930005E093010508950E94FE01E0E0E0932C05E0932D050895A1E0BD
:20318000B0E00E94AF190E220895E2E0F5E0A0E0B0E0A083B1830895E0E0E0932C05E093F6
:2031A0002D050895E4E0F5E0A0E0B0E0A083B1830895A0918205B091830500CCD601EBE0B4
:2031C000F0E00E94BB190E22F2DD87CDEA81FB816C817D81FADDEA83FB836C837D83AA81A8
:2031E000BB818C819D81A130E0E0BE07E0E08E07E0E09E070895AA81BB818C819D81A5364E
:20320000E0E0BE07E0E08E07E0E09E070895E0E0E0930005E0930105B8CFE6E0F5E0A0E07F
:20322000B0E0A083B1830895E0912805F0912905319708950E94D5190E2EB3CDA0E00499EF
:20324000A1E0CECDC6DBA0916605B09167058091680590916905EECFA2E7B5E0D3CAEAE019
:20326000F0E0CE16DF060895A8E2B5E0CBCAA1EBB5E0C8CAFA93EA93E091B105F091B20548
:203280003197FA93EA930E948905CDCCE0E0E0932805E09329050895EFEFFFEFE0936E0543
:2032A000F0936F05E0937005F0937105E0937205F093730508952A93ED85FE85FA93EA93F8
:2032C000E989FA8909950895E889F9893497E88BF98B0895ED85FE85FA93EA93E989FA8978
:2032E00009950895A889B98914960E94561AEE83FF83FA93EA930895A889B98914960E940B
:20330000561AEA87FB870895E991F991309639F080EA9FE00197F1F7A8953197C9F70895EF
:203320000024AF0DB01D0895F195E195F0400895F09560957095E195FF4F6F4F7F4F08950E
:203340006F2F660F660B762F08958B2F880F880B982F0895EA17E1E009F0EE270895EA17F1
:20336000FB07E1E009F0EE270895EA17FB07E1E009F4EE270895AE17BF07E1E00CF4EE270B
