:200000000C949F010C9400000C9400000C9400000C9400000C9400000C9400000C94000040
:200020000C9400000C9400000C9400000C9400000C9400000C9400000C9400000C940000C0
:200040000C94EA010C9400000C9400000C9400000C9400000C9400000C9400000C940000B5
:200060000C9400000C9400000C9400000C9400000C9400000C9400000C9400000C94000080
:200080000C9400000C9400000C9400001027E80364000A000100001000011000010020208D
:2000A000202020202020202020202020202020202020202020202020202020202020202040
:2000C00020202020202000496E69636A616C697A756A65206D61737A796E65005779637AAB
:2000E00079737A637A6F6E6F206D61737A796E65004D61737A796E61207A61696E69636A5F
:20010000616C697A6F77616E6100437A656B616D206E612070726574206777696E746F77C5
:20012000616E79005072616361005A616B726563696C656D2077737A7973746B6965207AD2
:200140006164616E652070756368617279004272616B2077796D6167616E65676F206369CF
:20016000736E69656E696120362062617200446F7A6F776E696B206B6C656A7520707265F6
:20018000746F77206E696520676F746F777900446F7A6F776E696B206B6C656A75206E6161
:2001A0006B726574656B206E696520676F746F77790057796C61637A206D61737A796E65F3
:2001C000206920706F637A656B616A2031206D696E757465004F64736C6F6E2069207A7218
:2001E00065736574756A206B757274796E65004D6F6E7465722033206E6965206E6163695E
:20020000736E616C20706564616C6100437A656B616D206E612072756368206C616E63755A
:2002200063686100506F707261772070726574207A2067727A79626B69656D2069206E6138
:200240006369736E696A2067757A696B005573756E2070726574207A6520737A637A656B95
:200260002069206E616369736E696A2067757A696B0057796D69656E206C7562206E616B06
:200280007265632F646F6B7265632067727A7962656B2069206E616369736E696A2067756B
:2002A0007A696B004D6F6E7465722033202D207A64656D6F6E74756A207075636861722018
:2002C0006920706F7477696572647A004D6F6E7465722033202D2077797A776F6C207265C5
:2002E000637A6E696520637A756A6E696B2070756368617261002020202020202020202083
:200300002020202020202020202020202020202020202020202020202020202020202020DD
:200320002020202020202020000001002D4E414E00494E4600000100B5052A030000F89461
:20034000EE27ECBBF1E0F5BFE5BFE0936C00F8E1F1BDE1BD8DE0A2E0BB27ED938A95E9F764
:2003600080E090E1A0E0B1E0ED930197E9F7E6E3F3E085919591009761F0A591B5910590D2
:200380001590BF01F00105900D920197E1F7FB01F0CF8BBFEFEFEDBFE0E1EEBFC0E0D5E011
:2003A0000C945A0E1A930A93E0919B001E2FE078D9F300919C00E12FEC7111F4E02F91C06F
:2003C000F3CFE0919B00E072E1F3E881E0939C00219608956A937A93AA93BA93EA93FA93BF
:2003E000EFB7EA93A6E3B5E00E940311A6E4B5E00E940311AAE3B5E00E940311AAE4B5E036
:200400000E940311AEE3B5E00E940311AEE4B5E00E940311A2E4B5E00E940311A2E5B5E080
:200420000E940311AEE5B5E00E940311A2E6B5E00E940311A6E6B5E00E940311E991EFBF56
:20044000F991E991B991A991799169911895C999949AA0E09499A1E00E940C110E94111122
:20046000E02121F0AFEAB5E00E9403110E9411110E2EA091AF05B091B0058091B1059091C3
:20048000B2050E941811E02141F00E941F119498E0E0E0938305E093840508951A930A930C
:2004A00001E010E0F8011DC00E942911C99B02C0949AFCCF0E942E110431E0E01E075CF44F
:2004C000C99B06C0C99B02C0949AFCCF0E942E110F5F1F4FF1CFE4E1F0E0E0938505F09341
:2004E00086050991199108950E9436110E943E110E944A110E944E11E0E00FC2E0E0E093F4
:2005000082050E9436110E9452110E944A110E945B11E0938205F0E00895A9E8B5E00E942C
:2005200071110E9477110E9436110E947D11F5C10E9436110E948B110E9494110E94981187
:20054000E7E10E94A1110E949411E7ECF0E0BAC00E943611EBE10E94A1110E949411E1EFFB
:20056000F0E0B0C00E943611ECE10E94A1110E949411EAE0F1E0A6C00E9436110E948B11C2
:200580000E9494110E949811E8E00E94A1110E949411E4E2F1E096C00E943611EBE10E9422
:2005A000A1110E949411EEEAF0E00E94A9110E943611E6E20E94A1110E949411EAE2F1E055
:2005C00081C00E943611E2E20E94A1110E949411EEE4F1E077C0E881F981309751F40E9427
:2005E00036110E948B110E949411EEE6F1E00E94A911A881B981119759F40E943611E5E226
:200600000E94A1110E949411EFE8F1E00E94A9115EC00E943611E5E20E94A1110E949411D2
:20062000E2EBF1E04FC00E943611ECE10E94A1110E949411E5EDF1E045C00E943611EFE15B
:200640000E94A1110E949411EFEEF1E03BC00E943611EAE10E94A1110E949411ECE0F2E069
:2006600031C00E943611EBE20E94A1110E949411E4E2F2E027C00E943611E7E20E94A111B3
:200680000E949411EDE4F2E01DC00E943611E4E30E94A1110E949411E2E7F2E013C00E9438
:2006A0003611ECE20E94A1110E949411ECECF2E009C00E943611E5E30E94A1110E949411CB
:2006C000E6EFF2E0FA93EA9380E00E94C710229608951A930A931F9AEA81EA9372DEEB8194
:2006E0000E94B0111F9819810881249608950E94781640E050E0E0E0E093820510E0AE810D
:20070000BF81119711F00C94C4030E9436110E9452110E94B8110E945B11F0E0E0933405A6
:20072000F09335050E9436110E94BC110E94C8110E945B112E2F3327022E032A39F4E1E019
:20074000F0E0E0939105F093920505C0E0E0E0939105E09392050E9436110E94BC110E9414
:20076000CC110E945B112E2F3327022E032A39F4E1E0F0E0E0938F05F093900505C0E0E018
:20078000E0938F05E09390050E9436110E945211E0E5EA930E94830F0E945B11F0E0E09395
:2007A0002E05F0932F05AE81BF81119709F50E9436110E945211E0E60E94D01110E00E9471
:2007C0007F0F1E2FE0916A05F0916B0560916C0570916D05A7E0B0E080E090E00E941116E8
:2007E000E0935605F09357056093580570935905E0919705F0919805309791F41A93E2E0B5
:20080000EA9367DFE1E0F0E0E0939705F0939805E0915605F0915705E0939905F0939A0579
:200820000E94E711A0919905B0919A050E94AC150E94731629F0E0E0E0939705E0939805E9
:20084000D6010E94F0110E2EAE81BF810E94F511E02159F10E9436110E945211E0E70E9429
:20086000D0114E2F55270E947F0FF0E0E0933205F09333050024041605067CF4FA01AFEFE7
:20088000B0E00E940C160E94FA11EA0FFB1FE40FF51FE0933205F0933305E0913205F091AF
:2008A0003305E0939B05F0939C050E947F169DC00E9436110E943E110E94B8110E944E11EF
:2008C000E09134050E94FF110E943E11E0E50E940312E0912E050E94FF110E943E11E0E642
:2008E0000E940312E7E00E94FF110E943E11E0E70E940312E5E00E94FF110E9407120E9485
:20090000C8110E944E11E1E00E94FF110E9407120E94CC110E944E11E1E0EA930E94830FDD
:2009200008950E947A16AE81BF81A030E1E0BE076CF0EFEFF0E00E9429168F01AE81BF8139
:20094000EFEFF0E00E942E169F0104C000E010E020E030E00E9436110E943E11E0E8EA93A0
:200960000E94830F0A930E94830FAE81BF81A030E1E0BE072CF0AFEF0A02F001E20F01C044
:20098000EE81EA930E94830FAC81BD81A030E1E0BE076CF0EFEFF0E00E9429168F01AC81CE
:2009A000BD81EFEFF0E00E942E169F0104C000E010E020E030E00E9436110E9407120E94DB
:2009C000B8110A930E94830FAC81BD81A030E1E0BE072CF0AFEF0A02F001E20F01C0EC81E6
:2009E000EA930E94830F0E948116289608950E9436110E943E110E94C8110E944E11EC81EF
:200A00000E94FF110E943E110E94CC110E944E11EA810E94FF110E9407120E944A110E943C
:200A20004E11E881EA930E94830F26960895959A08950E9429111F9AE4E6F0E00E94101225
:200A4000B1DC0E2F1127002E012A21F40E941412C2DDA8DC1F98E0C2E0E00799E1E0E030B1
:200A600011F00C948A05E0919505F0919605309749F41FDE0E9419121D9A0E941F120E9425
:200A8000221247C0E130A0E0FA0731F41D980E941F120E9429123DC0E230A0E0FA0741F43A
:200AA0001E9A069903C00E94301201C0D0DD31C0E330A0E0FA07D1F4069B17C0FADDA09100
:200AC0009305B0919405129721F4E3E0F0E00E943A12E0919305F0919405309721F4E2E0A4
:200AE000F0E00E943A120E943F1213C0E430A0E0FA0779F40E944612129729F40E941F12DD
:200B00000E94291206C0E1E0F0E00E943A120E944B1213C0E13089F486DD1D981E980E94E3
:200B20005112E091B305F091B405309711F40E9457120E9460120E947412E0919305F09152
:200B40009405089528970E947A1620E030E00E9477110E9477120E947D1201E010E00E9465
:200B60004B12E8E0F0E0CE16DF061CF00E944B1202C00E948312D8010E94F5110E948A12F4
:200B80000E949B120E94F0110E949B120E94F5110E949B120E94A1120E949B12E3E0F0E0E6
:200BA0000E94B6150E949B12E4E0F0E00E94B615E02911F40C943807D8010E94F5110E9468
:200BC0008A12E02911F40C949B06F801E130A0E0FA0751F5D9010E94F5110E2ED601E8E0FC
:200BE000F0E00E94C2150E220E94A612E0E2FEE460E070E00E94DC15E0211E2ED601E8E06F
:200C0000F0E00E94C8150E2E0E94A612E8EBFBE060E070E00E94DC15E021E12921F002E020
:200C200010E00E947D1287C0E230A0E0FA0769F50E94AB120E94B212E02911F0C59820C04F
:200C40000E94A6120E9418110E94BA120E94BF1259F063DC10DDC598E1EAF6E861E070E082
:200C6000EC83FD836E837F830E94A6120E9418110E94BA120E94C41239F01BDD0E947D1235
:200C8000C298C69803E010E056C0E330A0E0FA0711F00C948A06A091A305B091A405119783
:200CA00011F5A0913405B0913505E6E4F0E00E94C8150E2E0E94FA11E1E0F0E00E94CE1531
:200CC0000E94C9120E94C2150E220E94CE120E94F011E02109F0A89AC798909AE0E0E093D1
:200CE000A305E093A405A0E0CC99A1E00E940C11A091A305B091A4050E94F011E02149F06B
:200D0000909A0E94D3120E94DA120E94E01204E010E011C0E430A0E0FA0769F4029906C008
:200D2000E1E0F0E0E093A705F093A805CC9903C0909805E010E0E0E00799E1E0E03011F07C
:200D40000C940D07E0919505F0919605309799F40E94E912A0E00399A1E00E94C41249F079
:200D60000E941912A6DC1D9A0E9477120E94221201C052C051C0E130A0E0FA0799F40E94C7
:200D8000E912A0E0C199A1E00E94C41249F00E94F1122CF01D980E9429120E94771201C00D
:200DA0003BC03AC0E230A0E0FA07B1F4079911C00E94F1126CF01E9A069909C021E030E063
:200DC0000E947D120E9430120E94771201C03FDC02C0C19821C020C0E330A0E0FA07B1F4E2
:200DE000069B13C066DC1E98A885B9858A859B85A136EAEEBE07E0E08E07E0E09E071CF0B3
:200E00000E943F1202C00E944B1206C0E430A0E0FA0711F40E94831212C0E13081F449DC0A
:200E200002DC1D981E980E944B120E947712E091B305F091B405309711F40E945712E88598
:200E4000F9856A857B85EF5FFF4F6F4F7F4FE887F9876A877B87EC81FD816E817F81EF5FF3
:200E6000FF4F6F4F7F4FEC83FD836E837F8383CE0E9481162C9608951BDDC89902C0A1DB36
:200E8000FCCF17DCD4DD15DC53DBD3DD12DCCC9B02C0909AFCCF0E94D3129098AB98A998D5
:200EA000AA9A1A98C79800DB04DC52DBE0918205E03001F50E9414121ADCA0918F05B09133
:200EC00090051197A1F40E9474120E94FD12A99AE8EBFBE00E941012AA9A1A98E0EDF7E018
:200EE0000E9410120E94FD12A99893DBFFCF0E940213DCCFE0E0E093820524DEAD9A0E94F9
:200F00007412AD981FDE0E9474121CDE0E94741219DE0E9451120E9446120E94F0110E2EEA
:200F20000E9446120E94A1120E2A0E944612E3E0F0E00E94B615E02921F08EDD0E943A12BD
:200F4000EACFE0E0E0939305E09394050E9474120E941412CCDBE1E0F0E00895E1E0F0E0AB
:200F60000E940713E0917A05F0917B0508951A930A931F9AE4E00E94B0111F98002E012AED
:200F800079F4A091A105B091A205159719F455DB0E940C13A1EAB5E00E9471110E94121370
:200FA0000E941E1361F40E940C13A0917805B0917905119711F40E9423130E942B1328C08E
:200FC0001A930A931F9AE6E00E94B0111F98002E012A79F4A091A105B091A205159719F4F0
:200FE0005EDB0E940C13A1EAB5E00E9471110E9412130E941E1361F40E940C13A091780555
:20100000B0917905119711F40E9423130E942B13E0917E05F0917F050991199108951A9325
:201020000A931F9AE1E00E94B0111F98002E012A81F40E941412CFDA0E947412E0E0E093E5
:201040007C05E0937D05E1E0F0E0E0937605F09377050E941E1381F4A0917605B0917705EB
:20106000119731F426DBE0E0E0937605E0937705E1E0F0E00E943213E0917C05F0917D0598
:20108000A8C30E942911E0911405F0911505309719F40E943713D8C0E130A0E0FA07D9F42D
:2010A000AF9A0E943E130E94C41299F0E0E0E0934605E0934705E0934805E09349050E9493
:2010C0004913E2E0F0E00E9453130E94581354DA01C048DAB9C0E230A0E0FA0769F40E94F1
:2010E0005F130E9468133CF0AF980E944913E3E0F0E00E945313A8C0E330A0E0FA0759F40C
:201100000E9470133CF0AE9A0E944913E4E0F0E00E94531399C0E430A0E0FA0761F40E94B7
:20112000701344F0AE98C49A0E944913E5E0F0E00E94531389C0E530A0E0FA0769F40E94DB
:201140005F130E9479133CF0C4980E944913E6E0F0E00E94531378C0E630A0E0FA0799F56E
:201160000E943E130E94BF1221F00E9437130E948113A0E0CA99A1E00E940C11A0E0CB99CF
:20118000A1E00E94C41221F00E9437130E9481130E943E130E94C41231F0E3E0F0E00E9462
:2011A00053130E948113A0E0CA99A1E00E940C11A0E0CB99A1E00E94BF1221F0E7E0F0E0F0
:2011C0000E94531341C0E730A0E0FA0759F40E9470133CF0AD9A0E944913E8E0F0E00E9451
:2011E000531332C0E830A0E0FA0759F40E9470133CF0AD980E944913E9E0F0E00E9453137C
:2012000023C0E930A0E0FA0751F40E945F130E948E1324F0EAE0F0E00E94531315C0EA3010
:20122000A0E0FA0789F40E944913E0E0E0931405E093150501E010E0E1E0F0E0EC15FD0574
:2012400019F4E2E0F0E06F01C3C20E942911E0911605F0911705309771F4E0E0E0934A0547
:20126000E0934B05E0934C05E0934D050E9496130E949B134DC0E130A0E0FA0789F40E94C9
:20128000A0130E9479130CF0AC9A0E94A0130E9468132CF01C9A0E9496130E94A91338C046
:2012A000E230A0E0FA0759F40E94A0130E94AE132CF01C980E9496130E94B61329C0E33014
:2012C000A0E0FA0749F40E94BB132CF0AC980E9496130E94C4131CC0E430A0E0FA0741F416
:2012E0000E94BB1324F0E6E1F5E00E94C91310C0E530A0E0FA0761F40E9496130E94CE13C7
:20130000E3E0F0E0EC15FD0519F4E4E0F0E06F015FC20E942911E0911805F0911905309735
:2013200091F4E0E0E0934E05E0934F05E0935005E09351050E94D513C398AA98E8E1F5E085
:201340000E949B1303C1E130A0E0FA0769F40E94DF130E948E133CF01A9A0E94D513E8E180
:20136000F5E00E94A913F2C0E230A0E0FA07B1F40E94CE12119721F40E94E8130E94EF13D0
:201380000E94DF130E94F61344F0A99AC79A0E94D513E8E1F5E00E94B613D8C0E330A0E078
:2013A000FA07A1F40E94DF130E94FE1374F0A998A5E8B5E0ED91FD913197FE93EE930E9401
:2013C000D513E8E1F5E00E94C413C0C0E430A0E0FA0739F40E94D513E8E1F5E00E94C91326
:2013E000B5C0E530A0E0FA0781F40E94DF130E94061454F0C39A1A980E940E14E8E1F5E068
:20140000A6E0B0E0A083B183A1C0E630A0E0FA0781F40E94DF130E94791354F0919AAB9A7C
:201420000E94D513E8E1F5E0A7E0B0E0A083B1838DC0E730A0E0FA07D1F5A0E00599A1E0CC
:201440000E9414140E9419140E94F011E02111F00E94E8130E9419140E94F5110E2EE0918D
:201460002E05F0912F050E94DF130E94A7150E94D415E02131F0C39891980E94D5130E9435
:201480001E14E0913005F09131050E94DF130E94A7150E94731654F4C3989198A5EAB5E0B0
:2014A0000E9471110E940E140E941E144FC0E830A0E0FA07C9F40E9425140E94F511E02187
:2014C00031F0AB98AA9A0E94D5130E94EF130E9425140E94F011E02131F0AB98AA9A0E946D
:2014E000D5130E94EF1332C0E930A0E0FA07A1F40E94DF13A630E0E0BE07E0E08E07E0E03B
:201500009E074CF0C7980E94D513E8E1F5E0AAE0B0E0A083B1831AC0EA30A0E0FA07B1F4D8
:20152000E0918B05F0918C05E0938D05F0938E050E94D513E8E1F5E00E94CE13E5E0F0E03D
:20154000EC15FD0519F4E6E0F0E06F0141C10E942911E0911A05F0911B05309781F4E0E06A
:20156000E0935205E0935305E0935405E09355050E942E140E949B130E94771129C1E130E4
:20158000A0E0FA0729F40E942E140E94A91320C1E230A0E0FA0769F40E943A140E94FE13F7
:2015A0003CF0A898C19AC09A0E942E140E94B6130FC1E330A0E0FA0711F00C941E0BA0915C
:2015C0008D05B0918E050E94F5110E2E0E94CE120E94F0110E22A0919D05B0919E050E9413
:2015E000F0110E22A091A705B091A8050E94F511E021E9F40E948D0248D8E1E0F0E0E09314
:201600009D05F0939E05CF9918C0A091A705B091A8050E94F0110E2ED601E7E0F0E00E9408
:20162000C215E02121F0A9EAB5E00E947111EAE1F5E00E94C4130E944314CAC0E430A0E045
:20164000FA0761F436D8E0E0E0939D05E0939E05C59A0E942E140E94C913BAC0E530A0E06B
:20166000FA07F1F50E943A14E9E1F0E060E070E00E94DC150E94B2120E22A0E0C599A1E0E1
:201680000E94BF1239F0C69A0E942E14A6E0B0E0A083B1830E943A14E2E3F0E060E070E0E8
:2016A0000E94DC150E2E0E94AB12E02139F00E9443140E948D020E943103C598A0E0C59997
:2016C000A1E0E0E00E94B1150E94BA120E94C41231F00E945903EAE1F5E00E94C41378C00B
:2016E000E630A0E0FA0791F40E943A14AA31E0E0BE07E0E08E07E0E09E073CF0C29A0E949A
:201700002E14A7E0B0E0A083B18362C0E730A0E0FA0769F40E943A140E94AE133CF0C0982B
:201720000E942E14A8E0B0E0A083B18351C0E830A0E0FA0769F40E943A140E94AE133CF0D0
:20174000C5980E942E14A9E0B0E0A083B18340C0E930A0E0FA0769F40E943A140E94F61346
:201760003CF0C2980E942E14AAE0B0E0A083B1832FC0EA30A0E0FA0769F40E943A140E9415
:20178000F6133CF0C1980E942E14ABE0B0E0A083B1831EC0EB30A0E0FA07D1F40E943A1436
:2017A0000E940614ACF00E942E140E94CE13A2E3B5E0ED91FD913197FE93EE93E7E0F0E0D3
:2017C000EC15FD0529F4E8E0F0E06F010E944D14F8010991199108950E9467140E94F01144
:2017E0000E946C14E02129F04CDCE0930005F09301050E9473140E9478140E947D140E9458
:201800008514E02129F021DDE0930205F09303050E948A140E9478140E947D140E948F142C
:201820000E948514E02129F074DDE0930405F0930505E0910605F09107050E9478140E9420
:201840007D140E948F14D601E5E0F0E00E94BC150E94C9120E94BC150E220E948514E02177
:2018600029F075DEE0930605F09307050895AA24BB240E94A0140E944D1408950E94A71452
:201880000E2ED6010E94A112E02199F00E9402130E94A9140E94B8140E94BD140E94C314E6
:2018A000E02139F00E94C9140E94D714E3E0F0E06F010E94A7140E2E0E9473140E94DD149A
:2018C000D601E4E0F0E00E94B615E021A9F00E9402130E94A9140E94B8140E94BD140E94FD
:2018E000C314E02149F00E94C9140E94E314E5E0F0E06F010E94D7140E94A7140E2E0E94F2
:2019000073140E94DD140E948A14A1E0B0E00E94B6150E94C9120E94B615E021B9F00E94B9
:2019200002130E94A9140E94B8140E94BD140E94C314E02159F00E94C9140E94E3140E94D5
:20194000EA140E94D714E7E0F0E06F010E94A7140E2E0E9473140E94DD140E948A140E94BE
:20196000DD14E0910605F09107050E94DD14D601E8E0F0E00E94C215E02111F40C94820DBD
:201980000E940213EBDA0E94071349DB0E9432130E944E02E0938705F0938805D5010E948B
:2019A000F5110E2EA0918205E1E00E94B1150E220E94B8140E94BD140E94C314E02111F474
:2019C0000C94820D0E94F1140E94F7140E2E0E94FC1431F0CCDAE0937E05F0937F05F4CF0F
:2019E000A0919F05B091A005119739F4049B03C00E940315FBCF0E9403150E9409154CF0BB
:201A00000E94141534F0E1E0EA93E3E0EA930E94690398D80E940915B4F00E94141534F088
:201A2000E1E0EA93E5E0EA930E9469030E94F1140E94F7140E94191531F0C2DAE0937E0541
:201A4000F0937F05F5CFE0E0F0E0FA93EA930E947703F60131966F01E8EEF3E0EC15FD052B
:201A60001CF4E4E6F0E06F010E94FA11E3E0F0E00E94CE150E2E0E948514E02141F00E943C
:201A8000D7140E9421150E94EA140E9427150E94FA11139744F00E9458130E94E3140E9432
:201AA000EA140E9427150E94FA11129734F00E9458130E94EA140E9427150E94FA110E94F6
:201AC0006F1624F40E9458130E942715D0DE0E942E15A0919B05B0919C050E94B6150E2E8F
:201AE000A0919F05B091A0050E94F011E02151F00E94CC0294980E947402E0E0E0938205D8
:201B0000CC24DD240895D601E8E0F0E00E94B6150E2ED5010E94F011E02119F0E1E0F0E00B
:201B20005F01D601E9E0F0E00E94C2150E2ED5010E94F011E02111F40C942A0E042C05286C
:201B4000A1F40E94E711A0915E05B0915F0580916005909161050E94341521F0AEE6B5E0FB
:201B60000E947111E1E0F0E02F01062C0728A1F40E94E711A0916205B09163058091640535
:201B8000909165050E94341521F0A0E7B5E00E947111E1E0F0E03F01A0E00499A1E00E946D
:201BA0001414D4010E94F0110E22D601EBE0F0E00E94C815E021C9F00E94371521F0A2E722
:201BC000B5E00E9471110E94141564F0A8E2B5E00E947111ADEAB5E00E9471110E942E15B5
:201BE0000E944115E1E0F0E04F01A0E00499A1E00E941414D4010E94F0110E2A0E94FC1442
:201C0000C9F00E94371521F0A2E7B5E00E9471110E94141564F0A8E2B5E00E947111ADEAD1
:201C2000B5E00E9471110E942E150E944115E1E0F0E04F01D2010E94F5110E2ED3010E9400
:201C4000F5110E22D4010E94F511E02119F0E1E0F0E05F0108950C2C0D2859F5E091820586
:201C6000E03019F40E94021324C00E9414120E9477030E944D150E9453150E9421150E9440
:201C8000EA140E9427150E944D150E9459039498E0912805F0912905FA93EA93E091AD05C0
:201CA000F091AE05FA93EA930E949104E1E0F0E06F010895E0E0EBBBEABBE8BBEFEFE7BBE3
:201CC000E0E0E5BBEFEFE4BBE0E0E2BBEFEFE1BBE0E0E3B9EFEFE2B9E0E0E0936200E09373
:201CE0006100E0936500EFE1E0936400E0E0E0BFE7E0E3BFE0E0E2BFE1BFEFBDEEBDEDBD3A
:201D0000ECBDE7BDE6BDEBBDEABDE9BDE8BDE0937900E0937800E5BDE4BDE3BDE0938B0081
:201D2000E0938A00E0938900E0938800E0938100E0938000E0938700E0938600E0938500DD
:201D4000E0938400E0938300E0938200E0936A00EABFE9BFE1E0E7BFE0E0E0937D00EBB9B8
:201D6000E8E1EAB9E6E0E0939500E0E0E0939000E7E6E9B9E0E0E0939B00E8E1E0939A0053
:201D8000E6E0E0939D00E0E0E0939800E7E6E0939900E0E8E8B9E0E0E0BDE6B9EDB9E0934B
:201DA00074007894E0E4FFE10E941012E0EDF7E00E9410120E9436110E947D11EA93A3D0CA
:201DC000CC24DD24E0E0E0935605E0935705E0935805E09359050E94A014AA24BB24E4E647
:201DE000F0E060E070E0E0935A05F0935B0560935C0570935D050E94D714EEE3F0E060E0A7
:201E000070E0E0936A05F0936B0560936C0570936D050E945112ECEDF0E0E0933005F093EB
:201E20003105E4E1F0E0E0932E05F0932F05E6E4F0E0E0933405F0933505E0E0E0932A0515
:201E4000E0932B050E944D150E945315E0E0E0938005E0938105E0939705E0939805E0938E
:201E60009905E0939A05E0939D05E0939E050E940C130E940315E0E0E093A305E093A40515
:201E8000E093A505E093A605E093A905E093AA050E94DA12E093AB05E093AC05E0E0E093BC
:201EA000AD05E093AE050E941F110E941912E0E0E0938205E0937405E0937505E09376052A
:201EC000E0937705E0937805E0937905E0937A05E0937B05E0937C05E0937D050E94F114BD
:201EE0000C2C0D2821F40E943C076F01F9CF0E942702B1DE71DC07DEC1DCF9CFFFCF5F9B8A
:201F0000FECFECB108955D9BFECFE881ECB921960895EA81EA93F7DFA881B9810E9471114E
:201F20002396089526970E94781610E0AC85BD85E0E0F0E0ED93FC93EA89FB893196EA8B29
:201F4000FB8B3197E4912E2FE03011F40C94BF10E12FE03039F4253211F411E002C00E94DF
:201F600062150CC1E130A9F4253219F40E94621504C112E040E000E02D3211F401E0FEC038
:201F80002B3211F44BE2FAC0203211F440E2F6C002C0E23039F450E013E0203311F40068E5
:201FA000EDC004C0E33011F00C94BE10203310F02A3308F007C0AAE05A9F502DE22FE0537B
:201FC0005E0FDCC0E22FE33649F40E946B15E889F989A481AA930E947115CFC0E33741F414
:201FE0000E946B150E9479150E94EE101E2F0AC0E03761F40E946B150E9479150E94F81070
:202000001E2F086002600F7730E035C0E43611F0E93611F4046002C0E53731F4ECE8F0E0D4
:20202000EE83FF8315E00DC0E83511F4086004C0E83711F00C94BD10E6E9F0E0EE83FF837E
:2020400014E002FF14C00E946B150E948315AB85AA233AF4EA85FB850E949B15EA87FB87FC
:202060004DE2403011F01F5F01C00B7F04C00E946B150E94831500FD11C0151778F407FF6B
:2020800008C002FF04C00B7F242F115001C020E301C020E20E9462155150EFCF312F01FF16
:2020A00017C03030A1F003FF06C0EE81FF812591EE83FF8305C0AE81BF812D91AE83BF8393
:2020C0000E946215503009F051503150EACF4BC020E3EE81FF810E946B16E887F987EE8115
:2020E000FF813296EE83FF83E885F985AA85BB85AE17BF0750F02F5FA885B985EA85FB8598
:20210000EA1BFB0BEA87FB87EFCF2A3328F003FF02C0295F01C0295D04FD1AC0213320F4B8
:20212000A885B985119709F409C0531710F000FF01C013C020E207FF0BC020E3006102FF91
:2021400007C00B7F4A930E947115503009F051500E946215503009F051503150A885B985F0
:20216000129708F0B5CF00FF08C0503031F05150E0E2EA930E947115F8CF10E0DDCEAC8537
:20218000BD850E945D160E947F1664960895FF92F82E26971A930A93DE0114960E94971585
:2021A0008D01E0E0EC83ED83EE83EF83DE0118960E9497150E945D16FA93EA931A930A93CB
:2021C000E9E8FFE0FA93EA93FE013896FA93EA93A9DE198108812896FF900895A991B99156
:2021E000EE27FF276D91662311F03196FBCF0895AA27BB27E991F9910590002011F01196DA
:20220000FBCFFD0108950E946116EF5FFF4F6F4F7F4F0E9466160895E1E00E94B1150E2EF8
:202220000895A0E0C999A1E0E0E00E94B1150895E0EAF6E861E070E00E94DC150895E0E0B0
:20224000E093AF05E093B005E093B105E093B20508951A930A9300E010E00895E0EDF7E0E4
:20226000FA93EA930E948B1594980895EAE5EA930E94830FE5EAEA930C94830FE5E0EA9309
:202280000E94830FE2E8EA930E94830FE0E0EA930C94830FE0E3EA930C94830FE0E0EA9371
:2022A0000C94830FE4E0EA930E94830FE3E8EA930E94830FF3CFE1E0EA930E94830F0E9425
:2022C0007F0F0E947F0F0E947F0F0E947F0F0E947F0F0E947F0F0E947F0F0E947F0F0C9480
:2022E0007F0FED91FD913196FE93EE930895E0E0E0938905E0938A050895E3E0EA930E948C
:20230000830FE0E8EA930E94830FE2E0EA930E94830FE0E10895E3E2EA930E94830FE2E8A1
:20232000EA930E94830FBACFE0E9EA930C94830FEEE9F0E0FA93EA9380E00E94C7102296A9
:2023400095CFEA930E94830FE2E8EA930E94830FA5CFFA93EA9380E00E94C7102296089541
:20236000EA930E94E1010E94D2010E2F11270895E0E4EA930C94830FE4E0EA930E94830FED
:20238000E3E8EA930E94830FE0E1EA930C94830FE0E1EA930C94830FE0E2EA930C94830F70
:2023A000EA930E94830FE1E0EA930E94830F0E947F0F0E947F0F0E947F0F0E947F0F0E9498
:2023C0007F0F0E947F0F0E947F0F0C947F0FE0915605F091570560915805709159050895EE
:2023E000E0E0F0E00E94B6150895E1E0F0E00E94B6150895A0913205B09133050895EA93AD
:202400000E94830F33CFEA930E94830F47CFE5E0EA930E94830FE2E8EA930E94830FB8CF47
:20242000FA93EA930C948B15E1E0F0E0FA93EA930895E0E0E093B305E093B4050895E0E99D
:20244000F1E0EECFE1E0F0E0E0939505F09396050895E2E0F0E0E0939505F093960508953B
:202460000E945903E3E0F0E0E0939505F09396051E980895E0939305F09394050895E4E0C5
:20248000F0E0E0939505F09396050895A0919305B09194050895E0E0E0939505E093960589
:2024A0000895E0E0E0939305E0939405F4CFE1E0F0E0E093B305F093B405ABEAB5E011CFE3
:2024C000E091A905F091AA05FA93EA93E091A505F091A605FA93EA93E091AB05F091AC05FF
:2024E000FA93EA930C94F704E8EEF3E099CFE0E0E887E987EA87EB870895E0E0EC83ED8368
:20250000EE83EF830895E5E0F0E0E0939505F093960508950E2ED801E2E0F0E00E94B615CA
:202520000E2AE3E0F0E00E94B6150E2AE4E0F0E00E94B61508950E2AA0919505B0919605AE
:202540000895E2E0F0E00E94B6150895AC81BD818E819F810895A0E0CD99A1E0E0E00E9442
:20256000B11508950E2EA0E0CD99A1E0E1E00E94B11508950E2EA0E0CF99A1E00895E1E08C
:202580000E94B115E0210895E0E00E94B115E02108950E22D601E6E0F0E00895A09191056E
:2025A000B09192050895E1E0F0E0E093A305F093A4050895E0E0E093A705E093A805089595
:2025C000E0933A05E0933B05E0933C05E0933D050895A0E00799A1E0E0E00E94B1150E2E8B
:2025E0000895A885B9858A859B85A93EE3E0BE07E0E08E07E0E09E070895AA981A9AE8EB15
:20260000FBE00ECF0E947E02E09382050895E0937A05F0937B050895E0E0E093A105E0936B
:20262000A2050895E0E0E0937E05E0937F05E1E0F0E0E0937805F09379050895E1E0F0E0F9
:20264000E017F10708950E945903E0E0E0937805E09379050895E1E0F0E0E0937E05F093A8
:202660007F050895E0937C05F0937D050895E1E0F0E0E0931405F09315050895A0E0CA9969
:20268000A1E0E0E00E94B1150E2EA0E0CB99A1E00895E0E0E0933605E0933705E093380586
:2026A000E09339050895E0931405F09315050895E1E0F0E0E0932C05F0932D050895A0914E
:2026C0003605B091370580913805909139050895AD33E0E0BE07E0E08E07E0E09E0708953C
:2026E000EEDFA531E0E0BE07E0E08E07E0E09E070895A932E0E0BE07E0E08E07E0E09E0741
:202700000895E5E1F0E060E070E0E0933605F093370560933805709339050895A230E0E0E9
:20272000BE07E0E08E07E0E09E070895E0E048DFE6E1F5E00895A1E0B0E0A083B183089558
:20274000A0913A05B0913B0580913C0590913D050895A2E0B0E0A083B1830895AF31E0E090
:20276000BE07E0E08E07E0E09E070895A3E0B0E0A083B1830895E4DFA333E0E0BE07E0E058
:202780008E07E0E09E070895A4E0B0E0A083B1830895A5E0B0E0A083B1830895A0E0B0E081
:2027A000A083B18301E010E00895E0E0E0933E05E0933F05E0934005E09341050895A091E8
:2027C0003E05B0913F0580914005909141050895E1E0F0E0E0938B05F0938C05E6CFE8E1B1
:2027E000F5E0A9E0B0E0A083B1830895AB30E0E0BE07E0E08E07E0E09E070895A333E0E0AA
:20280000BE07E0E08E07E0E09E070895A531E0E0BE07E0E08E07E0E09E070895E0E0E093B7
:202820008B05E0938C05C1CFE0E00E94B1150E2E0895A0918B05B0918C050895E8E1F5E0A5
:20284000A8E0B0E0A083B1830895B9DFEAE0F0E060E070E00E94DC150E2EEBCFE0E0E093EE
:202860004205E0934305E0934405E0934505EAE1F5E00895A0914205B09143058091440545
:20288000909145050895E0E0E0934205E0934305E0934405E09345050895E0E0E0935E054F
:2028A000E0935F05E0936005E0936105E0936205E0936305E0936405E0936505E093660544
:2028C000E0936705E0936805E09369050895A0910005B091010508950E2ED601E0E0F0E0FE
:2028E0000E94BC150895E0910205F09103050895A0E0B0E00E94B615EFCF0E22D601E1E027
:20290000F0E00E94BC150E220895A0912C05B0912D056BCDE0910405F09105050895D60121
:20292000E2E0F0E00E94BC150E22E3E0F0E00E94BC150E22E4E0F0E00E94BC150E22089558
:202940004424552466247724882499240895BFDF4CCD0E94AE075BDE0E940F0883DE0E9468
:202960004E02E0938705F0938805A091820554CCA0917A05B0917B0538CD0E22A0917C05C8
:20298000B0917D0532CD0E22A0918705B09188052CCD0E94A205E0E0F0E0FA93EA930E943C
:2029A0007703E0E0E0930005E09301050895E0E0E0932C05E0932D050895A1E0B0E00E94F6
:2029C000B6150E220895E2E0F5E0A0E0B0E0A083B1830895E4E0F5E0A0E0B0E0A083B183C4
:2029E0000895E0E0E0937E05E0937F050895A0917E05B0917F05F4CCD601EBE0F0E00E94A3
:202A0000C215E0210895E0E0E0939F05E093A0050895E0919B05F0919C05A0912805B091E3
:202A20002905EA17FB070895EAE0F0E0CE16DF0608950E2ED601EAE0F0E00E94C215E021A1
:202A40000895E0E0E0930005E0930105BCCFE6E0F5E0A0E0B0E0A083B1830895E091280560
:202A6000F0912905319708950E94DC15E2CFAFDCA0916605B091670580916805909169051D
:202A8000F3CFFA93EA93E091AD05F091AE053197FA93EA930E94910413CDE0E0E0932805CA
:202AA000E09329050895EFEFFFEFE0936E05F0936F05E0937005F0937105E0937205F093E1
:202AC000730508952A93ED85FE85FA93EA93E989FA8909950895E889F9893497E88BF98B40
:202AE0000895ED85FE85FA93EA93E989FA8909950895A889B98914960E945D16EE83FF83E5
:202B0000FA93EA930895A889B98914960E945D16EA87FB870895E991F991309639F080EAEF
:202B20009FE00197F1F7A8953197C9F708950024AF0DB01D0895F195E195F0400895F0959C
:202B400060957095E195FF4F6F4F7F4F08956F2F660F660B762F08958B2F880F880B982F1D
:202B60000895EA17E1E009F0EE270895EA17FB07E1E009F0EE270895EA17FB07E1E009F41B
:202B8000EE270895AE17BF07E1E00CF4EE270895AE17BF07E1E00CF0EE270895EA17FB0788
:202BA000E1E00CF0EE270895AE17BF0786079707E1E00CF4EE270895EA17FB07680779078B
:202BC000E1E00CF0EE270895FA9FF02DEB9FF00DEA9FE02DF10D08957A9F702D6B9F700DDB
:202BE000F89F700DE99F700D6A9F602D710DFB9F600D711DE89F600D711D8827FA9FF02D2C
:202C0000610D781FEB9FF00D611D781FEA9FE02DF10D681F781F08952FD0D6DF0EF48BDFA4
:202C2000089538D0D9DF0EF48ADF08950024112490E1AA0FBB1F001C111C0E1A1F0A18F42C
:202C40000E0E1F1E01C0A1609A9599F7FD01D001089512D0EBDF0EF46EDF0895E894B7FF64
:202C600004C0A095B09511966894F7FD64DFDEDFFD010EF460DF0895E894F7FF02C05BDF35
:202C80006894B7FF06C0A095B095119600F8039400FA0895E89477FF02C051DF689497FFFF
:202CA0000BC00024A095B095809590951196801D901D00F8039400FA0895ED91FC911197A7
:202CC0000895ED91FD916D917D9108957E936E93FE93EE9308950590F491E02D08950024F9
:202CE0000A160B060895EA17FB076807790708955A934A933A932A931A930A9308955D815E
:0C2D00004C813B812A81198108810895D3
:00000001FF
