:200000000C94CB010C9400000C9400000C9400000C9400000C9400000C9400000C94000014
:200020000C9400000C9400000C9400000C9400000C9400000C9400000C9400000C940000C0
:200040000C940A020C9400000C9400000C9400000C9400000C9400000C9400000C94000094
:200060000C9400000C9400000C9400000C9400000C9400000C9400000C9400000C94000080
:200080000C9400000C9400000C9400001027E80364000A000100001000011000010020208D
:2000A000202020202020202020202020202020202020202020202020202020202020202040
:2000C00020202020202000496E69636A616C697A756A65206D61737A796E65005779637AAB
:2000E00079737A637A6F6E6F206D61737A796E65004D61737A796E61207A61696E69636A5F
:20010000616C697A6F77616E6100437A656B616D206E612070726574206777696E746F77C5
:20012000616E79005072616361005A616B726563696C656D2077737A7973746B6965207AD2
:200140006164616E652070756368617279004272616B2077796D6167616E65676F206369CF
:20016000736E69656E696120362062617200446F7A6F776E696B206B6C656A7520707265F6
:20018000746F77206E696520676F746F777900446F7A6F776E696B206B6C656A75206E6161
:2001A0006B726574656B206E696520676F746F77790057796C61637A206D61737A796E65F3
:2001C000206920706F637A656B616A2031206D696E757465004F64736C6F6E2069207A7218
:2001E00065736574756A206B757274796E65004D6F6E7465722033206E6965206E6163695E
:20020000736E616C20706564616C6100437A656B616D206E612072756368206C616E63755A
:2002200063686100506F707261772070726574207A2067727A79626B69656D2069206E6138
:200240006369736E696A2067757A696B005573756E2070726574207A6520737A637A656B95
:200260002069206E616369736E696A2067757A696B0057796D69656E206C7562206E616B06
:200280007265632F646F6B7265632067727A7962656B2069206E616369736E696A2067756B
:2002A0007A696B004D6F6E7465722033202D207A64656D6F6E74756A207075636861722018
:2002C0006920706F7477696572647A004D6F6E7465722033202D2077797A776F6C207265C5
:2002E000637A6E696520637A756A6E696B207075636861726100534C415645206E696520CC
:20030000706F7477696572647A696C20706F64616E6961206E616B7265746B6900534C41CB
:200320005645206E696520706F7477696572647A696C207A657A776F6C656E6961206E6192
:2003400020737A637A656B690020202020202020202020202020202020202020202020209A
:20036000202020202020202020202020202020202020202020202020202020003025640064
:200380003A0001002D4E414E00494E4600000100D50582030000F894EE27ECBBF1E0F5BF0E
:2003A000E5BFE0936C00F8E1F1BDE1BD8DE0A2E0BB27ED938A95E9F780E090E1A0E0B1E063
:2003C000ED930197E9F7EEE8F3E085919591009761F0A591B59105901590BF01F00105905C
:2003E0000D920197E1F7FB01F0CF8BBFEFEFEDBFE0E1EEBFC0E0D5E00C9429110E94DE132F
:200400000E94E4130E94EA13E0E0E093C505E093C60508956A937A93AA93BA93EA93FA932E
:20042000EFB7EA93A6E3B5E00E94F013AAE3B5E00E94F013AEE3B5E00E94F013A2E4B5E029
:200440000E94F013AFEBB5E00E94F913A091BF05B091C005DC97D1F40E94DE13A1ECB5E032
:200460000E94F9130E94FF13DC9781F40E94E413A3ECB5E00E94F9130E940414DC9731F475
:200480000E94EA13A5ECB5E00E94F913E991EFBFF991E991B991A991799169911895C99926
:2004A000949AA0E09499A1E00E9409140E940E14E02121F0A3EBB5E00E94F0130E940E14BF
:2004C0000E2EA091B305B091B4058091B5059091B6050E941514E02141F00E941C1494985B
:2004E000E0E0E0938705E093880508951A930A9301E010E0F8011DC00E942614C99B02C0AD
:20050000949AFCCF0E942B140431E0E01E075CF4C99B06C0C99B02C0949AFCCF0E942B146D
:200520000F5F1F4FF1CFE4E1F0E0E0938905F0938A050991199108950E9433140E943B14BC
:200540000E9447140E944B14E0E0DFC2E0E0E09386050E9433140E944F140E9447140E94F1
:200560005814E0938605F0E008950E9433140E943B140E946E140E944B14E1E0C6C2CE99F5
:2005800002C0979801C0979A0895ADE8B5E00E94F9130E9472140E9433140E947814B5C24D
:2005A0000E9433140E9486140E948F140E949314E7E10E949C140E948F14E7ECF0E092C034
:2005C0000E943314EBE10E949C140E948F14E1EFF0E088C00E943314ECE10E949C140E943D
:2005E0008F14EAE0F1E07EC00E9433140E9486140E948F140E949314E8E00E949C140E9410
:200600008F14E4E2F1E06EC00E943314EBE10E949C140E948F14EEEAF0E00E94A4140E9482
:200620003314E6E20E949C140E948F14EAE2F1E059C00E943314E2E20E949C140E948F141A
:20064000EEE4F1E04FC00E943314E5E20E949C140E948F14E2EBF1E045C00E943314ECE148
:200660000E949C140E948F14E5EDF1E03BC00E943314EFE10E949C140E948F14EFEEF1E047
:2006800031C00E943314EAE10E949C140E948F14ECE0F2E027C00E943314EBE20E949C1491
:2006A0000E948F14E4E2F2E01DC00E943314E7E20E949C140E948F14EDE4F2E013C00E941F
:2006C0003314E4E30E949C140E948F14E2E7F2E009C00E943314E5E30E949C140E948F14C9
:2006E000E9E4F3E0FA93EA9380E00E94A213229608950E946D1A40E050E0E0E0E09386050D
:2007000010E0AE81BF811197C9F50E9433140E944F140E94AB14F0E0E0933405F09335058C
:200720000E9433140E94B0140E94BC140E9458140E94C01439F4E1E0F0E0E0939505F09326
:20074000960505C0E0E0E0939505E09396050E9433140E94B0140E94C5140E9458140E94E4
:20076000C01439F4E1E0F0E0E0939305F093940505C0E0E0E0939305E09394050E9433143B
:200780000E944F140E94C914F0E0E0932E05F0932F050E94CE141E2EAE81BF810E94D514DE
:2007A0000E94DB14E4E0F0E00E94BE19E021E12969F10E9433140E944F140E946E140E9482
:2007C00058140E94C01439F4E1E0F0E0E093B905F093BA0505C0E0E0E093B905E093BA051E
:2007E000E0916A05F0916B0560916C0570916D05A7E0B0E080E090E00E94011AE0935605E1
:20080000F09357056093580570935905E0919B05F0919C05309771F4E1E0F0E0E0939B0545
:20082000F0939C05E0915605F0915705E0939D05F0939E050E94E014A0919D05B0919E0563
:200840000E949C190E94681A29F0E0E0E0939B05E0939C05D6010E94D5140E94CE14E02136
:2008600051F10E9433140E944F140E94E9140E94ED140E94F1140E94F1140E945A120E9408
:200880005A124E2F55270E945A12F0E00E94F7140024041605066CF4FA01AFEFB0E00E94F4
:2008A000FC190E94DB14EA0FFB1FE40FF51F0E94F7140E94FC14AE81BF811197B9F40E94B3
:2008C00033140E9405150E9447140E9458140E94C01439F4E1E0F0E0E093CD05F093CE053B
:2008E00005C0E0E0E093CD05E093CE050E9433140E9405150E94AB14F0E0E093CF05F09348
:20090000D0050E9433140E9405150E94C914F0E0E093D305F093D405E091CD05F091CE05D0
:20092000309719F4E3E0F0E08EC00E940E15E2E3F0E00E94A619E02121F0E1E1F0E00E9401
:200940001C150E940E15E7E3F0E00E94A619E02121F0E2E1F0E00E941C150E940E15ECE39A
:20096000F0E00E94A619E02121F0E3E1F0E00E941C150E940E15E1E4F0E00E94A619E02111
:2009800021F0E4E1F0E00E941C150E940E15E6E4F0E00E94A619E02121F0E5E1F0E00E94D4
:2009A0001C150E940E15EBE4F0E00E94A619E02121F0E6E1F0E00E941C150E942115E2E328
:2009C000F0E00E94A619E02121F0EBE0F0E00E941C150E942115E7E3F0E00E94A619E02192
:2009E00021F0ECE0F0E00E941C150E942115ECE3F0E00E94A619E02121F0EDE0F0E00E944E
:200A00001C150E942115E1E4F0E00E94A619E02121F0EEE0F0E00E941C150E942115E6E4B2
:200A2000F0E00E94A619E02121F0EFE0F0E00E941C150E942115EBE4F0E00E94A619E02128
:200A400031F0E0E1F0E0E093D105F093D2050E94741AAAC00E9433140E943B140E942F15E7
:200A6000E09134050E9434150E943B140E943815E0912E050E9434150E943B140E946E145D
:200A80000E944B140E94ED140E9433140E943B140E94E9140E944B14E5E00E9434150E94E6
:200AA0003D150E94BC140E944B140E94ED140E9433140E943D150E94C5140E944B140E94D3
:200AC000ED140E9433140E943D15E0E8EA930E945E120E944B140E94ED140E9433140E94B2
:200AE00046150E9447140E944B140E94ED140E9433140E9446150E942F15E2E00E94341581
:200B00000E9446150E943815E2E3EA930E945E1208950E946F1A0E944F155CF00E9455156F
:200B20000E94191A8F010E9455150E941E1A9F0102C00E945A150E9433140E943B14E0E855
:200B40000E945F150E944F151CF00E94651506C0AF81AA2312F0EE8101C0E0E0EA930E947D
:200B60005E120E946A155CF00E9470150E94191A8F010E9470150E941E1A9F0102C00E9407
:200B80005A150E9433140E943D15E0E40E945F150E946A151CF00E94651501C0EC81EA933B
:200BA0000E945E120E94761A289608950E9433140E9475150E94BC140E94FF131A971CF49A
:200BC000ECE7F3E002C0EDE7F3E0FA93EA930E947E150E948B150E9404141A971CF4ECE737
:200BE000F3E002C0EDE7F3E0FA93EA930E948E150E948B15A091C505B091C6051A971CF460
:200C0000ECE7F3E002C0EDE7F3E0FA93EA930E949B1508950E9433140E9475150E944B14B6
:200C20000E94FF131A971CF4ECE7F3E002C0EDE7F3E0FA93EA930E947E150E948B150E940D
:200C400004141A971CF4ECE7F3E002C0EDE7F3E0FA93EA930E948E150E948B15A091C50520
:200C6000B091C6051A971CF4ECE7F3E002C0EDE7F3E0FA93EA930E949B1508950E943314B6
:200C8000EBE0EA930E945E12E2E8EA930E945E120E94BC140E948F14E091C105F091C2056B
:200CA0000E94A815EA0FFB1FE093C705F093C8050E94A815DD976CF0E091C705F091C80579
:200CC000FC97E093C705F093C805A9ECB5E00E94F913E091C305F091C4050E94AD15EA0F3A
:200CE000FB1FE093C905F093CA050E94AD15DD976CF0E091C905F091CA05FC97E093C905B0
:200D0000F093CA05ABECB5E00E94F913E091C505F091C6050E94B215EA0FFB1FE093CB0561
:200D2000F093CC050E94B215DD9774F0E091CB05F091CC05FC97E093CB05F093CC05E0E0A1
:200D4000E093CB05E093CC050E94A8151A971CF4ECE7F3E002C0EDE7F3E0FA93EA93E09162
:200D6000C705F091C8050E94B7150E948B150E94AD151A971CF4ECE7F3E002C0EDE7F3E075
:200D8000FA93EA93E091C905F091CA050E94B7150E948B150E94B2151A971CF4ECE7F3E03A
:200DA00002C0EDE7F3E0FA93EA93E091CB05F091CC050E94B71508950E946F1A0E9433140E
:200DC0000E943B140E94BC140E944B14EE850E9434150E943B140E94C5140E944B14EC8573
:200DE0000E9434150E943D150E9447140E944B14EA850E9434150E943D150E943815E8856C
:200E0000EA930E945E120E944F155CF00E9455150E94191A8F010E9455150E941E1A9F01FA
:200E200002C00E945A150E9433140E943D150E946E140A930E945E120E944F151CF00E947B
:200E4000651506C0AF81AA2312F0EE8101C0E0E0EA930E945E120E946A155CF00E94701540
:200E60000E94191A8F010E9470150E941E1A9F0102C00E945A150E9433140E943D150E941A
:200E8000E9140A930E945E120E946A151CF00E94651506C0AD81AA2312F0EC8101C0E0E0AC
:200EA000EA930E945E120E94761A60960895959A0895E0E00799E1E0E03011F00C94B70782
:200EC000E0919905F0919A05309749F402DC0E94C0151D9A0E94C6150E94CC1547C0E130BB
:200EE000A0E0FA0731F41D980E94C6150E94D3153DC0E230A0E0FA0741F41E9A069903C0B1
:200F00000E94DA1501C0BDDB31C0E330A0E0FA07D1F4069B17C0DDDBA0919705B0919805C2
:200F2000129721F4E3E0F0E00E94E415E0919705F0919805309721F4E2E0F0E00E94E41591
:200F40000E94E91513C0E430A0E0FA0779F40E94F015129729F40E94C6150E94D31506C0E2
:200F6000E1E0F0E00E94E4150E94F51513C0E13089F473DB1D981E980E94FB15E091B705A0
:200F8000F091B805309711F40E9401160E940A160E943016E0919705F0919805089528975D
:200FA0000E946D1A20E030E040E050E00E9472140E9436160E943C1601E010E00E94F51521
:200FC000E8E0F0E0CE16DF061CF00E94F51502C00E9442160E9449160E945E160E94641609
:200FE0000E945E160E9469160E945E160E946E160E945E16E3E0F0E00E94A6190E945E165E
:20100000E4E0F0E00E94A619E02911F40C9490090E944916E02911F40C94D508F801E130FE
:20102000A0E0FA0769F5DA010E9469160E2E0E9473160E220E947916E0E2FEE460E070E0D9
:201040000E94CC19E0211E2ED601E8E0F0E00E94B8190E2E0E947916E8EBFBE060E070E02F
:201060000E94CC19E021E12951F0E8E0F0E0CE16DF060CF4C59A02E010E00E943C1695C0C2
:20108000E230A0E0FA07D9F50E947E160E2ED601E8E0F0E00E94B819E0211E2EA0E0CD9968
:2010A000A1E00E9409140E947316E021E12911F0C59820C00E9479160E9415140E94851643
:2010C0000E948A1659F061DAF0DAC598E1EAF6E861E070E0EE83FF83688779870E947916D6
:2010E0000E9415140E9485160E948F1639F0F1DA0E943C16C298C69803E010E056C0E33005
:20110000A0E0FA0711F00C94C408A091A705B091A805119711F5A0913405B0913505E6E4B9
:20112000F0E00E94B8190E2E0E94DB14E1E0F0E00E94BE190E9494160E94B2190E220E940A
:2011400099160E946416E02109F0A89AC798909AE0E0E093A705E093A805A0E0CC99A1E09A
:201160000E940914A091A705B091A8050E946416E02149F0909A0E949E160E94A5160E9410
:20118000AB1604E010E011C0E430A0E0FA0769F4029906C0E1E0F0E0E093AB05F093AC05AE
:2011A000CC9903C0909805E010E0E0E00799E1E0E03011F00C946809E0919905F0919A0598
:2011C000309719F50E94B416A0E00399A1E00E948F1649F00E94C0157CDA1D9A0E9436163F
:2011E0000E94CC1511C0A0E00399A1E00E940914D9010E946416E02131F0A4E7B5E00E9465
:20120000F91321E030E063C062C0E130A0E0FA0799F40E94B416A0E0C199A1E00E948F163F
:2012200049F00E94BC162CF01D980E94D3150E94361601C04CC04BC0E230A0E0FA07B1F4A8
:20124000079911C00E94BC166CF01E9A069909C041E050E00E943C160E94DA150E94361669
:2012600001C00FDA02C0C19832C031C0E330A0E0FA07B1F4069B13C02CDA1E98AA85BB85EE
:201280008C859D85A137E7E1BE07E0E08E07E0E09E071CF00E94E91502C00E94F51517C00B
:2012A000E430A0E0FA0799F40E9442160E94C8160E2E0E94CE160E946416E02109F0929A8E
:2012C0000E94D3160E94DA16E02109F0929A13C0E13089F4FED9C1D91D981E9892980E94C2
:2012E000F5150E943616E091B705F091B805309711F40E940116EA85FB856C857D850E9482
:20130000DC16EA87FB876C877D87EE81FF81688579850E94DC16EE83FF83688779875ACE79
:201320000E94741A2E9608950E946F1A0E945A15969A0E94E116EC81FD810E171F07E4F409
:20134000019B03C0939A21E030E0A0E00199A1E00E94E716D9010E946916E02119F0939886
:2013600022E030E0E2E0F0E0E217F30721F40F5F1F4F23E030E0DFCF0E94E11696980E94BB
:20138000761A2696089566DBC89902C052D9FCCFA0D98DDD9ED904D99CD9CC9B02C0909A0B
:2013A000FCCF0E949E169098AB98A998AA9A1A98C798A2D88ED904D9E0918605E030E9F464
:2013C0000E94EC16A0919305B0919405119791F40E9430160E94F216A99AE8EBFBE00E9474
:2013E000FA16AA9A1A980E94FE160E94F216A9982AD9FFCF0E940117DFCFE0E0E09386054F
:20140000CEDDAD9A0E943016AD98C9DD0E943016C6DD0E943016C3DD0E94FB150E94F0159B
:201420000E94D5140E94F0150E946E160E2A0E94F015E3E0F0E00E94A619E02921F039DD51
:201440000E94E415EBCFE0E0E0939705E09398050E9430160E94EC160E94CE16119711F499
:201460000E940617E1E0F0E00895E1E0F0E00E940E17E0917E05F0917F0508951A930A9347
:201480001F9A019903C001E010E002C000E010E0002E012AA9F4A091A505B091A60515976A
:2014A00019F4E5D80E941317A5EAB5E00E94F9130E941917E1E0F0E0E0937C05F0937D0568
:2014C000E1E0F0E0E017F107A1F40E941317A0917C05B0917D05119731F4FBD8E0E0E093E3
:2014E0007C05E0937D05E1E0F0E00E941F171F989298E0918205F09183050991199108954A
:201500000E942614E0911405F0911505309729F40E9424170E94FE01DAC0E130A0E0FA073C
:20152000D9F4AF9A0E942B170E942F1799F0E0E0E0934605E0934705E0934805E093490582
:201540000E943317E2E0F0E00E943D170E9442174BD801C03FD8BBC0E230A0E0FA0769F4B6
:201560000E9449170E9452173CF0AF980E943317E3E0F0E00E943D17AAC0E330A0E0FA0778
:2015800059F40E945A173CF0AE9A0E943317E4E0F0E00E943D179BC0E430A0E0FA0761F4BC
:2015A0000E945A1744F0AE98C49A0E943317E5E0F0E00E943D178BC0E530A0E0FA0769F48B
:2015C0000E9449170E9452173CF0C4980E943317E6E0F0E00E943D177AC0E630A0E0FA072D
:2015E00099F50E942B17A0E0CB99A1E00E948A1621F00E9424170E946317A0E0CA99A1E064
:201600000E9409140E942F1721F00E9424170E9463170E942B170E942F1731F0E3E0F0E099
:201620000E943D170E946317A0E0CA99A1E00E940914A0E0CB99A1E00E948A1621F0E7E0F6
:20164000F0E00E943D1743C0E730A0E0FA0759F40E945A173CF0AD9A0E943317E8E0F0E0D2
:201660000E943D1734C0E830A0E0FA0761F40E945A1744F0AD98C49A0E943317E9E0F0E023
:201680000E943D1724C0E930A0E0FA0759F40E9449170E9470172CF0C498EAE0F0E00E94AA
:2016A0003D1715C0EA30A0E0FA0789F40E943317E0E0E0931405E093150501E010E0E1E092
:2016C000F0E0EC15FD0519F4E2E0F0E06F01E0C20E942614E0911605F0911705309771F455
:2016E000E0E0E0934A05E0934B05E0934C05E0934D050E9478170E947D1756C0E130A0E00E
:20170000FA07B1F40E9482170E9452170CF0AC9A0E948217AD33E0E0BE07E0E08E07E0E0E6
:201720009E072CF01C9A0E9478170E948B173CC0E230A0E0FA0759F40E9482170E9490175D
:201740002CF01C980E9478170E9498172DC0E330A0E0FA0759F40E9482170E9470172CF0E9
:20176000AC980E9478170E949D171EC0E430A0E0FA0751F40E9482170E94701724F0E6E1A7
:20178000F5E00E94A21710C0E530A0E0FA0761F40E9478170E94A717E3E0F0E0EC15FD0537
:2017A00019F4E4E0F0E06F0173C20E942614E0911805F0911905309791F4E0E0E0934E0508
:2017C000E0934F05E0935005E09351050E94AE17C398AA98E8E1F5E00E947D1708C1E130FF
:2017E000A0E0FA0791F40E94B817A230E0E0BE07E0E08E07E0E09E073CF01A9A0E94AE171A
:20180000E8E1F5E00E948B17F2C0E230A0E0FA07B1F40E949916119721F40E94C1170E94D2
:20182000C8170E94B8170E94CF1744F0A99AC79A0E94AE17E8E1F5E00E949817D8C0E330F7
:20184000A0E0FA07A1F40E94B8170E94701774F0A998A9E8B5E0ED91FD913197FE93EE9327
:201860000E94AE17E8E1F5E00E949D17C0C0E430A0E0FA0739F40E94AE17E8E1F5E00E9424
:20188000A217B5C0E530A0E0FA0781F40E94B8170E94D71754F0C39A1A980E94DF17E8E15A
:2018A000F5E0A6E0B0E0A083B183A1C0E630A0E0FA0781F40E94B8170E94521754F0919A8E
:2018C000AB9A0E94AE17E8E1F5E0A7E0B0E0A083B1838DC0E730A0E0FA07D1F5A0E0059987
:2018E000A1E00E94E7160E94E5170E946416E02111F00E94C1170E94E5170E9469160E2E97
:20190000E0912E05F0912F050E94B8170E9497190E94C419E02131F0C39891980E94AE171F
:201920000E94EA17E0913005F09131050E94B8170E9497190E94681A54F4C3989198A9EA61
:20194000B5E00E94F9130E94DF170E94EA174FC0E830A0E0FA07C9F40E94F1170E946916D9
:20196000E02131F0AB98AA9A0E94AE170E94C8170E94F1170E946416E02131F0AB98AA9A67
:201980000E94AE170E94C81732C0E930A0E0FA07A1F40E94B817A630E0E0BE07E0E08E071D
:2019A000E0E09E074CF0C7980E94AE17E8E1F5E0AAE0B0E0A083B1831AC0EA30A0E0FA073C
:2019C000B1F4E0918F05F0919005E0939105F09392050E94AE17E8E1F5E00E94A717E5E0FA
:2019E000F0E0EC15FD0519F4E6E0F0E06F0150C10E942614E0911A05F0911B05309781F4A7
:201A0000E0E0E0935205E0935305E0935405E09355050E94FA170E947D170E94721438C1CE
:201A2000E130A0E0FA0729F40E94FA170E948B172FC1E230A0E0FA0769F40E9406180E94BE
:201A400070173CF0A898C19AC09A0E94FA170E9498171EC1E330A0E0FA0711F00C946F0D4A
:201A6000A0919105B09192050E9469160E2E0E9499160E9464160E22A091A105B091A2050E
:201A80000E9464160E22A091AB05B091AC050E946916E021E9F40E94C5020E945F03E1E0FA
:201AA000F0E0E093A105F093A205CF9917C0A091AB05B091AC050E94D514D601E7E0F0E008
:201AC0000E94B219E02121F0ADEAB5E00E94F913EAE1F5E00E949D170E940F18D9C0E43041
:201AE000A0E0FA0769F40E946903E0E0E093A105E093A205C59A0E94FA170E94A217C8C012
:201B0000E530A0E0FA0711F00C94C90D0E940618E9E1F0E060E070E00E94CC190E2EA0E08B
:201B2000CD99A1E0E1E00E94A1190E22A0E0C599A1E00E948A1639F0C69A0E94FA17A6E00E
:201B4000B0E0A083B1830E940618E2E3F0E060E070E00E94CC190E2E0E947E16E02139F096
:201B60000E940F180E94C5020E944B03C598A0E0C599A1E0E0E00E94A1190E9485160E948C
:201B80008F1631F00E946903EAE1F5E00E949D177FC0E630A0E0FA0791F40E940618AA3185
:201BA000E0E0BE07E0E08E07E0E09E073CF0C29A0E94FA17A7E0B0E0A083B18369C0E730FD
:201BC000A0E0FA07A1F40E9406180E94901774F0009B05C0ABEBB5E00E94F9133197C09829
:201BE0000E94FA17A8E0B0E0A083B18351C0E830A0E0FA0769F40E9406180E9490173CF087
:201C0000C5980E94FA17A9E0B0E0A083B18340C0E930A0E0FA0769F40E9406180E94CF1705
:201C20003CF0C2980E94FA17AAE0B0E0A083B1832FC0EA30A0E0FA0769F40E9406180E94B1
:201C4000CF173CF0C1980E94FA17ABE0B0E0A083B1831EC0EB30A0E0FA07D1F40E940618F5
:201C60000E94D717ACF00E94FA170E94A717A2E3B5E0ED91FD913197FE93EE93E7E0F0E08E
:201C8000EC15FD0529F4E8E0F0E06F010E941918F8010991199108950E9433180E94D514F7
:201CA0000E943818E02129F02BDCE0930005F09301050E943E180E9443180E9449180E9476
:201CC0005118E02129F004DDE0930205F09303050E9456180E9443180E9449180E945B1876
:201CE0000E945118E02129F060DDE0930405F0930505E0910605F09107050E9443180E94D1
:201D000049180E945B18D601E5E0F0E00E94AC190E9494160E94AC190E220E945118E0218B
:201D200029F066DEE0930605F09307050895AA24BB240E946C180E9419180E94D6050E94D7
:201D4000FE01089524971A930A930E94731800E010E00E9479180E2ED6010E946E16E02178
:201D600099F00E9401170E947B180E948D180E9492180E949818E02139F00E949E180E94E2
:201D8000AE18E3E0F0E06F010E9479180E2E0E943E180E94B618D601E4E0F0E00E94A619D7
:201DA000E021B9F00E9401170E947B180E948D180E9492180E949818E02159F00E949E1803
:201DC0000E94BC180E94FE01E5E0F0E06F010E94C3180E9479180E2E0E943E180E94B61893
:201DE0000E945618A1E0B0E00E94A6190E9494160E94A619E021B9F00E9401170E947B181B
:201E00000E948D180E9492180E949818E02159F00E949E180E94BC180E94C9180E94AE18DA
:201E2000E7E0F0E06F010E9479180E2E0E943E180E94B6180E9456180E94B618E0910605C8
:201E4000F09107050E94B6180E947316E02111F40C941D100E94011708DB0E940E17E1E062
:201E6000F0E0E0938005F09381050E947602E0938B05F0938C05D5010E9469160E2EA091FC
:201E80008605E1E00E94A1190E220E948D180E9492180E949818E02111F40C941D100E9410
:201EA00019170E9473180E94D0180E94D518E021C9F00E94DD1819F4E1DA0E941F170E9419
:201EC000F21814F00E9473180E94D018D8010E946416E02131F0A6E7B5E00E94F91301E075
:201EE00010E0E1CF0E94D0180E94C8160E220E94DA16E02161F00E94DD1819F4BFDA0E9445
:201F00001F170E94F21814F00E947318EBCF47D8E0E0F0E0FA93EA930E947903A091B9052E
:201F2000B091BA050E9469160E2EA091BD05B091BE050E946416E021C9F0E0E0E093B90586
:201F4000E093BA05E1E0F0E0E093BD05F093BE050E94B502E4E0F0E00E94F7140E94FC14F7
:201F6000EEEFFFEFE0932805F0932905F60131966F01E8EEF3E0EC15FD051CF4E4E6F0E0C1
:201F80006F010E94DB14E3E0F0E00E94BE190E2E0E945118E02141F00E94C3180E94FE1886
:201FA0000E94C9180E9404190E94DB14139744F00E9442170E94BC180E94C9180E940419BD
:201FC0000E94DB14129734F00E9442170E94C9180E9404190E94DB140E94641A24F40E94FB
:201FE00042170E940419A3DE0E940B19A0919F05B091A0050E94A6190E2EA091A305B09110
:20200000A4050E946416E021C1F00E9404030E94DE130E94E4130E94EA13E0E0E093C505D8
:20202000E093C605949892980E94B5020E949C02E0E0E0938605CC24DD24198108812696E5
:202040000895D601E8E0F0E00E94A6190E2ED5010E946416E02119F0E1E0F0E05F010E9448
:20206000D316D5010E946416E02111F40C94F010042C0528A9F40E94E014A0915E05B0917A
:202080005F0580916005909161050E941119E02121F0AEE6B5E00E94F913E1E0F0E02F0169
:2020A000062C0728A9F40E94E014A0916205B091630580916405909165050E941119E02179
:2020C00021F0A0E7B5E00E94F913E1E0F0E03F010E941519D4010E9464160E22D601EBE0C1
:2020E000F0E00E94B8190E220E94CE160E946416E021A1F00E941919E02111F00E94231985
:202100000E94261944F00E942B190E942E190E940B190E943119E1E0F0E04F010E94151978
:20212000D4010E9464160E22D601E9E0F0E00E94A6190E220E94DA16E02119F0E1E0F0E050
:202140004F010E941519D4010E9464160E2A0E94C8160E220E94DA16E021A1F00E9419198E
:20216000E02111F00E9423190E94261944F00E942B190E942E190E940B190E943119E1E028
:20218000F0E04F010E941519D4010E9464160E2A0E94D518E021A1F00E941919E02111F02F
:2021A0000E9423190E94261944F00E942B190E942E190E940B190E943119E1E0F0E04F01CA
:2021C000D2010E9469160E2ED3010E9469160E22D4010E946916E02119F0E1E0F0E05F01B9
:2021E00008950C2C0D28A1F5E0918605E03029F40E9401170E940A062BC00E94EC160E9479
:2022000006170E943D190E9443190E94FE180E94C9180E9404190E943D190E94690394987F
:20222000E0E0E093BD05E093BE05E0912805F0912905FA93EA93E091B105F091B205FA9330
:20224000EA930E9489050E943E06E1E0F0E06F010895E0E0EBBBEABBE8BBEFEFE7BBE0E05F
:20226000E5BBEFEFE4BBE0E0E2BBEFEFE1BBE0E0E3B9EFEFE2B9E0E0E0936200E09361002C
:20228000E0936500EFE1E0936400E0E0E0BFE7E0E3BFE0E0E2BFE1BFEFBDEEBDEDBDECBD4C
:2022A000E7BDE6BDEBBDEABDE9BDE8BDE0937900E0937800E5BDE4BDE3BDE0938B00E09312
:2022C0008A00E0938900E0938800E0938100E0938000E0938700E0938600E0938500E09338
:2022E0008400E0938300E0938200E0936A00EABFE9BFE1E0E7BFE0E0E0937D00EBB9E8E1BD
:20230000EAB9E6E0E0939500E0E0E0939000E7E6E9B9E0E0E0939A00E0E8E8B9E0E0E0BD87
:20232000E6B9EDB9E09374007894E0E4FFE10E94FA160E94FE160E94FE160E94FE160E944B
:2023400033140E947814EA93B9D0E3E0F0E0FA93EA930E949409CC24DD24E0E0E0935605A7
:20236000E0935705E0935805E09359050E946C18AA24BB24E4E6F0E060E070E0E0935A051E
:20238000F0935B0560935C0570935D050E94C318EEE3F0E060E070E0E0936A05F0936B051E
:2023A00060936C0570936D050E94FB15ECEDF0E0E0933005F0933105E8E2F0E0E0932E0548
:2023C000F0932F05E6E4F0E0E0933405F0933505E0E0E0932A05E0932B050E943D190E94A4
:2023E0004319E0E0E0938405E0938505E0939B05E0939C05E0939D05E0939E05E093A1055D
:20240000E093A2050E941317E0E0E093A305E093A405E093A705E093A805E093A905E0930C
:20242000AA05E093AD05E093AE050E94A516E093AF05E093B005E0E0E093B105E093B205E3
:202440000E941C140E94C015E0E0E093BD05E093BE05E093D105E093D205E093D305E093B7
:20246000D405E0938605E0937805E0937905E0937A05E0937B05E0937C05E0937D05E09363
:202480007E05E0937F05E0938005E09381050E9419170C2C0D2821F40E94C3096F01F9CFD7
:2024A0000E944F029EDEF8DBCCDD4CDC0E94BF02F7CFFFCF5F9BFECFECB108955D9BFECF4C
:2024C000E881ECB921960895EA81EA93F7DFA881B9810E94F9132396089526970E946D1A8F
:2024E00010E0AC85BD85E0E0F0E0ED93FC93EA89FB893196EA8BFB8B3197E4912E2FE03077
:2025000011F40C949A13E12FE03039F4253211F411E002C00E9452190CC1E130A9F425322E
:2025200019F40E94521904C112E040E000E02D3211F401E0FEC02B3211F44BE2FAC020322C
:2025400011F440E2F6C002C0E23039F450E013E0203311F40068EDC004C0E33011F00C9495
:202560009913203310F02A3308F007C0AAE05A9F502DE22FE0535E0FDCC0E22FE33649F48C
:202580000E945B19E889F989A481AA930E946119CFC0E33741F40E945B190E9469190E94FA
:2025A000C9131E2F0AC0E03761F40E945B190E9469190E94D3131E2F086002600F7730E04D
:2025C00035C0E43611F0E93611F4046002C0E53731F4ECE8F0E0EE83FF8315E00DC0E835EA
:2025E00011F4086004C0E83711F00C949813E6E9F0E0EE83FF8314E002FF14C00E945B19CE
:202600000E947319AB85AA233AF4EA85FB850E948B19EA87FB874DE2403011F01F5F01C05A
:202620000B7F04C00E945B190E94731900FD11C0151778F407FF08C002FF04C00B7F242F32
:20264000115001C020E301C020E20E9452195150EFCF312F01FF17C03030A1F003FF06C036
:20266000EE81FF812591EE83FF8305C0AE81BF812D91AE83BF830E945219503009F0515036
:202680003150EACF4BC020E3EE81FF810E945B1AE887F987EE81FF813296EE83FF83E885E6
:2026A000F985AA85BB85AE17BF0750F02F5FA885B985EA85FB85EA1BFB0BEA87FB87EFCFBE
:2026C0002A3328F003FF02C0295F01C0295D04FD1AC0213320F4A885B985119709F409C0D6
:2026E000531710F000FF01C013C020E207FF0BC020E3006102FF07C00B7F4A930E9461195B
:20270000503009F051500E945219503009F051503150A885B985129708F0B5CF00FF08C0A0
:20272000503031F05150E0E2EA930E946119F8CF10E0DDCEAC85BD850E944D1A0E94741AEE
:2027400064960895FF92F82E26971A930A93DE0114960E9487198D01E0E0EC83ED83EE83BB
:20276000EF83DE0118960E9487190E944D1AFA93EA931A930A93E4E6F2E1FA93EA93FE0115
:202780003896FA93EA93A9DE198108812896FF900895A991B991EE27FF276D91662311F086
:2027A0003196FBCF0895AA27BB27E991F9910590002011F01196FBCFFD010895E0E0E0933F
:2027C000BF05E093C0050895E0E0E093C105E093C2050895E0E0E093C305E093C4050895BC
:2027E0000E94511AEF5FFF4F6F4F7F4F0E94561A0895ED91FD913196FE93EE930895A09142
:20280000C105B091C2050895A091C305B091C4050895E1E00E94A1190E2E0895A0E0C999D5
:20282000A1E0E0E00E94A1190895E0EAF6E861E070E00E94CC190895E0E0E093B305E093A3
:20284000B405E093B505E093B60508951A930A9300E010E00895E0EDF7E0FA93EA930E94C0
:202860007B1994980895EAE5EA930E945E12E5EAEA930C945E12E5E0EA930E945E12E2E823
:20288000EA930E945E12E0E0EA930C945E12E0E3EA930C945E12E0E0EA930C945E12E4E0FB
:2028A000EA930E945E12E3E8EA930E945E12F3CFE1E0EA930E945E120E945A120E945A1201
:2028C0000E945A120E945A120E945A120E945A120E945A120E945A120C945A12E0E6EA9355
:2028E0000C945E12E0E0E0938D05E0938E050895E3E0EA930E945E12E0E8EA930E945E12B7
:20290000E2E0EA930E945E12E0E10895E3E2EA930E945E12E2E8EA930E945E12BCCFE0E907
:20292000EA930C945E12EEE9F0E0FA93EA9380E00E94A213229697CFEA930E945E12E2E82B
:20294000EA930E945E12A7CFFA93EA9380E00E94A21322960895E0E4EA930E945E12A8CF92
:20296000E4E0EA930E945E12E3E8EA930E945E12E0E1EA930C945E12E0E1EA930C945E120E
:202980002E2F3327022E032A0895E0E2EA930C945E12E0E5EA930E945E128ACFAE81BF811B
:2029A000E1E0F0E00E94A6190895E0E0F0E00E94A6190E2E0895A0913205B0913305089540
:2029C000E0915605F091570560915805709159050895E0E7EA930C945E12E1E0EA930C94D2
:2029E0005E120E945A120E945A120C945A12E0933205F09333050895E0913205F0913305DC
:202A0000E0939F05F093A0050895E4E0EA930E945E12E3E8EA930E945E12B7CFA091CF05A2
:202A2000B091D005E1E0F0E00E94A6190E2EA091D305B091D4050895E093D105F093D205EF
:202A40000895A091CF05B091D005E2E0F0E00E94A6190E2EA091D305B091D4050895E0E40B
:202A6000EA930E945E1217CFEA930E945E12FBCEE0E5EA930E945E120ECFE5E0EA930E9474
:202A80005E12E2E8EA930E945E1276CFE5E0EA930E945E12E2E8EA930E945E1276CFAE8107
:202AA000BF81A030E1E0BE070895AE81BF81EFEFF0E0089500E010E020E030E00895EA932F
:202AC0000E945E120A930C945E12AFEF0A02F001E20F0895AC81BD81A030E1E0BE070895B0
:202AE000AC81BD81EFEFF0E00895EBE0EA930E945E12E2E8EA930E945E1247CFE091C10520
:202B0000F091C2050E9497190E945F1A84E00E94A21326960895E0E8F3E016CFE091C30533
:202B2000F091C4050E9497190E945F1A84E00E94A21326960895E091C505F091C6050E94A1
:202B400097190E945F1A84E00E94A21326960895A091C705B091C8050895A091C905B091AE
:202B6000CA050895A091CB05B091CC0508950E9497190E945F1A84E00E94A21326960895B8
:202B8000E0E0E093B705E093B8050895E0E9F1E0FA93EA930C947B19E1E0F0E0E0939905FF
:202BA000F0939A050895E2E0F0E0E0939905F0939A0508950E946903E3E0F0E0E093990542
:202BC000F0939A051E980895E0939705F09398050895E4E0F0E0E0939905F0939A05089550
:202BE000A0919705B09198050895E0E0E0939905E0939A050895E0E0E0939705E09398052E
:202C0000F4CFE1E0F0E0E093B705F093B805AFEAB5E0EFCDE091AD05F091AE05FA93EA93A6
:202C2000E091A905F091AA05FA93EA93E091AF05F091B005FA93EA93E091BB05F091BC0563
:202C4000FA93EA93E0917405F0917505FA93EA93E0917605F0917705FA93EA930C94DC0606
:202C6000E8EEF3E0FA93EA930C947B19E0E0EA87EB87EC87ED870895E0E0EE83EF83E88734
:202C8000E9870895E5E0F0E0E0939905F0939A050895D801E1E0F0E00E94A6190E2EE2E0F9
:202CA000F0E00E94A6190E2AE3E0F0E00E94A6190E2AE4E0F0E00E94A61908950E2AA09184
:202CC0009905B0919A050895E0E0F0E00E94A6190895E1E0F0E00E94A6190895E2E0F0E02A
:202CE0000E94A6190895D601E8E0F0E00E94B2190895AE81BF81888599850895A0E0CD9940
:202D0000A1E0E0E00E94A11908950E2EA0E0CF99A1E00895E1E00E94A119E0210895E0E0BC
:202D20000E94A119E02108950E22D601E6E0F0E00895A0919505B09196050895E1E0F0E08A
:202D4000E093A705F093A8050895E0E0E093AB05E093AC050895E0933A05E0933B05E0930B
:202D60003C05E0933D050895A0E00799A1E0E0E00E94A1190E2E0895AA85BB858C859D8588
:202D8000A93EE3E0BE07E0E08E07E0E09E070895D601EAE0F0E00E94B2190895A091CD05EF
:202DA000B091CE050895D601E9E0F0E00E94B2190E2E0895F3DF8DCFEF5FFF4F6F4F7F4F56
:202DC0000895E4EFF1E0FA93EA930C947B19E0E00E94A1190E2E0895E1E0F0E0FA93EA93E4
:202DE0000C947903AA981A9AE8EBFBE0FA93EA930C947B19FA93EA930C947B19E0EDF7E0F3
:202E0000F9CF0E94A602E09386050895E091D105F091D205FA93EA930C949409E0937E0529
:202E2000F0937F050895E0E0E093A505E093A6050895E0E0E0938205E09383050895E09391
:202E40008205F09383050895E1E0F0E0E0931405F09315050895A0E0CA99A1E0B8CFA0E081
:202E6000CB99A1E05CCFE0E0E0933605E0933705E0933805E09339050895E0931405F09318
:202E800015050895E1E0F0E0E0932C05F0932D050895A0913605B09137058091380590919C
:202EA00039050895A932E0E0BE07E0E08E07E0E09E070895EEDFA531E0E0BE07E0E08E0703
:202EC000E0E09E070895E5E1F0E060E070E0E0933605F0933705609338057093390508954F
:202EE000A333E0E0BE07E0E08E07E0E09E070895E0E031DFE6E1F5E00895A1E0B0E0A083E3
:202F0000B1830895A0913A05B0913B0580913C0590913D050895A2E0B0E0A083B183089597
:202F2000AF31E0E0BE07E0E08E07E0E09E070895A3E0B0E0A083B1830895A4E0B0E0A08397
:202F4000B1830895A5E0B0E0A083B1830895A0E0B0E0A083B18301E010E00895E0E0E0938F
:202F60003E05E0933F05E0934005E09341050895A0913E05B0913F05809140059091410593
:202F80000895E1E0F0E0E0938F05F0939005E6CFE8E1F5E0A9E0B0E0A083B1830895AB30A9
:202FA000E0E0BE07E0E08E07E0E09E070895A531E0E0BE07E0E08E07E0E09E070895E0E0C3
:202FC000E0938F05E0939005C9CFA0918F05B09190050895E8E1F5E0A8E0B0E0A083B18305
:202FE0000895C6DFEAE0F0E060E070E00E94CC190E2EEBCFE0E0E0934205E0934305E09340
:203000004405E0934505EAE1F5E00895A0914205B091430580914405909145050895E0E04A
:20302000E0934205E0934305E0934405E09345050895E0E0E0935E05E0935F05E0936005C0
:20304000E0936105E0936205E0936305E0936405E0936505E0936605E0936705E09368058C
:20306000E09369050895A0910005B09101050895D601E0E0F0E00E94AC190895E0910205D5
:20308000F09103050895A0E0B0E00E94A6190E2EEFCF0E22D601E1E0F0E00E94AC190E2270
:2030A0000895A0912C05B0912D0513CEE0910405F09105050895D601E2E0F0E00E94AC194B
:2030C0000E22E3E0F0E00E94AC190E22E4E0F0E00E94AC190E2208954424552466247724C8
:2030E000882499240895E0E0EA83EB83EC83ED830895B9DFEECD0E94350A90DEE1E0F0E080
:20310000E0938005F09381050E947602E0938B05F0938C05A09186057CCBA0917E05B09185
:203120007F05D7CD0E22A0918005B0918105D1CD0E22A0918B05B0918C05CBCD0E94CF0749
:203140000E94D605E0E0F0E0FA93EA930E947903E0E0E0930005E093010508950E94FE014B
:20316000E0E0E0932C05E0932D050895A1E0B0E00E94A6190E220895E2E0F5E0A0E0B0E0C3
:20318000A083B1830895E0E0E0932C05E0932D050895E4E0F5E0A0E0B0E0A083B1830895F8
:2031A000A0918205B091830500CCD601EBE0F0E00E94B2190E22F2DD87CDEA81FB816C81BC
:2031C0007D81FADDEA83FB836C837D83AA81BB818C819D81A130E0E0BE07E0E08E07E0E043
:2031E0009E070895AA81BB818C819D81A536E0E0BE07E0E08E07E0E09E070895E0E0E09311
:203200000005E0930105B8CFE6E0F5E0A0E0B0E0A083B1830895E0912805F09129053197F5
:2032200008950E94CC190E2EB3CDA0E00499A1E0CECDC6DBA0916605B0916705809168050D
:2032400090916905EECFA2E7B5E0D3CAEAE0F0E0CE16DF060895A8E2B5E0CBCAA1EBB5E092
:20326000C8CAFA93EA93E091B105F091B2053197FA93EA930E948905CDCCE0E0E093280558
:20328000E09329050895EFEFFFEFE0936E05F0936F05E0937005F0937105E0937205F093F9
:2032A000730508952A93ED85FE85FA93EA93E989FA8909950895E889F9893497E88BF98B58
:2032C0000895ED85FE85FA93EA93E989FA8909950895A889B98914960E944D1AEE83FF8309
:2032E000FA93EA930895A889B98914960E944D1AEA87FB870895E991F991309639F080EA14
:203300009FE00197F1F7A8953197C9F708950024AF0DB01D0895F195E195F0400895F095B4
:2033200060957095E195FF4F6F4F7F4F08956F2F660F660B762F08958B2F880F880B982F35
:203340000895EA17E1E009F0EE270895EA17FB07E1E009F0EE270895EA17FB07E1E009F433
:20336000EE270895AE17BF07E1E00CF4EE270895AE17BF07E1E00CF0EE270895EA17FB07A0
:20338000E1E00CF0EE270895AE17BF0786079707E1E00CF4EE270895EA17FB0768077907A3
:2033A000E1E00CF0EE270895FA9FF02DEB9FF00DEA9FE02DF10D08957A9F702D6B9F700DF3
:2033C000F89F700DE99F700D6A9F602D710DFB9F600D711DE89F600D711D8827FA9FF02D44
:2033E000610D781FEB9FF00D611D781FEA9FE02DF10D681F781F08952FD0D6DF0EF48BDFBD
:20340000089538D0D9DF0EF48ADF08950024112490E1AA0FBB1F001C111C0E1A1F0A18F444
:203420000E0E1F1E01C0A1609A9599F7FD01D001089512D0EBDF0EF46EDF0895E894B7FF7C
:2034400004C0A095B09511966894F7FD64DFDEDFFD010EF460DF0895E894F7FF02C05BDF4D
:203460006894B7FF06C0A095B095119600F8039400FA0895E89477FF02C051DF689497FF17
:203480000BC00024A095B095809590951196801D901D00F8039400FA0895ED91FC911197BF
:2034A0000895ED91FD916D917D9108957E936E93FE93EE9308950590F491E02D08957A9328
:2034C0006A93FA93EA93089500240A160B060895EA17FB076807790708955A934A933A9330
:2034E0002A931A930A9308955D814C813B812A81198108810895FFFFFFFFFFFFFFFFFFFF60
:20350000FFFFFFFFFFFFFFFFFFFFFFFFFFFFFFFFFFFFFFFFFFFFFFFFFFFFFFFFFFFFFFFFCB
:20352000FFFFFFFFFFFFFFFFFFFFFFFFFFFFFFFFFFFFFFFFFFFFFFFFFFFFFFFFFFFFFFFFAB
:20354000FFFFFFFFFFFFFFFFFFFFFFFFFFFFFFFFFFFFFFFFFFFFFFFFFFFFFFFFFFFFFFFF8B
:20356000FFFFFFFFFFFFFFFFFFFFFFFFFFFFFFFFFFFFFFFFFFFFFFFFFFFFFFFFFFFFFFFF6B
:020000040001F9
:200000000C94CB010C9400000C9400000C9400000C9400000C9400000C9400000C94000014
:200020000C9400000C9400000C9400000C9400000C9400000C9400000C9400000C940000C0
:200040000C940A020C9400000C9400000C9400000C9400000C9400000C9400000C94000094
:200060000C9400000C9400000C9400000C9400000C9400000C9400000C9400000C94000080
:200080000C9400000C9400000C9400001027E80364000A000100001000011000010020208D
:2000A000202020202020202020202020202020202020202020202020202020202020202040
:2000C00020202020202000496E69636A616C697A756A65206D61737A796E65005779637AAB
:2000E00079737A637A6F6E6F206D61737A796E65004D61737A796E61207A61696E69636A5F
:20010000616C697A6F77616E6100437A656B616D206E612070726574206777696E746F77C5
:20012000616E79005072616361005A616B726563696C656D2077737A7973746B6965207AD2
:200140006164616E652070756368617279004272616B2077796D6167616E65676F206369CF
:20016000736E69656E696120362062617200446F7A6F776E696B206B6C656A7520707265F6
:20018000746F77206E696520676F746F777900446F7A6F776E696B206B6C656A75206E6161
:2001A0006B726574656B206E696520676F746F77790057796C61637A206D61737A796E65F3
:2001C000206920706F637A656B616A2031206D696E757465004F64736C6F6E2069207A7218
:2001E00065736574756A206B757274796E65004D6F6E7465722033206E6965206E6163695E
:20020000736E616C20706564616C6100437A656B616D206E612072756368206C616E63755A
:2002200063686100506F707261772070726574207A2067727A79626B69656D2069206E6138
:200240006369736E696A2067757A696B005573756E2070726574207A6520737A637A656B95
:200260002069206E616369736E696A2067757A696B0057796D69656E206C7562206E616B06
:200280007265632F646F6B7265632067727A7962656B2069206E616369736E696A2067756B
:2002A0007A696B004D6F6E7465722033202D207A64656D6F6E74756A207075636861722018
:2002C0006920706F7477696572647A004D6F6E7465722033202D2077797A776F6C207265C5
:2002E000637A6E696520637A756A6E696B207075636861726100534C415645206E696520CC
:20030000706F7477696572647A696C20706F64616E6961206E616B7265746B6900534C41CB
:200320005645206E696520706F7477696572647A696C207A657A776F6C656E6961206E6192
:2003400020737A637A656B690020202020202020202020202020202020202020202020209A
:20036000202020202020202020202020202020202020202020202020202020003025640064
:200380003A0001002D4E414E00494E4600000100D50582030000F894EE27ECBBF1E0F5BF0E
:2003A000E5BFE0936C00F8E1F1BDE1BD8DE0A2E0BB27ED938A95E9F780E090E1A0E0B1E063
:2003C000ED930197E9F7EEE8F3E085919591009761F0A591B59105901590BF01F00105905C
:2003E0000D920197E1F7FB01F0CF8BBFEFEFEDBFE0E1EEBFC0E0D5E00C9429110E94DE132F
:200400000E94E4130E94EA13E0E0E093C505E093C60508956A937A93AA93BA93EA93FA932E
:20042000EFB7EA93A6E3B5E00E94F013AAE3B5E00E94F013AEE3B5E00E94F013A2E4B5E029
:200440000E94F013AFEBB5E00E94F913A091BF05B091C005DC97D1F40E94DE13A1ECB5E032
:200460000E94F9130E94FF13DC9781F40E94E413A3ECB5E00E94F9130E940414DC9731F475
:200480000E94EA13A5ECB5E00E94F913E991EFBFF991E991B991A991799169911895C99926
:2004A000949AA0E09499A1E00E9409140E940E14E02121F0A3EBB5E00E94F0130E940E14BF
:2004C0000E2EA091B305B091B4058091B5059091B6050E941514E02141F00E941C1494985B
:2004E000E0E0E0938705E093880508951A930A9301E010E0F8011DC00E942614C99B02C0AD
:20050000949AFCCF0E942B140431E0E01E075CF4C99B06C0C99B02C0949AFCCF0E942B146D
:200520000F5F1F4FF1CFE4E1F0E0E0938905F0938A050991199108950E9433140E943B14BC
:200540000E9447140E944B14E0E0DFC2E0E0E09386050E9433140E944F140E9447140E94F1
:200560005814E0938605F0E008950E9433140E943B140E946E140E944B14E1E0C6C2CE99F5
:2005800002C0979801C0979A0895ADE8B5E00E94F9130E9472140E9433140E947814B5C24D
:2005A0000E9433140E9486140E948F140E949314E7E10E949C140E948F14E7ECF0E092C034
:2005C0000E943314EBE10E949C140E948F14E1EFF0E088C00E943314ECE10E949C140E943D
:2005E0008F14EAE0F1E07EC00E9433140E9486140E948F140E949314E8E00E949C140E9410
:200600008F14E4E2F1E06EC00E943314EBE10E949C140E948F14EEEAF0E00E94A4140E9482
:200620003314E6E20E949C140E948F14EAE2F1E059C00E943314E2E20E949C140E948F141A
:20064000EEE4F1E04FC00E943314E5E20E949C140E948F14E2EBF1E045C00E943314ECE148
:200660000E949C140E948F14E5EDF1E03BC00E943314EFE10E949C140E948F14EFEEF1E047
:2006800031C00E943314EAE10E949C140E948F14ECE0F2E027C00E943314EBE20E949C1491
:2006A0000E948F14E4E2F2E01DC00E943314E7E20E949C140E948F14EDE4F2E013C00E941F
:2006C0003314E4E30E949C140E948F14E2E7F2E009C00E943314E5E30E949C140E948F14C9
:2006E000E9E4F3E0FA93EA9380E00E94A213229608950E946D1A40E050E0E0E0E09386050D
:2007000010E0AE81BF811197C9F50E9433140E944F140E94AB14F0E0E0933405F09335058C
:200720000E9433140E94B0140E94BC140E9458140E94C01439F4E1E0F0E0E0939505F09326
:20074000960505C0E0E0E0939505E09396050E9433140E94B0140E94C5140E9458140E94E4
:20076000C01439F4E1E0F0E0E0939305F093940505C0E0E0E0939305E09394050E9433143B
:200780000E944F140E94C914F0E0E0932E05F0932F050E94CE141E2EAE81BF810E94D514DE
:2007A0000E94DB14E4E0F0E00E94BE19E021E12969F10E9433140E944F140E946E140E9482
:2007C00058140E94C01439F4E1E0F0E0E093B905F093BA0505C0E0E0E093B905E093BA051E
:2007E000E0916A05F0916B0560916C0570916D05A7E0B0E080E090E00E94011AE0935605E1
:20080000F09357056093580570935905E0919B05F0919C05309771F4E1E0F0E0E0939B0545
:20082000F0939C05E0915605F0915705E0939D05F0939E050E94E014A0919D05B0919E0563
:200840000E949C190E94681A29F0E0E0E0939B05E0939C05D6010E94D5140E94CE14E02136
:2008600051F10E9433140E944F140E94E9140E94ED140E94F1140E94F1140E945A120E9408
:200880005A124E2F55270E945A12F0E00E94F7140024041605066CF4FA01AFEFB0E00E94F4
:2008A000FC190E94DB14EA0FFB1FE40FF51F0E94F7140E94FC14AE81BF811197B9F40E94B3
:2008C00033140E9405150E9447140E9458140E94C01439F4E1E0F0E0E093CD05F093CE053B
:2008E00005C0E0E0E093CD05E093CE050E9433140E9405150E94AB14F0E0E093CF05F09348
:20090000D0050E9433140E9405150E94C914F0E0E093D305F093D405E091CD05F091CE05D0
:20092000309719F4E3E0F0E08EC00E940E15E2E3F0E00E94A619E02121F0E1E1F0E00E9401
:200940001C150E940E15E7E3F0E00E94A619E02121F0E2E1F0E00E941C150E940E15ECE39A
:20096000F0E00E94A619E02121F0E3E1F0E00E941C150E940E15E1E4F0E00E94A619E02111
:2009800021F0E4E1F0E00E941C150E940E15E6E4F0E00E94A619E02121F0E5E1F0E00E94D4
:2009A0001C150E940E15EBE4F0E00E94A619E02121F0E6E1F0E00E941C150E942115E2E328
:2009C000F0E00E94A619E02121F0EBE0F0E00E941C150E942115E7E3F0E00E94A619E02192
:2009E00021F0ECE0F0E00E941C150E942115ECE3F0E00E94A619E02121F0EDE0F0E00E944E
:200A00001C150E942115E1E4F0E00E94A619E02121F0EEE0F0E00E941C150E942115E6E4B2
:200A2000F0E00E94A619E02121F0EFE0F0E00E941C150E942115EBE4F0E00E94A619E02128
:200A400031F0E0E1F0E0E093D105F093D2050E94741AAAC00E9433140E943B140E942F15E7
:200A6000E09134050E9434150E943B140E943815E0912E050E9434150E943B140E946E145D
:200A80000E944B140E94ED140E9433140E943B140E94E9140E944B14E5E00E9434150E94E6
:200AA0003D150E94BC140E944B140E94ED140E9433140E943D150E94C5140E944B140E94D3
:200AC000ED140E9433140E943D15E0E8EA930E945E120E944B140E94ED140E9433140E94B2
:200AE00046150E9447140E944B140E94ED140E9433140E9446150E942F15E2E00E94341581
:200B00000E9446150E943815E2E3EA930E945E1208950E946F1A0E944F155CF00E9455156F
:200B20000E94191A8F010E9455150E941E1A9F0102C00E945A150E9433140E943B14E0E855
:200B40000E945F150E944F151CF00E94651506C0AF81AA2312F0EE8101C0E0E0EA930E947D
:200B60005E120E946A155CF00E9470150E94191A8F010E9470150E941E1A9F0102C00E9407
:200B80005A150E9433140E943D15E0E40E945F150E946A151CF00E94651501C0EC81EA933B
:200BA0000E945E120E94761A289608950E9433140E9475150E94BC140E94FF131A971CF49A
:200BC000ECE7F3E002C0EDE7F3E0FA93EA930E947E150E948B150E9404141A971CF4ECE737
:200BE000F3E002C0EDE7F3E0FA93EA930E948E150E948B15A091C505B091C6051A971CF460
:200C0000ECE7F3E002C0EDE7F3E0FA93EA930E949B1508950E9433140E9475150E944B14B6
:200C20000E94FF131A971CF4ECE7F3E002C0EDE7F3E0FA93EA930E947E150E948B150E940D
:200C400004141A971CF4ECE7F3E002C0EDE7F3E0FA93EA930E948E150E948B15A091C50520
:200C6000B091C6051A971CF4ECE7F3E002C0EDE7F3E0FA93EA930E949B1508950E943314B6
:200C8000EBE0EA930E945E12E2E8EA930E945E120E94BC140E948F14E091C105F091C2056B
:200CA0000E94A815EA0FFB1FE093C705F093C8050E94A815DD976CF0E091C705F091C80579
:200CC000FC97E093C705F093C805A9ECB5E00E94F913E091C305F091C4050E94AD15EA0F3A
:200CE000FB1FE093C905F093CA050E94AD15DD976CF0E091C905F091CA05FC97E093C905B0
:200D0000F093CA05ABECB5E00E94F913E091C505F091C6050E94B215EA0FFB1FE093CB0561
:200D2000F093CC050E94B215DD9774F0E091CB05F091CC05FC97E093CB05F093CC05E0E0A1
:200D4000E093CB05E093CC050E94A8151A971CF4ECE7F3E002C0EDE7F3E0FA93EA93E09162
:200D6000C705F091C8050E94B7150E948B150E94AD151A971CF4ECE7F3E002C0EDE7F3E075
:200D8000FA93EA93E091C905F091CA050E94B7150E948B150E94B2151A971CF4ECE7F3E03A
:200DA00002C0EDE7F3E0FA93EA93E091CB05F091CC050E94B71508950E946F1A0E9433140E
:200DC0000E943B140E94BC140E944B14EE850E9434150E943B140E94C5140E944B14EC8573
:200DE0000E9434150E943D150E9447140E944B14EA850E9434150E943D150E943815E8856C
:200E0000EA930E945E120E944F155CF00E9455150E94191A8F010E9455150E941E1A9F01FA
:200E200002C00E945A150E9433140E943D150E946E140A930E945E120E944F151CF00E947B
:200E4000651506C0AF81AA2312F0EE8101C0E0E0EA930E945E120E946A155CF00E94701540
:200E60000E94191A8F010E9470150E941E1A9F0102C00E945A150E9433140E943D150E941A
:200E8000E9140A930E945E120E946A151CF00E94651506C0AD81AA2312F0EC8101C0E0E0AC
:200EA000EA930E945E120E94761A60960895959A0895E0E00799E1E0E03011F00C94B70782
:200EC000E0919905F0919A05309749F402DC0E94C0151D9A0E94C6150E94CC1547C0E130BB
:200EE000A0E0FA0731F41D980E94C6150E94D3153DC0E230A0E0FA0741F41E9A069903C0B1
:200F00000E94DA1501C0BDDB31C0E330A0E0FA07D1F4069B17C0DDDBA0919705B0919805C2
:200F2000129721F4E3E0F0E00E94E415E0919705F0919805309721F4E2E0F0E00E94E41591
:200F40000E94E91513C0E430A0E0FA0779F40E94F015129729F40E94C6150E94D31506C0E2
:200F6000E1E0F0E00E94E4150E94F51513C0E13089F473DB1D981E980E94FB15E091B705A0
:200F8000F091B805309711F40E9401160E940A160E943016E0919705F0919805089528975D
:200FA0000E946D1A20E030E040E050E00E9472140E9436160E943C1601E010E00E94F51521
:200FC000E8E0F0E0CE16DF061CF00E94F51502C00E9442160E9449160E945E160E94641609
:200FE0000E945E160E9469160E945E160E946E160E945E16E3E0F0E00E94A6190E945E165E
:20100000E4E0F0E00E94A619E02911F40C9490090E944916E02911F40C94D508F801E130FE
:20102000A0E0FA0769F5DA010E9469160E2E0E9473160E220E947916E0E2FEE460E070E0D9
:201040000E94CC19E0211E2ED601E8E0F0E00E94B8190E2E0E947916E8EBFBE060E070E02F
:201060000E94CC19E021E12951F0E8E0F0E0CE16DF060CF4C59A02E010E00E943C1695C0C2
:20108000E230A0E0FA07D9F50E947E160E2ED601E8E0F0E00E94B819E0211E2EA0E0CD9968
:2010A000A1E00E9409140E947316E021E12911F0C59820C00E9479160E9415140E94851643
:2010C0000E948A1659F061DAF0DAC598E1EAF6E861E070E0EE83FF83688779870E947916D6
:2010E0000E9415140E9485160E948F1639F0F1DA0E943C16C298C69803E010E056C0E33005
:20110000A0E0FA0711F00C94C408A091A705B091A805119711F5A0913405B0913505E6E4B9
:20112000F0E00E94B8190E2E0E94DB14E1E0F0E00E94BE190E9494160E94B2190E220E940A
:2011400099160E946416E02109F0A89AC798909AE0E0E093A705E093A805A0E0CC99A1E09A
:201160000E940914A091A705B091A8050E946416E02149F0909A0E949E160E94A5160E9410
:20118000AB1604E010E011C0E430A0E0FA0769F4029906C0E1E0F0E0E093AB05F093AC05AE
:2011A000CC9903C0909805E010E0E0E00799E1E0E03011F00C946809E0919905F0919A0598
:2011C000309719F50E94B416A0E00399A1E00E948F1649F00E94C0157CDA1D9A0E9436163F
:2011E0000E94CC1511C0A0E00399A1E00E940914D9010E946416E02131F0A4E7B5E00E9465
:20120000F91321E030E063C062C0E130A0E0FA0799F40E94B416A0E0C199A1E00E948F163F
:2012200049F00E94BC162CF01D980E94D3150E94361601C04CC04BC0E230A0E0FA07B1F4A8
:20124000079911C00E94BC166CF01E9A069909C041E050E00E943C160E94DA150E94361669
:2012600001C00FDA02C0C19832C031C0E330A0E0FA07B1F4069B13C02CDA1E98AA85BB85EE
:201280008C859D85A137E7E1BE07E0E08E07E0E09E071CF00E94E91502C00E94F51517C00B
:2012A000E430A0E0FA0799F40E9442160E94C8160E2E0E94CE160E946416E02109F0929A8E
:2012C0000E94D3160E94DA16E02109F0929A13C0E13089F4FED9C1D91D981E9892980E94C2
:2012E000F5150E943616E091B705F091B805309711F40E940116EA85FB856C857D850E9482
:20130000DC16EA87FB876C877D87EE81FF81688579850E94DC16EE83FF83688779875ACE79
:201320000E94741A2E9608950E946F1A0E945A15969A0E94E116EC81FD810E171F07E4F409
:20134000019B03C0939A21E030E0A0E00199A1E00E94E716D9010E946916E02119F0939886
:2013600022E030E0E2E0F0E0E217F30721F40F5F1F4F23E030E0DFCF0E94E11696980E94BB
:20138000761A2696089566DBC89902C052D9FCCFA0D98DDD9ED904D99CD9CC9B02C0909A0B
:2013A000FCCF0E949E169098AB98A998AA9A1A98C798A2D88ED904D9E0918605E030E9F464
:2013C0000E94EC16A0919305B0919405119791F40E9430160E94F216A99AE8EBFBE00E9474
:2013E000FA16AA9A1A980E94FE160E94F216A9982AD9FFCF0E940117DFCFE0E0E09386054F
:20140000CEDDAD9A0E943016AD98C9DD0E943016C6DD0E943016C3DD0E94FB150E94F0159B
:201420000E94D5140E94F0150E946E160E2A0E94F015E3E0F0E00E94A619E02921F039DD51
:201440000E94E415EBCFE0E0E0939705E09398050E9430160E94EC160E94CE16119711F499
:201460000E940617E1E0F0E00895E1E0F0E00E940E17E0917E05F0917F0508951A930A9347
:201480001F9A019903C001E010E002C000E010E0002E012AA9F4A091A505B091A60515976A
:2014A00019F4E5D80E941317A5EAB5E00E94F9130E941917E1E0F0E0E0937C05F0937D0568
:2014C000E1E0F0E0E017F107A1F40E941317A0917C05B0917D05119731F4FBD8E0E0E093E3
:2014E0007C05E0937D05E1E0F0E00E941F171F989298E0918205F09183050991199108954A
:201500000E942614E0911405F0911505309729F40E9424170E94FE01DAC0E130A0E0FA073C
:20152000D9F4AF9A0E942B170E942F1799F0E0E0E0934605E0934705E0934805E093490582
:201540000E943317E2E0F0E00E943D170E9442174BD801C03FD8BBC0E230A0E0FA0769F4B6
:201560000E9449170E9452173CF0AF980E943317E3E0F0E00E943D17AAC0E330A0E0FA0778
:2015800059F40E945A173CF0AE9A0E943317E4E0F0E00E943D179BC0E430A0E0FA0761F4BC
:2015A0000E945A1744F0AE98C49A0E943317E5E0F0E00E943D178BC0E530A0E0FA0769F48B
:2015C0000E9449170E9452173CF0C4980E943317E6E0F0E00E943D177AC0E630A0E0FA072D
:2015E00099F50E942B17A0E0CB99A1E00E948A1621F00E9424170E946317A0E0CA99A1E064
:201600000E9409140E942F1721F00E9424170E9463170E942B170E942F1731F0E3E0F0E099
:201620000E943D170E946317A0E0CA99A1E00E940914A0E0CB99A1E00E948A1621F0E7E0F6
:20164000F0E00E943D1743C0E730A0E0FA0759F40E945A173CF0AD9A0E943317E8E0F0E0D2
:201660000E943D1734C0E830A0E0FA0761F40E945A1744F0AD98C49A0E943317E9E0F0E023
:201680000E943D1724C0E930A0E0FA0759F40E9449170E9470172CF0C498EAE0F0E00E94AA
:2016A0003D1715C0EA30A0E0FA0789F40E943317E0E0E0931405E093150501E010E0E1E092
:2016C000F0E0EC15FD0519F4E2E0F0E06F01E0C20E942614E0911605F0911705309771F455
:2016E000E0E0E0934A05E0934B05E0934C05E0934D050E9478170E947D1756C0E130A0E00E
:20170000FA07B1F40E9482170E9452170CF0AC9A0E948217AD33E0E0BE07E0E08E07E0E0E6
:201720009E072CF01C9A0E9478170E948B173CC0E230A0E0FA0759F40E9482170E9490175D
:201740002CF01C980E9478170E9498172DC0E330A0E0FA0759F40E9482170E9470172CF0E9
:20176000AC980E9478170E949D171EC0E430A0E0FA0751F40E9482170E94701724F0E6E1A7
:20178000F5E00E94A21710C0E530A0E0FA0761F40E9478170E94A717E3E0F0E0EC15FD0537
:2017A00019F4E4E0F0E06F0173C20E942614E0911805F0911905309791F4E0E0E0934E0508
:2017C000E0934F05E0935005E09351050E94AE17C398AA98E8E1F5E00E947D1708C1E130FF
:2017E000A0E0FA0791F40E94B817A230E0E0BE07E0E08E07E0E09E073CF01A9A0E94AE171A
:20180000E8E1F5E00E948B17F2C0E230A0E0FA07B1F40E949916119721F40E94C1170E94D2
:20182000C8170E94B8170E94CF1744F0A99AC79A0E94AE17E8E1F5E00E949817D8C0E330F7
:20184000A0E0FA07A1F40E94B8170E94701774F0A998A9E8B5E0ED91FD913197FE93EE9327
:201860000E94AE17E8E1F5E00E949D17C0C0E430A0E0FA0739F40E94AE17E8E1F5E00E9424
:20188000A217B5C0E530A0E0FA0781F40E94B8170E94D71754F0C39A1A980E94DF17E8E15A
:2018A000F5E0A6E0B0E0A083B183A1C0E630A0E0FA0781F40E94B8170E94521754F0919A8E
:2018C000AB9A0E94AE17E8E1F5E0A7E0B0E0A083B1838DC0E730A0E0FA07D1F5A0E0059987
:2018E000A1E00E94E7160E94E5170E946416E02111F00E94C1170E94E5170E9469160E2E97
:20190000E0912E05F0912F050E94B8170E9497190E94C419E02131F0C39891980E94AE171F
:201920000E94EA17E0913005F09131050E94B8170E9497190E94681A54F4C3989198A9EA61
:20194000B5E00E94F9130E94DF170E94EA174FC0E830A0E0FA07C9F40E94F1170E946916D9
:20196000E02131F0AB98AA9A0E94AE170E94C8170E94F1170E946416E02131F0AB98AA9A67
:201980000E94AE170E94C81732C0E930A0E0FA07A1F40E94B817A630E0E0BE07E0E08E071D
:2019A000E0E09E074CF0C7980E94AE17E8E1F5E0AAE0B0E0A083B1831AC0EA30A0E0FA073C
:2019C000B1F4E0918F05F0919005E0939105F09392050E94AE17E8E1F5E00E94A717E5E0FA
:2019E000F0E0EC15FD0519F4E6E0F0E06F0150C10E942614E0911A05F0911B05309781F4A7
:201A0000E0E0E0935205E0935305E0935405E09355050E94FA170E947D170E94721438C1CE
:201A2000E130A0E0FA0729F40E94FA170E948B172FC1E230A0E0FA0769F40E9406180E94BE
:201A400070173CF0A898C19AC09A0E94FA170E9498171EC1E330A0E0FA0711F00C946F0D4A
:201A6000A0919105B09192050E9469160E2E0E9499160E9464160E22A091A105B091A2050E
:201A80000E9464160E22A091AB05B091AC050E946916E021E9F40E94C5020E945F03E1E0FA
:201AA000F0E0E093A105F093A205CF9917C0A091AB05B091AC050E94D514D601E7E0F0E008
:201AC0000E94B219E02121F0ADEAB5E00E94F913EAE1F5E00E949D170E940F18D9C0E43041
:201AE000A0E0FA0769F40E946903E0E0E093A105E093A205C59A0E94FA170E94A217C8C012
:201B0000E530A0E0FA0711F00C94C90D0E940618E9E1F0E060E070E00E94CC190E2EA0E08B
:201B2000CD99A1E0E1E00E94A1190E22A0E0C599A1E00E948A1639F0C69A0E94FA17A6E00E
:201B4000B0E0A083B1830E940618E2E3F0E060E070E00E94CC190E2E0E947E16E02139F096
:201B60000E940F180E94C5020E944B03C598A0E0C599A1E0E0E00E94A1190E9485160E948C
:201B80008F1631F00E946903EAE1F5E00E949D177FC0E630A0E0FA0791F40E940618AA3185
:201BA000E0E0BE07E0E08E07E0E09E073CF0C29A0E94FA17A7E0B0E0A083B18369C0E730FD
:201BC000A0E0FA07A1F40E9406180E94901774F0009B05C0ABEBB5E00E94F9133197C09829
:201BE0000E94FA17A8E0B0E0A083B18351C0E830A0E0FA0769F40E9406180E9490173CF087
:201C0000C5980E94FA17A9E0B0E0A083B18340C0E930A0E0FA0769F40E9406180E94CF1705
:201C20003CF0C2980E94FA17AAE0B0E0A083B1832FC0EA30A0E0FA0769F40E9406180E94B1
:201C4000CF173CF0C1980E94FA17ABE0B0E0A083B1831EC0EB30A0E0FA07D1F40E940618F5
:201C60000E94D717ACF00E94FA170E94A717A2E3B5E0ED91FD913197FE93EE93E7E0F0E08E
:201C8000EC15FD0529F4E8E0F0E06F010E941918F8010991199108950E9433180E94D514F7
:201CA0000E943818E02129F02BDCE0930005F09301050E943E180E9443180E9449180E9476
:201CC0005118E02129F004DDE0930205F09303050E9456180E9443180E9449180E945B1876
:201CE0000E945118E02129F060DDE0930405F0930505E0910605F09107050E9443180E94D1
:201D000049180E945B18D601E5E0F0E00E94AC190E9494160E94AC190E220E945118E0218B
:201D200029F066DEE0930605F09307050895AA24BB240E946C180E9419180E94D6050E94D7
:201D4000FE01089524971A930A930E94731800E010E00E9479180E2ED6010E946E16E02178
:201D600099F00E9401170E947B180E948D180E9492180E949818E02139F00E949E180E94E2
:201D8000AE18E3E0F0E06F010E9479180E2E0E943E180E94B618D601E4E0F0E00E94A619D7
:201DA000E021B9F00E9401170E947B180E948D180E9492180E949818E02159F00E949E1803
:201DC0000E94BC180E94FE01E5E0F0E06F010E94C3180E9479180E2E0E943E180E94B61893
:201DE0000E945618A1E0B0E00E94A6190E9494160E94A619E021B9F00E9401170E947B181B
:201E00000E948D180E9492180E949818E02159F00E949E180E94BC180E94C9180E94AE18DA
:201E2000E7E0F0E06F010E9479180E2E0E943E180E94B6180E9456180E94B618E0910605C8
:201E4000F09107050E94B6180E947316E02111F40C941D100E94011708DB0E940E17E1E062
:201E6000F0E0E0938005F09381050E947602E0938B05F0938C05D5010E9469160E2EA091FC
:201E80008605E1E00E94A1190E220E948D180E9492180E949818E02111F40C941D100E9410
:201EA00019170E9473180E94D0180E94D518E021C9F00E94DD1819F4E1DA0E941F170E9419
:201EC000F21814F00E9473180E94D018D8010E946416E02131F0A6E7B5E00E94F91301E075
:201EE00010E0E1CF0E94D0180E94C8160E220E94DA16E02161F00E94DD1819F4BFDA0E9445
:201F00001F170E94F21814F00E947318EBCF47D8E0E0F0E0FA93EA930E947903A091B9052E
:201F2000B091BA050E9469160E2EA091BD05B091BE050E946416E021C9F0E0E0E093B90586
:201F4000E093BA05E1E0F0E0E093BD05F093BE050E94B502E4E0F0E00E94F7140E94FC14F7
:201F6000EEEFFFEFE0932805F0932905F60131966F01E8EEF3E0EC15FD051CF4E4E6F0E0C1
:201F80006F010E94DB14E3E0F0E00E94BE190E2E0E945118E02141F00E94C3180E94FE1886
:201FA0000E94C9180E9404190E94DB14139744F00E9442170E94BC180E94C9180E940419BD
:201FC0000E94DB14129734F00E9442170E94C9180E9404190E94DB140E94641A24F40E94FB
:201FE00042170E940419A3DE0E940B19A0919F05B091A0050E94A6190E2EA091A305B09110
:20200000A4050E946416E021C1F00E9404030E94DE130E94E4130E94EA13E0E0E093C505D8
:20202000E093C605949892980E94B5020E949C02E0E0E0938605CC24DD24198108812696E5
:202040000895D601E8E0F0E00E94A6190E2ED5010E946416E02119F0E1E0F0E05F010E9448
:20206000D316D5010E946416E02111F40C94F010042C0528A9F40E94E014A0915E05B0917A
:202080005F0580916005909161050E941119E02121F0AEE6B5E00E94F913E1E0F0E02F0169
:2020A000062C0728A9F40E94E014A0916205B091630580916405909165050E941119E02179
:2020C00021F0A0E7B5E00E94F913E1E0F0E03F010E941519D4010E9464160E22D601EBE0C1
:2020E000F0E00E94B8190E220E94CE160E946416E021A1F00E941919E02111F00E94231985
:202100000E94261944F00E942B190E942E190E940B190E943119E1E0F0E04F010E94151978
:20212000D4010E9464160E22D601E9E0F0E00E94A6190E220E94DA16E02119F0E1E0F0E050
:202140004F010E941519D4010E9464160E2A0E94C8160E220E94DA16E021A1F00E9419198E
:20216000E02111F00E9423190E94261944F00E942B190E942E190E940B190E943119E1E028
:20218000F0E04F010E941519D4010E9464160E2A0E94D518E021A1F00E941919E02111F02F
:2021A0000E9423190E94261944F00E942B190E942E190E940B190E943119E1E0F0E04F01CA
:2021C000D2010E9469160E2ED3010E9469160E22D4010E946916E02119F0E1E0F0E05F01B9
:2021E00008950C2C0D28A1F5E0918605E03029F40E9401170E940A062BC00E94EC160E9479
:2022000006170E943D190E9443190E94FE180E94C9180E9404190E943D190E94690394987F
:20222000E0E0E093BD05E093BE05E0912805F0912905FA93EA93E091B105F091B205FA9330
:20224000EA930E9489050E943E06E1E0F0E06F010895E0E0EBBBEABBE8BBEFEFE7BBE0E05F
:20226000E5BBEFEFE4BBE0E0E2BBEFEFE1BBE0E0E3B9EFEFE2B9E0E0E0936200E09361002C
:20228000E0936500EFE1E0936400E0E0E0BFE7E0E3BFE0E0E2BFE1BFEFBDEEBDEDBDECBD4C
:2022A000E7BDE6BDEBBDEABDE9BDE8BDE0937900E0937800E5BDE4BDE3BDE0938B00E09312
:2022C0008A00E0938900E0938800E0938100E0938000E0938700E0938600E0938500E09338
:2022E0008400E0938300E0938200E0936A00EABFE9BFE1E0E7BFE0E0E0937D00EBB9E8E1BD
:20230000EAB9E6E0E0939500E0E0E0939000E7E6E9B9E0E0E0939A00E0E8E8B9E0E0E0BD87
:20232000E6B9EDB9E09374007894E0E4FFE10E94FA160E94FE160E94FE160E94FE160E944B
:2023400033140E947814EA93B9D0E3E0F0E0FA93EA930E949409CC24DD24E0E0E0935605A7
:20236000E0935705E0935805E09359050E946C18AA24BB24E4E6F0E060E070E0E0935A051E
:20238000F0935B0560935C0570935D050E94C318EEE3F0E060E070E0E0936A05F0936B051E
:2023A00060936C0570936D050E94FB15ECEDF0E0E0933005F0933105E8E2F0E0E0932E0548
:2023C000F0932F05E6E4F0E0E0933405F0933505E0E0E0932A05E0932B050E943D190E94A4
:2023E0004319E0E0E0938405E0938505E0939B05E0939C05E0939D05E0939E05E093A1055D
:20240000E093A2050E941317E0E0E093A305E093A405E093A705E093A805E093A905E0930C
:20242000AA05E093AD05E093AE050E94A516E093AF05E093B005E0E0E093B105E093B205E3
:202440000E941C140E94C015E0E0E093BD05E093BE05E093D105E093D205E093D305E093B7
:20246000D405E0938605E0937805E0937905E0937A05E0937B05E0937C05E0937D05E09363
:202480007E05E0937F05E0938005E09381050E9419170C2C0D2821F40E94C3096F01F9CFD7
:2024A0000E944F029EDEF8DBCCDD4CDC0E94BF02F7CFFFCF5F9BFECFECB108955D9BFECF4C
:2024C000E881ECB921960895EA81EA93F7DFA881B9810E94F9132396089526970E946D1A8F
:2024E00010E0AC85BD85E0E0F0E0ED93FC93EA89FB893196EA8BFB8B3197E4912E2FE03077
:2025000011F40C949A13E12FE03039F4253211F411E002C00E9452190CC1E130A9F425322E
:2025200019F40E94521904C112E040E000E02D3211F401E0FEC02B3211F44BE2FAC020322C
:2025400011F440E2F6C002C0E23039F450E013E0203311F40068EDC004C0E33011F00C9495
:202560009913203310F02A3308F007C0AAE05A9F502DE22FE0535E0FDCC0E22FE33649F48C
:202580000E945B19E889F989A481AA930E946119CFC0E33741F40E945B190E9469190E94FA
:2025A000C9131E2F0AC0E03761F40E945B190E9469190E94D3131E2F086002600F7730E04D
:2025C00035C0E43611F0E93611F4046002C0E53731F4ECE8F0E0EE83FF8315E00DC0E835EA
:2025E00011F4086004C0E83711F00C949813E6E9F0E0EE83FF8314E002FF14C00E945B19CE
:202600000E947319AB85AA233AF4EA85FB850E948B19EA87FB874DE2403011F01F5F01C05A
:202620000B7F04C00E945B190E94731900FD11C0151778F407FF08C002FF04C00B7F242F32
:20264000115001C020E301C020E20E9452195150EFCF312F01FF17C03030A1F003FF06C036
:20266000EE81FF812591EE83FF8305C0AE81BF812D91AE83BF830E945219503009F0515036
:202680003150EACF4BC020E3EE81FF810E945B1AE887F987EE81FF813296EE83FF83E885E6
:2026A000F985AA85BB85AE17BF0750F02F5FA885B985EA85FB85EA1BFB0BEA87FB87EFCFBE
:2026C0002A3328F003FF02C0295F01C0295D04FD1AC0213320F4A885B985119709F409C0D6
:2026E000531710F000FF01C013C020E207FF0BC020E3006102FF07C00B7F4A930E9461195B
:20270000503009F051500E945219503009F051503150A885B985129708F0B5CF00FF08C0A0
:20272000503031F05150E0E2EA930E946119F8CF10E0DDCEAC85BD850E944D1A0E94741AEE
:2027400064960895FF92F82E26971A930A93DE0114960E9487198D01E0E0EC83ED83EE83BB
:20276000EF83DE0118960E9487190E944D1AFA93EA931A930A93E4E6F2E1FA93EA93FE0115
:202780003896FA93EA93A9DE198108812896FF900895A991B991EE27FF276D91662311F086
:2027A0003196FBCF0895AA27BB27E991F9910590002011F01196FBCFFD010895E0E0E0933F
:2027C000BF05E093C0050895E0E0E093C105E093C2050895E0E0E093C305E093C4050895BC
:2027E0000E94511AEF5FFF4F6F4F7F4F0E94561A0895ED91FD913196FE93EE930895A09142
:20280000C105B091C2050895A091C305B091C4050895E1E00E94A1190E2E0895A0E0C999D5
:20282000A1E0E0E00E94A1190895E0EAF6E861E070E00E94CC190895E0E0E093B305E093A3
:20284000B405E093B505E093B60508951A930A9300E010E00895E0EDF7E0FA93EA930E94C0
:202860007B1994980895EAE5EA930E945E12E5EAEA930C945E12E5E0EA930E945E12E2E823
:20288000EA930E945E12E0E0EA930C945E12E0E3EA930C945E12E0E0EA930C945E12E4E0FB
:2028A000EA930E945E12E3E8EA930E945E12F3CFE1E0EA930E945E120E945A120E945A1201
:2028C0000E945A120E945A120E945A120E945A120E945A120E945A120C945A12E0E6EA9355
:2028E0000C945E12E0E0E0938D05E0938E050895E3E0EA930E945E12E0E8EA930E945E12B7
:20290000E2E0EA930E945E12E0E10895E3E2EA930E945E12E2E8EA930E945E12BCCFE0E907
:20292000EA930C945E12EEE9F0E0FA93EA9380E00E94A213229697CFEA930E945E12E2E82B
:20294000EA930E945E12A7CFFA93EA9380E00E94A21322960895E0E4EA930E945E12A8CF92
:20296000E4E0EA930E945E12E3E8EA930E945E12E0E1EA930C945E12E0E1EA930C945E120E
:202980002E2F3327022E032A0895E0E2EA930C945E12E0E5EA930E945E128ACFAE81BF811B
:2029A000E1E0F0E00E94A6190895E0E0F0E00E94A6190E2E0895A0913205B0913305089540
:2029C000E0915605F091570560915805709159050895E0E7EA930C945E12E1E0EA930C94D2
:2029E0005E120E945A120E945A120C945A12E0933205F09333050895E0913205F0913305DC
:202A0000E0939F05F093A0050895E4E0EA930E945E12E3E8EA930E945E12B7CFA091CF05A2
:202A2000B091D005E1E0F0E00E94A6190E2EA091D305B091D4050895E093D105F093D205EF
:202A40000895A091CF05B091D005E2E0F0E00E94A6190E2EA091D305B091D4050895E0E40B
:202A6000EA930E945E1217CFEA930E945E12FBCEE0E5EA930E945E120ECFE5E0EA930E9474
:202A80005E12E2E8EA930E945E1276CFE5E0EA930E945E12E2E8EA930E945E1276CFAE8107
:202AA000BF81A030E1E0BE070895AE81BF81EFEFF0E0089500E010E020E030E00895EA932F
:202AC0000E945E120A930C945E12AFEF0A02F001E20F0895AC81BD81A030E1E0BE070895B0
:202AE000AC81BD81EFEFF0E00895EBE0EA930E945E12E2E8EA930E945E1247CFE091C10520
:202B0000F091C2050E9497190E945F1A84E00E94A21326960895E0E8F3E016CFE091C30533
:202B2000F091C4050E9497190E945F1A84E00E94A21326960895E091C505F091C6050E94A1
:202B400097190E945F1A84E00E94A21326960895A091C705B091C8050895A091C905B091AE
:202B6000CA050895A091CB05B091CC0508950E9497190E945F1A84E00E94A21326960895B8
:202B8000E0E0E093B705E093B8050895E0E9F1E0FA93EA930C947B19E1E0F0E0E0939905FF
:202BA000F0939A050895E2E0F0E0E0939905F0939A0508950E946903E3E0F0E0E093990542
:202BC000F0939A051E980895E0939705F09398050895E4E0F0E0E0939905F0939A05089550
:202BE000A0919705B09198050895E0E0E0939905E0939A050895E0E0E0939705E09398052E
:202C0000F4CFE1E0F0E0E093B705F093B805AFEAB5E0EFCDE091AD05F091AE05FA93EA93A6
:202C2000E091A905F091AA05FA93EA93E091AF05F091B005FA93EA93E091BB05F091BC0563
:202C4000FA93EA93E0917405F0917505FA93EA93E0917605F0917705FA93EA930C94DC0606
:202C6000E8EEF3E0FA93EA930C947B19E0E0EA87EB87EC87ED870895E0E0EE83EF83E88734
:202C8000E9870895E5E0F0E0E0939905F0939A050895D801E1E0F0E00E94A6190E2EE2E0F9
:202CA000F0E00E94A6190E2AE3E0F0E00E94A6190E2AE4E0F0E00E94A61908950E2AA09184
:202CC0009905B0919A050895E0E0F0E00E94A6190895E1E0F0E00E94A6190895E2E0F0E02A
:202CE0000E94A6190895D601E8E0F0E00E94B2190895AE81BF81888599850895A0E0CD9940
:202D0000A1E0E0E00E94A11908950E2EA0E0CF99A1E00895E1E00E94A119E0210895E0E0BC
:202D20000E94A119E02108950E22D601E6E0F0E00895A0919505B09196050895E1E0F0E08A
:202D4000E093A705F093A8050895E0E0E093AB05E093AC050895E0933A05E0933B05E0930B
:202D60003C05E0933D050895A0E00799A1E0E0E00E94A1190E2E0895AA85BB858C859D8588
:202D8000A93EE3E0BE07E0E08E07E0E09E070895D601EAE0F0E00E94B2190895A091CD05EF
:202DA000B091CE050895D601E9E0F0E00E94B2190E2E0895F3DF8DCFEF5FFF4F6F4F7F4F56
:202DC0000895E4EFF1E0FA93EA930C947B19E0E00E94A1190E2E0895E1E0F0E0FA93EA93E4
:202DE0000C947903AA981A9AE8EBFBE0FA93EA930C947B19FA93EA930C947B19E0EDF7E0F3
:202E0000F9CF0E94A602E09386050895E091D105F091D205FA93EA930C949409E0937E0529
:202E2000F0937F050895E0E0E093A505E093A6050895E0E0E0938205E09383050895E09391
:202E40008205F09383050895E1E0F0E0E0931405F09315050895A0E0CA99A1E0B8CFA0E081
:202E6000CB99A1E05CCFE0E0E0933605E0933705E0933805E09339050895E0931405F09318
:202E800015050895E1E0F0E0E0932C05F0932D050895A0913605B09137058091380590919C
:202EA00039050895A932E0E0BE07E0E08E07E0E09E070895EEDFA531E0E0BE07E0E08E0703
:202EC000E0E09E070895E5E1F0E060E070E0E0933605F0933705609338057093390508954F
:202EE000A333E0E0BE07E0E08E07E0E09E070895E0E031DFE6E1F5E00895A1E0B0E0A083E3
:202F0000B1830895A0913A05B0913B0580913C0590913D050895A2E0B0E0A083B183089597
:202F2000AF31E0E0BE07E0E08E07E0E09E070895A3E0B0E0A083B1830895A4E0B0E0A08397
:202F4000B1830895A5E0B0E0A083B1830895A0E0B0E0A083B18301E010E00895E0E0E0938F
:202F60003E05E0933F05E0934005E09341050895A0913E05B0913F05809140059091410593
:202F80000895E1E0F0E0E0938F05F0939005E6CFE8E1F5E0A9E0B0E0A083B1830895AB30A9
:202FA000E0E0BE07E0E08E07E0E09E070895A531E0E0BE07E0E08E07E0E09E070895E0E0C3
:202FC000E0938F05E0939005C9CFA0918F05B09190050895E8E1F5E0A8E0B0E0A083B18305
:202FE0000895C6DFEAE0F0E060E070E00E94CC190E2EEBCFE0E0E0934205E0934305E09340
:203000004405E0934505EAE1F5E00895A0914205B091430580914405909145050895E0E04A
:20302000E0934205E0934305E0934405E09345050895E0E0E0935E05E0935F05E0936005C0
:20304000E0936105E0936205E0936305E0936405E0936505E0936605E0936705E09368058C
:20306000E09369050895A0910005B09101050895D601E0E0F0E00E94AC190895E0910205D5
:20308000F09103050895A0E0B0E00E94A6190E2EEFCF0E22D601E1E0F0E00E94AC190E2270
:2030A0000895A0912C05B0912D0513CEE0910405F09105050895D601E2E0F0E00E94AC194B
:2030C0000E22E3E0F0E00E94AC190E22E4E0F0E00E94AC190E2208954424552466247724C8
:2030E000882499240895E0E0EA83EB83EC83ED830895B9DFEECD0E94350A90DEE1E0F0E080
:20310000E0938005F09381050E947602E0938B05F0938C05A09186057CCBA0917E05B09185
:203120007F05D7CD0E22A0918005B0918105D1CD0E22A0918B05B0918C05CBCD0E94CF0749
:203140000E94D605E0E0F0E0FA93EA930E947903E0E0E0930005E093010508950E94FE014B
:20316000E0E0E0932C05E0932D050895A1E0B0E00E94A6190E220895E2E0F5E0A0E0B0E0C3
:20318000A083B1830895E0E0E0932C05E0932D050895E4E0F5E0A0E0B0E0A083B1830895F8
:2031A000A0918205B091830500CCD601EBE0F0E00E94B2190E22F2DD87CDEA81FB816C81BC
:2031C0007D81FADDEA83FB836C837D83AA81BB818C819D81A130E0E0BE07E0E08E07E0E043
:2031E0009E070895AA81BB818C819D81A536E0E0BE07E0E08E07E0E09E070895E0E0E09311
:203200000005E0930105B8CFE6E0F5E0A0E0B0E0A083B1830895E0912805F09129053197F5
:2032200008950E94CC190E2EB3CDA0E00499A1E0CECDC6DBA0916605B0916705809168050D
:2032400090916905EECFA2E7B5E0D3CAEAE0F0E0CE16DF060895A8E2B5E0CBCAA1EBB5E092
:20326000C8CAFA93EA93E091B105F091B2053197FA93EA930E948905CDCCE0E0E093280558
:20328000E09329050895EFEFFFEFE0936E05F0936F05E0937005F0937105E0937205F093F9
:2032A000730508952A93ED85FE85FA93EA93E989FA8909950895E889F9893497E88BF98B58
:2032C0000895ED85FE85FA93EA93E989FA8909950895A889B98914960E944D1AEE83FF8309
:2032E000FA93EA930895A889B98914960E944D1AEA87FB870895E991F991309639F080EA14
:203300009FE00197F1F7A8953197C9F708950024AF0DB01D0895F195E195F0400895F095B4
:2033200060957095E195FF4F6F4F7F4F08956F2F660F660B762F08958B2F880F880B982F35
:203340000895EA17E1E009F0EE270895EA17FB07E1E009F0EE270895EA17FB07E1E009F433
:20336000EE270895AE17BF07E1E00CF4EE270895AE17BF07E1E00CF0EE270895EA17FB07A0
:20338000E1E00CF0EE270895AE17BF0786079707E1E00CF4EE270895EA17FB0768077907A3
