:200000000C949F010C9400000C9400000C9400000C9400000C9400000C9400000C94000040
:200020000C9400000C9400000C9400000C9400000C9400000C9400000C9400000C940000C0
:200040000C94ED010C9400000C9400000C9400000C9400000C9400000C9400000C940000B2
:200060000C9400000C9400000C9400000C9400000C9400000C9400000C9400000C94000080
:200080000C9400000C9400000C9400001027E80364000A000100001000011000010020208D
:2000A000202020202020202020202020202020202020202020202020202020202020202040
:2000C00020202020202000496E69636A616C697A756A65206D61737A796E65005779637AAB
:2000E00079737A637A6F6E6F206D61737A796E65004D61737A796E61207A61696E69636A5F
:20010000616C697A6F77616E6100437A656B616D206E612070726574206777696E746F77C5
:20012000616E79005072616361005A616B726563696C656D2077737A7973746B6965207AD2
:200140006164616E652070756368617279004272616B2077796D6167616E65676F206369CF
:20016000736E69656E696120362062617200446F7A6F776E696B206B6C656A7520707265F6
:20018000746F77206E696520676F746F777900446F7A6F776E696B206B6C656A75206E6161
:2001A0006B726574656B206E696520676F746F77790057796C61637A206D61737A796E65F3
:2001C000206920706F637A656B616A2031206D696E757465004F64736C6F6E2069207A7218
:2001E00065736574756A206B757274796E65004D6F6E7465722033206E6965206E6163695E
:20020000736E616C20706564616C6100437A656B616D206E612072756368206C616E63755A
:2002200063686100506F707261772070726574207A2067727A79626B69656D2069206E6138
:200240006369736E696A2067757A696B005573756E2070726574207A6520737A637A656B95
:200260002069206E616369736E696A2067757A696B0057796D69656E206C7562206E616B06
:200280007265632F646F6B7265632067727A7962656B2069206E616369736E696A2067756B
:2002A0007A696B004D6F6E7465722033202D207A64656D6F6E74756A207075636861722018
:2002C0006920706F7477696572647A004D6F6E7465722033202D2077797A776F6C207265C5
:2002E000637A6E696520637A756A6E696B2070756368617261002020202020202020202083
:200300002020202020202020202020202020202020202020202020202020202020202020DD
:200320002020202020202020000001002D4E414E00494E4600000100BF052A030000F89457
:20034000EE27ECBBF1E0F5BFE5BFE0936C00F8E1F1BDE1BD8DE0A2E0BB27ED938A95E9F764
:2003600080E090E1A0E0B1E0ED930197E9F7E6E3F3E085919591009761F0A591B5910590D2
:200380001590BF01F00105900D920197E1F7FB01F0CF8BBFEFEFEDBFE0E1EEBFC0E0D5E011
:2003A0000C94C10E1A930A93E0919B001E2FE078D9F300919C00E12FEC7111F4E02F01C098
:2003C000F3CF099119910895E0919B00E072E1F3E881E0939C00219608956A937A93AA9335
:2003E000BA93EA93FA93EFB7EA93A6E3B5E00E947011A6E4B5E00E947011AAE3B5E00E943C
:200400007011AAE4B5E00E947011AEE3B5E00E947011AEE4B5E00E947011A2E4B5E00E94C5
:200420007011A2E5B5E00E947011AEE5B5E00E947011A2E6B5E00E947011A6E6B5E00E94AE
:200440007011E991EFBFF991E991B991A991799169911895C999949AA0E09499A1E00E945A
:2004600079110E947E11E02121F0A3EBB5E00E9470110E947E110E2EA091B305B091B40519
:200480008091B5059091B6050E948511E02141F00E948C119498E0E0E0938705E093880521
:2004A00008951A930A9301E010E0F801F8C20E949611C99B02C0949AFCCF0E949B110431E6
:2004C000E0E01E075CF4C99B06C0C99B02C0949AFCCF0E949B110F5F1F4FF1CFE4E1F0E01F
:2004E000E0938905F0938A05DAC20E94A3110E94AB110E94B7110E94BB11E0E023C2E0E05C
:20050000E09386050E94A3110E94BF110E94B7110E94C811E0938605F0E008950E94A3116F
:200520000E94AB11E0E608C2ADE8B5E00E94DE110E94E4110E94A3110E94EA1103C20E9421
:20054000A3110E94F8110E9401120E940512E7E10E940E120E940112E7ECF0E0BAC00E94D0
:20056000A311EBE10E940E120E940112E1EFF0E0B0C00E94A311ECE10E940E120E940112DA
:20058000EAE0F1E0A6C00E94A3110E94F8110E9401120E940512E8E00E940E120E940112AC
:2005A000E4E2F1E096C00E94A311EBE10E940E120E940112EEEAF0E00E9416120E94A311ED
:2005C000E6E20E940E120E940112EAE2F1E081C00E94A311E2E20E940E120E940112EEE49B
:2005E000F1E077C0E881F981309751F40E94A3110E94F8110E940112EEE6F1E00E941612DF
:20060000A881B981119759F40E94A311E5E20E940E120E940112EFE8F1E00E9416125EC05E
:200620000E94A311E5E20E940E120E940112E2EBF1E04FC00E94A311ECE10E940E120E94F2
:200640000112E5EDF1E045C00E94A311EFE10E940E120E940112EFEEF1E03BC00E94A31143
:20066000EAE10E940E120E940112ECE0F2E031C00E94A311EBE20E940E120E940112E4E249
:20068000F2E027C00E94A311E7E20E940E120E940112EDE4F2E01DC00E94A311E4E30E94CC
:2006A0000E120E940112E2E7F2E013C00E94A311ECE20E940E120E940112ECECF2E009C0E9
:2006C0000E94A311E5E30E940E120E940112E6EFF2E0FA93EA9380E00E9434112296089538
:2006E0001A930A931F9AEA81EA936EDEEB810E941D121F9819810881249608950E94EE16AF
:2007000040E050E0E0E0E093860510E0AE81BF811197D1F50E94A3110E94BF110E9425125D
:200720000E94C811F0E0E0933405F09335050E94A3110E9429120E9435120E94C8110E94CC
:20074000391239F4E1E0F0E0E0939505F093960505C0E0E0E0939505E09396050E94A3116F
:200760000E942912E0E20E943E120E94391239F4E1E0F0E0E0939305F093940505C0E0E091
:20078000E0939305E09394050E94A3110E94BF11E0E50E943E12F0E0E0932E05F0932F0596
:2007A0000E9442121E2EAE81BF810E9449120E944F12E4E0F0E00E944416E021E12961F19B
:2007C0000E94A3110E94BF11E0E60E943E120E94391239F4E1E0F0E0E093B905F093BA057B
:2007E00005C0E0E0E093B905E093BA05E0916A05F0916B0560916C0570916D05A7E0B0E054
:2008000080E090E00E948716E0935605F09357056093580570935905E0919B05F0919C0538
:20082000309791F41A93E2E0EA935ADFE1E0F0E0E0939B05F0939C05E0915605F0915705D6
:20084000E0939D05F0939E050E945412A0919D05B0919E050E9422160E94E91629F0E0E04A
:20086000E0939B05E0939C05D6010E9449120E944212E02161F10E94A3110E94BF11E0E7A5
:20088000EA930E94F00F0E945D120E9461120E9461120E94EC0F0E94EC0F4E2F55270E942A
:2008A000EC0FF0E00E9467120024041605066CF4FA01AFEFB0E00E9482160E944F12EA0F4A
:2008C000FB1FE40FF51F0E9467120E946C120E94F516A5C00E94A3110E94AB110E9425121D
:2008E0000E94BB11E09134050E9475120E94AB110E947912E0912E050E9475120E94AB1101
:20090000E0E60E947E120E945D120E94A3110E94AB11E0E70E947E12E5E00E9475120E9491
:2009200082120E9435120E94BB110E945D120E94A3110E948212E0E2EA930E94F00F0E94AD
:20094000BB11E1E0EA930E94F00F08950E94F016AE81BF81A030E1E0BE076CF0EFEFF0E0D8
:200960000E949F168F01AE81BF81EFEFF0E00E94A4169F0104C000E010E020E030E00E9431
:20098000A3110E94AB11E0E8EA930E94F00F0A930E94F00FAE81BF81A030E1E0BE072CF040
:2009A000AFEF0A02F001E20F06C0AF81AA2312F0EE8101C0E0E0EA930E94F00FAC81BD816D
:2009C000A030E1E0BE076CF0EFEFF0E00E949F168F01AC81BD81EFEFF0E00E94A4169F01BB
:2009E00004C000E010E020E030E00E94A3110E9482120E9425120A930E94F00FAC81BD8145
:200A0000A030E1E0BE072CF0AFEF0A02F001E20F01C0EC81EA930E94F00F0E94F71628961F
:200A200008950E94F0160E94A3110E94AB110E9435120E94BB11EE850E9475120E94AB116C
:200A4000E0E20E947E12EC850E9475120E9482120E94B7110E94BB11EA850E9475120E94C0
:200A600082120E947912E885EA930E94F00F0E94F71660960895959A08950E9496111F9A1A
:200A8000E4E6F0E00E948B128DDC0E2F1127002E012A21F40E948F12A5DD84DC1F980991BB
:200AA00019910895E0E00799E1E0E03011F00C94B005E0919905F0919A05309749F400DE57
:200AC0000E9494121D9A0E949A120E949D1247C0E130A0E0FA0731F41D980E949A120E9415
:200AE000A4123DC0E230A0E0FA0741F41E9A069903C00E94AB1201C0B1DD31C0E330A0E02F
:200B0000FA07D1F4069B17C0DBDDA0919705B0919805129721F4E3E0F0E00E94B512E09109
:200B20009705F0919805309721F4E2E0F0E00E94B5120E94BA1213C0E430A0E0FA0779F4E1
:200B40000E94C112129729F40E949A120E94A41206C0E1E0F0E00E94B5120E94C61213C0A7
:200B6000E13089F467DD1D981E980E94CC12E091B705F091B805309711F40E94D2120E9459
:200B8000DB120E940113E0919705F0919805089528970E94EE1620E030E040E050E00E9483
:200BA000E4110E9404130E940A1301E010E00E94C612E8E0F0E0CE16DF061CF00E94C61296
:200BC00002C00E9410130E9417130E942C130E9432130E942C130E9437130E942C130E94AA
:200BE0003C130E942C13E3E0F0E00E942C160E942C13E4E0F0E00E942C16E02911F40C9447
:200C00007D070E941713E02911F40C94D006F801E130A0E0FA0769F5DA010E9437130E2E14
:200C20000E9441130E220E944713E0E2FEE460E070E00E945216E0211E2ED601E8E0F0E098
:200C40000E943E160E2E0E944713E8EBFBE060E070E00E945216E021E12951F0E8E0F0E03A
:200C6000CE16DF060CF4C59A02E010E00E940A1397C0E230A0E0FA07E9F50E944C130E2EB6
:200C8000D601E8E0F0E00E943E16E0211E2EA0E0CD99A1E00E9479110E944113E021E1290E
:200CA00011F0C59822C00E9447130E9485110E945313E1E00E942716E02159F035DCE2DCFF
:200CC000C598E1EAF6E861E070E0EE83FF83688779870E9447130E9485110E9453130E94BD
:200CE000581339F0EDDC0E940A13C298C69803E010E056C0E330A0E0FA0711F00C94BF063D
:200D0000A091A705B091A805119711F5A0913405B0913505E6E4F0E00E943E160E2E0E9407
:200D20004F12E1E0F0E00E9444160E945D130E9438160E220E9462130E943213E02109F09B
:200D4000A89AC798909AE0E0E093A705E093A805A0E0CC99A1E00E947911A091A705B09119
:200D6000A8050E943213E02149F0909A0E9467130E946E130E94741304E010E011C0E4305A
:200D8000A0E0FA0769F4029906C0E1E0F0E0E093AB05F093AC05CC9903C0909805E010E007
:200DA000E0E00799E1E0E03011F00C945207E0919905F0919A05309719F50E947D13A0E052
:200DC0000399A1E00E94581349F00E94941278DC1D9A0E9404130E949D1211C0A0E0039966
:200DE000A1E00E947911D9010E943213E02131F0A4E7B5E00E94DE1121E030E052C051C07E
:200E0000E130A0E0FA0799F40E947D13A0E0C199A1E00E94581349F00E9485132CF01D98D5
:200E20000E94A4120E94041301C03BC03AC0E230A0E0FA07B1F4079911C00E9485136CF0AC
:200E40001E9A069909C041E050E00E940A130E94AB120E94041301C001DC02C0C19821C0B0
:200E600020C0E330A0E0FA07B1F4069B13C028DC1E98AA85BB858C859D85A136EAEEBE0715
:200E8000E0E08E07E0E09E071CF00E94BA1202C00E94C61206C0E430A0E0FA0711F40E94E0
:200EA000101312C0E13081F40BDCC4DB1D981E980E94C6120E940413E091B705F091B80528
:200EC000309711F40E94D212EA85FB856C857D85EF5FFF4F6F4F7F4FEA87FB876C877D87CC
:200EE000EE81FF8168857985EF5FFF4F6F4F7F4FEE83FF836887798766CE0E94F5162E9669
:200F00000895E8DCC89902C063DBFCCFD9DBB3DDD7DB15DBB2DDD4DBCC9B02C0909AFCCF02
:200F20000E9467139098AB98A998AA9A1A98C798BEDAC6DB14DBE0918605E03001F50E94C8
:200F40008F12DCDBA0919305B09194051197A1F40E9401130E949113A99AE8EBFBE00E94CA
:200F60008B12AA9A1A98E0EDF7E00E948B120E949113A99855DBFFCF0E949613DCCFE0E0C0
:200F8000E093860505DEAD9A0E940113AD9800DE0E940113FDDD0E940113FADD0E94CC12B3
:200FA0000E94C1120E9449120E94C1120E943C130E2A0E94C112E3E0F0E00E942C16E0292C
:200FC00021F070DD0E94B512EBCFE0E0E0939705E09398050E9401130E948F128FDBE1E08D
:200FE000F0E00895E1E0F0E00E949B13E0917E05F0917F0508951A930A931F9AE4E00E94A4
:201000001D121F98002E012A79F4A091A505B091A605159719F418DB0E94A013A5EAB5E038
:201020000E94DE110E94A6130E94B21361F40E94A013A0917C05B0917D05119711F40E94EF
:20104000B7130E94BF13E0918205F09183058AC11A930A931F9AE6E00E941D121F98002E87
:20106000012A79F4A091A505B091A605159719F41DDB0E94A013A5EAB5E00E94DE110E94B4
:20108000A6130E94B21361F40E94A013A0917C05B0917D05119711F40E94B7130E94BF1384
:2010A000E0918205F09183055DC11A930A931F9AE1E00E941D121F98002E012A81F40E9455
:2010C0008F1290DA0E940113E0E0E0938005E0938105E1E0F0E0E0937A05F0937B050E9476
:2010E000B21381F4A0917A05B0917B05119731F4E7DAE0E0E0937A05E0937B05E1E0F0E081
:201100000E94C613E0918005F09181052BC10E949611E0911405F0911505309719F40E9487
:20112000CB13BBC0E130A0E0FA07C1F4AF9ACA9913C0E0E0E0934605E0934705E093480593
:20114000E09349050E94D213E2E0F0E00E94DC130E94E11318DA01C00CDA9FC0E230A0E004
:20116000FA0769F40E94E8130E94F1133CF0AF980E94D213E3E0F0E00E94DC138EC0E3304F
:20118000A0E0FA0759F40E94F9133CF0AE9A0E94D213E4E0F0E00E94DC137FC0E430A0E0E0
:2011A000FA0761F40E94F91344F0AE98C49A0E94D213E5E0F0E00E94DC136FC0E530A0E0E2
:2011C000FA0759F40E94F9133CF0C4980E94D213E6E0F0E00E94DC1360C0E630A0E0FA0726
:2011E000B9F4CA990EC00E94CB13E5E1F0E060E070E0E0933605F0933705609338057093CB
:201200003905CA9B04C0E7E0F0E00E94DC1345C0E730A0E0FA0769F40E94E8130E940214F0
:201220003CF0AD9A0E94D213E8E0F0E00E94DC1334C0E830A0E0FA0769F40E94E8130E9462
:201240000A143CF0AD980E94D213E9E0F0E00E94DC1323C0E930A0E0FA0751F40E94E813EF
:201260000E94121424F0EAE0F0E00E94DC1315C0EA30A0E0FA0789F40E94D213E0E0E093C0
:201280001405E093150501E010E0E1E0F0E0EC15FD0519F4E2E0F0E06F0163C00E949611C8
:2012A000E0911605F0911705309771F4E0E0E0934A05E0934B05E0934C05E0934D050E9469
:2012C0001A140E941F144DC0E130A0E0FA0789F40E9424140E942D140CF0AC9A0E94241416
:2012E0000E94F1132CF01C9A0E941A140E94351438C0E230A0E0FA0759F40E9424140E9467
:2013000002142CF01C980E941A140E943A1429C0E330A0E0FA0749F40E943F142CF0AC9818
:201320000E941A140E9448141CC0E430A0E0FA0741F40E943F1424F0E6E1F5E00E944D1491
:2013400010C0E530A0E0FA0761F40E941A140E945214E3E0F0E0EC15FD0519F4E4E0F0E0C3
:201360006F01F8010991199108950E949611E0911805F0911905309791F4E0E0E0934E05DB
:20138000E0934F05E0935005E09351050E945914C398AA98E8E1F5E00E941F1403C1E13001
:2013A000A0E0FA0769F40E9463140E9412143CF01A9A0E945914E8E1F5E00E943514F2C044
:2013C000E230A0E0FA07B1F40E946213119721F40E946C140E9473140E9463140E947A146D
:2013E00044F0A99AC79A0E945914E8E1F5E00E943A14D8C0E330A0E0FA07A1F40E9463149E
:201400000E94821474F0A998A9E8B5E0ED91FD913197FE93EE930E945914E8E1F5E00E9494
:201420004814C0C0E430A0E0FA0739F40E945914E8E1F5E00E944D14B5C0E530A0E0FA0753
:2014400081F40E9463140E940A1454F0C39A1A980E948A14E8E1F5E0A6E0B0E0A083B183A0
:20146000A1C0E630A0E0FA0781F40E9463140E942D1454F0919AAB9A0E945914E8E1F5E0A2
:20148000A7E0B0E0A083B1838DC0E730A0E0FA07D1F5A0E00599A1E00E9490140E94951403
:2014A0000E943213E02111F00E946C140E9495140E9437130E2EE0912E05F0912F050E94B3
:2014C00063140E941D160E944A16E02131F0C39891980E9459140E949A14E0913005F09192
:2014E00031050E9463140E941D160E94E91654F4C3989198A9EAB5E00E94DE110E948A1462
:201500000E949A144FC0E830A0E0FA07C9F40E94A1140E943713E02131F0AB98AA9A0E9488
:2015200059140E9473140E94A1140E943213E02131F0AB98AA9A0E9459140E94731432C004
:20154000E930A0E0FA07A1F40E946314A630E0E0BE07E0E08E07E0E09E074CF0C7980E94F1
:201560005914E8E1F5E0AAE0B0E0A083B1831AC0EA30A0E0FA07B1F4E0918F05F0919005BA
:20158000E0939105F09392050E945914E8E1F5E00E945214E5E0F0E0EC15FD0519F4E6E008
:2015A000F0E06F01F8010EC30E949611E0911A05F0911B05309781F4E0E0E0935205E0936E
:2015C0005305E0935405E09355050E94AA140E941F140E94E41136C1E130A0E0FA0729F4A8
:2015E0000E94AA140E9435142DC1E230A0E0FA0769F40E94B6140E9482143CF0A898C19A57
:20160000C09A0E94AA140E943A141CC1E330A0E0FA07F1F5A0919105B09192050E9437133E
:201620000E2E0E9462130E9432130E22A091A105B091A2050E9432130E22A091AB05B09148
:20164000AC050E943713E021E1F40E94940224D8E1E0F0E0E093A105F093A205CF9917C0D0
:20166000A091AB05B091AC050E944912D601E7E0F0E00E943816E02121F0ADEAB5E00E945C
:20168000DE11EAE1F5E00E9448140E94BF14DAC0E430A0E0FA0761F413D8E0E0E093A10500
:2016A000E093A205C59A0E94AA140E944D14CAC0E530A0E0FA0711F00C94A30B0E94B61473
:2016C000E9E1F0E060E070E00E9452160E2EA0E0CD99A1E0E1E00E9427160E22A0E0C59985
:2016E000A1E0E1E00E942716E02139F0C69A0E94AA14A6E0B0E0A083B1830E94B614E2E341
:20170000F0E060E070E00E9452160E2E0E944C13E02139F00E94BF140E9494020E9438036E
:20172000C598A0E0C599A1E0E0E00E9427160E9453130E94581331F00E946003EAE1F5E073
:201740000E9448147FC0E630A0E0FA0791F40E94B614AA31E0E0BE07E0E08E07E0E09E07AA
:201760003CF0C29A0E94AA14A7E0B0E0A083B18369C0E730A0E0FA07A1F40E94B6140E94AF
:20178000021474F0009B05C0ABEBB5E00E94DE113197C0980E94AA14A8E0B0E0A083B183C4
:2017A00051C0E830A0E0FA0769F40E94B6140E9402143CF0C5980E94AA14A9E0B0E0A083D9
:2017C000B18340C0E930A0E0FA0769F40E94B6140E947A143CF0C2980E94AA14AAE0B0E042
:2017E000A083B1832FC0EA30A0E0FA0769F40E94B6140E947A143CF0C1980E94AA14ABE09F
:20180000B0E0A083B1831EC0EB30A0E0FA07D1F40E94B6140E940A14ACF00E94AA140E94D8
:201820005214A2E3B5E0ED91FD913197FE93EE93E7E0F0E0EC15FD0529F4E8E0F0E06F0183
:201840000E94C914F801BEC10E94E3140E9449120E94E814E02129F05ADCE0930005F09312
:2018600001050E94EE140E94F3140E94F9140E940115E02129F012DDE0930205F0930305A0
:201880000E9406150E94F3140E94F9140E940B150E940115E02129F068DDE0930405F0935B
:2018A0000505E0910605F09107050E94F3140E94F9140E940B15D601E5E0F0E00E943216A5
:2018C0000E945D130E9432160E220E940115E02129F06ADEE0930605F09307050895AA244A
:2018E000BB240E941C150E94C91408950E9496110E9423150E2ED6010E943C13E02199F069
:201900000E9496130E9425150E9434150E9439150E943F15E02139F00E9445150E9453159F
:20192000E3E0F0E06F010E9423150E2E0E94EE140E945915D601E4E0F0E00E942C16E0218A
:20194000A9F00E9496130E9425150E9434150E9439150E943F15E02149F00E9445150E941E
:201960005F15E5E0F0E06F010E9453150E9423150E2E0E94EE140E9459150E940615A1E0DC
:20198000B0E00E942C160E945D130E942C16E021B9F00E9496130E9425150E9434150E947F
:2019A00039150E943F15E02159F00E9445150E945F150E9466150E945315E7E0F0E06F0159
:2019C0000E9423150E2E0E94EE140E9459150E9406150E945915E0910605F09107050E94C5
:2019E00059150E944113E02111F40C94E20D0E949613F8DA0E949B1358DB0E94C6130E9431
:201A00005102E0938B05F0938C05D5010E9437130E2EA0918605E1E00E9427160E220E9430
:201A200034150E9439150E943F15E02111F40C94E20D0E946D150E9473150E94781599F0DC
:201A4000DADAE0938205F09383050E947315D8010E943213E02121F0A6E7B5E00E94DE111E
:201A600001E010E0E8CF0E947F154CF00E948A1534F0E1E0EA93E3E0EA930E94700388D814
:201A80000E947F15B4F00E948A1534F0E1E0EA93E5E0EA930E9470030E946D150E94731524
:201AA0000E948F1531F0D4DAE0938205F0938305F5CFE0E0F0E0FA93EA930E947E03A0915A
:201AC000B905B091BA050E9437130E2EA091BD05B091BE050E943213E021C9F0E0E0E09355
:201AE000B905E093BA05E1E0F0E0E093BD05F093BE050E948E02E4E0F0E00E9467120E9467
:201B00006C12EEEFFFEFE0932805F0932905F60131966F01E8EEF3E0EC15FD051CF4E4E677
:201B2000F0E06F010E944F12E3E0F0E00E9444160E2E0E940115E02141F00E9453150E9401
:201B400096150E9466150E949C150E944F12139744F00E94E1130E945F150E9466150E941E
:201B60009C150E944F12129734F00E94E1130E9466150E949C150E944F120E94E51624F426
:201B80000E94E1130E949C15AADE0E94A315A0919F05B091A0050E942C160E2EA091A305C6
:201BA000B091A4050E943213E02161F00E94D30294980E948E020E947502E0E0E093860556
:201BC000CC24DD24099119910895D601E8E0F0E00E942C160E2ED5010E943213E02119F0DD
:201BE000E1E0F0E05F01D601E9E0F0E00E9438160E2ED5010E943213E02111F40C948C0E5B
:201C0000042C0528A1F40E945412A0915E05B0915F0580916005909161050E94A91521F023
:201C2000AEE6B5E00E94DE11E1E0F0E02F01062C0728A1F40E945412A0916205B0916305EA
:201C400080916405909165050E94A91521F0A0E7B5E00E94DE11E1E0F0E03F01A0E0049973
:201C6000A1E00E949014D4010E9432130E22D601EBE0F0E00E943E16E021C9F00E94AD152B
:201C800021F0A2E7B5E00E94DE110E948A1564F0A8E2B5E00E94DE11A1EBB5E00E94DE118D
:201CA0000E94A3150E94B715E1E0F0E04F01A0E00499A1E00E949014D4010E9432130E2AA3
:201CC0000E947815C9F00E94AD1521F0A2E7B5E00E94DE110E948A1564F0A8E2B5E00E94A2
:201CE000DE11A1EBB5E00E94DE110E94A3150E94B715E1E0F0E04F01D2010E9437130E2E9F
:201D0000D3010E9437130E22D4010E943713E02119F0E1E0F0E05F0108950C2C0D2881F597
:201D2000E0918605E03019F40E94961329C00E948F120E947E030E94C3150E94C9150E9454
:201D400096150E9466150E949C150E94C3150E9460039498E0E0E093BD05E093BE05E09121
:201D60002805F0912905FA93EA93E091B105F091B205FA93EA930E94A604E1E0F0E06F01C7
:201D80000895E0E0EBBBEABBE8BBEFEFE7BBE0E0E5BBEFEFE4BBE0E0E2BBEFEFE1BBE0E004
:201DA000E3B9EFEFE2B9E0E0E0936200E0936100E0936500EFE1E0936400E0E0E0BFE7E000
:201DC000E3BFE0E0E2BFE1BFEFBDEEBDEDBDECBDE7BDE6BDEBBDEABDE9BDE8BDE0937900E9
:201DE000E0937800E5BDE4BDE3BDE0938B00E0938A00E0938900E0938800E0938100E093BC
:201E00008000E0938700E0938600E0938500E0938400E0938300E0938200E0936A00EABFEF
:201E2000E9BFE1E0E7BFE0E0E0937D00EBB9E8E1EAB9E6E0E0939500E0E0E0939000E7E675
:201E4000E9B9E0E0E0939B00E8E1E0939A00E6E0E0939D00E0E0E0939800E7E6E0939900C2
:201E6000E0E8E8B9E0E0E0BDE6B9EDB9E09374007894E0E4FFE10E948B12E0EDF7E00E943B
:201E80008B120E94A3110E94EA11EA93A9D0CC24DD24E0E0E0935605E0935705E09358059E
:201EA000E09359050E941C15AA24BB24E4E6F0E060E070E0E0935A05F0935B0560935C059E
:201EC00070935D050E945315EEE3F0E060E070E0E0936A05F0936B0560936C0570936D05B4
:201EE0000E94CC12ECEDF0E0E0933005F0933105E4E1F0E0E0932E05F0932F05E6E4F0E0CC
:201F0000E0933405F0933505E0E0E0932A05E0932B050E94C3150E94C915E0E0E09384059D
:201F2000E0938505E0939B05E0939C05E0939D05E0939E05E093A105E093A2050E94A013CA
:201F4000E0E0E093A305E093A405E093A705E093A805E093A905E093AA05E093AD05E09370
:201F6000AE050E946E13E093AF05E093B005E0E0E093B105E093B2050E948C110E949412A2
:201F8000E0E0E093BD05E093BE05E0938605E0937805E0937905E0937A05E0937B05E093DF
:201FA0007C05E0937D05E0937E05E0937F05E0938005E09381050E946D150C2C0D2821F427
:201FC0000E9481076F01F9CF0E942A02A6DE3CDCFCDD8CDCF9CFFFCF5F9BFECFECB108955D
:201FE0005D9BFECFE881ECB921960895EA81EA93F7DFA881B9810E94DE11239608952697F5
:202000000E94EE1610E0AC85BD85E0E0F0E0ED93FC93EA89FB893196EA8BFB8B3197E49122
:202020002E2FE03011F40C942C11E12FE03039F4253211F411E002C00E94D8150CC1E13088
:20204000A9F4253219F40E94D81504C112E040E000E02D3211F401E0FEC02B3211F44BE2A7
:20206000FAC0203211F440E2F6C002C0E23039F450E013E0203311F40068EDC004C0E3300F
:2020800011F00C942B11203310F02A3308F007C0AAE05A9F502DE22FE0535E0FDCC0E22F96
:2020A000E33649F40E94E115E889F989A481AA930E94E715CFC0E33741F40E94E1150E9427
:2020C000EF150E945B111E2F0AC0E03761F40E94E1150E94EF150E9465111E2F08600260FE
:2020E0000F7730E035C0E43611F0E93611F4046002C0E53731F4ECE8F0E0EE83FF8315E023
:202100000DC0E83511F4086004C0E83711F00C942A11E6E9F0E0EE83FF8314E002FF14C04E
:202120000E94E1150E94F915AB85AA233AF4EA85FB850E941116EA87FB874DE2403011F0E1
:202140001F5F01C00B7F04C00E94E1150E94F91500FD11C0151778F407FF08C002FF04C0B1
:202160000B7F242F115001C020E301C020E20E94D8155150EFCF312F01FF17C03030A1F084
:2021800003FF06C0EE81FF812591EE83FF8305C0AE81BF812D91AE83BF830E94D81550306B
:2021A00009F051503150EACF4BC020E3EE81FF810E94E116E887F987EE81FF813296EE839E
:2021C000FF83E885F985AA85BB85AE17BF0750F02F5FA885B985EA85FB85EA1BFB0BEA87F4
:2021E000FB87EFCF2A3328F003FF02C0295F01C0295D04FD1AC0213320F4A885B985119741
:2022000009F409C0531710F000FF01C013C020E207FF0BC020E3006102FF07C00B7F4A9395
:202220000E94E715503009F051500E94D815503009F051503150A885B985129708F0B5CF2C
:2022400000FF08C0503031F05150E0E2EA930E94E715F8CF10E0DDCEAC85BD850E94D31638
:202260000E94F51664960895FF92F82E26971A930A93DE0114960E940D168D01E0E0EC8351
:20228000ED83EE83EF83DE0118960E940D160E94D316FA93EA931A930A93E6EFFFE0FA9379
:2022A000EA93FE013896FA93EA93A9DE198108812896FF900895A991B991EE27FF276D9179
:2022C000662311F03196FBCF0895AA27BB27E991F9910590002011F01196FBCFFD010895CD
:2022E0000E94D716EF5FFF4F6F4F7F4F0E94DC160895E1E00E9427160E2E0895A0E0C9999B
:20230000A1E0E0E00E9427160895E0EAF6E861E070E00E9452160895E0E0E093B305E093C2
:20232000B405E093B505E093B60508951A930A9300E010E00895E0EDF7E0FA93EA930E94E5
:20234000011694980895EAE5EA930E94F00FE5EAEA930C94F00FE5E0EA930E94F00FE2E818
:20236000EA930E94F00FE0E0EA930C94F00FE0E3EA930C94F00FE0E0EA930C94F00FE4E0E4
:20238000EA930E94F00FE3E8EA930E94F00FF3CFE1E0EA930E94F00F0E94EC0F0E94EC0F5B
:2023A0000E94EC0F0E94EC0F0E94EC0F0E94EC0F0E94EC0F0E94EC0F0C94EC0FED91FD91C8
:2023C0003196FE93EE930895E0E0E0938D05E0938E050895E3E0EA930E94F00FE0E8EA93F9
:2023E0000E94F00FE2E0EA930E94F00FE0E10895E3E2EA930E94F00FE2E8EA930E94F00F33
:20240000BACFE0E9EA930C94F00FEEE9F0E0FA93EA9380E00E943411229695CFEA930E941B
:20242000F00FE2E8EA930E94F00FA5CFFA93EA9380E00E94341122960895EA930E94E40197
:202440000E94D2010E2F11270895E0E4EA930C94F00FE4E0EA930E94F00FE3E8EA930E9449
:20246000F00FE0E1EA930C94F00FE0E1EA930C94F00F2E2F3327022E032A0895EA930E94D3
:20248000F00F86CFAE81BF81E1E0F0E00E942C160895E0E0F0E00E942C160E2E0895A091E9
:2024A0003205B09133050895E0915605F091570560915805709159050895E1E0EA930C94FE
:2024C000F00F0E94EC0F0E94EC0F0C94EC0FE0933205F09333050895E0913205F0913305C5
:2024E000E0939F05F093A0050895EA930E94F00F2ACFE0E5EA930E94F00F3DCFEA930E94DB
:20250000F00F39CFE5E0EA930E94F00FE2E8EA930E94F00FAACFFA93EA930C940116E1E0EE
:20252000F0E0FA93EA930895E0E0E093B705E093B8050895E0E9F1E0EECFE1E0F0E0E0930D
:202540009905F0939A050895E2E0F0E0E0939905F0939A0508950E946003E3E0F0E0E093B1
:202560009905F0939A051E980895E0939705F09398050895E4E0F0E0E0939905F0939A05B5
:202580000895A0919705B09198050895E0E0E0939905E0939A050895E0E0E0939705E09394
:2025A0009805F4CFE1E0F0E0E093B705F093B805AFEAB5E003CFE091AD05F091AE05FA93D7
:2025C000EA93E091A905F091AA05FA93EA93E091AF05F091B005FA93EA93E091BB05F0910E
:2025E000BC05FA93EA93E0917405F0917505FA93EA93E0917605F0917705FA93EA930C948E
:202600001105E8EEF3E087CFE0E0EA87EB87EC87ED870895E0E0EE83EF83E887E98708955F
:20262000E5E0F0E0E0939905F0939A050895D801E1E0F0E00E942C160E2EE2E0F0E00E9477
:202640002C160E2AE3E0F0E00E942C160E2AE4E0F0E00E942C1608950E2AA0919905B091F4
:202660009A050895E0E0F0E00E942C160895E1E0F0E00E942C160895E2E0F0E00E942C1685
:202680000895D601E8E0F0E00E9438160895AE81BF81888599850895A0E0CD99A1E0E0E043
:2026A0000E94271608950E2EA0E0CF99A1E00895E0E00E942716E02108950E22D601E6E052
:2026C000F0E00895A0919505B09196050895E1E0F0E0E093A705F093A8050895E0E0E09399
:2026E000AB05E093AC050895E0933A05E0933B05E0933C05E0933D050895A0E00799A1E05D
:20270000E0E00E9427160E2E0895AA85BB858C859D85A93EE3E0BE07E0E08E07E0E09E0776
:202720000895AA981A9AE8EBFBE0F5CE0E947F02E09386050895E0937E05F0937F0508953D
:20274000E0E0E093A505E093A6050895E0E0E0938205E0938305E1E0F0E0E0937C05F09324
:202760007D050895E1E0F0E0E017F10708950E946003E0E0E0937C05E0937D050895E1E011
:20278000F0E0E0938205F09383050895E0938005F09381050895E1E0F0E0E0931405F09389
:2027A00015050895E0E0E0933605E0933705E0933805E09339050895E0931405F09315051E
:2027C0000895E1E0F0E0E0932C05F0932D050895A0913605B091370580913805909139053F
:2027E0000895AD33E0E0BE07E0E08E07E0E09E070895EEDFA932E0E0BE07E0E08E07E0E03E
:202800009E070895AF31E0E0BE07E0E08E07E0E09E070895A531E0E0BE07E0E08E07E0E04A
:202820009E070895A230E0E0BE07E0E08E07E0E09E070895E0E058DFE6E1F5E00895A1E0F7
:20284000B0E0A083B1830895A0913A05B0913B0580913C0590913D050895A932E0E0BE0751
:20286000E0E08E07E0E09E070895A2E0B0E0A083B1830895A3E0B0E0A083B1830895E4DF31
:20288000A333E0E0BE07E0E08E07E0E09E070895A4E0B0E0A083B1830895A5E0B0E0A08346
:2028A000B1830895A0E0B0E0A083B18301E010E00895E0E0E0933E05E0933F05E09340058D
:2028C000E09341050895A0913E05B0913F0580914005909141050895E1E0F0E0E0938F05B7
:2028E000F0939005E6CFE8E1F5E0A9E0B0E0A083B1830895AB30E0E0BE07E0E08E07E0E0EB
:202900009E070895A333E0E0BE07E0E08E07E0E09E070895E0E0E0938F05E0939005C9CF5C
:20292000E0E00E9427160E2E0895A0918F05B09190050895E8E1F5E0A8E0B0E0A083B183DA
:202940000895C1DFEAE0F0E060E070E00E9452160E2EEBCFE0E0E0934205E0934305E09368
:202960004405E0934505EAE1F5E00895A0914205B091430580914405909145050895E0E0F1
:20298000E0934205E0934305E0934405E09345050895E0E0E0935E05E0935F05E093600567
:2029A000E0936105E0936205E0936305E0936405E0936505E0936605E0936705E093680533
:2029C000E09369050895A0910005B09101050895D601E0E0F0E00E9432160895E0910205F9
:2029E000F09103050895A0E0B0E00E942C160E2EEFCF0E22D601E1E0F0E00E9432160E2211
:202A00000895A0912C05B0912D0531CEE0910405F09105050895D601E2E0F0E00E94321650
:202A20000E22E3E0F0E00E9432160E22E4E0F0E00E9432160E220895442455246624772468
:202A4000882499240895BFDF12CE0E94F20773DE0E9455089BDE0E945102E0938B05F09313
:202A60008C05A091860545CCA0917E05B0917F05FECD0E22A0918005B0918105F8CD0E2212
:202A8000A0918B05B0918C05F2CD0E94C805E0E0F0E0FA93EA930E947E03E0E0E093000580
:202AA000E09301050895E0E0E0932C05E0932D050895A1E0B0E00E942C160E220895E2E0D6
:202AC000F5E0A0E0B0E0A083B1830895E4E0F5E0A0E0B0E0A083B1830895E0E0E0938205C6
:202AE000E09383050895A0918205B0918305D1CCD601EBE0F0E00E943816E0210895E091AF
:202B00009F05F091A005A0912805B0912905EA17FB070895EAE0F0E0CE16DF060895D601A7
:202B2000EAE0F0E00E943816E0210895E0E0E0930005E0930105C3CFE6E0F5E0A0E0B0E07F
:202B4000A083B1830895E0912805F0912905319708950E9452160E2EE2CFA6DCA0916605BA
:202B6000B09167058091680590916905F2CFFA93EA93E091B105F091B2053197FA93EA939F
:202B80000E94A60418CDE0E0E0932805E09329050895EFEFFFEFE0936E05F0936F05E0934A
:202BA0007005F0937105E0937205F093730508952A93ED85FE85FA93EA93E989FA890995D6
:202BC0000895E889F9893497E88BF98B0895ED85FE85FA93EA93E989FA8909950895A889A6
:202BE000B98914960E94D316EE83FF83FA93EA930895A889B98914960E94D316EA87FB8729
:202C00000895E991F991309639F080EA9FE00197F1F7A8953197C9F708950024AF0DB01DAC
:202C20000895F195E195F0400895F09560957095E195FF4F6F4F7F4F08956F2F660F660B3E
:202C4000762F08958B2F880F880B982F0895EA17E1E009F0EE270895EA17FB07E1E009F0C0
:202C6000EE270895EA17FB07E1E009F4EE270895AE17BF07E1E00CF4EE270895AE17BF07A6
:202C8000E1E00CF0EE270895EA17FB07E1E00CF0EE270895AE17BF0786079707E1E00CF4DC
:202CA000EE270895EA17FB0768077907E1E00CF0EE270895FA9FF02DEB9FF00DEA9FE02D2E
:202CC000F10D08957A9F702D6B9F700DF89F700DE99F700D6A9F602D710DFB9F600D711D5A
:202CE000E89F600D711D8827FA9FF02D610D781FEB9FF00D611D781FEA9FE02DF10D681F31
:202D0000781F08952FD0D6DF0EF48BDF089538D0D9DF0EF48ADF08950024112490E1AA0F77
:202D2000BB1F001C111C0E1A1F0A18F40E0E1F1E01C0A1609A9599F7FD01D001089512D0EB
:202D4000EBDF0EF46EDF0895E894B7FF04C0A095B09511966894F7FD64DFDEDFFD010EF4B6
:202D600060DF0895E894F7FF02C05BDF6894B7FF06C0A095B095119600F8039400FA08954A
:202D8000E89477FF02C051DF689497FF0BC00024A095B095809590951196801D901D00F831
:202DA000039400FA0895ED91FC9111970895ED91FD916D917D9108957E936E93FE93EE93BC
:202DC00008950590F491E02D089500240A160B060895EA17FB076807790708955A934A9347
:182DE0003A932A931A930A9308955D814C813B812A8119810881089598
:00000001FF
