:200000000C94CB010C9400000C9400000C9400000C9400000C9400000C9400000C94000014
:200020000C9400000C9400000C9400000C9400000C9400000C9400000C9400000C940000C0
:200040000C940A020C9400000C9400000C9400000C9400000C9400000C9400000C94000094
:200060000C9400000C9400000C9400000C9400000C9400000C9400000C9400000C94000080
:200080000C9400000C9400000C9400001027E80364000A000100001000011000010020208D
:2000A000202020202020202020202020202020202020202020202020202020202020202040
:2000C00020202020202000496E69636A616C697A756A65206D61737A796E65005779637AAB
:2000E00079737A637A6F6E6F206D61737A796E65004D61737A796E61207A61696E69636A5F
:20010000616C697A6F77616E6100437A656B616D206E612070726574206777696E746F77C5
:20012000616E79005072616361005A616B726563696C656D2077737A7973746B6965207AD2
:200140006164616E652070756368617279004272616B2077796D6167616E65676F206369CF
:20016000736E69656E696120362062617200446F7A6F776E696B206B6C656A7520707265F6
:20018000746F77206E696520676F746F777900446F7A6F776E696B206B6C656A75206E6161
:2001A0006B726574656B206E696520676F746F77790057796C61637A206D61737A796E65F3
:2001C000206920706F637A656B616A2031206D696E757465004F64736C6F6E2069207A7218
:2001E00065736574756A206B757274796E65004D6F6E7465722033206E6965206E6163695E
:20020000736E616C20706564616C6100437A656B616D206E612072756368206C616E63755A
:2002200063686100506F707261772070726574207A2067727A79626B69656D2069206E6138
:200240006369736E696A2067757A696B005573756E2070726574207A6520737A637A656B95
:200260002069206E616369736E696A2067757A696B0057796D69656E206C7562206E616B06
:200280007265632F646F6B7265632067727A7962656B2069206E616369736E696A2067756B
:2002A0007A696B004D6F6E7465722033202D207A64656D6F6E74756A207075636861722018
:2002C0006920706F7477696572647A004D6F6E7465722033202D2077797A776F6C207265C5
:2002E000637A6E696520637A756A6E696B207075636861726100534C415645206E696520CC
:20030000706F7477696572647A696C20706F64616E6961206E616B7265746B6900534C41CB
:200320005645206E696520706F7477696572647A696C207A657A776F6C656E6961206E6192
:2003400020737A637A656B690020202020202020202020202020202020202020202020209A
:20036000202020202020202020202020202020202020202020202020202020003025640064
:200380003A0001002D4E414E00494E4600000100D50582030000F894EE27ECBBF1E0F5BF0E
:2003A000E5BFE0936C00F8E1F1BDE1BD8DE0A2E0BB27ED938A95E9F780E090E1A0E0B1E063
:2003C000ED930197E9F7EEE8F3E085919591009761F0A591B59105901590BF01F00105905C
:2003E0000D920197E1F7FB01F0CF8BBFEFEFEDBFE0E1EEBFC0E0D5E00C943D110E94F21307
:200400000E94F8130E94FE13E0E0E093C505E093C60508956A937A93AA93BA93EA93FA9306
:20042000EFB7EA93A6E3B5E00E940414AAE3B5E00E940414AEE3B5E00E940414A2E4B5E0EA
:200440000E940414AFEBB5E00E940D14A091BF05B091C005DC97D1F40E94F213A1ECB5E0F4
:200460000E940D140E941314DC9781F40E94F813A3ECB5E00E940D140E941814DC9731F40E
:200480000E94FE13A5ECB5E00E940D14E991EFBFF991E991B991A991799169911895C999FD
:2004A000949AA0E09499A1E00E941D140E942214E02121F0A3EBB5E00E9404140E9422146E
:2004C0000E2EA091B305B091B4058091B5059091B6050E942914E02141F00E943014949833
:2004E000E0E0E0938705E093880508951A930A9301E010E0F8011DC00E943A14C99B02C099
:20050000949AFCCF0E943F140431E0E01E075CF4C99B06C0C99B02C0949AFCCF0E943F1445
:200520000F5F1F4FF1CFE4E1F0E0E0938905F0938A050991199108950E9447140E944F1494
:200540000E945B140E945F14E0E0DFC2E0E0E09386050E9447140E9463140E945B140E948D
:200560006C14E0938605F0E008950E9447140E944F140E9482140E945F14E1E0C6C2CE9991
:2005800002C0979801C0979A0895ADE8B5E00E940D140E9486140E9447140E948C14B5C2FC
:2005A0000E9447140E949A140E94A3140E94A714E7E10E94B0140E94A314E7ECF0E092C0BC
:2005C0000E944714EBE10E94B0140E94A314E1EFF0E088C00E944714ECE10E94B0140E94D9
:2005E000A314EAE0F1E07EC00E9447140E949A140E94A3140E94A714E8E00E94B0140E9498
:20060000A314E4E2F1E06EC00E944714EBE10E94B0140E94A314EEEAF0E00E94B8140E941E
:200620004714E6E20E94B0140E94A314EAE2F1E059C00E944714E2E20E94B0140E94A314A2
:20064000EEE4F1E04FC00E944714E5E20E94B0140E94A314E2EBF1E045C00E944714ECE1F8
:200660000E94B0140E94A314E5EDF1E03BC00E944714EFE10E94B0140E94A314EFEEF1E0E3
:2006800031C00E944714EAE10E94B0140E94A314ECE0F2E027C00E944714EBE20E94B0142D
:2006A0000E94A314E4E2F2E01DC00E944714E7E20E94B0140E94A314EDE4F2E013C00E94CF
:2006C0004714E4E30E94B0140E94A314E2E7F2E009C00E944714E5E30E94B0140E94A31451
:2006E000E9E4F3E0FA93EA9380E00E94B613229608950E948C1A40E050E0E0E0E0938605DA
:2007000010E0AE81BF811197C9F50E9447140E9463140E94BF14F0E0E0933405F093350550
:200720000E9447140E94C4140E94D0140E946C140E94D41439F4E1E0F0E0E0939505F093C2
:20074000960505C0E0E0E0939505E09396050E9447140E94C4140E94D9140E946C140E9494
:20076000D41439F4E1E0F0E0E0939305F093940505C0E0E0E0939305E09394050E94471413
:200780000E9463140E94DD14F0E0E0932E05F0932F050E94E2141E2EAE81BF810E94E9148E
:2007A0000E94EF14E4E0F0E00E94DD19E021E12969F10E9447140E9463140E9482140E9413
:2007C0006C140E94D41439F4E1E0F0E0E093B905F093BA0505C0E0E0E093B905E093BA05F6
:2007E000E0916A05F0916B0560916C0570916D05A7E0B0E080E090E00E94201AE0935605C2
:20080000F09357056093580570935905E0919B05F0919C05309771F4E1E0F0E0E0939B0545
:20082000F0939C05E0915605F0915705E0939D05F0939E050E94F414A0919D05B0919E054F
:200840000E94BB190E94871A29F0E0E0E0939B05E0939C05D6010E94E9140E94E214E021D0
:2008600051F10E9447140E9463140E94FD140E9401150E9405150E9405150E946E120E9479
:200880006E124E2F55270E946E12F0E00E940B150024041605066CF4FA01AFEFB0E00E94B7
:2008A0001B1A0E94EF14EA0FFB1FE40FF51F0E940B150E941015AE81BF811197B9F40E9455
:2008C00047140E9419150E945B140E946C140E94D41439F4E1E0F0E0E093CD05F093CE05D7
:2008E00005C0E0E0E093CD05E093CE050E9447140E9419150E94BF14F0E0E093CF05F0930C
:20090000D0050E9447140E9419150E94DD14F0E0E093D305F093D405E091CD05F091CE0594
:20092000309719F4E3E0F0E08EC00E942215E2E3F0E00E94C519E02121F0E1E1F0E00E94CE
:2009400030150E942215E7E3F0E00E94C519E02121F0E2E1F0E00E9430150E942215ECE32B
:20096000F0E00E94C519E02121F0E3E1F0E00E9430150E942215E1E4F0E00E94C519E021AB
:2009800021F0E4E1F0E00E9430150E942215E6E4F0E00E94C519E02121F0E5E1F0E00E948D
:2009A00030150E942215EBE4F0E00E94C519E02121F0E6E1F0E00E9430150E943515E2E3B9
:2009C000F0E00E94C519E02121F0EBE0F0E00E9430150E943515E7E3F0E00E94C519E0212C
:2009E00021F0ECE0F0E00E9430150E943515ECE3F0E00E94C519E02121F0EDE0F0E00E9407
:200A000030150E943515E1E4F0E00E94C519E02121F0EEE0F0E00E9430150E943515E6E443
:200A2000F0E00E94C519E02121F0EFE0F0E00E9430150E943515EBE4F0E00E94C519E021C2
:200A400031F0E0E1F0E0E093D105F093D2050E94931AAAC00E9447140E944F140E9443158C
:200A6000E09134050E9448150E944F140E944C15E0912E050E9448150E944F140E948214E5
:200A80000E945F140E9401150E9447140E944F140E94FD140E945F14E5E00E9448150E9459
:200AA00051150E94D0140E945F140E9401150E9447140E9451150E94D9140E945F140E9432
:200AC00001150E9447140E945115E0E8EA930E9472120E945F140E9401150E9447140E9424
:200AE0005A150E945B140E945F140E9401150E9447140E945A150E944315E2E00E944815E0
:200B00000E945A150E944C15E2E3EA930E94721208950E948E1A0E9463155CF00E946915EC
:200B20000E94381A8F010E9469150E943D1A9F0102C00E946E150E9447140E944F14E0E8C7
:200B40000E9473150E9463151CF00E94791506C0AF81AA2312F0EE8101C0E0E0EA930E9441
:200B600072120E947E155CF00E9484150E94381A8F010E9484150E943D1A9F0102C00E9479
:200B80006E150E9447140E945115E0E40E9473150E947E151CF00E94791501C0EC81EA93C3
:200BA0000E9472120E94951A289608950E9447140E9489150E94D0140E9413141A971CF416
:200BC000ECE7F3E002C0EDE7F3E0FA93EA930E9492150E949F150E9418141A971CF4ECE7FB
:200BE000F3E002C0EDE7F3E0FA93EA930E94A2150E949F15A091C505B091C6051A971CF438
:200C0000ECE7F3E002C0EDE7F3E0FA93EA930E94AF1508950E9447140E9489150E945F1466
:200C20000E9413141A971CF4ECE7F3E002C0EDE7F3E0FA93EA930E9492150E949F150E94D0
:200C400018141A971CF4ECE7F3E002C0EDE7F3E0FA93EA930E94A2150E949F15A091C505E4
:200C6000B091C6051A971CF4ECE7F3E002C0EDE7F3E0FA93EA930E94AF1508950E9447148E
:200C8000EBE0EA930E947212E2E8EA930E9472120E94D0140E94A314E091C105F091C2051B
:200CA0000E94BC15EA0FFB1FE093C705F093C8050E94BC15DD976CF0E091C705F091C80551
:200CC000FC97E093C705F093C805A9ECB5E00E940D14E091C305F091C4050E94C115EA0F11
:200CE000FB1FE093C905F093CA050E94C115DD976CF0E091C905F091CA05FC97E093C9059C
:200D0000F093CA05ABECB5E00E940D14E091C505F091C6050E94C615EA0FFB1FE093CB0538
:200D2000F093CC050E94C615DD9774F0E091CB05F091CC05FC97E093CB05F093CC05E0E08D
:200D4000E093CB05E093CC050E94BC151A971CF4ECE7F3E002C0EDE7F3E0FA93EA93E0914E
:200D6000C705F091C8050E94CB150E949F150E94C1151A971CF4ECE7F3E002C0EDE7F3E039
:200D8000FA93EA93E091C905F091CA050E94CB150E949F150E94C6151A971CF4ECE7F3E0FE
:200DA00002C0EDE7F3E0FA93EA93E091CB05F091CC050E94CB1508950E948E1A0E944714C7
:200DC0000E944F140E94D0140E945F14EE850E9448150E944F140E94D9140E945F14EC85E7
:200DE0000E9448150E9451150E945B140E945F14EA850E9448150E9451150E944C15E885E0
:200E0000EA930E9472120E9463155CF00E9469150E94381A8F010E9469150E943D1A9F016C
:200E200002C00E946E150E9447140E9451150E9482140A930E9472120E9463151CF00E9403
:200E4000791506C0AF81AA2312F0EE8101C0E0E0EA930E9472120E947E155CF00E948415F0
:200E60000E94381A8F010E9484150E943D1A9F0102C00E946E150E9447140E9451150E948C
:200E8000FD140A930E9472120E947E151CF00E94791506C0AD81AA2312F0EC8101C0E0E05C
:200EA000EA930E9472120E94951A60960895959A0895E0E00799E1E0E03011F00C94B7074F
:200EC000E0919905F0919A05309749F402DC0E94D4151D9A0E94DA150E94E01547C0E1307F
:200EE000A0E0FA0731F41D980E94DA150E94E7153DC0E230A0E0FA0741F41E9A069903C089
:200F00000E94EE1501C0BDDB31C0E330A0E0FA07D1F4069B17C0DDDBA0919705B0919805AE
:200F2000129721F4E3E0F0E00E94F815E0919705F0919805309721F4E2E0F0E00E94F81569
:200F40000E94FD1513C0E430A0E0FA0779F40E940416129729F40E94DA150E94E71506C091
:200F6000E1E0F0E00E94F8150E94091613C0E13089F473DB1D981E980E940F16E091B70562
:200F8000F091B805309711F40E9415160E941E160E944416E0919705F09198050895289721
:200FA0000E948C1A20E030E040E050E00E9486140E944A160E94501601E010E00E940916B1
:200FC000E8E0F0E0CE16DF061CF00E94091602C00E9456160E945D160E9472160E947816A4
:200FE0000E9472160E947D160E9472160E9482160E947216E3E0F0E00E94C5190E947216C7
:20100000E4E0F0E00E94C519E02911F40C9490090E945D16E02911F40C94D508F801E130CB
:20102000A0E0FA0769F5DA010E947D160E2E0E9487160E220E948D16E0E2FEE460E070E09D
:201040000E94EB19E0211E2ED601E8E0F0E00E94D7190E2E0E948D16E8EBFBE060E070E0DD
:201060000E94EB19E021E12951F0E8E0F0E0CE16DF060CF4C59A02E010E00E94501695C08F
:20108000E230A0E0FA07D9F50E9492160E2ED601E8E0F0E00E94D719E0211E2EA0E0CD9935
:2010A000A1E00E941D140E948716E021E12911F0C59820C00E948D160E9429140E949916DF
:2010C0000E949E1659F061DAF0DAC598E1EAF6E861E070E0EE83FF83688779870E948D16AE
:2010E0000E9429140E9499160E94A31639F0F1DA0E945016C298C69803E010E056C0E330B5
:20110000A0E0FA0711F00C94C408A091A705B091A805119711F5A0913405B0913505E6E4B9
:20112000F0E00E94D7190E2E0E94EF14E1E0F0E00E94DD190E94A8160E94D1190E220E9485
:20114000AD160E947816E02109F01B9AC798909AE0E0E093A705E093A805A0E0CC99A1E0FF
:201160000E941D14A091A705B091A8050E947816E02149F0909A0E94B2160E94B9160E94C0
:20118000BF1604E010E011C0E430A0E0FA0769F4029906C0E1E0F0E0E093AB05F093AC059A
:2011A000CC9903C0909805E010E0E0E00799E1E0E03011F00C946809E0919905F0919A0598
:2011C000309719F50E94C816A0E00399A1E00E94A31649F00E94D4157CDA1D9A0E944A16EF
:2011E0000E94E01511C0A0E00399A1E00E941D14D9010E947816E02131F0A4E7B5E00E9429
:201200000D1421E030E063C062C0E130A0E0FA0799F40E94C816A0E0C199A1E00E94A31602
:2012200049F00E94D0162CF01D980E94E7150E944A1601C04CC04BC0E230A0E0FA07B1F46C
:20124000079911C00E94D0166CF01E9A069909C041E050E00E9450160E94EE150E944A1619
:2012600001C00FDA02C0C19832C031C0E330A0E0FA07B1F4069B13C02CDA1E98AA85BB85EE
:201280008C859D85A137E7E1BE07E0E08E07E0E09E071CF00E94FD1502C00E94091617C0E2
:2012A000E430A0E0FA0799F40E9456160E94DC160E2E0E94E2160E947816E02109F0929A3E
:2012C0000E94E7160E94EE16E02109F0929A13C0E13089F4FED9C1D91D981E9892980E949A
:2012E00009160E944A16E091B705F091B805309711F40E941516EA85FB856C857D850E9445
:20130000F016EA87FB876C877D87EE81FF81688579850E94F016EE83FF83688779875ACE51
:201320000E94931A2E9608950E948E1A0E946E15969A0E94F516EC81FD810E171F07E4F4A3
:20134000019B03C0939A21E030E0A0E00199A1E00E94FB16D9010E947D16E02119F093985E
:2013600022E030E0E2E0F0E0E217F30721F40F5F1F4F23E030E0DFCF0E94F51696980E94A7
:20138000951A2696089566DBC89902C052D9FCCFA0D98DDD9ED904D99CD9CC9B02C0909AEC
:2013A000FCCF0E94B2169098AB98A998AA9A1A98C798A2D88ED904D9E0918605E030E9F450
:2013C0000E940017A0919305B0919405119791F40E9444160E940617A99AE8EBFBE00E9436
:2013E0000E17AA9A1A980E9412170E940617A9982AD9FFCF0E941517DFCFE0E0E0938605FC
:20140000CEDDAD9A0E944416AD98C9DD0E944416C6DD0E944416C3DD0E940F160E94041635
:201420000E94E9140E9404160E9482160E2A0E940416E3E0F0E00E94C519E02921F039DDE0
:201440000E94F815EBCFE0E0E0939705E09398050E9444160E9400170E94E216119711F448
:201460000E941A17E1E0F0E00895E1E0F0E00E942217E0917E05F0917F0508951A930A931F
:201480001F9A019903C001E010E002C000E010E0002E012AA9F4A091A505B091A60515976A
:2014A00019F4E5D80E942717A5EAB5E00E940D140E942D17E1E0F0E0E0937C05F0937D052B
:2014C000E1E0F0E0E017F107A1F40E942717A0917C05B0917D05119731F4FBD8E0E0E093CF
:2014E0007C05E0937D05E1E0F0E00E9433171F989298E0918205F091830509911991089536
:201500000E943A14E0911405F0911505309729F40E9438170E94FE01DAC0E130A0E0FA0714
:20152000D9F4AF9A0E943F170E94431799F0E0E0E0934605E0934705E0934805E09349055A
:201540000E944717E2E0F0E00E9451170E9456174BD801C03FD8BBC0E230A0E0FA0769F47A
:201560000E945D170E9466173CF0AF980E944717E3E0F0E00E945117AAC0E330A0E0FA0728
:2015800059F40E946E173CF0AE9A0E944717E4E0F0E00E9451179BC0E430A0E0FA0761F480
:2015A0000E946E1744F0AE98C49A0E944717E5E0F0E00E9451178BC0E530A0E0FA0769F44F
:2015C0000E945D170E9466173CF0C4980E944717E6E0F0E00E9451177AC0E630A0E0FA07DD
:2015E00099F50E943F17A0E0CB99A1E00E949E1621F00E9438170E947717A0E0CA99A1E014
:201600000E941D140E94431721F00E9438170E9477170E943F170E94431731F0E3E0F0E021
:201620000E9451170E947717A0E0CA99A1E00E941D14A0E0CB99A1E00E949E1621F0E7E0A6
:20164000F0E00E94511743C0E730A0E0FA0759F40E946E173CF0AD9A0E944717E8E0F0E096
:201660000E94511734C0E830A0E0FA0761F40E946E1744F0AD98C49A0E944717E9E0F0E0E7
:201680000E94511724C0E930A0E0FA0759F40E945D170E9484172CF0C498EAE0F0E00E946E
:2016A000511715C0EA30A0E0FA0789F40E944717E0E0E0931405E093150501E010E0E1E06A
:2016C000F0E0EC15FD0519F4E2E0F0E06F01F4C20E943A14E0911605F0911705309771F42D
:2016E000E0E0E0934A05E0934B05E0934C05E0934D050E948C170E94911756C0E130A0E0E6
:20170000FA07B1F40E9496170E9466170CF0AC9A0E949617AD33E0E0BE07E0E08E07E0E0AA
:201720009E072CF01C9A0E948C170E949F173CC0E230A0E0FA0759F40E9496170E94A4170D
:201740002CF01C980E948C170E94AC172DC0E330A0E0FA0759F40E9496170E9484172CF099
:20176000AC980E948C170E94B1171EC0E430A0E0FA0751F40E9496170E94841724F0E6E157
:20178000F5E00E94B61710C0E530A0E0FA0761F40E948C170E94BB17E3E0F0E0EC15FD05FB
:2017A00019F4E4E0F0E06F0187C20E943A14E0911805F0911905309791F4E0E0E0934E05E0
:2017C000E0934F05E0935005E09351050E94C217C398AA98E8E1F5E00E94911713C1E130CC
:2017E000A0E0FA0791F40E94CC17A230E0E0BE07E0E08E07E0E09E073CF01A9A0E94C217F2
:20180000E8E1F5E00E949F17FDC0E230A0E0FA07B1F40E94AD16119721F40E94D5170E948B
:20182000DC170E94CC170E94E31744F0A99AC79A0E94C217E8E1F5E00E94AC17E3C0E33088
:20184000A0E0FA07A1F40E94CC170E94841774F0A998A9E8B5E0ED91FD913197FE93EE93FF
:201860000E94C217E8E1F5E00E94B117CBC0E430A0E0FA0739F40E94C217E8E1F5E00E94DD
:20188000B617C0C0E530A0E0FA0781F40E94CC170E94EB1754F0C39A1A980E94F317E8E1FF
:2018A000F5E0A6E0B0E0A083B183ACC0E630A0E0FA0781F40E94CC170E94661754F0919A5B
:2018C000AB9A0E94C217E8E1F5E0A7E0B0E0A083B18398C0E730A0E0FA07C1F5A0E0059978
:2018E000A1E00E94FB160E94F9170E947816E02111F00E94D5170E94FE170E2EE0912E05AB
:20190000F0912F050E94CC170E94B6190E94E319E02131F0C39891980E94C2170E940018A3
:20192000E0913005F09131050E94CC170E94B6190E94871A54F4C3989198A9EAB5E00E947B
:201940000D140E94F3170E9400185CC0E830A0E0FA0759F50E9407180E94FE17E02109F08B
:20196000AA9A0E9407180E94F9170E947816E02109F0AA9A0E9410180E94FE17E02131F09F
:20198000AB98AA9A0E94C2170E94DC170E9410180E94F9170E947816E02131F0AB98AA9A5B
:2019A0000E94C2170E94DC172DC0E930A0E0FA0779F40E94CC170E94A4174CF0C7980E9404
:2019C000C217E8E1F5E0AAE0B0E0A083B1831AC0EA30A0E0FA07B1F4E0918F05F0919005EA
:2019E000E0939105F09392050E94C217E8E1F5E00E94BB17E5E0F0E0EC15FD0519F4E6E0CC
:201A0000F0E06F0159C10E943A14E0911A05F0911B05309781F4E0E0E0935205E0935305BA
:201A2000E0935405E09355050E9419180E9491170E94861441C1E130A0E0FA0729F40E9461
:201A400019180E949F1738C1E230A0E0FA07B1F40E9425180E94841784F0A0913405B09191
:201A60003505A634E0E0BE070CF41B98A898C19AC09A0E9419180E94AC171EC1E330A0E07B
:201A8000FA0711F00C94830DA0919105B09192050E947D160E2E0E94AD160E9478160E223F
:201AA000A091A105B091A2050E9478160E22A091AB05B091AC050E947D16E021E9F40E947F
:201AC000C5020E945F03E1E0F0E0E093A105F093A205CF9917C0A091AB05B091AC050E94B3
:201AE000E914D601E7E0F0E00E94D119E02121F0ADEAB5E00E940D14EAE1F5E00E94B117E4
:201B00000E942E18D9C0E430A0E0FA0769F40E946903E0E0E093A105E093A205C59A0E9450
:201B200019180E94B617C8C0E530A0E0FA0711F00C94DD0D0E942518E9E1F0E060E070E053
:201B40000E94EB190E2EA0E0CD99A1E0E1E00E94C0190E22A0E0C599A1E00E949E1639F0F2
:201B6000C69A0E941918A6E0B0E0A083B1830E942518E2E3F0E060E070E00E94EB190E2EDF
:201B80000E949216E02139F00E942E180E94C5020E944B03C598A0E0C599A1E0E0E00E9472
:201BA000C0190E9499160E94A31631F00E946903EAE1F5E00E94B1177FC0E630A0E0FA0791
:201BC00091F40E942518AA31E0E0BE07E0E08E07E0E09E073CF0C29A0E941918A7E0B0E015
:201BE000A083B18369C0E730A0E0FA07A1F40E9425180E94A41774F0009B05C0ABEBB5E00D
:201C00000E940D143197C0980E941918A8E0B0E0A083B18351C0E830A0E0FA0769F40E94F6
:201C200025180E94A4173CF0C5980E941918A9E0B0E0A083B18340C0E930A0E0FA0769F447
:201C40000E9425180E94E3173CF0C2980E941918AAE0B0E0A083B1832FC0EA30A0E0FA07B5
:201C600069F40E9425180E94E3173CF0C1980E941918ABE0B0E0A083B1831EC0EB30A0E049
:201C8000FA07D1F40E9425180E94EB17ACF00E9419180E94BB17A2E3B5E0ED91FD9131972A
:201CA000FE93EE93E7E0F0E0EC15FD0529F4E8E0F0E06F010E943818F80109911991089587
:201CC0000E9452180E94E9140E945718E02129F017DCE0930005F09301050E945D180E9481
:201CE00062180E9468180E947018E02129F0F0DCE0930205F09303050E9475180E946218E8
:201D00000E9468180E947A180E947018E02129F04CDDE0930405F0930505E0910605F091FA
:201D200007050E9462180E9468180E947A18D601E5E0F0E00E94CB190E94A8160E94CB194D
:201D40000E220E947018E02129F05DDEE0930605F09307050895AA24BB240E948B180E9496
:201D600038180E94D6050E94FE01089524971A930A930E94921800E010E00E9498180E2EA9
:201D8000D6010E948216E02199F00E9415170E949A180E94AC180E94B1180E94B718E02143
:201DA00039F00E94BD180E94CD18E3E0F0E06F010E9498180E2E0E945D180E94D518D601EE
:201DC000E4E0F0E00E94C519E021B9F00E9415170E949A180E94AC180E94B1180E94B718E1
:201DE000E02159F00E94BD180E94DB180E94FE01E5E0F0E06F010E94E2180E9498180E2EBD
:201E00000E945D180E94D5180E947518A1E0B0E00E94C5190E94A8160E94C519E021B9F0D2
:201E20000E9415170E949A180E94AC180E94B1180E94B718E02159F00E94BD180E94DB18E8
:201E40000E94E8180E94CD18E7E0F0E06F010E9498180E2E0E945D180E94D5180E947518EF
:201E60000E94D518E0910605F09107050E94D5180E948716E02111F40C9431100E94151747
:201E8000F4DA0E942217E1E0F0E0E0938005F09381050E947602E0938B05F0938C05D50100
:201EA0000E947D160E2EA0918605E1E00E94C0190E220E94AC180E94B1180E94B718E02146
:201EC00011F40C9431100E942D170E9492180E94EF180E94F418E021C9F00E94FC1819F416
:201EE000CDDA0E9433170E94111914F00E9492180E94EF18D8010E947816E02131F0A6E7D2
:201F0000B5E00E940D1401E010E0E1CF0E94EF180E94DC160E220E94EE16E02161F00E94E1
:201F2000FC1819F4ABDA0E9433170E94111914F00E949218EBCF33D8E0E0F0E0FA93EA9394
:201F40000E947903A091B905B091BA050E947D160E2EA091BD05B091BE050E947816E021DB
:201F6000C9F0E0E0E093B905E093BA05E1E0F0E0E093BD05F093BE050E94B502E4E0F0E08C
:201F80000E940B150E941015EEEFFFEFE0932805F0932905F60131966F01E8EEF3E0EC15C4
:201FA000FD051CF4E4E6F0E06F010E94EF14E3E0F0E00E94DD190E2E0E947018E02141F09D
:201FC0000E94E2180E941D190E94E8180E9423190E94EF14139744F00E9456170E94DB18E6
:201FE0000E94E8180E9423190E94EF14129734F00E9456170E94E8180E9423190E94EF14BB
:202000000E94831A24F40E9456170E942319A3DE0E942A19A0919F05B091A0050E94C519DB
:202020000E2EA091A305B091A4050E947816E021C1F00E9404030E94F2130E94F8130E9420
:20204000FE13E0E0E093C505E093C605949892980E94B5020E949C02E0E0E0938605CC2497
:20206000DD241981088126960895D601E8E0F0E00E94C5190E2ED5010E947816E02119F0A8
:20208000E1E0F0E05F010E94E716D5010E947816E02111F40C940411042C0528A9F40E9453
:2020A000F414A0915E05B0915F0580916005909161050E943019E02121F0AEE6B5E00E941A
:2020C0000D14E1E0F0E02F01062C0728A9F40E94F414A0916205B09163058091640590919A
:2020E00065050E943019E02121F0A0E7B5E00E940D14E1E0F0E03F010E943419D4010E9463
:2021000078160E22D601EBE0F0E00E94D7190E220E94E2160E947816E021A1F00E9438197E
:20212000E02111F00E9442190E94451944F00E944A190E944D190E942A190E945019E1E0AE
:20214000F0E04F010E943419D4010E9478160E22D601E9E0F0E00E94C5190E220E94EE1675
:20216000E02119F0E1E0F0E04F010E943419D4010E9478160E2A0E94DC160E220E94EE16DE
:20218000E021A1F00E943819E02111F00E9442190E94451944F00E944A190E944D190E94D8
:2021A0002A190E945019E1E0F0E04F010E943419D4010E9478160E2A0E94F418E021A1F084
:2021C0000E943819E02111F00E9442190E94451944F00E944A190E944D190E942A190E9445
:2021E0005019E1E0F0E04F01D2010E947D160E2ED3010E947D160E22D4010E947D16E0210D
:2022000019F0E1E0F0E05F0108950C2C0D28A1F5E0918605E03029F40E9415170E940A067B
:202220002BC00E9400170E941A170E945C190E9462190E941D190E94E8180E9423190E94F9
:202240005C190E9469039498E0E0E093BD05E093BE05E0912805F0912905FA93EA93E091DC
:20226000B105F091B205FA93EA930E9489050E943E06E1E0F0E06F010895E0E0EBBBEABBA7
:20228000E8BBEFEFE7BBE0E0E5BBEFEFE4BBE0E0E2BBEFEFE1BBE0E0E3B9EFEFE2B9E0E0D2
:2022A000E0936200E0936100E0936500EFE1E0936400E0E0E0BFE7E0E3BFE0E0E2BFE1BF2D
:2022C000EFBDEEBDEDBDECBDE7BDE6BDEBBDEABDE9BDE8BDE0937900E0937800E5BDE4BD59
:2022E000E3BDE0938B00E0938A00E0938900E0938800E0938100E0938000E0938700E093F8
:202300008600E0938500E0938400E0938300E0938200E0936A00EABFE9BFE1E0E7BFE0E008
:20232000E0937D00EBB9E8E1EAB9E6E0E0939500E0E0E0939000E7E6E9B9E0E0E0939A00D0
:20234000E0E8E8B9E0E0E0BDE6B9EDB9E09374007894E0E4FFE10E940E170E9412170E94A7
:2023600012170E9412170E9447140E948C14EA93B9D0E3E0F0E0FA93EA930E949409CC2458
:20238000DD24E0E0E0935605E0935705E0935805E09359050E948B18AA24BB24E4E6F0E0B2
:2023A00060E070E0E0935A05F0935B0560935C0570935D050E94E218EEE3F0E060E070E052
:2023C000E0936A05F0936B0560936C0570936D050E940F16ECEDF0E0E0933005F09331057E
:2023E000E8E2F0E0E0932E05F0932F05E6E4F0E0E0933405F0933505E0E0E0932A05E0930E
:202400002B050E945C190E946219E0E0E0938405E0938505E0939B05E0939C05E0939D0563
:20242000E0939E05E093A105E093A2050E942717E0E0E093A305E093A405E093A705E093EA
:20244000A805E093A905E093AA05E093AD05E093AE050E94B916E093AF05E093B005E0E0C1
:20246000E093B105E093B2050E9430140E94D415E0E0E093BD05E093BE05E093D105E093B1
:20248000D205E093D305E093D405E0938605E0937805E0937905E0937A05E0937B05E09397
:2024A0007C05E0937D05E0937E05E0937F05E0938005E09381050E942D170C2C0D2821F460
:2024C0000E94C3096F01F9CF0E944F029EDEF8DBCCDD4CDC0E94BF02F7CFFFCF5F9BFECF85
:2024E000ECB108955D9BFECFE881ECB921960895EA81EA93F7DFA881B9810E940D142396DE
:20250000089526970E948C1A10E0AC85BD85E0E0F0E0ED93FC93EA89FB893196EA8BFB8B5E
:202520003197E4912E2FE03011F40C94AE13E12FE03039F4253211F411E002C00E94711903
:202540000CC1E130A9F4253219F40E94711904C112E040E000E02D3211F401E0FEC02B3259
:2025600011F44BE2FAC0203211F440E2F6C002C0E23039F450E013E0203311F40068EDC0AF
:2025800004C0E33011F00C94AD13203310F02A3308F007C0AAE05A9F502DE22FE0535E0FE3
:2025A000DCC0E22FE33649F40E947A19E889F989A481AA930E948019CFC0E33741F40E94D3
:2025C0007A190E9488190E94DD131E2F0AC0E03761F40E947A190E9488190E94E7131E2FAF
:2025E000086002600F7730E035C0E43611F0E93611F4046002C0E53731F4ECE8F0E0EE83CB
:20260000FF8315E00DC0E83511F4086004C0E83711F00C94AC13E6E9F0E0EE83FF8314E023
:2026200002FF14C00E947A190E949219AB85AA233AF4EA85FB850E94AA19EA87FB874DE2A2
:20264000403011F01F5F01C00B7F04C00E947A190E94921900FD11C0151778F407FF08C0C6
:2026600002FF04C00B7F242F115001C020E301C020E20E9471195150EFCF312F01FF17C00E
:202680003030A1F003FF06C0EE81FF812591EE83FF8305C0AE81BF812D91AE83BF830E94E2
:2026A0007119503009F051503150EACF4BC020E3EE81FF810E947A1AE887F987EE81FF812B
:2026C0003296EE83FF83E885F985AA85BB85AE17BF0750F02F5FA885B985EA85FB85EA1B2D
:2026E000FB0BEA87FB87EFCF2A3328F003FF02C0295F01C0295D04FD1AC0213320F4A885AB
:20270000B985119709F409C0531710F000FF01C013C020E207FF0BC020E3006102FF07C011
:202720000B7F4A930E948019503009F051500E947119503009F051503150A885B985129702
:2027400008F0B5CF00FF08C0503031F05150E0E2EA930E948019F8CF10E0DDCEAC85BD85A5
:202760000E946C1A0E94931A64960895FF92F82E26971A930A93DE0114960E94A6198D0115
:20278000E0E0EC83ED83EE83EF83DE0118960E94A6190E946C1AFA93EA931A930A93E8E77E
:2027A000F2E1FA93EA93FE013896FA93EA93A9DE198108812896FF900895A991B991EE2738
:2027C000FF276D91662311F03196FBCF0895AA27BB27E991F9910590002011F01196FBCF3F
:2027E000FD010895E0E0E093BF05E093C0050895E0E0E093C105E093C2050895E0E0E0936F
:20280000C305E093C40508950E94701AEF5FFF4F6F4F7F4F0E94751A0895ED91FD91319622
:20282000FE93EE930895A091C105B091C2050895A091C305B091C4050895E1E00E94C01971
:202840000E2E0895A0E0C999A1E0E0E00E94C0190895E0EAF6E861E070E00E94EB190895E8
:20286000E0E0E093B305E093B405E093B505E093B60508951A930A9300E010E00895E0EDC5
:20288000F7E0FA93EA930E949A1994980895EAE5EA930E947212E5EAEA930C947212E5E092
:2028A000EA930E947212E2E8EA930E947212E0E0EA930C947212E0E3EA930C947212E0E083
:2028C000EA930C947212E4E0EA930E947212E3E8EA930E947212F3CFE1E0EA930E9472125C
:2028E0000E946E120E946E120E946E120E946E120E946E120E946E120E946E120E946E12C8
:202900000C946E12E0E6EA930C947212E0E0E0938D05E0938E050895E3E0EA930E94721262
:20292000E0E8EA930E947212E2E0EA930E947212E0E10895E3E2EA930E947212E2E8EA93BA
:202940000E947212BCCFE0E9EA930C947212EEE9F0E0FA93EA9380E00E94B613229697CFC2
:20296000EA930E947212E2E8EA930E947212A7CFFA93EA9380E00E94B61322960895E0E4E3
:20298000EA930E947212A8CFE4E0EA930E947212E3E8EA930E947212E0E1EA930C947212E6
:2029A000E0E1EA930C9472122E2F3327022E032A0895E0E2EA930C947212E0E5EA930E94BD
:2029C00072128ACFAE81BF81E1E0F0E00E94C5190895E0E0F0E00E94C5190E2E0895A091E3
:2029E0003205B09133050895E0915605F091570560915805709159050895E0E7EA930C94B3
:202A00007212E1E0EA930C9472120E946E120E946E120C946E12E0933205F093330508956A
:202A2000E0913205F0913305E0939F05F093A0050895E4E0EA930E947212E3E8EA930E9408
:202A40007212B7CFA091CF05B091D005E1E0F0E00E94C5190E2EA091D305B091D405089544
:202A6000E093D105F093D2050895A091CF05B091D005E2E0F0E00E94C5190E2EA091D305A4
:202A8000B091D4050895E0E4EA930E94721217CFEA930E947212FBCEE0E5EA930E9472125E
:202AA0000ECFE5E0EA930E947212E2E8EA930E94721276CFE5E0EA930E947212E2E8EA9370
:202AC0000E94721276CFAE81BF81A030E1E0BE070895AE81BF81EFEFF0E0089500E010E09F
:202AE00020E030E00895EA930E9472120A930C947212AFEF0A02F001E20F0895AC81BD8131
:202B0000A030E1E0BE070895AC81BD81EFEFF0E00895EBE0EA930E947212E2E8EA930E94B5
:202B2000721247CFE091C105F091C2050E94B6190E947E1A84E00E94B61326960895E0E8E1
:202B4000F3E016CFE091C305F091C4050E94B6190E947E1A84E00E94B61326960895E091F6
:202B6000C505F091C6050E94B6190E947E1A84E00E94B61326960895A091C705B091C80561
:202B80000895A091C905B091CA050895A091CB05B091CC0508950E94B6190E947E1A84E02D
:202BA0000E94B61326960895E0E0E093B705E093B8050895E0E9F1E0FA93EA930C949A199E
:202BC000E1E0F0E0E0939905F0939A050895E2E0F0E0E0939905F0939A0508950E94690324
:202BE000E3E0F0E0E0939905F0939A051E980895E0939705F09398050895E4E0F0E0E093E9
:202C00009905F0939A050895A0919705B09198050895E0E0E0939905E0939A050895E0E0CF
:202C2000E0939705E0939805F4CFE1E0F0E0E093B705F093B805AFEAB5E0EFCDE091AD05A5
:202C4000F091AE05FA93EA93E091A905F091AA05FA93EA93E091AF05F091B005FA93EA9378
:202C6000E091BB05F091BC05FA93EA93E0917405F0917505FA93EA93E0917605F0917705FF
:202C8000FA93EA930C94DC06E8EEF3E0FA93EA930C949A19E0E0EA87EB87EC87ED8708957B
:202CA000E0E0EE83EF83E887E9870895E5E0F0E0E0939905F0939A050895D801E1E0F0E026
:202CC0000E94C5190E2EE2E0F0E00E94C5190E2AE3E0F0E00E94C5190E2AE4E0F0E00E946D
:202CE000C51908950E2AA0919905B0919A050895E0E0F0E00E94C5190895E1E0F0E00E94F5
:202D0000C5190895E2E0F0E00E94C5190895D601E8E0F0E00E94D1190895AE81BF81888575
:202D200099850895A0E0CD99A1E0E0E00E94C01908950E2EA0E0CF99A1E00895E1E00E94F4
:202D4000C019E0210895E0E00E94C019E02108950E22D601E6E0F0E00895A0919505B091DD
:202D600096050895E1E0F0E0E093A705F093A8050895E0E0E093AB05E093AC050895E09387
:202D80003A05E0933B05E0933C05E0933D050895A0E00799A1E0E0E00E94C0190E2E089586
:202DA000AA85BB858C859D85A93EE3E0BE07E0E08E07E0E09E070895D601EAE0F0E00E9498
:202DC000D1190895A091CD05B091CE050895D601E9E0F0E00E94D1190E2E0895F3DF8DCFB5
:202DE000EF5FFF4F6F4F7F4F0895E4EFF1E0FA93EA930C949A19E0E00E94C0190E2E0895F9
:202E0000E1E0F0E0FA93EA930C947903AA981A9AE8EBFBE0FA93EA930C949A19FA93EA93F0
:202E20000C949A19E0EDF7E0F9CF0E94A602E09386050895E091D105F091D205FA93EA9345
:202E40000C949409E0937E05F0937F050895E0E0E093A505E093A6050895E0E0E093820549
:202E6000E09383050895E0938205F09383050895E1E0F0E0E0931405F09315050895A0E041
:202E8000CA99A1E0B8CFA0E0CB99A1E05CCFE0E0E0933605E0933705E0933805E0933905B9
:202EA0000895E0931405F09315050895E1E0F0E0E0932C05F0932D050895A0913605B0917B
:202EC000370580913805909139050895A932E0E0BE07E0E08E07E0E09E070895EEDFA53112
:202EE000E0E0BE07E0E08E07E0E09E070895E5E1F0E060E070E0E0933605F0933705609370
:202F00003805709339050895A333E0E0BE07E0E08E07E0E09E070895E0E031DFE6E1F5E078
:202F20000895A1E0B0E0A083B1830895A0913A05B0913B0580913C0590913D050895A2E02A
:202F4000B0E0A083B1830895AF31E0E0BE07E0E08E07E0E09E070895A3E0B0E0A083B183C7
:202F60000895A4E0B0E0A083B1830895A5E0B0E0A083B1830895A0E0B0E0A083B18301E05B
:202F800010E00895E0E0E0933E05E0933F05E0934005E09341050895A0913E05B0913F0570
:202FA00080914005909141050895E1E0F0E0E0938F05F0939005E6CFE8E1F5E0A9E0B0E09B
:202FC000A083B1830895AB30E0E0BE07E0E08E07E0E09E070895A531E0E0BE07E0E08E0796
:202FE000E0E09E070895E0E0E0938F05E0939005C9CFA0918F05B09190050895FADF7DCE0C
:20300000E8E1F5E0A8E0B0E0A083B1830895C4DFE0E0F0E060E070E00E94EB190E2E0895C4
:20302000BBDFEAE0F0E060E070E00E94EB190E2E0895E0E0E0934205E0934305E09344055C
:20304000E0934505EAE1F5E00895A0914205B091430580914405909145050895E0E0E093E0
:203060004205E0934305E0934405E09345050895E0E0E0935E05E0935F05E0936005E09380
:203080006105E0936205E0936305E0936405E0936505E0936605E0936705E0936805E0934C
:2030A00069050895A0910005B09101050895D601E0E0F0E00E94CB190895E0910205F09168
:2030C00003050895A0E0B0E00E94C5190E2EEFCF0E22D601E1E0F0E00E94CB190E220895D6
:2030E000A0912C05B0912D0508CEE0910405F09105050895D601E2E0F0E00E94CB190E2264
:20310000E3E0F0E00E94CB190E22E4E0F0E00E94CB190E22089544245524662477248824CD
:2031200099240895E0E0EA83EB83EC83ED830895B9DFE3CD0E94350A85DEE1E0F0E0E0938E
:203140008005F09381050E947602E0938B05F0938C05A091860571CBA0917E05B0917F053F
:20316000CCCD0E22A0918005B0918105C6CD0E22A0918B05B0918C05C0CD0E94CF070E940C
:20318000D605E0E0F0E0FA93EA930E947903E0E0E0930005E093010508950E94FE01E0E0ED
:2031A000E0932C05E0932D050895A1E0B0E00E94C5190E220895E2E0F5E0A0E0B0E0A08301
:2031C000B1830895E0E0E0932C05E0932D050895E4E0F5E0A0E0B0E0A083B1830895A091AA
:2031E0008205B0918305F5CBD601EBE0F0E00E94D1190E22E7DD7CCDEA81FB816C817D81B2
:20320000EFDDEA83FB836C837D83AA81BB818C819D81A130E0E0BE07E0E08E07E0E09E0766
:203220000895AA81BB818C819D81A536E0E0BE07E0E08E07E0E09E070895E0E0E093000570
:20324000E0930105B8CFE6E0F5E0A0E0B0E0A083B1830895E0912805F0912905319708951D
:203260000E94EB190E2EA8CDA0E00499A1E0C3CDBBDBA0916605B09167058091680590914B
:203280006905EECFA2E7B5E0C8CAEAE0F0E0CE16DF060895A8E2B5E0C0CAA1EBB5E0BDCA02
:2032A000FA93EA93E091B105F091B2053197FA93EA930E948905C2CCE0E0E0932805E09342
:2032C00029050895EFEFFFEFE0936E05F0936F05E0937005F0937105E0937205F0937305B4
:2032E00008952A93ED85FE85FA93EA93E989FA8909950895E889F9893497E88BF98B0895F3
:20330000ED85FE85FA93EA93E989FA8909950895A889B98914960E946C1AEE83FF83FA93B9
:20332000EA930895A889B98914960E946C1AEA87FB870895E991F991309639F080EA9FE0C2
:203340000197F1F7A8953197C9F708950024AF0DB01D0895F195E195F0400895F0956095FE
:203360007095E195FF4F6F4F7F4F08956F2F660F660B762F08958B2F880F880B982F08954D
:20338000EA17E1E009F0EE270895EA17FB07E1E009F0EE270895EA17FB07E1E009F4EE277B
:2033A0000895AE17BF07E1E00CF4EE270895AE17BF07E1E00CF0EE270895EA17FB07E1E0B4
:2033C0000CF0EE270895AE17BF0786079707E1E00CF4EE270895EA17FB0768077907E1E063
:2033E0000CF0EE270895FA9FF02DEB9FF00DEA9FE02DF10D08957A9F702D6B9F700DF89FDD
:20340000700DE99F700D6A9F602D710DFB9F600D711DE89F600D711D8827FA9FF02D610D2C
:20342000781FEB9FF00D611D781FEA9FE02DF10D681F781F08952FD0D6DF0EF48BDF08954D
:2034400038D0D9DF0EF48ADF08950024112490E1AA0FBB1F001C111C0E1A1F0A18F40E0E85
:203460001F1E01C0A1609A9599F7FD01D001089512D0EBDF0EF46EDF0895E894B7FF04C094
:20348000A095B09511966894F7FD64DFDEDFFD010EF460DF0895E894F7FF02C05BDF6894D5
:2034A000B7FF06C0A095B095119600F8039400FA0895E89477FF02C051DF689497FF0BC008
:2034C0000024A095B095809590951196801D901D00F8039400FA0895ED91FC9111970895AD
:2034E000ED91FD916D917D9108957E936E93FE93EE9308950590F491E02D08957A936A9388
:20350000FA93EA93089500240A160B060895EA17FB076807790708955A934A933A932A932F
:203520001A930A9308955D814C813B812A81198108810895FFFFFFFFFFFFFFFFFFFFFFFFDE
:20354000FFFFFFFFFFFFFFFFFFFFFFFFFFFFFFFFFFFFFFFFFFFFFFFFFFFFFFFFFFFFFFFF8B
:20356000FFFFFFFFFFFFFFFFFFFFFFFFFFFFFFFFFFFFFFFFFFFFFFFFFFFFFFFFFFFFFFFF6B
:20358000FFFFFFFFFFFFFFFFFFFFFFFFFFFFFFFFFFFFFFFFFFFFFFFFFFFFFFFFFFFFFFFF4B
:2035A000FFFFFFFFFFFFFFFFFFFFFFFFFFFFFFFFFFFFFFFFFFFFFFFFFFFFFFFFFFFFFFFF2B
:020000040001F9
:200000000C94CB010C9400000C9400000C9400000C9400000C9400000C9400000C94000014
:200020000C9400000C9400000C9400000C9400000C9400000C9400000C9400000C940000C0
:200040000C940A020C9400000C9400000C9400000C9400000C9400000C9400000C94000094
:200060000C9400000C9400000C9400000C9400000C9400000C9400000C9400000C94000080
:200080000C9400000C9400000C9400001027E80364000A000100001000011000010020208D
:2000A000202020202020202020202020202020202020202020202020202020202020202040
:2000C00020202020202000496E69636A616C697A756A65206D61737A796E65005779637AAB
:2000E00079737A637A6F6E6F206D61737A796E65004D61737A796E61207A61696E69636A5F
:20010000616C697A6F77616E6100437A656B616D206E612070726574206777696E746F77C5
:20012000616E79005072616361005A616B726563696C656D2077737A7973746B6965207AD2
:200140006164616E652070756368617279004272616B2077796D6167616E65676F206369CF
:20016000736E69656E696120362062617200446F7A6F776E696B206B6C656A7520707265F6
:20018000746F77206E696520676F746F777900446F7A6F776E696B206B6C656A75206E6161
:2001A0006B726574656B206E696520676F746F77790057796C61637A206D61737A796E65F3
:2001C000206920706F637A656B616A2031206D696E757465004F64736C6F6E2069207A7218
:2001E00065736574756A206B757274796E65004D6F6E7465722033206E6965206E6163695E
:20020000736E616C20706564616C6100437A656B616D206E612072756368206C616E63755A
:2002200063686100506F707261772070726574207A2067727A79626B69656D2069206E6138
:200240006369736E696A2067757A696B005573756E2070726574207A6520737A637A656B95
:200260002069206E616369736E696A2067757A696B0057796D69656E206C7562206E616B06
:200280007265632F646F6B7265632067727A7962656B2069206E616369736E696A2067756B
:2002A0007A696B004D6F6E7465722033202D207A64656D6F6E74756A207075636861722018
:2002C0006920706F7477696572647A004D6F6E7465722033202D2077797A776F6C207265C5
:2002E000637A6E696520637A756A6E696B207075636861726100534C415645206E696520CC
:20030000706F7477696572647A696C20706F64616E6961206E616B7265746B6900534C41CB
:200320005645206E696520706F7477696572647A696C207A657A776F6C656E6961206E6192
:2003400020737A637A656B690020202020202020202020202020202020202020202020209A
:20036000202020202020202020202020202020202020202020202020202020003025640064
:200380003A0001002D4E414E00494E4600000100D50582030000F894EE27ECBBF1E0F5BF0E
:2003A000E5BFE0936C00F8E1F1BDE1BD8DE0A2E0BB27ED938A95E9F780E090E1A0E0B1E063
:2003C000ED930197E9F7EEE8F3E085919591009761F0A591B59105901590BF01F00105905C
:2003E0000D920197E1F7FB01F0CF8BBFEFEFEDBFE0E1EEBFC0E0D5E00C943D110E94F21307
:200400000E94F8130E94FE13E0E0E093C505E093C60508956A937A93AA93BA93EA93FA9306
:20042000EFB7EA93A6E3B5E00E940414AAE3B5E00E940414AEE3B5E00E940414A2E4B5E0EA
:200440000E940414AFEBB5E00E940D14A091BF05B091C005DC97D1F40E94F213A1ECB5E0F4
:200460000E940D140E941314DC9781F40E94F813A3ECB5E00E940D140E941814DC9731F40E
:200480000E94FE13A5ECB5E00E940D14E991EFBFF991E991B991A991799169911895C999FD
:2004A000949AA0E09499A1E00E941D140E942214E02121F0A3EBB5E00E9404140E9422146E
:2004C0000E2EA091B305B091B4058091B5059091B6050E942914E02141F00E943014949833
:2004E000E0E0E0938705E093880508951A930A9301E010E0F8011DC00E943A14C99B02C099
:20050000949AFCCF0E943F140431E0E01E075CF4C99B06C0C99B02C0949AFCCF0E943F1445
:200520000F5F1F4FF1CFE4E1F0E0E0938905F0938A050991199108950E9447140E944F1494
:200540000E945B140E945F14E0E0DFC2E0E0E09386050E9447140E9463140E945B140E948D
:200560006C14E0938605F0E008950E9447140E944F140E9482140E945F14E1E0C6C2CE9991
:2005800002C0979801C0979A0895ADE8B5E00E940D140E9486140E9447140E948C14B5C2FC
:2005A0000E9447140E949A140E94A3140E94A714E7E10E94B0140E94A314E7ECF0E092C0BC
:2005C0000E944714EBE10E94B0140E94A314E1EFF0E088C00E944714ECE10E94B0140E94D9
:2005E000A314EAE0F1E07EC00E9447140E949A140E94A3140E94A714E8E00E94B0140E9498
:20060000A314E4E2F1E06EC00E944714EBE10E94B0140E94A314EEEAF0E00E94B8140E941E
:200620004714E6E20E94B0140E94A314EAE2F1E059C00E944714E2E20E94B0140E94A314A2
:20064000EEE4F1E04FC00E944714E5E20E94B0140E94A314E2EBF1E045C00E944714ECE1F8
:200660000E94B0140E94A314E5EDF1E03BC00E944714EFE10E94B0140E94A314EFEEF1E0E3
:2006800031C00E944714EAE10E94B0140E94A314ECE0F2E027C00E944714EBE20E94B0142D
:2006A0000E94A314E4E2F2E01DC00E944714E7E20E94B0140E94A314EDE4F2E013C00E94CF
:2006C0004714E4E30E94B0140E94A314E2E7F2E009C00E944714E5E30E94B0140E94A31451
:2006E000E9E4F3E0FA93EA9380E00E94B613229608950E948C1A40E050E0E0E0E0938605DA
:2007000010E0AE81BF811197C9F50E9447140E9463140E94BF14F0E0E0933405F093350550
:200720000E9447140E94C4140E94D0140E946C140E94D41439F4E1E0F0E0E0939505F093C2
:20074000960505C0E0E0E0939505E09396050E9447140E94C4140E94D9140E946C140E9494
:20076000D41439F4E1E0F0E0E0939305F093940505C0E0E0E0939305E09394050E94471413
:200780000E9463140E94DD14F0E0E0932E05F0932F050E94E2141E2EAE81BF810E94E9148E
:2007A0000E94EF14E4E0F0E00E94DD19E021E12969F10E9447140E9463140E9482140E9413
:2007C0006C140E94D41439F4E1E0F0E0E093B905F093BA0505C0E0E0E093B905E093BA05F6
:2007E000E0916A05F0916B0560916C0570916D05A7E0B0E080E090E00E94201AE0935605C2
:20080000F09357056093580570935905E0919B05F0919C05309771F4E1E0F0E0E0939B0545
:20082000F0939C05E0915605F0915705E0939D05F0939E050E94F414A0919D05B0919E054F
:200840000E94BB190E94871A29F0E0E0E0939B05E0939C05D6010E94E9140E94E214E021D0
:2008600051F10E9447140E9463140E94FD140E9401150E9405150E9405150E946E120E9479
:200880006E124E2F55270E946E12F0E00E940B150024041605066CF4FA01AFEFB0E00E94B7
:2008A0001B1A0E94EF14EA0FFB1FE40FF51F0E940B150E941015AE81BF811197B9F40E9455
:2008C00047140E9419150E945B140E946C140E94D41439F4E1E0F0E0E093CD05F093CE05D7
:2008E00005C0E0E0E093CD05E093CE050E9447140E9419150E94BF14F0E0E093CF05F0930C
:20090000D0050E9447140E9419150E94DD14F0E0E093D305F093D405E091CD05F091CE0594
:20092000309719F4E3E0F0E08EC00E942215E2E3F0E00E94C519E02121F0E1E1F0E00E94CE
:2009400030150E942215E7E3F0E00E94C519E02121F0E2E1F0E00E9430150E942215ECE32B
:20096000F0E00E94C519E02121F0E3E1F0E00E9430150E942215E1E4F0E00E94C519E021AB
:2009800021F0E4E1F0E00E9430150E942215E6E4F0E00E94C519E02121F0E5E1F0E00E948D
:2009A00030150E942215EBE4F0E00E94C519E02121F0E6E1F0E00E9430150E943515E2E3B9
:2009C000F0E00E94C519E02121F0EBE0F0E00E9430150E943515E7E3F0E00E94C519E0212C
:2009E00021F0ECE0F0E00E9430150E943515ECE3F0E00E94C519E02121F0EDE0F0E00E9407
:200A000030150E943515E1E4F0E00E94C519E02121F0EEE0F0E00E9430150E943515E6E443
:200A2000F0E00E94C519E02121F0EFE0F0E00E9430150E943515EBE4F0E00E94C519E021C2
:200A400031F0E0E1F0E0E093D105F093D2050E94931AAAC00E9447140E944F140E9443158C
:200A6000E09134050E9448150E944F140E944C15E0912E050E9448150E944F140E948214E5
:200A80000E945F140E9401150E9447140E944F140E94FD140E945F14E5E00E9448150E9459
:200AA00051150E94D0140E945F140E9401150E9447140E9451150E94D9140E945F140E9432
:200AC00001150E9447140E945115E0E8EA930E9472120E945F140E9401150E9447140E9424
:200AE0005A150E945B140E945F140E9401150E9447140E945A150E944315E2E00E944815E0
:200B00000E945A150E944C15E2E3EA930E94721208950E948E1A0E9463155CF00E946915EC
:200B20000E94381A8F010E9469150E943D1A9F0102C00E946E150E9447140E944F14E0E8C7
:200B40000E9473150E9463151CF00E94791506C0AF81AA2312F0EE8101C0E0E0EA930E9441
:200B600072120E947E155CF00E9484150E94381A8F010E9484150E943D1A9F0102C00E9479
:200B80006E150E9447140E945115E0E40E9473150E947E151CF00E94791501C0EC81EA93C3
:200BA0000E9472120E94951A289608950E9447140E9489150E94D0140E9413141A971CF416
:200BC000ECE7F3E002C0EDE7F3E0FA93EA930E9492150E949F150E9418141A971CF4ECE7FB
:200BE000F3E002C0EDE7F3E0FA93EA930E94A2150E949F15A091C505B091C6051A971CF438
:200C0000ECE7F3E002C0EDE7F3E0FA93EA930E94AF1508950E9447140E9489150E945F1466
:200C20000E9413141A971CF4ECE7F3E002C0EDE7F3E0FA93EA930E9492150E949F150E94D0
:200C400018141A971CF4ECE7F3E002C0EDE7F3E0FA93EA930E94A2150E949F15A091C505E4
:200C6000B091C6051A971CF4ECE7F3E002C0EDE7F3E0FA93EA930E94AF1508950E9447148E
:200C8000EBE0EA930E947212E2E8EA930E9472120E94D0140E94A314E091C105F091C2051B
:200CA0000E94BC15EA0FFB1FE093C705F093C8050E94BC15DD976CF0E091C705F091C80551
:200CC000FC97E093C705F093C805A9ECB5E00E940D14E091C305F091C4050E94C115EA0F11
:200CE000FB1FE093C905F093CA050E94C115DD976CF0E091C905F091CA05FC97E093C9059C
:200D0000F093CA05ABECB5E00E940D14E091C505F091C6050E94C615EA0FFB1FE093CB0538
:200D2000F093CC050E94C615DD9774F0E091CB05F091CC05FC97E093CB05F093CC05E0E08D
:200D4000E093CB05E093CC050E94BC151A971CF4ECE7F3E002C0EDE7F3E0FA93EA93E0914E
:200D6000C705F091C8050E94CB150E949F150E94C1151A971CF4ECE7F3E002C0EDE7F3E039
:200D8000FA93EA93E091C905F091CA050E94CB150E949F150E94C6151A971CF4ECE7F3E0FE
:200DA00002C0EDE7F3E0FA93EA93E091CB05F091CC050E94CB1508950E948E1A0E944714C7
:200DC0000E944F140E94D0140E945F14EE850E9448150E944F140E94D9140E945F14EC85E7
:200DE0000E9448150E9451150E945B140E945F14EA850E9448150E9451150E944C15E885E0
:200E0000EA930E9472120E9463155CF00E9469150E94381A8F010E9469150E943D1A9F016C
:200E200002C00E946E150E9447140E9451150E9482140A930E9472120E9463151CF00E9403
:200E4000791506C0AF81AA2312F0EE8101C0E0E0EA930E9472120E947E155CF00E948415F0
:200E60000E94381A8F010E9484150E943D1A9F0102C00E946E150E9447140E9451150E948C
:200E8000FD140A930E9472120E947E151CF00E94791506C0AD81AA2312F0EC8101C0E0E05C
:200EA000EA930E9472120E94951A60960895959A0895E0E00799E1E0E03011F00C94B7074F
:200EC000E0919905F0919A05309749F402DC0E94D4151D9A0E94DA150E94E01547C0E1307F
:200EE000A0E0FA0731F41D980E94DA150E94E7153DC0E230A0E0FA0741F41E9A069903C089
:200F00000E94EE1501C0BDDB31C0E330A0E0FA07D1F4069B17C0DDDBA0919705B0919805AE
:200F2000129721F4E3E0F0E00E94F815E0919705F0919805309721F4E2E0F0E00E94F81569
:200F40000E94FD1513C0E430A0E0FA0779F40E940416129729F40E94DA150E94E71506C091
:200F6000E1E0F0E00E94F8150E94091613C0E13089F473DB1D981E980E940F16E091B70562
:200F8000F091B805309711F40E9415160E941E160E944416E0919705F09198050895289721
:200FA0000E948C1A20E030E040E050E00E9486140E944A160E94501601E010E00E940916B1
:200FC000E8E0F0E0CE16DF061CF00E94091602C00E9456160E945D160E9472160E947816A4
:200FE0000E9472160E947D160E9472160E9482160E947216E3E0F0E00E94C5190E947216C7
:20100000E4E0F0E00E94C519E02911F40C9490090E945D16E02911F40C94D508F801E130CB
:20102000A0E0FA0769F5DA010E947D160E2E0E9487160E220E948D16E0E2FEE460E070E09D
:201040000E94EB19E0211E2ED601E8E0F0E00E94D7190E2E0E948D16E8EBFBE060E070E0DD
:201060000E94EB19E021E12951F0E8E0F0E0CE16DF060CF4C59A02E010E00E94501695C08F
:20108000E230A0E0FA07D9F50E9492160E2ED601E8E0F0E00E94D719E0211E2EA0E0CD9935
:2010A000A1E00E941D140E948716E021E12911F0C59820C00E948D160E9429140E949916DF
:2010C0000E949E1659F061DAF0DAC598E1EAF6E861E070E0EE83FF83688779870E948D16AE
:2010E0000E9429140E9499160E94A31639F0F1DA0E945016C298C69803E010E056C0E330B5
:20110000A0E0FA0711F00C94C408A091A705B091A805119711F5A0913405B0913505E6E4B9
:20112000F0E00E94D7190E2E0E94EF14E1E0F0E00E94DD190E94A8160E94D1190E220E9485
:20114000AD160E947816E02109F01B9AC798909AE0E0E093A705E093A805A0E0CC99A1E0FF
:201160000E941D14A091A705B091A8050E947816E02149F0909A0E94B2160E94B9160E94C0
:20118000BF1604E010E011C0E430A0E0FA0769F4029906C0E1E0F0E0E093AB05F093AC059A
:2011A000CC9903C0909805E010E0E0E00799E1E0E03011F00C946809E0919905F0919A0598
:2011C000309719F50E94C816A0E00399A1E00E94A31649F00E94D4157CDA1D9A0E944A16EF
:2011E0000E94E01511C0A0E00399A1E00E941D14D9010E947816E02131F0A4E7B5E00E9429
:201200000D1421E030E063C062C0E130A0E0FA0799F40E94C816A0E0C199A1E00E94A31602
:2012200049F00E94D0162CF01D980E94E7150E944A1601C04CC04BC0E230A0E0FA07B1F46C
:20124000079911C00E94D0166CF01E9A069909C041E050E00E9450160E94EE150E944A1619
:2012600001C00FDA02C0C19832C031C0E330A0E0FA07B1F4069B13C02CDA1E98AA85BB85EE
:201280008C859D85A137E7E1BE07E0E08E07E0E09E071CF00E94FD1502C00E94091617C0E2
:2012A000E430A0E0FA0799F40E9456160E94DC160E2E0E94E2160E947816E02109F0929A3E
:2012C0000E94E7160E94EE16E02109F0929A13C0E13089F4FED9C1D91D981E9892980E949A
:2012E00009160E944A16E091B705F091B805309711F40E941516EA85FB856C857D850E9445
:20130000F016EA87FB876C877D87EE81FF81688579850E94F016EE83FF83688779875ACE51
:201320000E94931A2E9608950E948E1A0E946E15969A0E94F516EC81FD810E171F07E4F4A3
:20134000019B03C0939A21E030E0A0E00199A1E00E94FB16D9010E947D16E02119F093985E
:2013600022E030E0E2E0F0E0E217F30721F40F5F1F4F23E030E0DFCF0E94F51696980E94A7
:20138000951A2696089566DBC89902C052D9FCCFA0D98DDD9ED904D99CD9CC9B02C0909AEC
:2013A000FCCF0E94B2169098AB98A998AA9A1A98C798A2D88ED904D9E0918605E030E9F450
:2013C0000E940017A0919305B0919405119791F40E9444160E940617A99AE8EBFBE00E9436
:2013E0000E17AA9A1A980E9412170E940617A9982AD9FFCF0E941517DFCFE0E0E0938605FC
:20140000CEDDAD9A0E944416AD98C9DD0E944416C6DD0E944416C3DD0E940F160E94041635
:201420000E94E9140E9404160E9482160E2A0E940416E3E0F0E00E94C519E02921F039DDE0
:201440000E94F815EBCFE0E0E0939705E09398050E9444160E9400170E94E216119711F448
:201460000E941A17E1E0F0E00895E1E0F0E00E942217E0917E05F0917F0508951A930A931F
:201480001F9A019903C001E010E002C000E010E0002E012AA9F4A091A505B091A60515976A
:2014A00019F4E5D80E942717A5EAB5E00E940D140E942D17E1E0F0E0E0937C05F0937D052B
:2014C000E1E0F0E0E017F107A1F40E942717A0917C05B0917D05119731F4FBD8E0E0E093CF
:2014E0007C05E0937D05E1E0F0E00E9433171F989298E0918205F091830509911991089536
:201500000E943A14E0911405F0911505309729F40E9438170E94FE01DAC0E130A0E0FA0714
:20152000D9F4AF9A0E943F170E94431799F0E0E0E0934605E0934705E0934805E09349055A
:201540000E944717E2E0F0E00E9451170E9456174BD801C03FD8BBC0E230A0E0FA0769F47A
:201560000E945D170E9466173CF0AF980E944717E3E0F0E00E945117AAC0E330A0E0FA0728
:2015800059F40E946E173CF0AE9A0E944717E4E0F0E00E9451179BC0E430A0E0FA0761F480
:2015A0000E946E1744F0AE98C49A0E944717E5E0F0E00E9451178BC0E530A0E0FA0769F44F
:2015C0000E945D170E9466173CF0C4980E944717E6E0F0E00E9451177AC0E630A0E0FA07DD
:2015E00099F50E943F17A0E0CB99A1E00E949E1621F00E9438170E947717A0E0CA99A1E014
:201600000E941D140E94431721F00E9438170E9477170E943F170E94431731F0E3E0F0E021
:201620000E9451170E947717A0E0CA99A1E00E941D14A0E0CB99A1E00E949E1621F0E7E0A6
:20164000F0E00E94511743C0E730A0E0FA0759F40E946E173CF0AD9A0E944717E8E0F0E096
:201660000E94511734C0E830A0E0FA0761F40E946E1744F0AD98C49A0E944717E9E0F0E0E7
:201680000E94511724C0E930A0E0FA0759F40E945D170E9484172CF0C498EAE0F0E00E946E
:2016A000511715C0EA30A0E0FA0789F40E944717E0E0E0931405E093150501E010E0E1E06A
:2016C000F0E0EC15FD0519F4E2E0F0E06F01F4C20E943A14E0911605F0911705309771F42D
:2016E000E0E0E0934A05E0934B05E0934C05E0934D050E948C170E94911756C0E130A0E0E6
:20170000FA07B1F40E9496170E9466170CF0AC9A0E949617AD33E0E0BE07E0E08E07E0E0AA
:201720009E072CF01C9A0E948C170E949F173CC0E230A0E0FA0759F40E9496170E94A4170D
:201740002CF01C980E948C170E94AC172DC0E330A0E0FA0759F40E9496170E9484172CF099
:20176000AC980E948C170E94B1171EC0E430A0E0FA0751F40E9496170E94841724F0E6E157
:20178000F5E00E94B61710C0E530A0E0FA0761F40E948C170E94BB17E3E0F0E0EC15FD05FB
:2017A00019F4E4E0F0E06F0187C20E943A14E0911805F0911905309791F4E0E0E0934E05E0
:2017C000E0934F05E0935005E09351050E94C217C398AA98E8E1F5E00E94911713C1E130CC
:2017E000A0E0FA0791F40E94CC17A230E0E0BE07E0E08E07E0E09E073CF01A9A0E94C217F2
:20180000E8E1F5E00E949F17FDC0E230A0E0FA07B1F40E94AD16119721F40E94D5170E948B
:20182000DC170E94CC170E94E31744F0A99AC79A0E94C217E8E1F5E00E94AC17E3C0E33088
:20184000A0E0FA07A1F40E94CC170E94841774F0A998A9E8B5E0ED91FD913197FE93EE93FF
:201860000E94C217E8E1F5E00E94B117CBC0E430A0E0FA0739F40E94C217E8E1F5E00E94DD
:20188000B617C0C0E530A0E0FA0781F40E94CC170E94EB1754F0C39A1A980E94F317E8E1FF
:2018A000F5E0A6E0B0E0A083B183ACC0E630A0E0FA0781F40E94CC170E94661754F0919A5B
:2018C000AB9A0E94C217E8E1F5E0A7E0B0E0A083B18398C0E730A0E0FA07C1F5A0E0059978
:2018E000A1E00E94FB160E94F9170E947816E02111F00E94D5170E94FE170E2EE0912E05AB
:20190000F0912F050E94CC170E94B6190E94E319E02131F0C39891980E94C2170E940018A3
:20192000E0913005F09131050E94CC170E94B6190E94871A54F4C3989198A9EAB5E00E947B
:201940000D140E94F3170E9400185CC0E830A0E0FA0759F50E9407180E94FE17E02109F08B
:20196000AA9A0E9407180E94F9170E947816E02109F0AA9A0E9410180E94FE17E02131F09F
:20198000AB98AA9A0E94C2170E94DC170E9410180E94F9170E947816E02131F0AB98AA9A5B
:2019A0000E94C2170E94DC172DC0E930A0E0FA0779F40E94CC170E94A4174CF0C7980E9404
:2019C000C217E8E1F5E0AAE0B0E0A083B1831AC0EA30A0E0FA07B1F4E0918F05F0919005EA
:2019E000E0939105F09392050E94C217E8E1F5E00E94BB17E5E0F0E0EC15FD0519F4E6E0CC
:201A0000F0E06F0159C10E943A14E0911A05F0911B05309781F4E0E0E0935205E0935305BA
:201A2000E0935405E09355050E9419180E9491170E94861441C1E130A0E0FA0729F40E9461
:201A400019180E949F1738C1E230A0E0FA07B1F40E9425180E94841784F0A0913405B09191
:201A60003505A634E0E0BE070CF41B98A898C19AC09A0E9419180E94AC171EC1E330A0E07B
:201A8000FA0711F00C94830DA0919105B09192050E947D160E2E0E94AD160E9478160E223F
:201AA000A091A105B091A2050E9478160E22A091AB05B091AC050E947D16E021E9F40E947F
:201AC000C5020E945F03E1E0F0E0E093A105F093A205CF9917C0A091AB05B091AC050E94B3
:201AE000E914D601E7E0F0E00E94D119E02121F0ADEAB5E00E940D14EAE1F5E00E94B117E4
:201B00000E942E18D9C0E430A0E0FA0769F40E946903E0E0E093A105E093A205C59A0E9450
:201B200019180E94B617C8C0E530A0E0FA0711F00C94DD0D0E942518E9E1F0E060E070E053
:201B40000E94EB190E2EA0E0CD99A1E0E1E00E94C0190E22A0E0C599A1E00E949E1639F0F2
:201B6000C69A0E941918A6E0B0E0A083B1830E942518E2E3F0E060E070E00E94EB190E2EDF
:201B80000E949216E02139F00E942E180E94C5020E944B03C598A0E0C599A1E0E0E00E9472
:201BA000C0190E9499160E94A31631F00E946903EAE1F5E00E94B1177FC0E630A0E0FA0791
:201BC00091F40E942518AA31E0E0BE07E0E08E07E0E09E073CF0C29A0E941918A7E0B0E015
:201BE000A083B18369C0E730A0E0FA07A1F40E9425180E94A41774F0009B05C0ABEBB5E00D
:201C00000E940D143197C0980E941918A8E0B0E0A083B18351C0E830A0E0FA0769F40E94F6
:201C200025180E94A4173CF0C5980E941918A9E0B0E0A083B18340C0E930A0E0FA0769F447
:201C40000E9425180E94E3173CF0C2980E941918AAE0B0E0A083B1832FC0EA30A0E0FA07B5
:201C600069F40E9425180E94E3173CF0C1980E941918ABE0B0E0A083B1831EC0EB30A0E049
:201C8000FA07D1F40E9425180E94EB17ACF00E9419180E94BB17A2E3B5E0ED91FD9131972A
:201CA000FE93EE93E7E0F0E0EC15FD0529F4E8E0F0E06F010E943818F80109911991089587
:201CC0000E9452180E94E9140E945718E02129F017DCE0930005F09301050E945D180E9481
:201CE00062180E9468180E947018E02129F0F0DCE0930205F09303050E9475180E946218E8
:201D00000E9468180E947A180E947018E02129F04CDDE0930405F0930505E0910605F091FA
:201D200007050E9462180E9468180E947A18D601E5E0F0E00E94CB190E94A8160E94CB194D
:201D40000E220E947018E02129F05DDEE0930605F09307050895AA24BB240E948B180E9496
:201D600038180E94D6050E94FE01089524971A930A930E94921800E010E00E9498180E2EA9
:201D8000D6010E948216E02199F00E9415170E949A180E94AC180E94B1180E94B718E02143
:201DA00039F00E94BD180E94CD18E3E0F0E06F010E9498180E2E0E945D180E94D518D601EE
:201DC000E4E0F0E00E94C519E021B9F00E9415170E949A180E94AC180E94B1180E94B718E1
:201DE000E02159F00E94BD180E94DB180E94FE01E5E0F0E06F010E94E2180E9498180E2EBD
:201E00000E945D180E94D5180E947518A1E0B0E00E94C5190E94A8160E94C519E021B9F0D2
:201E20000E9415170E949A180E94AC180E94B1180E94B718E02159F00E94BD180E94DB18E8
:201E40000E94E8180E94CD18E7E0F0E06F010E9498180E2E0E945D180E94D5180E947518EF
:201E60000E94D518E0910605F09107050E94D5180E948716E02111F40C9431100E94151747
:201E8000F4DA0E942217E1E0F0E0E0938005F09381050E947602E0938B05F0938C05D50100
:201EA0000E947D160E2EA0918605E1E00E94C0190E220E94AC180E94B1180E94B718E02146
:201EC00011F40C9431100E942D170E9492180E94EF180E94F418E021C9F00E94FC1819F416
:201EE000CDDA0E9433170E94111914F00E9492180E94EF18D8010E947816E02131F0A6E7D2
:201F0000B5E00E940D1401E010E0E1CF0E94EF180E94DC160E220E94EE16E02161F00E94E1
:201F2000FC1819F4ABDA0E9433170E94111914F00E949218EBCF33D8E0E0F0E0FA93EA9394
:201F40000E947903A091B905B091BA050E947D160E2EA091BD05B091BE050E947816E021DB
:201F6000C9F0E0E0E093B905E093BA05E1E0F0E0E093BD05F093BE050E94B502E4E0F0E08C
:201F80000E940B150E941015EEEFFFEFE0932805F0932905F60131966F01E8EEF3E0EC15C4
:201FA000FD051CF4E4E6F0E06F010E94EF14E3E0F0E00E94DD190E2E0E947018E02141F09D
:201FC0000E94E2180E941D190E94E8180E9423190E94EF14139744F00E9456170E94DB18E6
:201FE0000E94E8180E9423190E94EF14129734F00E9456170E94E8180E9423190E94EF14BB
:202000000E94831A24F40E9456170E942319A3DE0E942A19A0919F05B091A0050E94C519DB
:202020000E2EA091A305B091A4050E947816E021C1F00E9404030E94F2130E94F8130E9420
:20204000FE13E0E0E093C505E093C605949892980E94B5020E949C02E0E0E0938605CC2497
:20206000DD241981088126960895D601E8E0F0E00E94C5190E2ED5010E947816E02119F0A8
:20208000E1E0F0E05F010E94E716D5010E947816E02111F40C940411042C0528A9F40E9453
:2020A000F414A0915E05B0915F0580916005909161050E943019E02121F0AEE6B5E00E941A
:2020C0000D14E1E0F0E02F01062C0728A9F40E94F414A0916205B09163058091640590919A
:2020E00065050E943019E02121F0A0E7B5E00E940D14E1E0F0E03F010E943419D4010E9463
:2021000078160E22D601EBE0F0E00E94D7190E220E94E2160E947816E021A1F00E9438197E
:20212000E02111F00E9442190E94451944F00E944A190E944D190E942A190E945019E1E0AE
:20214000F0E04F010E943419D4010E9478160E22D601E9E0F0E00E94C5190E220E94EE1675
:20216000E02119F0E1E0F0E04F010E943419D4010E9478160E2A0E94DC160E220E94EE16DE
:20218000E021A1F00E943819E02111F00E9442190E94451944F00E944A190E944D190E94D8
:2021A0002A190E945019E1E0F0E04F010E943419D4010E9478160E2A0E94F418E021A1F084
:2021C0000E943819E02111F00E9442190E94451944F00E944A190E944D190E942A190E9445
:2021E0005019E1E0F0E04F01D2010E947D160E2ED3010E947D160E22D4010E947D16E0210D
:2022000019F0E1E0F0E05F0108950C2C0D28A1F5E0918605E03029F40E9415170E940A067B
:202220002BC00E9400170E941A170E945C190E9462190E941D190E94E8180E9423190E94F9
:202240005C190E9469039498E0E0E093BD05E093BE05E0912805F0912905FA93EA93E091DC
:20226000B105F091B205FA93EA930E9489050E943E06E1E0F0E06F010895E0E0EBBBEABBA7
:20228000E8BBEFEFE7BBE0E0E5BBEFEFE4BBE0E0E2BBEFEFE1BBE0E0E3B9EFEFE2B9E0E0D2
:2022A000E0936200E0936100E0936500EFE1E0936400E0E0E0BFE7E0E3BFE0E0E2BFE1BF2D
:2022C000EFBDEEBDEDBDECBDE7BDE6BDEBBDEABDE9BDE8BDE0937900E0937800E5BDE4BD59
:2022E000E3BDE0938B00E0938A00E0938900E0938800E0938100E0938000E0938700E093F8
:202300008600E0938500E0938400E0938300E0938200E0936A00EABFE9BFE1E0E7BFE0E008
:20232000E0937D00EBB9E8E1EAB9E6E0E0939500E0E0E0939000E7E6E9B9E0E0E0939A00D0
:20234000E0E8E8B9E0E0E0BDE6B9EDB9E09374007894E0E4FFE10E940E170E9412170E94A7
:2023600012170E9412170E9447140E948C14EA93B9D0E3E0F0E0FA93EA930E949409CC2458
:20238000DD24E0E0E0935605E0935705E0935805E09359050E948B18AA24BB24E4E6F0E0B2
:2023A00060E070E0E0935A05F0935B0560935C0570935D050E94E218EEE3F0E060E070E052
:2023C000E0936A05F0936B0560936C0570936D050E940F16ECEDF0E0E0933005F09331057E
:2023E000E8E2F0E0E0932E05F0932F05E6E4F0E0E0933405F0933505E0E0E0932A05E0930E
:202400002B050E945C190E946219E0E0E0938405E0938505E0939B05E0939C05E0939D0563
:20242000E0939E05E093A105E093A2050E942717E0E0E093A305E093A405E093A705E093EA
:20244000A805E093A905E093AA05E093AD05E093AE050E94B916E093AF05E093B005E0E0C1
:20246000E093B105E093B2050E9430140E94D415E0E0E093BD05E093BE05E093D105E093B1
:20248000D205E093D305E093D405E0938605E0937805E0937905E0937A05E0937B05E09397
:2024A0007C05E0937D05E0937E05E0937F05E0938005E09381050E942D170C2C0D2821F460
:2024C0000E94C3096F01F9CF0E944F029EDEF8DBCCDD4CDC0E94BF02F7CFFFCF5F9BFECF85
:2024E000ECB108955D9BFECFE881ECB921960895EA81EA93F7DFA881B9810E940D142396DE
:20250000089526970E948C1A10E0AC85BD85E0E0F0E0ED93FC93EA89FB893196EA8BFB8B5E
:202520003197E4912E2FE03011F40C94AE13E12FE03039F4253211F411E002C00E94711903
:202540000CC1E130A9F4253219F40E94711904C112E040E000E02D3211F401E0FEC02B3259
:2025600011F44BE2FAC0203211F440E2F6C002C0E23039F450E013E0203311F40068EDC0AF
:2025800004C0E33011F00C94AD13203310F02A3308F007C0AAE05A9F502DE22FE0535E0FE3
:2025A000DCC0E22FE33649F40E947A19E889F989A481AA930E948019CFC0E33741F40E94D3
:2025C0007A190E9488190E94DD131E2F0AC0E03761F40E947A190E9488190E94E7131E2FAF
:2025E000086002600F7730E035C0E43611F0E93611F4046002C0E53731F4ECE8F0E0EE83CB
:20260000FF8315E00DC0E83511F4086004C0E83711F00C94AC13E6E9F0E0EE83FF8314E023
:2026200002FF14C00E947A190E949219AB85AA233AF4EA85FB850E94AA19EA87FB874DE2A2
:20264000403011F01F5F01C00B7F04C00E947A190E94921900FD11C0151778F407FF08C0C6
:2026600002FF04C00B7F242F115001C020E301C020E20E9471195150EFCF312F01FF17C00E
:202680003030A1F003FF06C0EE81FF812591EE83FF8305C0AE81BF812D91AE83BF830E94E2
:2026A0007119503009F051503150EACF4BC020E3EE81FF810E947A1AE887F987EE81FF812B
:2026C0003296EE83FF83E885F985AA85BB85AE17BF0750F02F5FA885B985EA85FB85EA1B2D
:2026E000FB0BEA87FB87EFCF2A3328F003FF02C0295F01C0295D04FD1AC0213320F4A885AB
:20270000B985119709F409C0531710F000FF01C013C020E207FF0BC020E3006102FF07C011
:202720000B7F4A930E948019503009F051500E947119503009F051503150A885B985129702
:2027400008F0B5CF00FF08C0503031F05150E0E2EA930E948019F8CF10E0DDCEAC85BD85A5
:202760000E946C1A0E94931A64960895FF92F82E26971A930A93DE0114960E94A6198D0115
:20278000E0E0EC83ED83EE83EF83DE0118960E94A6190E946C1AFA93EA931A930A93E8E77E
:2027A000F2E1FA93EA93FE013896FA93EA93A9DE198108812896FF900895A991B991EE2738
:2027C000FF276D91662311F03196FBCF0895AA27BB27E991F9910590002011F01196FBCF3F
:2027E000FD010895E0E0E093BF05E093C0050895E0E0E093C105E093C2050895E0E0E0936F
:20280000C305E093C40508950E94701AEF5FFF4F6F4F7F4F0E94751A0895ED91FD91319622
:20282000FE93EE930895A091C105B091C2050895A091C305B091C4050895E1E00E94C01971
:202840000E2E0895A0E0C999A1E0E0E00E94C0190895E0EAF6E861E070E00E94EB190895E8
:20286000E0E0E093B305E093B405E093B505E093B60508951A930A9300E010E00895E0EDC5
:20288000F7E0FA93EA930E949A1994980895EAE5EA930E947212E5EAEA930C947212E5E092
:2028A000EA930E947212E2E8EA930E947212E0E0EA930C947212E0E3EA930C947212E0E083
:2028C000EA930C947212E4E0EA930E947212E3E8EA930E947212F3CFE1E0EA930E9472125C
:2028E0000E946E120E946E120E946E120E946E120E946E120E946E120E946E120E946E12C8
:202900000C946E12E0E6EA930C947212E0E0E0938D05E0938E050895E3E0EA930E94721262
:20292000E0E8EA930E947212E2E0EA930E947212E0E10895E3E2EA930E947212E2E8EA93BA
:202940000E947212BCCFE0E9EA930C947212EEE9F0E0FA93EA9380E00E94B613229697CFC2
:20296000EA930E947212E2E8EA930E947212A7CFFA93EA9380E00E94B61322960895E0E4E3
:20298000EA930E947212A8CFE4E0EA930E947212E3E8EA930E947212E0E1EA930C947212E6
:2029A000E0E1EA930C9472122E2F3327022E032A0895E0E2EA930C947212E0E5EA930E94BD
:2029C00072128ACFAE81BF81E1E0F0E00E94C5190895E0E0F0E00E94C5190E2E0895A091E3
:2029E0003205B09133050895E0915605F091570560915805709159050895E0E7EA930C94B3
:202A00007212E1E0EA930C9472120E946E120E946E120C946E12E0933205F093330508956A
:202A2000E0913205F0913305E0939F05F093A0050895E4E0EA930E947212E3E8EA930E9408
:202A40007212B7CFA091CF05B091D005E1E0F0E00E94C5190E2EA091D305B091D405089544
:202A6000E093D105F093D2050895A091CF05B091D005E2E0F0E00E94C5190E2EA091D305A4
:202A8000B091D4050895E0E4EA930E94721217CFEA930E947212FBCEE0E5EA930E9472125E
:202AA0000ECFE5E0EA930E947212E2E8EA930E94721276CFE5E0EA930E947212E2E8EA9370
:202AC0000E94721276CFAE81BF81A030E1E0BE070895AE81BF81EFEFF0E0089500E010E09F
:202AE00020E030E00895EA930E9472120A930C947212AFEF0A02F001E20F0895AC81BD8131
:202B0000A030E1E0BE070895AC81BD81EFEFF0E00895EBE0EA930E947212E2E8EA930E94B5
:202B2000721247CFE091C105F091C2050E94B6190E947E1A84E00E94B61326960895E0E8E1
:202B4000F3E016CFE091C305F091C4050E94B6190E947E1A84E00E94B61326960895E091F6
:202B6000C505F091C6050E94B6190E947E1A84E00E94B61326960895A091C705B091C80561
:202B80000895A091C905B091CA050895A091CB05B091CC0508950E94B6190E947E1A84E02D
:202BA0000E94B61326960895E0E0E093B705E093B8050895E0E9F1E0FA93EA930C949A199E
:202BC000E1E0F0E0E0939905F0939A050895E2E0F0E0E0939905F0939A0508950E94690324
:202BE000E3E0F0E0E0939905F0939A051E980895E0939705F09398050895E4E0F0E0E093E9
:202C00009905F0939A050895A0919705B09198050895E0E0E0939905E0939A050895E0E0CF
:202C2000E0939705E0939805F4CFE1E0F0E0E093B705F093B805AFEAB5E0EFCDE091AD05A5
:202C4000F091AE05FA93EA93E091A905F091AA05FA93EA93E091AF05F091B005FA93EA9378
:202C6000E091BB05F091BC05FA93EA93E0917405F0917505FA93EA93E0917605F0917705FF
:202C8000FA93EA930C94DC06E8EEF3E0FA93EA930C949A19E0E0EA87EB87EC87ED8708957B
:202CA000E0E0EE83EF83E887E9870895E5E0F0E0E0939905F0939A050895D801E1E0F0E026
:202CC0000E94C5190E2EE2E0F0E00E94C5190E2AE3E0F0E00E94C5190E2AE4E0F0E00E946D
:202CE000C51908950E2AA0919905B0919A050895E0E0F0E00E94C5190895E1E0F0E00E94F5
:202D0000C5190895E2E0F0E00E94C5190895D601E8E0F0E00E94D1190895AE81BF81888575
:202D200099850895A0E0CD99A1E0E0E00E94C01908950E2EA0E0CF99A1E00895E1E00E94F4
:202D4000C019E0210895E0E00E94C019E02108950E22D601E6E0F0E00895A0919505B091DD
:202D600096050895E1E0F0E0E093A705F093A8050895E0E0E093AB05E093AC050895E09387
:202D80003A05E0933B05E0933C05E0933D050895A0E00799A1E0E0E00E94C0190E2E089586
:202DA000AA85BB858C859D85A93EE3E0BE07E0E08E07E0E09E070895D601EAE0F0E00E9498
:202DC000D1190895A091CD05B091CE050895D601E9E0F0E00E94D1190E2E0895F3DF8DCFB5
:202DE000EF5FFF4F6F4F7F4F0895E4EFF1E0FA93EA930C949A19E0E00E94C0190E2E0895F9
:202E0000E1E0F0E0FA93EA930C947903AA981A9AE8EBFBE0FA93EA930C949A19FA93EA93F0
:202E20000C949A19E0EDF7E0F9CF0E94A602E09386050895E091D105F091D205FA93EA9345
:202E40000C949409E0937E05F0937F050895E0E0E093A505E093A6050895E0E0E093820549
:202E6000E09383050895E0938205F09383050895E1E0F0E0E0931405F09315050895A0E041
:202E8000CA99A1E0B8CFA0E0CB99A1E05CCFE0E0E0933605E0933705E0933805E0933905B9
:202EA0000895E0931405F09315050895E1E0F0E0E0932C05F0932D050895A0913605B0917B
:202EC000370580913805909139050895A932E0E0BE07E0E08E07E0E09E070895EEDFA53112
:202EE000E0E0BE07E0E08E07E0E09E070895E5E1F0E060E070E0E0933605F0933705609370
:202F00003805709339050895A333E0E0BE07E0E08E07E0E09E070895E0E031DFE6E1F5E078
:202F20000895A1E0B0E0A083B1830895A0913A05B0913B0580913C0590913D050895A2E02A
:202F4000B0E0A083B1830895AF31E0E0BE07E0E08E07E0E09E070895A3E0B0E0A083B183C7
:202F60000895A4E0B0E0A083B1830895A5E0B0E0A083B1830895A0E0B0E0A083B18301E05B
:202F800010E00895E0E0E0933E05E0933F05E0934005E09341050895A0913E05B0913F0570
:202FA00080914005909141050895E1E0F0E0E0938F05F0939005E6CFE8E1F5E0A9E0B0E09B
:202FC000A083B1830895AB30E0E0BE07E0E08E07E0E09E070895A531E0E0BE07E0E08E0796
:202FE000E0E09E070895E0E0E0938F05E0939005C9CFA0918F05B09190050895FADF7DCE0C
:20300000E8E1F5E0A8E0B0E0A083B1830895C4DFE0E0F0E060E070E00E94EB190E2E0895C4
:20302000BBDFEAE0F0E060E070E00E94EB190E2E0895E0E0E0934205E0934305E09344055C
:20304000E0934505EAE1F5E00895A0914205B091430580914405909145050895E0E0E093E0
:203060004205E0934305E0934405E09345050895E0E0E0935E05E0935F05E0936005E09380
:203080006105E0936205E0936305E0936405E0936505E0936605E0936705E0936805E0934C
:2030A00069050895A0910005B09101050895D601E0E0F0E00E94CB190895E0910205F09168
:2030C00003050895A0E0B0E00E94C5190E2EEFCF0E22D601E1E0F0E00E94CB190E220895D6
:2030E000A0912C05B0912D0508CEE0910405F09105050895D601E2E0F0E00E94CB190E2264
:20310000E3E0F0E00E94CB190E22E4E0F0E00E94CB190E22089544245524662477248824CD
:2031200099240895E0E0EA83EB83EC83ED830895B9DFE3CD0E94350A85DEE1E0F0E0E0938E
:203140008005F09381050E947602E0938B05F0938C05A091860571CBA0917E05B0917F053F
:20316000CCCD0E22A0918005B0918105C6CD0E22A0918B05B0918C05C0CD0E94CF070E940C
:20318000D605E0E0F0E0FA93EA930E947903E0E0E0930005E093010508950E94FE01E0E0ED
:2031A000E0932C05E0932D050895A1E0B0E00E94C5190E220895E2E0F5E0A0E0B0E0A08301
:2031C000B1830895E0E0E0932C05E0932D050895E4E0F5E0A0E0B0E0A083B1830895A091AA
:2031E0008205B0918305F5CBD601EBE0F0E00E94D1190E22E7DD7CCDEA81FB816C817D81B2
:20320000EFDDEA83FB836C837D83AA81BB818C819D81A130E0E0BE07E0E08E07E0E09E0766
:203220000895AA81BB818C819D81A536E0E0BE07E0E08E07E0E09E070895E0E0E093000570
:20324000E0930105B8CFE6E0F5E0A0E0B0E0A083B1830895E0912805F0912905319708951D
:203260000E94EB190E2EA8CDA0E00499A1E0C3CDBBDBA0916605B09167058091680590914B
:203280006905EECFA2E7B5E0C8CAEAE0F0E0CE16DF060895A8E2B5E0C0CAA1EBB5E0BDCA02
:2032A000FA93EA93E091B105F091B2053197FA93EA930E948905C2CCE0E0E0932805E09342
:2032C00029050895EFEFFFEFE0936E05F0936F05E0937005F0937105E0937205F0937305B4
:2032E00008952A93ED85FE85FA93EA93E989FA8909950895E889F9893497E88BF98B0895F3
:20330000ED85FE85FA93EA93E989FA8909950895A889B98914960E946C1AEE83FF83FA93B9
:20332000EA930895A889B98914960E946C1AEA87FB870895E991F991309639F080EA9FE0C2
:203340000197F1F7A8953197C9F708950024AF0DB01D0895F195E195F0400895F0956095FE
