:200000000C94A2010C9400000C9400000C9400000C9400000C9400000C9400000C9400003D
:200020000C9400000C9400000C9400000C9400000C9400000C9400000C9400000C940000C0
:200040000C94F9010C9400000C9400000C9400000C9400000C9400000C9400000C940000A6
:200060000C9400000C9400000C9400000C9400000C9400000C9400000C9400000C94000080
:200080000C9400000C9400000C9400001027E80364000A000100001000011000010020208D
:2000A000202020202020202020202020202020202020202020202020202020202020202040
:2000C00020202020202000496E69636A616C697A756A65206D61737A796E65005779637AAB
:2000E00079737A637A6F6E6F206D61737A796E65004D61737A796E61207A61696E69636A5F
:20010000616C697A6F77616E6100437A656B616D206E612070726574206777696E746F77C5
:20012000616E79005072616361005A616B726563696C656D2077737A7973746B6965207AD2
:200140006164616E652070756368617279004272616B2077796D6167616E65676F206369CF
:20016000736E69656E696120362062617200446F7A6F776E696B206B6C656A7520707265F6
:20018000746F77206E696520676F746F777900446F7A6F776E696B206B6C656A75206E6161
:2001A0006B726574656B206E696520676F746F77790057796C61637A206D61737A796E65F3
:2001C000206920706F637A656B616A2031206D696E757465004F64736C6F6E2069207A7218
:2001E00065736574756A206B757274796E65004D6F6E7465722033206E6965206E6163695E
:20020000736E616C20706564616C6100437A656B616D206E612072756368206C616E63755A
:2002200063686100506F707261772070726574207A2067727A79626B69656D2069206E6138
:200240006369736E696A2067757A696B005573756E2070726574207A6520737A637A656B95
:200260002069206E616369736E696A2067757A696B0057796D69656E206C7562206E616B06
:200280007265632F646F6B7265632067727A7962656B2069206E616369736E696A2067756B
:2002A0007A696B004D6F6E7465722033202D207A64656D6F6E74756A207075636861722018
:2002C0006920706F7477696572647A004D6F6E7465722033202D2077797A776F6C207265C5
:2002E000637A6E696520637A756A6E696B2070756368617261002020202020202020202083
:200300002020202020202020202020202020202020202020202020202020202020202020DD
:20032000202020202020202000302564003A000001002D4E414E00494E4600000100CD050F
:2003400030030000F894EE27ECBBF1E0F5BFE5BFE0936C00F8E1F1BDE1BD8DE0A2E0BB2724
:20036000ED938A95E9F780E090E1A0E0B1E0ED930197E9F7ECE3F3E085919591009761F05E
:20038000A591B59105901590BF01F00105900D920197E1F7FB01F0CF8BBFEFEFEDBFE0E102
:2003A000EEBFC0E0D5E00C945D101A930A93E0919B001E2FE078D9F300919C00E12FEC71CD
:2003C00011F4E02FA5C0F3CFE0919B00E072E1F3E881E0939C00219608950E940E130E947F
:2003E00014130E941A13E0E0E093C505E093C60508956A937A93AA93BA93EA93FA93EFB7EB
:20040000EA93A6E3B5E00E942013AAE3B5E00E942013AEE3B5E00E942013A2E4B5E00E94BD
:200420002013AFEBB5E00E942913A091BF05B091C005DC97D1F40E940E13A1ECB5E00E94C2
:2004400029130E942F13DC9781F40E941413A3ECB5E00E9429130E943413DC9731F40E94A6
:200460001A13A5ECB5E00E942913E991EFBFF991E991B991A991799169911895C999949A5A
:20048000A0E09499A1E00E9439130E943E13E02121F0A3EBB5E00E9420130E943E130E2E14
:2004A000A091B305B091B4058091B5059091B6050E944513E02141F00E944C139498E0E099
:2004C000E0938705E093880508951A930A9301E010E0F8011DC00E945613C99B02C0949A30
:2004E000FCCF0E945B130431E0E01E075CF4C99B06C0C99B02C0949AFCCF0E945B130F5FF0
:200500001F4FF1CFE4E1F0E0E0938905F0938A050991199108950E9463130E946B130E944A
:2005200077130E947B13E0E038C2E0E0E09386050E9463130E947F130E9477130E948813D4
:20054000E0938605F0E008950E9463130E946B13E0E61DC2CE9902C0979801C0979A08956C
:20056000ADE8B5E00E9429130E949E130E9463130E94A41312C20E9463130E94B2130E94BA
:20058000BB130E94BF13E7E10E94C8130E94BB13E7ECF0E0BAC00E946313EBE10E94C813E6
:2005A0000E94BB13E1EFF0E0B0C00E946313ECE10E94C8130E94BB13EAE0F1E0A6C00E9446
:2005C00063130E94B2130E94BB130E94BF13E8E00E94C8130E94BB13E4E2F1E096C00E9416
:2005E0006313EBE10E94C8130E94BB13EEEAF0E00E94D0130E946313E6E20E94C8130E94A0
:20060000BB13EAE2F1E081C00E946313E2E20E94C8130E94BB13EEE4F1E077C0E881F981A8
:20062000309751F40E9463130E94B2130E94BB13EEE6F1E00E94D013A881B981119759F43D
:200640000E946313E5E20E94C8130E94BB13EFE8F1E00E94D0135EC00E946313E5E20E9402
:20066000C8130E94BB13E2EBF1E04FC00E946313ECE10E94C8130E94BB13E5EDF1E045C008
:200680000E946313EFE10E94C8130E94BB13EFEEF1E03BC00E946313EAE10E94C8130E94DA
:2006A000BB13ECE0F2E031C00E946313EBE20E94C8130E94BB13E4E2F2E027C00E94631374
:2006C000E7E20E94C8130E94BB13EDE4F2E01DC00E946313E4E30E94C8130E94BB13E2E74F
:2006E000F2E013C00E946313ECE20E94C8130E94BB13ECECF2E009C00E946313E5E30E948D
:20070000C8130E94BB13E6EFF2E0FA93EA9380E00E94D212229608951A930A931F9AEA8134
:20072000EA9352DEEB810E94D7131F9819810881249608950E94451940E050E0E0E0E09360
:20074000860510E0AE81BF811197D9F50E9463130E947F130E94DF130E948813F0E0E093D9
:200760003405F09335050E9463130E94E3130E94EF130E9488130E94F31339F4E1E0F0E08C
:20078000E0939505F093960505C0E0E0E0939505E09396050E9463130E94E3130E94F81331
:2007A0000E9488130E94F31339F4E1E0F0E0E0939305F093940505C0E0E0E0939305E0936C
:2007C00094050E9463130E947F130E94FC130E948813F0E0E0932E05F0932F050E94001463
:2007E0001E2EAE81BF810E9407140E940D14E4E0F0E00E949618E021E12969F10E9463135D
:200800000E947F130E9412140E9488130E94F31339F4E1E0F0E0E093B905F093BA0505C001
:20082000E0E0E093B905E093BA05E0916A05F0916B0560916C0570916D05A7E0B0E080E078
:2008400090E00E94D918E0935605F09357056093580570935905E0919B05F0919C0530973D
:2008600091F41A93E2E0EA9357DFE1E0F0E0E0939B05F0939C05E0915605F0915705E093ED
:200880009D05F0939E050E941614A0919D05B0919E050E9474180E94401929F0E0E0E09398
:2008A0009B05E0939C05D6010E9407140E940014E02151F10E9463130E947F130E941F14D6
:2008C0000E9423140E9427140E9427140E948A110E948A114E2F55270E948A11F0E00E9463
:2008E0002D140024041605066CF4FA01AFEFB0E00E94D4180E940D14EA0FFB1FE40FF51F7A
:200900000E942D140E9432140E944C1999C00E9463130E946B130E94DF130E947B13E0913F
:2009200034050E943B140E946B130E94FC130E947B13E0912E050E943B140E946B130E9435
:2009400012140E947B130E9423140E9463130E946B130E941F140E947B13E5E00E943B1475
:200960000E943F140E94EF130E947B130E9423140E9463130E943F140E94F8130E947B13EB
:200980000E9423140E9463130E943F14E0E8EA930E948E110E947B13E1E0EA930E948E113C
:2009A00008950E9447190E9448145CF00E944E140E94F1188F010E944E140E94F6189F01BB
:2009C00002C00E9453140E9463130E946B13E0E8EA930E948E110A930E9458141CF00E9435
:2009E0005B1406C0AF81AA2312F0EE8101C0E0E0EA930E948E110E9460145CF00E94661497
:200A00000E94F1188F010E9466140E94F6189F0102C00E9453140E9463130E943F140E94B5
:200A2000DF130A930E948E110E9460141CF00E945B1401C0EC81EA930E948E110E944E19BE
:200A4000289608950E9463130E946B140E94EF130E942F131A971CF4E9E2F3E002C0EAE28D
:200A6000F3E0FA93EA930E9474140E9481140E9434131A971CF4E9E2F3E002C0EAE2F3E08F
:200A8000FA93EA930E9484140E948114A091C505B091C6051A971CF4E9E2F3E002C0EAE2E7
:200AA000F3E0FA93EA930E94911408950E9463130E946B140E947B130E942F131A971CF467
:200AC000E9E2F3E002C0EAE2F3E0FA93EA930E9474140E9481140E9434131A971CF4E9E237
:200AE000F3E002C0EAE2F3E0FA93EA930E9484140E948114A091C505B091C6051A971CF47F
:200B0000E9E2F3E002C0EAE2F3E0FA93EA930E94911408950E946313EBE0EA930E948E1147
:200B2000E2E8EA930E948E110E94EF130E94BB13E091C105F091C2050E949E14EA0FFB1F33
:200B4000E093C705F093C8050E949E14DD976CF0E091C705F091C805FC97E093C705F09302
:200B6000C805A9ECB5E00E942913E091C305F091C4050E94A314EA0FFB1FE093C905F093ED
:200B8000CA050E94A314DD976CF0E091C905F091CA05FC97E093C905F093CA05ABECB5E07C
:200BA0000E942913E091C505F091C6050E94A814EA0FFB1FE093CB05F093CC050E94A8146A
:200BC000DD9774F0E091CB05F091CC05FC97E093CB05F093CC05E0E0E093CB05E093CC0539
:200BE0000E949E141A971CF4E9E2F3E002C0EAE2F3E0FA93EA93E091C705F091C8050E94AA
:200C0000AD140E9481140E94A3141A971CF4E9E2F3E002C0EAE2F3E0FA93EA93E091C9057A
:200C2000F091CA050E94AD140E9481140E94A8141A971CF4E9E2F3E002C0EAE2F3E0FA931F
:200C4000EA93E091CB05F091CC050E94AD1408950E9447190E9463130E946B130E94EF13A6
:200C60000E947B13EE850E943B140E946B130E94F8130E947B13EC850E943B140E943F148C
:200C80000E9477130E947B13EA850E943B140E943F140E94FC130E947B13E885EA930E9436
:200CA00058145CF00E944E140E94F1188F010E944E140E94F6189F0102C00E9453140E947C
:200CC00063130E943F140E9412140A930E9458141CF00E945B1406C0AF81AA2312F0EE81E5
:200CE00001C0E0E0EA930E948E110E9460145CF00E9466140E94F1188F010E9466140E943E
:200D0000F6189F0102C00E9453140E9463130E943F140E941F140A930E948E110E94601484
:200D20001CF00E945B1406C0AD81AA2312F0EC8101C0E0E0EA930E948E110E944E19609628
:200D40000895959A08950E9456131F9AE4E6F0E00E94B6142ADB0E2F1127002E012A21F478
:200D60000E94BA145BDC21DB1F98099119910895E0E00799E1E0E03011F00C941607E091D8
:200D80009905F0919A05309749F4B6DC0E94BF141D9A0E94C5140E94C81447C0E130A0E042
:200DA000FA0731F41D980E94C5140E94CF143DC0E230A0E0FA0741F41E9A069903C00E94D7
:200DC000D61401C067DC31C0E330A0E0FA07D1F4069B17C091DCA0919705B09198051297A2
:200DE00021F4E3E0F0E00E94E014E0919705F0919805309721F4E2E0F0E00E94E0140E94E4
:200E0000E51413C0E430A0E0FA0779F40E94EC14129729F40E94C5140E94CF1406C0E1E015
:200E2000F0E00E94E0140E94F11413C0E13089F41DDC1D981E980E94F714E091B705F09185
:200E4000B805309711F40E94FD140E9406150E942C15E0919705F0919805089528970E948D
:200E6000451920E030E040E050E00E949E130E942F150E94351501E010E00E94F114E8E04F
:200E8000F0E0CE16DF061CF00E94F11402C00E943B150E9442150E9457150E945D150E9495
:200EA00057150E9462150E9457150E9467150E945715E3E0F0E00E947E180E945715E4E0D6
:200EC000F0E00E947E18E02911F40C94E1080E944215E02911F40C943408F801E130A0E006
:200EE000FA0769F5DA010E9462150E2E0E946C150E220E947215E0E2FEE460E070E00E9411
:200F0000A418E0211E2ED601E8E0F0E00E9490180E2E0E947215E8EBFBE060E070E00E94CA
:200F2000A418E021E12951F0E8E0F0E0CE16DF060CF4C59A02E010E00E94351595C0E230C4
:200F4000A0E0FA07D9F50E9477150E2ED601E8E0F0E00E949018E0211E2EA0E0CD99A1E06B
:200F60000E9439130E946C15E021E12911F0C59820C00E9472150E9445130E947E150E941D
:200F8000831559F0EDDA9ADBC598E1EAF6E861E070E0EE83FF83688779870E9472150E94F0
:200FA00045130E947E150E94881539F0A5DB0E943515C298C69803E010E056C0E330A0E09C
:200FC000FA0711F00C942308A091A705B091A805119711F5A0913405B0913505E6E4F0E04C
:200FE0000E9490180E2E0E940D14E1E0F0E00E9496180E948D150E948A180E220E949215C6
:201000000E945D15E02109F0A89AC798909AE0E0E093A705E093A805A0E0CC99A1E00E94F0
:201020003913A091A705B091A8050E945D15E02149F0909A0E9497150E949E150E94A41523
:2010400004E010E011C0E430A0E0FA0769F4029906C0E1E0F0E0E093AB05F093AC05CC994B
:2010600003C0909805E010E0E0E00799E1E0E03011F00C94B608E0919905F0919A0530972A
:2010800019F50E94AD15A0E00399A1E00E94881549F00E94BF1430DB1D9A0E942F150E940A
:2010A000C81411C0A0E00399A1E00E943913D9010E945D15E02131F0A4E7B5E00E942913EA
:2010C00021E030E052C051C0E130A0E0FA0799F40E94AD15A0E0C199A1E00E94881549F086
:2010E0000E94B5152CF01D980E94CF140E942F1501C03BC03AC0E230A0E0FA07B1F40799BA
:2011000011C00E94B5156CF01E9A069909C041E050E00E9435150E94D6140E942F1501C0A6
:20112000B9DA02C0C19821C020C0E330A0E0FA07B1F4069B13C0E0DA1E98AA85BB858C85A3
:201140009D85A136EAEEBE07E0E08E07E0E09E071CF00E94E51402C00E94F11406C0E43055
:20116000A0E0FA0711F40E943B1512C0E13081F4C3DA7CDA1D981E980E94F1140E942F15B4
:20118000E091B705F091B805309711F40E94FD14EA85FB856C857D85EF5FFF4F6F4F7F4F5B
:2011A000EA87FB876C877D87EE81FF8168857985EF5FFF4F6F4F7F4FEE83FF836887798761
:2011C00068CE0E944C192E960895A1DBC89902C01BDAFCCF91DAB5DD8FDACDD9B4DD8CDA0F
:2011E000CC9B02C0909AFCCF0E9497159098AB98A998AA9A1A98C7986ED97EDACCD9E091CD
:201200008605E03001F50E94BA1494DAA0919305B09194051197A1F40E942C150E94C11524
:20122000A99AE8EBFBE00E94B614AA9A1A98E0EDF7E00E94B6140E94C115A9980DDAFFCFDD
:201240000E94C615DCCFE0E0E093860507DEAD9A0E942C15AD9802DE0E942C15FFDD0E9413
:201260002C15FCDD0E94F7140E94EC140E9407140E94EC140E9467150E2A0E94EC14E3E0EB
:20128000F0E00E947E18E02921F072DD0E94E014EBCFE0E0E0939705E09398050E942C15CB
:2012A0000E94BA1447DAE1E0F0E00895E1E0F0E00E94CB15E0917E05F0917F0508951A9319
:2012C0000A931F9AE4E00E94D7131F98002E012A79F4A091A505B091A605159719F4D0D9C2
:2012E0000E94D015A5EAB5E00E9429130E94D6150E94E21561F40E94D015A0917C05B09170
:201300007D05119711F40E94E7150E94EF15E0918205F0918305ABC11A930A931F9AE6E024
:201320000E94D7131F98002E012A79F4A091A505B091A605159719F4D5D90E94D015A5EA60
:20134000B5E00E9429130E94D6150E94E21561F40E94D015A0917C05B0917D05119711F4F6
:201360000E94E7150E94EF15E0918205F09183057EC11A930A931F9AE1E00E94D7131F98E2
:20138000002E012A81F40E94BA1448D90E942C15E0E0E0938005E0938105E1E0F0E0E09356
:2013A0007A05F0937B050E94E21581F4A0917A05B0917B05119731F49FD9E0E0E0937A0535
:2013C000E0937B05E1E0F0E00E94F615E0918005F09181054CC10E945613E0911405F091BC
:2013E0001505309729F40E94FB150E94ED01DAC0E130A0E0FA07D9F4AF9A0E9402160E940F
:20140000881599F0E0E0E0934605E0934705E0934805E09349050E940D16E2E0F0E00E94EF
:2014200017160E941C16CBD801C0BFD8BBC0E230A0E0FA0769F40E9423160E942C163CF05A
:20144000AF980E940D16E3E0F0E00E941716AAC0E330A0E0FA0759F40E9434163CF0AE9A73
:201460000E940D16E4E0F0E00E9417169BC0E430A0E0FA0761F40E94341644F0AE98C49A3B
:201480000E940D16E5E0F0E00E9417168BC0E530A0E0FA0759F40E9434163CF0C4980E94DF
:2014A0000D16E6E0F0E00E9417167CC0E630A0E0FA0799F50E9402160E94831521F00E949C
:2014C000FB150E943D16A0E0CA99A1E00E943913A0E0CB99A1E00E94881521F00E94FB154E
:2014E0000E943D160E9402160E94881531F0E3E0F0E00E9417160E943D16A0E0CA99A1E022
:201500000E943913A0E0CB99A1E00E94831521F0E7E0F0E00E94171645C0E730A0E0FA072A
:2015200069F40E9423160E944A163CF0AD9A0E940D16E8E0F0E00E94171634C0E830A0E046
:20154000FA0769F40E9423160E9452163CF0AD980E940D16E9E0F0E00E94171623C0E930AE
:20156000A0E0FA0751F40E9423160E945A1624F0EAE0F0E00E94171615C0EA30A0E0FA07CB
:2015800089F40E940D16E0E0E0931405E093150501E010E0E1E0F0E0EC15FD0519F4E2E0FC
:2015A000F0E06F0163C00E945613E0911605F0911705309771F4E0E0E0934A05E0934B0523
:2015C000E0934C05E0934D050E9462160E9467164DC0E130A0E0FA0789F40E946C160E9467
:2015E00075160CF0AC9A0E946C160E942C162CF01C9A0E9462160E947D1638C0E230A0E06B
:20160000FA0759F40E946C160E944A162CF01C980E9462160E94821629C0E330A0E0FA07B5
:2016200049F40E9487162CF0AC980E9462160E9490161CC0E430A0E0FA0741F40E94871687
:2016400024F0E6E1F5E00E94951610C0E530A0E0FA0761F40E9462160E949A16E3E0F0E0D3
:20166000EC15FD0519F4E4E0F0E06F01F8010991199108950E945613E0911805F091190544
:20168000309791F4E0E0E0934E05E0934F05E0935005E09351050E94A116C398AA98E8E161
:2016A000F5E00E94671603C1E130A0E0FA0769F40E94AB160E945A163CF01A9A0E94A116D5
:2016C000E8E1F5E00E947D16F2C0E230A0E0FA07B1F40E949215119721F40E94B4160E9439
:2016E000BB160E94AB160E94C21644F0A99AC79A0E94A116E8E1F5E00E948216D8C0E33088
:20170000A0E0FA07A1F40E94AB160E94CA1674F0A998A9E8B5E0ED91FD913197FE93EE931D
:201720000E94A116E8E1F5E00E949016C0C0E430A0E0FA0739F40E94A116E8E1F5E00E948F
:201740009516B5C0E530A0E0FA0781F40E94AB160E94521654F0C39A1A980E94D216E8E14B
:20176000F5E0A6E0B0E0A083B183A1C0E630A0E0FA0781F40E94AB160E94751654F0919ABB
:20178000AB9A0E94A116E8E1F5E0A7E0B0E0A083B1838DC0E730A0E0FA07D1F5A0E00599D6
:2017A000A1E00E94D8160E94DD160E945D15E02111F00E94B4160E94DD160E9462150E2E17
:2017C000E0912E05F0912F050E94AB160E946F180E949C18E02131F0C39891980E94A116CF
:2017E0000E94E216E0913005F09131050E94AB160E946F180E94401954F4C3989198A9EA0C
:20180000B5E00E9429130E94D2160E94E2164FC0E830A0E0FA07C9F40E94E9160E94621512
:20182000E02131F0AB98AA9A0E94A1160E94BB160E94E9160E945D15E02131F0AB98AA9AD5
:201840000E94A1160E94BB1632C0E930A0E0FA07A1F40E94AB16A630E0E0BE07E0E08E0788
:20186000E0E09E074CF0C7980E94A116E8E1F5E0AAE0B0E0A083B1831AC0EA30A0E0FA078B
:20188000B1F4E0918F05F0919005E0939105F09392050E94A116E8E1F5E00E949A16E5E057
:2018A000F0E0EC15FD0519F4E6E0F0E06F01F80121C30E945613E0911A05F0911B05309762
:2018C00081F4E0E0E0935205E0935305E0935405E09355050E94F2160E9467160E949E1389
:2018E00038C1E130A0E0FA0729F40E94F2160E947D162FC1E230A0E0FA0769F40E94FE16CB
:201900000E94CA163CF0A898C19AC09A0E94F2160E9482161EC1E330A0E0FA0711F00C942C
:20192000D00CA0919105B09192050E9462150E2E0E9492150E945D150E22A091A105B09132
:20194000A2050E945D150E22A091AB05B091AC050E946215E021E9F40E94B0020E94680371
:20196000E1E0F0E0E093A105F093A205CF9917C0A091AB05B091AC050E940714D601E7E026
:20198000F0E00E948A18E02121F0ADEAB5E00E942913EAE1F5E00E9490160E940717D9C0D6
:2019A000E430A0E0FA0769F40E947C03E0E0E093A105E093A205C59A0E94F2160E949516CB
:2019C000C8C0E530A0E0FA0711F00C942A0D0E94FE16E9E1F0E060E070E00E94A4180E2E97
:2019E000A0E0CD99A1E0E1E00E9479180E22A0E0C599A1E00E94831539F0C69A0E94F21690
:201A0000A6E0B0E0A083B1830E94FE16E2E3F0E060E070E00E94A4180E2E0E947715E021B5
:201A200039F00E9407170E94B0020E945403C598A0E0C599A1E0E0E00E9479180E947E158C
:201A40000E94881531F00E947C03EAE1F5E00E9490167FC0E630A0E0FA0791F40E94FE160C
:201A6000AA31E0E0BE07E0E08E07E0E09E073CF0C29A0E94F216A7E0B0E0A083B18369C083
:201A8000E730A0E0FA07A1F40E94FE160E944A1674F0009B05C0ABEBB5E00E9429133197CC
:201AA000C0980E94F216A8E0B0E0A083B18351C0E830A0E0FA0769F40E94FE160E944A16F6
:201AC0003CF0C5980E94F216A9E0B0E0A083B18340C0E930A0E0FA0769F40E94FE160E9414
:201AE000C2163CF0C2980E94F216AAE0B0E0A083B1832FC0EA30A0E0FA0769F40E94FE16D0
:201B00000E94C2163CF0C1980E94F216ABE0B0E0A083B1831EC0EB30A0E0FA07D1F40E94C9
:201B2000FE160E945216ACF00E94F2160E949A16A2E3B5E0ED91FD913197FE93EE93E7E028
:201B4000F0E0EC15FD0529F4E8E0F0E06F010E941117F801CFC10E942B170E9407140E94F7
:201B60003017E02129F037DCE0930005F09301050E9436170E943B170E9441170E94491711
:201B8000E02129F010DDE0930205F09303050E944E170E943B170E9441170E9453170E9496
:201BA0004917E02129F066DDE0930405F0930505E0910605F09107050E943B170E94411768
:201BC0000E945317D601E5E0F0E00E9484180E948D150E9484180E220E944917E02129F081
:201BE00068DEE0930605F09307050895AA24BB240E9464170E9411170E9422050E94ED0108
:201C000008950E9456130E946B170E2ED6010E946715E02199F00E94C6150E946D170E94F8
:201C20007C170E9481170E948717E02139F00E948D170E949D17E3E0F0E06F010E946B17AA
:201C40000E2E0E9436170E94A517D601E4E0F0E00E947E18E021B9F00E94C6150E946D170B
:201C60000E947C170E9481170E948717E02159F00E948D170E94AB170E94ED01E5E0F0E09C
:201C80006F010E94B2170E946B170E2E0E9436170E94A5170E944E17A1E0B0E00E947E186C
:201CA0000E948D150E947E18E021B9F00E94C6150E946D170E947C170E9481170E948717AC
:201CC000E02159F00E948D170E94AB170E94B8170E949D17E7E0F0E06F010E946B170E2EE2
:201CE0000E9436170E94A5170E944E170E94A517E0910605F09107050E94A5170E946C15A8
:201D0000E02111F40C947A0F0E94C615CFDA0E94CB152FDB0E94F6150E946502E0938B0529
:201D2000F0938C05D5010E9462150E2EA0918605E1E00E9479180E220E947C170E94811715
:201D40000E948717E02111F40C947A0F0E94BF170E94C5170E94CA1799F0B1DAE09382058D
:201D6000F09383050E94C517D8010E945D15E02131F0A6E7B5E00E94291301E010E0E8CF43
:201D80000E94D1174CF00E94DC1734F0E1E0EA93E3E0EA930E948C0361D80E94D117B4F0AE
:201DA0000E94DC1734F0E1E0EA93E5E0EA930E948C030E94BF170E94C5170E94E11731F008
:201DC000ABDAE0938205F0938305F5CFE0E0F0E0FA93EA930E949A03A091B905B091BA05ED
:201DE0000E9462150E2EA091BD05B091BE050E945D15E021C9F0E0E0E093B905E093BA05A6
:201E0000E1E0F0E0E093BD05F093BE050E94A402E4E0F0E00E942D140E943214EEEFFFEF44
:201E2000E0932805F0932905F60131966F01E8EEF3E0EC15FD051CF4E4E6F0E06F010E94BB
:201E40000D14E3E0F0E00E9496180E2E0E944917E02141F00E94B2170E94E8170E94B81791
:201E60000E94EE170E940D14139744F00E941C160E94AB170E94B8170E94EE170E940D1407
:201E8000129734F00E941C160E94B8170E94EE170E940D140E943C1924F40E941C160E9441
:201EA000EE17A4DE0E94F517A0919F05B091A0050E947E180E2EA091A305B091A4050E9459
:201EC0005D15E021B9F00E94EF020E940E130E9414130E941A13E0E0E093C505E093C605BD
:201EE00094980E94A4020E948B02E0E0E0938605CC24DD24099119910895D601E8E0F0E040
:201F00000E947E180E2ED5010E945D15E02119F0E1E0F0E05F01D601E9E0F0E00E948A18B4
:201F20000E2ED5010E945D15E02111F40C942410042C0528A1F40E941614A0915E05B0910E
:201F40005F0580916005909161050E94FB1721F0AEE6B5E00E942913E1E0F0E02F01062C61
:201F60000728A1F40E941614A0916205B091630580916405909165050E94FB1721F0A0E73F
:201F8000B5E00E942913E1E0F0E03F01A0E00499A1E00E94D816D4010E945D150E22D601DF
:201FA000EBE0F0E00E949018E021C9F00E94FF1721F0A2E7B5E00E9429130E94DC1764F0D4
:201FC000A8E2B5E00E942913A1EBB5E00E9429130E94F5170E940918E1E0F0E04F01A0E033
:201FE0000499A1E00E94D816D4010E945D150E2A0E94CA17C9F00E94FF1721F0A2E7B5E0EF
:202000000E9429130E94DC1764F0A8E2B5E00E942913A1EBB5E00E9429130E94F5170E94AD
:202020000918E1E0F0E04F01D2010E9462150E2ED3010E9462150E22D4010E946215E0216A
:2020400019F0E1E0F0E05F0108950C2C0D28A1F5E0918605E03029F40E94C6150E94560543
:202060002BC00E94BA140E949A030E9415180E941B180E94E8170E94B8170E94EE170E94C7
:2020800015180E947C039498E0E0E093BD05E093BE05E0912805F0912905FA93EA93E091D3
:2020A000B105F091B205FA93EA930E94D1040E948A05E1E0F0E06F010895E0E0EBBBEABBD7
:2020C000E8BBEFEFE7BBE0E0E5BBEFEFE4BBE0E0E2BBEFEFE1BBE0E0E3B9EFEFE2B9E0E094
:2020E000E0936200E0936100E0936500EFE1E0936400E0E0E0BFE7E0E3BFE0E0E2BFE1BFEF
:20210000EFBDEEBDEDBDECBDE7BDE6BDEBBDEABDE9BDE8BDE0937900E0937800E5BDE4BD1A
:20212000E3BDE0938B00E0938A00E0938900E0938800E0938100E0938000E0938700E093B9
:202140008600E0938500E0938400E0938300E0938200E0936A00EABFE9BFE1E0E7BFE0E0CA
:20216000E0937D00EBB9E8E1EAB9E6E0E0939500E0E0E0939000E7E6E9B9E0E0E0939B0091
:20218000E8E1E0939A00E6E0E0939D00E0E0E0939800E7E6E0939900E0E8E8B9E0E0E0BD29
:2021A000E6B9EDB9E09374007894E0E4FFE10E94B614E0EDF7E00E94B6140E9463130E940D
:2021C000A413EA93ABD0CC24DD24E0E0E0935605E0935705E0935805E09359050E94641744
:2021E000AA24BB24E4E6F0E060E070E0E0935A05F0935B0560935C0570935D050E94B2172F
:20220000EEE3F0E060E070E0E0936A05F0936B0560936C0570936D050E94F714ECEDF0E089
:20222000E0933005F0933105E8E2F0E0E0932E05F0932F05E6E4F0E0E0933405F093350543
:20224000E0E0E0932A05E0932B050E9415180E941B18E0E0E0938405E0938505E0939B0509
:20226000E0939C05E0939D05E0939E05E093A105E093A2050E94D015E0E0E093A305E09317
:20228000A405E093A705E093A805E093A905E093AA05E093AD05E093AE050E949E15E09300
:2022A000AF05E093B005E0E0E093B105E093B2050E944C130E94BF14E0E0E093BD05E09351
:2022C000BE05E0938605E0937805E0937905E0937A05E0937B05E0937C05E0937D05E0931B
:2022E0007E05E0937F05E0938005E09381050E94BF170C2C0D2821F40E94E5086F01F9CFB2
:202300000E943E02A2DE27DCF8DD7BDC0E94AA02F7CFFFCF5F9BFECFECB108955D9BFECF84
:20232000E881ECB921960895EA81EA93F7DFA881B9810E9429132396089526970E94451929
:2023400010E0AC85BD85E0E0F0E0ED93FC93EA89FB893196EA8BFB8B3197E4912E2FE03018
:2023600011F40C94CA12E12FE03039F4253211F411E002C00E942A180CC1E130A9F42532CA
:2023800019F40E942A1804C112E040E000E02D3211F401E0FEC02B3211F44BE2FAC02032F7
:2023A00011F440E2F6C002C0E23039F450E013E0203311F40068EDC004C0E33011F00C9437
:2023C000C912203310F02A3308F007C0AAE05A9F502DE22FE0535E0FDCC0E22FE33649F4FF
:2023E0000E943318E889F989A481AA930E943918CFC0E33741F40E9433180E9441180E9440
:20240000F9121E2F0AC0E03761F40E9433180E9441180E9403131E2F086002600F7730E0E1
:2024200035C0E43611F0E93611F4046002C0E53731F4ECE8F0E0EE83FF8315E00DC0E8358B
:2024400011F4086004C0E83711F00C94C812E6E9F0E0EE83FF8314E002FF14C00E94331869
:202460000E944B18AB85AA233AF4EA85FB850E946318EA87FB874DE2403011F01F5F01C04E
:202480000B7F04C00E9433180E944B1800FD11C0151778F407FF08C002FF04C00B7F242F26
:2024A000115001C020E301C020E20E942A185150EFCF312F01FF17C03030A1F003FF06C001
:2024C000EE81FF812591EE83FF8305C0AE81BF812D91AE83BF830E942A18503009F0515001
:2024E0003150EACF4BC020E3EE81FF810E943319E887F987EE81FF813296EE83FF83E885B1
:20250000F985AA85BB85AE17BF0750F02F5FA885B985EA85FB85EA1BFB0BEA87FB87EFCF5F
:202520002A3328F003FF02C0295F01C0295D04FD1AC0213320F4A885B985119709F409C077
:20254000531710F000FF01C013C020E207FF0BC020E3006102FF07C00B7F4A930E94391825
:20256000503009F051500E942A18503009F051503150A885B985129708F0B5CF00FF08C06B
:20258000503031F05150E0E2EA930E943918F8CF10E0DDCEAC85BD850E9425190E944C190B
:2025A00064960895FF92F82E26971A930A93DE0114960E945F188D01E0E0EC83ED83EE8386
:2025C000EF83DE0118960E945F180E942519FA93EA931A930A93E4E9F1E1FA93EA93FE0107
:2025E0003896FA93EA93A9DE198108812896FF900895A991B991EE27FF276D91662311F028
:202600003196FBCF0895AA27BB27E991F9910590002011F01196FBCFFD010895E0E0E093E0
:20262000BF05E093C0050895E0E0E093C105E093C2050895E0E0E093C305E093C40508955D
:202640000E942919EF5FFF4F6F4F7F4F0E942E190895ED91FD913196FE93EE930895A09135
:20266000C105B091C2050895A091C305B091C4050895E1E00E9479180E2E0895A0E0C999A0
:20268000A1E0E0E00E9479180895E0EAF6E861E070E00E94A4180895E0E0E093B305E09397
:2026A000B405E093B505E093B60508951A930A9300E010E00895E0EDF7E0FA93EA930E9462
:2026C000531894980895EAE5EA930E948E11E5EAEA930C948E11E5E0EA930E948E11E2E861
:2026E000EA930E948E11E0E0EA930C948E11E0E3EA930C948E11E0E0EA930C948E11E4E0E1
:20270000EA930E948E11E3E8EA930E948E11F3CFE1E0EA930E948E110E948A110E948A11B7
:202720000E948A110E948A110E948A110E948A110E948A110E948A110C948A11E0E0E093BD
:202740008D05E0938E050895E3E0EA930E948E11E0E8EA930E948E11E2E0EA930E948E11BD
:20276000E0E10895E3E2EA930E948E11E2E8EA930E948E11C0CFE0E9EA930C948E11EEE905
:20278000F0E0FA93EA9380E00E94D21222969BCFEA930E948E11E2E8EA930E948E11ABCF97
:2027A000FA93EA9380E00E94D21222960895EA930E94E4010E94D5010E2F11270895E0E482
:2027C000EA930C948E11E4E0EA930E948E11E3E8EA930E948E11E0E1EA930C948E11E0E1F4
:2027E000EA930C948E112E2F3327022E032A0895E0E2EA930C948E11E0E5EA930C948E116D
:20280000AE81BF81E1E0F0E00E947E180895E0E0F0E00E947E180E2E0895A0913205B09199
:2028200033050895E0E6EA930C948E11E0915605F091570560915805709159050895E0E787
:20284000EA930C948E11E1E0EA930C948E110E948A110E948A110C948A11E0933205F0935D
:2028600033050895E0913205F0913305E0939F05F093A0050895EA930E948E1124CFE5E0D0
:20288000EA930E948E11E2E8EA930E948E11A7CFAE81BF81A030E1E0BE070895AE81BF81AB
:2028A000EFEFF0E0089500E010E020E030E008950E948E11EDCFAFEF0A02F001E20F08952A
:2028C000AC81BD81A030E1E0BE070895AC81BD81EFEFF0E00895EBE0EA930E948E11E2E891
:2028E000EA930E948E1184CFE091C105F091C2050E946F180E94371984E00E94D212269687
:202900000895EDE2F3E04CCFE091C305F091C4050E946F180E94371984E00E94D212269619
:202920000895E091C505F091C6050E946F180E94371984E00E94D21226960895A091C70518
:20294000B091C8050895A091C905B091CA050895A091CB05B091CC0508950E946F180E94A5
:20296000371984E00E94D21226960895FA93EA930C945318E1E0F0E0FA93EA930895E0E0B7
:20298000E093B705E093B8050895E0E9F1E0EECFE1E0F0E0E0939905F0939A050895E2E0C1
:2029A000F0E0E0939905F0939A0508950E947C03E3E0F0E0E0939905F0939A051E9808953D
:2029C000E0939705F09398050895E4E0F0E0E0939905F0939A050895A0919705B09198051C
:2029E0000895E0E0E0939905E0939A050895E0E0E0939705E0939805F4CFE1E0F0E0E09314
:202A0000B705F093B805AFEAB5E023CEE091AD05F091AE05FA93EA93E091A905F091AA05EB
:202A2000FA93EA93E091AF05F091B005FA93EA93E091BB05F091BC05FA93EA93E0917405C0
:202A4000F0917505FA93EA93E0917605F0917705FA93EA930C942806E8EEF3E087CFE0E0F1
:202A6000EA87EB87EC87ED870895E0E0EE83EF83E887E9870895E5E0F0E0E0939905F093A7
:202A80009A050895D801E1E0F0E00E947E180E2EE2E0F0E00E947E180E2AE3E0F0E00E94E5
:202AA0007E180E2AE4E0F0E00E947E1808950E2AA0919905B0919A050895E0E0F0E00E9429
:202AC0007E180895E1E0F0E00E947E180895E2E0F0E00E947E180895D601E8E0F0E00E94E5
:202AE0008A180895AE81BF81888599850895A0E0CD99A1E0E0E00E94791808950E2EA0E0AD
:202B0000CF99A1E00895E1E00E947918E0210895E0E00E947918E02108950E22D601E6E03F
:202B2000F0E00895A0919505B09196050895E1E0F0E0E093A705F093A8050895E0E0E09334
:202B4000AB05E093AC050895E0933A05E0933B05E0933C05E0933D050895A0E00799A1E0F8
:202B6000E0E00E9479180E2E0895AA85BB858C859D85A93EE3E0BE07E0E08E07E0E09E07BE
:202B80000895AA981A9AE8EBFBE0F0CE0E949502E09386050895E0937E05F0937F050895C8
:202BA000E0E0E093A505E093A6050895E0E0E0938205E0938305E1E0F0E0E0937C05F093C0
:202BC0007D050895E1E0F0E0E017F10708950E947C03E0E0E0937C05E0937D050895E1E091
:202BE000F0E0E0938205F09383050895E0938005F09381050895E1E0F0E0E0931405F09325
:202C000015050895A0E0CA99A1E0E0E00E9479180E2EA0E0CB99A1E00895E0E0E0933605FA
:202C2000E0933705E0933805E09339050895E0931405F09315050895E1E0F0E0E0932C05EC
:202C4000F0932D050895A0913605B091370580913805909139050895AD33E0E0BE07E0E0CA
:202C60008E07E0E09E070895EEDFA932E0E0BE07E0E08E07E0E09E070895E5E1F0E060E063
:202C800070E0E0933605F093370560933805709339050895AF31E0E0BE07E0E08E07E0E0EF
:202CA0009E070895A531E0E0BE07E0E08E07E0E09E070895A230E0E0BE07E0E08E07E0E0B4
:202CC0009E070895E0E040DFE6E1F5E00895A1E0B0E0A083B1830895A0913A05B0913B05A4
:202CE00080913C0590913D050895A932E0E0BE07E0E08E07E0E09E070895A2E0B0E0A08396
:202D0000B1830895A3E0B0E0A083B1830895E4DFA333E0E0BE07E0E08E07E0E09E07089566
:202D2000A4E0B0E0A083B1830895A5E0B0E0A083B1830895A0E0B0E0A083B18301E010E04A
:202D40000895E0E0E0933E05E0933F05E0934005E09341050895A0913E05B0913F05809191
:202D60004005909141050895E1E0F0E0E0938F05F0939005E6CFE8E1F5E0A9E0B0E0A083CB
:202D8000B1830895AB30E0E0BE07E0E08E07E0E09E070895A333E0E0BE07E0E08E07E0E03B
:202DA0009E070895E0E0E0938F05E0939005C9CFE0E00E9479180E2E0895A0918F05B09198
:202DC00090050895E8E1F5E0A8E0B0E0A083B1830895C1DFEAE0F0E060E070E00E94A418EF
:202DE0000E2EEBCFE0E0E0934205E0934305E0934405E0934505EAE1F5E00895A09142057A
:202E0000B091430580914405909145050895E0E0E0934205E0934305E0934405E093450519
:202E20000895E0E0E0935E05E0935F05E0936005E0936105E0936205E0936305E093640546
:202E4000E0936505E0936605E0936705E0936805E09369050895A0910005B0910105089560
:202E6000D601E0E0F0E00E9484180895E0910205F09103050895A0E0B0E00E947E180E2EEE
:202E8000EFCF0E22D601E1E0F0E00E9484180E220895A0912C05B0912D0514CEE0910405A0
:202EA000F09105050895D601E2E0F0E00E9484180E22E3E0F0E00E9484180E22E4E0F0E07E
:202EC0000E9484180E2208954424552466247724882499240895BFDFF5CD0E9456095BDE41
:202EE0000E94B90983DE0E946502E0938B05F0938C05A0918605BDCBA0917E05B0917F0530
:202F0000E1CD0E22A0918005B0918105DBCD0E22A0918B05B0918C05D5CD0E942E070E94D0
:202F20002205E0E0F0E0FA93EA930E949A03E0E0E0930005E093010508950E94ED01E0E0F3
:202F4000E0932C05E0932D050895A1E0B0E00E947E180E220895E2E0F5E0A0E0B0E0A083AB
:202F6000B1830895E0E0E0932C05E0932D050895E4E0F5E0A0E0B0E0A083B1830895E0E07D
:202F8000E0938205E09383050895A0918205B09183053DCCD601EBE0F0E00E948A18E0215E
:202FA0000895E0919F05F091A005A0912805B0912905EA17FB070895EAE0F0E0CE16DF0669
:202FC0000895D601EAE0F0E00E948A18E0210895E0E0E0930005E0930105BDCFE6E0F5E029
:202FE000A0E0B0E0A083B1830895E0912805F0912905319708950E94A4180E2EE2CF16DCDE
:20300000A0916605B09167058091680590916905F2CFFA93EA93E091B105F091B205319768
:20302000FA93EA930E94D104F1CCE0E0E0932805E09329050895EFEFFFEFE0936E05F0937F
:203040006F05E0937005F0937105E0937205F093730508952A93ED85FE85FA93EA93E9896B
:20306000FA8909950895E889F9893497E88BF98B0895ED85FE85FA93EA93E989FA890995AE
:203080000895A889B98914960E942519EE83FF83FA93EA930895A889B98914960E942519FF
:2030A000EA87FB870895E991F991309639F080EA9FE00197F1F7A8953197C9F7089500249E
:2030C000AF0DB01D0895F195E195F0400895F09560957095E195FF4F6F4F7F4F08956F2FF7
:2030E000660F660B762F08958B2F880F880B982F0895EA17E1E009F0EE270895EA17FB07F0
:20310000E1E009F0EE270895EA17FB07E1E009F4EE270895AE17BF07E1E00CF4EE270895D2
:20312000AE17BF07E1E00CF0EE270895EA17FB07E1E00CF0EE270895AE17BF07860797076D
:20314000E1E00CF4EE270895EA17FB0768077907E1E00CF0EE270895FA9FF02DEB9FF00D5E
:20316000EA9FE02DF10D08957A9F702D6B9F700DF89F700DE99F700D6A9F602D710DFB9F1A
:20318000600D711DE89F600D711D8827FA9FF02D610D781FEB9FF00D611D781FEA9FE02D16
:2031A000F10D681F781F08952FD0D6DF0EF48BDF089538D0D9DF0EF48ADF08950024112478
:2031C00090E1AA0FBB1F001C111C0E1A1F0A18F40E0E1F1E01C0A1609A9599F7FD01D0019C
:2031E000089512D0EBDF0EF46EDF0895E894B7FF04C0A095B09511966894F7FD64DFDEDF93
:20320000FD010EF460DF0895E894F7FF02C05BDF6894B7FF06C0A095B095119600F803943C
:2032200000FA0895E89477FF02C051DF689497FF0BC00024A095B095809590951196801D9A
:20324000901D00F8039400FA0895ED91FC9111970895ED91FD916D917D9108957E936E9384
:20326000FE93EE9308950590F491E02D08957A936A93FA93EA93089500240A160B06089538
:20328000EA17FB076807790708955A934A933A932A931A930A9308955D814C813B812A8152
:0632A00019810881089568
:00000001FF
