:200000000C949F010C9400000C9400000C9400000C9400000C9400000C9400000C94000040
:200020000C9400000C9400000C9400000C9400000C9400000C9400000C9400000C940000C0
:200040000C94ED010C9400000C9400000C9400000C9400000C9400000C9400000C940000B2
:200060000C9400000C9400000C9400000C9400000C9400000C9400000C9400000C94000080
:200080000C9400000C9400000C9400001027E80364000A000100001000011000010020208D
:2000A000202020202020202020202020202020202020202020202020202020202020202040
:2000C00020202020202000496E69636A616C697A756A65206D61737A796E65005779637AAB
:2000E00079737A637A6F6E6F206D61737A796E65004D61737A796E61207A61696E69636A5F
:20010000616C697A6F77616E6100437A656B616D206E612070726574206777696E746F77C5
:20012000616E79005072616361005A616B726563696C656D2077737A7973746B6965207AD2
:200140006164616E652070756368617279004272616B2077796D6167616E65676F206369CF
:20016000736E69656E696120362062617200446F7A6F776E696B206B6C656A7520707265F6
:20018000746F77206E696520676F746F777900446F7A6F776E696B206B6C656A75206E6161
:2001A0006B726574656B206E696520676F746F77790057796C61637A206D61737A796E65F3
:2001C000206920706F637A656B616A2031206D696E757465004F64736C6F6E2069207A7218
:2001E00065736574756A206B757274796E65004D6F6E7465722033206E6965206E6163695E
:20020000736E616C20706564616C6100437A656B616D206E612072756368206C616E63755A
:2002200063686100506F707261772070726574207A2067727A79626B69656D2069206E6138
:200240006369736E696A2067757A696B005573756E2070726574207A6520737A637A656B95
:200260002069206E616369736E696A2067757A696B0057796D69656E206C7562206E616B06
:200280007265632F646F6B7265632067727A7962656B2069206E616369736E696A2067756B
:2002A0007A696B004D6F6E7465722033202D207A64656D6F6E74756A207075636861722018
:2002C0006920706F7477696572647A004D6F6E7465722033202D2077797A776F6C207265C5
:2002E000637A6E696520637A756A6E696B2070756368617261002020202020202020202083
:200300002020202020202020202020202020202020202020202020202020202020202020DD
:200320002020202020202020000001002D4E414E00494E4600000100BF052A030000F89457
:20034000EE27ECBBF1E0F5BFE5BFE0936C00F8E1F1BDE1BD8DE0A2E0BB27ED938A95E9F764
:2003600080E090E1A0E0B1E0ED930197E9F7E6E3F3E085919591009761F0A591B5910590D2
:200380001590BF01F00105900D920197E1F7FB01F0CF8BBFEFEFEDBFE0E1EEBFC0E0D5E011
:2003A0000C94E90E1A930A93E0919B001E2FE078D9F300919C00E12FEC7111F4E02F01C070
:2003C000F3CF099119910895E0919B00E072E1F3E881E0939C00219608956A937A93AA9335
:2003E000BA93EA93FA93EFB7EA93A6E3B5E00E949611A6E4B5E00E949611AAE3B5E00E94F0
:200400009611AAE4B5E00E949611AEE3B5E00E949611AEE4B5E00E949611A2E4B5E00E942D
:200420009611A2E5B5E00E949611AEE5B5E00E949611A2E6B5E00E949611A6E6B5E00E9416
:200440009611E991EFBFF991E991B991A991799169911895C999949AA0E09499A1E00E9434
:200460009F110E94A411E02121F0A3EBB5E00E9496110E94A4110E2EA091B305B091B40581
:200480008091B5059091B6050E94AB11E02141F00E94B2119498E0E0E0938705E0938805D5
:2004A00008951A930A9301E010E0F801F8C20E94BC11C99B02C0949AFCCF0E94C11104319A
:2004C000E0E01E075CF4C99B06C0C99B02C0949AFCCF0E94C1110F5F1F4FF1CFE4E1F0E0F9
:2004E000E0938905F0938A05DAC20E94C9110E94D1110E94DD110E94E111E0E023C2E0E0C4
:20050000E09386050E94C9110E94E5110E94DD110E94EE11E0938605F0E008950E94C911B1
:200520000E94D111E0E608C2ADE8B5E00E9404120E940A120E94C9110E94101203C20E9460
:20054000C9110E941E120E9427120E942B12E7E10E9434120E942712E7ECF0E0BAC00E94EB
:20056000C911EBE10E9434120E942712E1EFF0E0B0C00E94C911ECE10E9434120E942712F6
:20058000EAE0F1E0A6C00E94C9110E941E120E9427120E942B12E8E00E9434120E942712C7
:2005A000E4E2F1E096C00E94C911EBE10E9434120E942712EEEAF0E00E943C120E94C9112F
:2005C000E6E20E9434120E942712EAE2F1E081C00E94C911E2E20E9434120E942712EEE4DD
:2005E000F1E077C0E881F981309751F40E94C9110E941E120E942712EEE6F1E00E943C1246
:20060000A881B981119759F40E94C911E5E20E9434120E942712EFE8F1E00E943C125EC0C6
:200620000E94C911E5E20E9434120E942712E2EBF1E04FC00E94C911ECE10E9434120E9434
:200640002712E5EDF1E045C00E94C911EFE10E9434120E942712EFEEF1E03BC00E94C91185
:20066000EAE10E9434120E942712ECE0F2E031C00E94C911EBE20E9434120E942712E4E28B
:20068000F2E027C00E94C911E7E20E9434120E942712EDE4F2E01DC00E94C911E4E30E9434
:2006A00034120E942712E2E7F2E013C00E94C911ECE20E9434120E942712ECECF2E009C02B
:2006C0000E94C911E5E30E9434120E942712E6EFF2E0FA93EA9380E00E945A1122960895A0
:2006E0001A930A931F9AEA81EA936EDEEB810E9443121F9819810881249608950E94401736
:2007000040E050E0E0E0E093860510E0AE81BF811197D1F50E94C9110E94E5110E944B12EB
:200720000E94EE11F0E0E0933405F09335050E94C9110E944F120E945B120E94EE110E940E
:200740005F1239F4E1E0F0E0E0939505F093960505C0E0E0E0939505E09396050E94C91123
:200760000E944F12E0E20E9464120E945F1239F4E1E0F0E0E0939305F093940505C0E0E01F
:20078000E0939305E09394050E94C9110E94E511E0E50E946412F0E0E0932E05F0932F0524
:2007A0000E9468121E2EAE81BF810E946F120E947512E4E0F0E00E949616E021E12961F1D7
:2007C0000E94C9110E94E511E0E60E9464120E945F1239F4E1E0F0E0E093B905F093BA05E3
:2007E00005C0E0E0E093B905E093BA05E0916A05F0916B0560916C0570916D05A7E0B0E054
:2008000080E090E00E94D916E0935605F09357056093580570935905E0919B05F0919C05E6
:20082000309791F41A93E2E0EA935ADFE1E0F0E0E0939B05F0939C05E0915605F0915705D6
:20084000E0939D05F0939E050E947A12A0919D05B0919E050E9474160E943B1729F0E0E07F
:20086000E0939B05E0939C05D6010E946F120E946812E02161F10E94C9110E94E511E0E70D
:20088000EA930E9416100E9483120E9487120E9487120E9412100E9412104E2F55270E9443
:2008A0001210F0E00E948D120024041605066CF4FA01AFEFB0E00E94D4160E947512EA0F85
:2008C000FB1FE40FF51F0E948D120E9492120E944717A5C00E94C9110E94D1110E944B120C
:2008E0000E94E111E09134050E949B120E94D1110E949F12E0912E050E949B120E94D1111D
:20090000E0E60E94A4120E9483120E94C9110E94D111E0E70E94A412E5E00E949B120E94AD
:20092000A8120E945B120E94E1110E9483120E94C9110E94A812E0E2EA930E9416100E94A2
:20094000E111E1E0EA930E94161008950E944217AE81BF81A030E1E0BE076CF0EFEFF0E038
:200960000E94F1168F01AE81BF81EFEFF0E00E94F6169F0104C000E010E020E030E00E948D
:20098000C9110E94D111E0E8EA930E9416100A930E941610AE81BF81A030E1E0BE072CF0A6
:2009A000AFEF0A02F001E20F06C0AF81AA2312F0EE8101C0E0E0EA930E941610AC81BD8146
:2009C000A030E1E0BE076CF0EFEFF0E00E94F1168F01AC81BD81EFEFF0E00E94F6169F0117
:2009E00004C000E010E020E030E00E94C9110E94A8120E944B120A930E941610AC81BD81AC
:200A0000A030E1E0BE072CF0AFEF0A02F001E20F01C0EC81EA930E9416100E9449172896A5
:200A200008950E9442170E94C9110E94D1110E945B120E94E111EE850E949B120E94D11135
:200A4000E0E20E94A412EC850E949B120E94A8120E94DD110E94E111EA850E949B120E94DC
:200A6000A8120E949F12E885EA930E9416100E94491760960895959A08950E94BC111F9A2E
:200A8000E4E6F0E00E94B1128DDC0E2F1127002E012A21F40E94B512A5DD84DC1F9809916F
:200AA00019910895E0E00799E1E0E03011F00C94B005E0919905F0919A05309749F400DE57
:200AC0000E94BA121D9A0E94C0120E94C31247C0E130A0E0FA0731F41D980E94C0120E947D
:200AE000CA123DC0E230A0E0FA0741F41E9A069903C00E94D11201C0B1DD31C0E330A0E0E3
:200B0000FA07D1F4069B17C0DBDDA0919705B0919805129721F4E3E0F0E00E94DB12E091E3
:200B20009705F0919805309721F4E2E0F0E00E94DB120E94E01213C0E430A0E0FA0779F495
:200B40000E94E712129729F40E94C0120E94CA1206C0E1E0F0E00E94DB120E94EC1213C0E9
:200B6000E13089F467DD1D981E980E94F212E091B705F091B805309711F40E94F8120E940D
:200B800001130E942713E0919705F0919805089528970E94401720E030E040E050E00E94E3
:200BA0000A120E942A130E94301301E010E00E94EC12E8E0F0E0CE16DF061CF00E94EC12D7
:200BC00002C00E9436130E943D130E9452130E9458130E9452130E945D130E9452130E94A0
:200BE00062130E945213E3E0F0E00E947E160E945213E4E0F0E00E947E16E02911F40C9431
:200C00007B070E943D13E02911F40C94CE06F801E130A0E0FA0769F5DA010E945D130E2ECC
:200C20000E9467130E220E946D13E0E2FEE460E070E00E94A416E0211E2ED601E8E0F0E0FA
:200C40000E9490160E2E0E946D13E8EBFBE060E070E00E94A416E021E12951F0E8E0F0E070
:200C6000CE16DF060CF4C59A02E010E00E94301395C0E230A0E0FA07D9F50E9472130E2E7C
:200C8000D601E8E0F0E00E949016E0211E2EA0E0CD99A1E00E949F110E946713E021E12970
:200CA00011F0C59820C00E946D130E94AB110E9479130E947E1359F037DCE4DCC598E1EAD1
:200CC000F6E861E070E0EE83FF83688779870E946D130E94AB110E9479130E94831339F0B4
:200CE000EFDC0E943013C298C69803E010E056C0E330A0E0FA0711F00C94BD06A091A705CE
:200D0000B091A805119711F5A0913405B0913505E6E4F0E00E9490160E2E0E947512E1E04A
:200D2000F0E00E9496160E9488130E948A160E220E948D130E945813E02109F0A89AC798FC
:200D4000909AE0E0E093A705E093A805A0E0CC99A1E00E949F11A091A705B091A8050E9445
:200D60005813E02149F0909A0E9492130E9499130E949F1304E010E011C0E430A0E0FA0781
:200D800069F4029906C0E1E0F0E0E093AB05F093AC05CC9903C0909805E010E0E0E0079928
:200DA000E1E0E03011F00C945007E0919905F0919A05309719F50E94A813A0E00399A1E06C
:200DC0000E94831349F00E94BA127ADC1D9A0E942A130E94C31211C0A0E00399A1E00E94C1
:200DE0009F11D9010E945813E02131F0A4E7B5E00E94041221E030E052C051C0E130A0E09D
:200E0000FA0799F40E94A813A0E0C199A1E00E94831349F00E94B0132CF01D980E94CA1267
:200E20000E942A1301C03BC03AC0E230A0E0FA07B1F4079911C00E94B0136CF01E9A06995C
:200E400009C041E050E00E9430130E94D1120E942A1301C003DC02C0C19821C020C0E330A0
:200E6000A0E0FA07B1F4069B13C02ADC1E98AA85BB858C859D85A136EAEEBE07E0E08E07B1
:200E8000E0E09E071CF00E94E01202C00E94EC1206C0E430A0E0FA0711F40E94361312C0CE
:200EA000E13081F40DDCC6DB1D981E980E94EC120E942A13E091B705F091B805309711F401
:200EC0000E94F812EA85FB856C857D85EF5FFF4F6F4F7F4FEA87FB876C877D87EE81FF8183
:200EE00068857985EF5FFF4F6F4F7F4FEE83FF836887798768CE0E9447172E960895EADCA0
:200F0000C89902C065DBFCCFDBDBB5DDD9DB17DBB4DDD6DBCC9B02C0909AFCCF0E9492130E
:200F20009098AB98A998AA9A1A98C798C0DAC8DB16DBE0918605E03001F50E94B512DEDB5E
:200F4000A0919305B09194051197A1F40E9427130E94BC13A99AE8EBFBE00E94B112AA9ACA
:200F60001A98E0EDF7E00E94B1120E94BC13A99857DBFFCF0E94C113DCCFE0E0E093860525
:200F800007DEAD9A0E942713AD9802DE0E942713FFDD0E942713FCDD0E94F2120E94E71276
:200FA0000E946F120E94E7120E9462130E2A0E94E712E3E0F0E00E947E16E02921F072DD57
:200FC0000E94DB12EBCFE0E0E0939705E09398050E9427130E94B51291DBE1E0F0E008950A
:200FE000E1E0F0E00E94C613E0917E05F0917F0508951A930A931F9AE4E00E9443121F98DA
:20100000002E012A79F4A091A505B091A605159719F41ADB0E94CB13A5EAB5E00E94041239
:201020000E94D1130E94DD1361F40E94CB13A0917C05B0917D05119711F40E94E2130E9468
:20104000EA13E0918205F0918305A5C11A930A931F9AE6E00E9443121F98002E012A79F4EF
:20106000A091A505B091A605159719F41FDB0E94CB13A5EAB5E00E9404120E94D1130E9472
:20108000DD1361F40E94CB13A0917C05B0917D05119711F40E94E2130E94EA13E09182053B
:2010A000F091830578C11A930A931F9AE1E00E9443121F98002E012A81F40E94B51292DAD9
:2010C0000E942713E0E0E0938005E0938105E1E0F0E0E0937A05F0937B050E94DD1381F4F6
:2010E000A0917A05B0917B05119731F4E9DAE0E0E0937A05E0937B05E1E0F0E00E94F11313
:20110000E0918005F091810546C10E94BC11E0911405F0911505309719F40E94F613D6C022
:20112000E130A0E0FA07D9F4AF9A0E94FD130E94831399F0E0E0E0934605E0934705E093E4
:201140004805E09349050E940814E2E0F0E00E9412140E94171417DA01C00BDAB7C0E2307C
:20116000A0E0FA0769F40E941E140E9427143CF0AF980E940814E3E0F0E00E941214A6C0EE
:20118000E330A0E0FA0759F40E942F143CF0AE9A0E940814E4E0F0E00E94121497C0E43090
:2011A000A0E0FA0761F40E942F1444F0AE98C49A0E940814E5E0F0E00E94121487C0E53025
:2011C000A0E0FA0759F40E942F143CF0C4980E940814E6E0F0E00E94121478C0E630A0E0EA
:2011E000FA0799F50E94FD130E947E1321F00E94F6130E943814A0E0CA99A1E00E949F111B
:20120000A0E0CB99A1E00E94831321F00E94F6130E9438140E94FD130E94831331F0E3E0B9
:20122000F0E00E9412140E943814A0E0CA99A1E00E949F11A0E0CB99A1E00E947E1321F0C9
:20124000E7E0F0E00E94121441C0E730A0E0FA0759F40E9445143CF0AD9A0E940814E8E055
:20126000F0E00E94121432C0E830A0E0FA0759F40E9445143CF0AD980E940814E9E0F0E03B
:201280000E94121423C0E930A0E0FA0751F40E941E140E944E1424F0EAE0F0E00E94121476
:2012A00015C0EA30A0E0FA0789F40E940814E0E0E0931405E093150501E010E0E1E0F0E048
:2012C000EC15FD0519F4E2E0F0E06F0163C00E94BC11E0911605F0911705309771F4E0E055
:2012E000E0934A05E0934B05E0934C05E0934D050E9456140E945B144DC0E130A0E0FA0724
:2013000089F40E9460140E9469140CF0AC9A0E9460140E9427142CF01C9A0E9456140E9466
:20132000711438C0E230A0E0FA0759F40E9460140E9476142CF01C980E9456140E947E14FE
:2013400029C0E330A0E0FA0749F40E9483142CF0AC980E9456140E948C141CC0E430A0E07C
:20136000FA0741F40E94831424F0E6E1F5E00E94911410C0E530A0E0FA0761F40E94561440
:201380000E949614E3E0F0E0EC15FD0519F4E4E0F0E06F01F8010991199108950E94BC1111
:2013A000E0911805F0911905309791F4E0E0E0934E05E0934F05E0935005E09351050E9434
:2013C0009D14C398AA98E8E1F5E00E945B1403C1E130A0E0FA0769F40E94A7140E944E14FC
:2013E0003CF01A9A0E949D14E8E1F5E00E947114F2C0E230A0E0FA07B1F40E948D13119721
:2014000021F40E94B0140E94B7140E94A7140E94BE1444F0A99AC79A0E949D14E8E1F5E04A
:201420000E947E14D8C0E330A0E0FA07A1F40E94A7140E94C61474F0A998A9E8B5E0ED9195
:20144000FD913197FE93EE930E949D14E8E1F5E00E948C14C0C0E430A0E0FA0739F40E940D
:201460009D14E8E1F5E00E949114B5C0E530A0E0FA0781F40E94A7140E94CE1454F0C39AD4
:201480001A980E94D614E8E1F5E0A6E0B0E0A083B183A1C0E630A0E0FA0781F40E94A71439
:2014A0000E94691454F0919AAB9A0E949D14E8E1F5E0A7E0B0E0A083B1838DC0E730A0E016
:2014C000FA07D1F5A0E00599A1E00E94DC140E94E1140E945813E02111F00E94B0140E9466
:2014E000E1140E945D130E2EE0912E05F0912F050E94A7140E946F160E949C16E02131F056
:20150000C39891980E949D140E94E614E0913005F09131050E94A7140E946F160E943B1783
:2015200054F4C3989198A9EAB5E00E9404120E94D6140E94E6144FC0E830A0E0FA07C9F472
:201540000E94ED140E945D13E02131F0AB98AA9A0E949D140E94B7140E94ED140E945813BD
:20156000E02131F0AB98AA9A0E949D140E94B71432C0E930A0E0FA07A1F40E94A714A630AE
:20158000E0E0BE07E0E08E07E0E09E074CF0C7980E949D14E8E1F5E0AAE0B0E0A083B1830F
:2015A0001AC0EA30A0E0FA07B1F4E0918F05F0919005E0939105F09392050E949D14E8E1B7
:2015C000F5E00E949614E5E0F0E0EC15FD0519F4E6E0F0E06F01F8011DC30E94BC11E09186
:2015E0001A05F0911B05309781F4E0E0E0935205E0935305E0935405E09355050E94F61455
:201600000E945B140E940A1238C1E130A0E0FA0729F40E94F6140E9471142FC1E230A0E0FE
:20162000FA0769F40E9402150E94C6143CF0A898C19AC09A0E94F6140E947E141EC1E33024
:20164000A0E0FA0711F00C94640BA0919105B09192050E945D130E2E0E948D130E945813BD
:201660000E22A091A105B091A2050E9458130E22A091AB05B091AC050E945D13E021E9F47B
:201680000E9494020E944C03E1E0F0E0E093A105F093A205CF9917C0A091AB05B091AC053B
:2016A0000E946F12D601E7E0F0E00E948A16E02121F0ADEAB5E00E940412EAE1F5E00E941F
:2016C0008C140E940B15D9C0E430A0E0FA0769F40E946003E0E0E093A105E093A205C59AC6
:2016E0000E94F6140E949114C8C0E530A0E0FA0711F00C94BE0B0E940215E9E1F0E060E0DC
:2017000070E00E94A4160E2EA0E0CD99A1E0E1E00E9479160E22A0E0C599A1E00E947E13C6
:2017200039F0C69A0E94F614A6E0B0E0A083B1830E940215E2E3F0E060E070E00E94A416CD
:201740000E2E0E947213E02139F00E940B150E9494020E943803C598A0E0C599A1E0E0E0A9
:201760000E9479160E9479130E94831331F00E946003EAE1F5E00E948C147FC0E630A0E0F5
:20178000FA0791F40E940215AA31E0E0BE07E0E08E07E0E09E073CF0C29A0E94F614A7E035
:2017A000B0E0A083B18369C0E730A0E0FA07A1F40E9402150E94761474F0009B05C0ABEBAD
:2017C000B5E00E9404123197C0980E94F614A8E0B0E0A083B18351C0E830A0E0FA0769F47A
:2017E0000E9402150E9476143CF0C5980E94F614A9E0B0E0A083B18340C0E930A0E0FA07C5
:2018000069F40E9402150E94BE143CF0C2980E94F614AAE0B0E0A083B1832FC0EA30A0E012
:20182000FA0769F40E9402150E94BE143CF0C1980E94F614ABE0B0E0A083B1831EC0EB3081
:20184000A0E0FA07D1F40E9402150E94CE14ACF00E94F6140E949614A2E3B5E0ED91FD914B
:201860003197FE93EE93E7E0F0E0EC15FD0529F4E8E0F0E06F010E941515F801CBC10E94DC
:201880002F150E946F120E943415E02129F03DDCE0930005F09301050E943A150E943F15DB
:2018A0000E9445150E944D15E02129F010DDE0930205F09303050E9452150E943F150E947B
:2018C00045150E9457150E944D15E02129F066DDE0930405F0930505E0910605F09107052D
:2018E0000E943F150E9445150E945715D601E5E0F0E00E9484160E9488130E9484160E2297
:201900000E944D15E02129F068DEE0930605F09307050895AA24BB240E9468150E94151521
:2019200008950E94BC110E946F150E2ED6010E946213E02199F00E94C1130E9471150E9481
:2019400080150E9485150E948B15E02139F00E9491150E949F15E3E0F0E06F010E946F1583
:201960000E2E0E943A150E94A515D601E4E0F0E00E947E16E021A9F00E94C1130E94711505
:201980000E9480150E9485150E948B15E02149F00E9491150E94AB15E5E0F0E06F010E9407
:2019A0009F150E946F150E2E0E943A150E94A5150E945215A1E0B0E00E947E160E94881337
:2019C0000E947E16E021B9F00E94C1130E9471150E9480150E9485150E948B15E02159F08A
:2019E0000E9491150E94AB150E94B2150E949F15E7E0F0E06F010E946F150E2E0E943A1524
:201A00000E94A5150E9452150E94A515E0910605F09107050E94A5150E946713E02111F47E
:201A20000C940A0E0E94C113DBDA0E94C6133BDB0E94F1130E945102E0938B05F0938C0580
:201A4000D5010E945D130E2EA0918605E1E00E9479160E220E9480150E9485150E948B15CF
:201A6000E02111F40C940A0E0E94B9150E94BF150E94C41599F0BDDAE0938205F093830522
:201A80000E94BF15D8010E945813E02121F0A6E7B5E00E94041201E010E0E8CFA091A3059D
:201AA000B091A405119739F4049B03C00E94CB15FBCF0E94CB150E94D1154CF00E94DC15E0
:201AC00034F0E1E0EA93E3E0EA930E94700360D80E94D115B4F00E94DC1534F0E1E0EA93F6
:201AE000E5E0EA930E9470030E94B9150E94BF150E94E11531F0AADAE0938205F093830567
:201B0000F5CFE0E0F0E0FA93EA930E947E03A091B905B091BA050E945D130E2EA091BD0514
:201B2000B091BE050E945813E021C9F0E0E0E093B905E093BA05E1E0F0E0E093BD05F0936E
:201B4000BE050E948E02E4E0F0E00E948D120E949212EEEFFFEFE0932805F0932905F60162
:201B600031966F01E8EEF3E0EC15FD051CF4E4E6F0E06F010E947512E3E0F0E00E9496165E
:201B80000E2E0E944D15E02141F00E949F150E94E8150E94B2150E94EE150E9475121397FD
:201BA00044F00E9417140E94AB150E94B2150E94EE150E947512129734F00E9417140E944F
:201BC000B2150E94EE150E9475120E94371724F40E9417140E94EE159DDE0E94F515A0919E
:201BE0009F05B091A0050E947E160E2EA091A305B091A4050E945813E02161F00E94D30250
:201C000094980E948E020E947502E0E0E0938605CC24DD24099119910895D601E8E0F0E04E
:201C20000E947E160E2ED5010E945813E02119F0E1E0F0E05F01D601E9E0F0E00E948A16A2
:201C40000E2ED5010E945813E02111F40C94B40E042C0528A1F40E947A12A0915E05B09108
:201C60005F0580916005909161050E94FB1521F0AEE6B5E00E940412E1E0F0E02F01062C6C
:201C80000728A1F40E947A12A0916205B091630580916405909165050E94FB1521F0A0E7C2
:201CA000B5E00E940412E1E0F0E03F01A0E00499A1E00E94DC14D4010E9458130E22D601ED
:201CC000EBE0F0E00E949016E021C9F00E94FF1521F0A2E7B5E00E9404120E94DC1564F0E3
:201CE000A8E2B5E00E940412A1EBB5E00E9404120E94F5150E940916E1E0F0E04F01A0E066
:201D00000499A1E00E94DC14D4010E9458130E2A0E94C415C9F00E94FF1521F0A2E7B5E0E0
:201D20000E9404120E94DC1564F0A8E2B5E00E940412A1EBB5E00E9404120E94F5150E9406
:201D40000916E1E0F0E04F01D2010E945D130E2ED3010E945D130E22D4010E945D13E02164
:201D600019F0E1E0F0E05F0108950C2C0D2881F5E0918605E03019F40E94C11329C00E94CF
:201D8000B5120E947E030E9415160E941B160E94E8150E94B2150E94EE150E9415160E949D
:201DA00060039498E0E0E093BD05E093BE05E0912805F0912905FA93EA93E091B105F0916A
:201DC000B205FA93EA930E94A604E1E0F0E06F010895E0E0EBBBEABBE8BBEFEFE7BBE0E06A
:201DE000E5BBEFEFE4BBE0E0E2BBEFEFE1BBE0E0E3B9EFEFE2B9E0E0E0936200E0936100B1
:201E0000E0936500EFE1E0936400E0E0E0BFE7E0E3BFE0E0E2BFE1BFEFBDEEBDEDBDECBDD0
:201E2000E7BDE6BDEBBDEABDE9BDE8BDE0937900E0937800E5BDE4BDE3BDE0938B00E09396
:201E40008A00E0938900E0938800E0938100E0938000E0938700E0938600E0938500E093BC
:201E60008400E0938300E0938200E0936A00EABFE9BFE1E0E7BFE0E0E0937D00EBB9E8E141
:201E8000EAB9E6E0E0939500E0E0E0939000E7E6E9B9E0E0E0939B00E8E1E0939A00E6E035
:201EA000E0939D00E0E0E0939800E7E6E0939900E0E8E8B9E0E0E0BDE6B9EDB9E09374007C
:201EC0007894E0E4FFE10E94B112E0EDF7E00E94B1120E94C9110E941012EA93A7D0CC24C0
:201EE000DD24E0E0E0935605E0935705E0935805E09359050E946815AA24BB24E4E6F0E07D
:201F000060E070E0E0935A05F0935B0560935C0570935D050E949F15EEE3F0E060E070E03C
:201F2000E0936A05F0936B0560936C0570936D050E94F212ECEDF0E0E0933005F093310543
:201F4000E4E1F0E0E0932E05F0932F05E6E4F0E0E0933405F0933505E0E0E0932A05E093B7
:201F60002B050E9415160E941B16E0E0E0938405E0938505E0939B05E0939C05E0939D059C
:201F8000E0939E05E093A105E093A2050E94CB130E94CB15E0E0E093A705E093A805E09384
:201FA000A905E093AA05E093AD05E093AE050E949913E093AF05E093B005E0E0E093B10580
:201FC000E093B2050E94B2110E94BA12E0E0E093BD05E093BE05E0938605E0937805E09378
:201FE0007905E0937A05E0937B05E0937C05E0937D05E0937E05E0937F05E0938005E0933D
:2020000081050E94B9150C2C0D2821F40E947F076F01F9CF0E942A02A8DE31DCFEDD81DC4F
:20202000F9CFFFCF5F9BFECFECB108955D9BFECFE881ECB921960895EA81EA93F7DFA881FB
:20204000B9810E9404122396089526970E94401710E0AC85BD85E0E0F0E0ED93FC93EA890D
:20206000FB893196EA8BFB8B3197E4912E2FE03011F40C945211E12FE03039F4253211F4BF
:2020800011E002C00E942A160CC1E130A9F4253219F40E942A1604C112E040E000E02D32D4
:2020A00011F401E0FEC02B3211F44BE2FAC0203211F440E2F6C002C0E23039F450E013E0E0
:2020C000203311F40068EDC004C0E33011F00C945111203310F02A3308F007C0AAE05A9FC7
:2020E000502DE22FE0535E0FDCC0E22FE33649F40E943316E889F989A481AA930E9439167E
:20210000CFC0E33741F40E9433160E9441160E9481111E2F0AC0E03761F40E9433160E94B9
:2021200041160E948B111E2F086002600F7730E035C0E43611F0E93611F4046002C0E537E7
:2021400031F4ECE8F0E0EE83FF8315E00DC0E83511F4086004C0E83711F00C945011E6E9C3
:20216000F0E0EE83FF8314E002FF14C00E9433160E944B16AB85AA233AF4EA85FB850E9429
:202180006316EA87FB874DE2403011F01F5F01C00B7F04C00E9433160E944B1600FD11C0EA
:2021A000151778F407FF08C002FF04C00B7F242F115001C020E301C020E20E942A165150AC
:2021C000EFCF312F01FF17C03030A1F003FF06C0EE81FF812591EE83FF8305C0AE81BF8185
:2021E0002D91AE83BF830E942A16503009F051503150EACF4BC020E3EE81FF810E9433178F
:20220000E887F987EE81FF813296EE83FF83E885F985AA85BB85AE17BF0750F02F5FA88545
:20222000B985EA85FB85EA1BFB0BEA87FB87EFCF2A3328F003FF02C0295F01C0295D04FDAC
:202240001AC0213320F4A885B985119709F409C0531710F000FF01C013C020E207FF0BC093
:2022600020E3006102FF07C00B7F4A930E943916503009F051500E942A16503009F05150C4
:202280003150A885B985129708F0B5CF00FF08C0503031F05150E0E2EA930E943916F8CF2D
:2022A00010E0DDCEAC85BD850E9425170E94471764960895FF92F82E26971A930A93DE01FE
:2022C00014960E945F168D01E0E0EC83ED83EE83EF83DE0118960E945F160E942517FA931E
:2022E000EA931A930A93ECE1F0E1FA93EA93FE013896FA93EA93A9DE198108812896FF90A1
:202300000895A991B991EE27FF276D91662311F03196FBCF0895AA27BB27E991F99105905F
:20232000002011F01196FBCFFD0108950E942917EF5FFF4F6F4F7F4F0E942E170895E1E021
:202340000E9479160E2E0895A0E0C999A1E0E0E00E9479160895E0EAF6E861E070E00E94A7
:20236000A4160895E0E0E093B305E093B405E093B505E093B60508951A930A9300E010E0DD
:202380000895E0EDF7E0FA93EA930E94531694980895EAE5EA930E941610E5EAEA930C941E
:2023A0001610E5E0EA930E941610E2E8EA930E941610E0E0EA930C941610E0E3EA930C94FB
:2023C0001610E0E0EA930C941610E4E0EA930E941610E3E8EA930E941610F3CFE1E0EA93BB
:2023E0000E9416100E9412100E9412100E9412100E9412100E9412100E9412100E941210B9
:202400000E9412100C941210ED91FD913196FE93EE930895E0E0E0938D05E0938E0508954C
:20242000E3E0EA930E941610E0E8EA930E941610E2E0EA930E941610E0E10895E3E2EA93E0
:202440000E941610E2E8EA930E941610BACFE0E9EA930C941610EEE9F0E0FA93EA9380E0FF
:202460000E945A11229695CFEA930E941610E2E8EA930E941610A5CFFA93EA9380E00E945F
:202480005A1122960895EA930E94E4010E94D2010E2F11270895E0E4EA930C941610E4E026
:2024A000EA930E941610E3E8EA930E941610E0E1EA930C941610E0E1EA930C9416102E2F62
:2024C0003327022E032A0895EA930E94161086CFAE81BF81E1E0F0E00E947E160895E0E07B
:2024E000F0E00E947E160E2E0895A0913205B09133050895E0915605F09157056091580588
:20250000709159050895E1E0EA930C9416100E9412100E9412100C941210E0933205F09344
:2025200033050895E0913205F0913305E0939F05F093A0050895EA930E9416102ACFE0E586
:20254000EA930E9416103DCFEA930E94161039CFE5E0EA930E941610E2E8EA930E941610C4
:20256000AACFFA93EA930C945316E1E0F0E0FA93EA930895E0E0E093B705E093B8050895DB
:20258000E0E9F1E0EECFE1E0F0E0E0939905F0939A050895E2E0F0E0E0939905F0939A05BE
:2025A00008950E946003E3E0F0E0E0939905F0939A051E980895E0939705F0939805089594
:2025C000E4E0F0E0E0939905F0939A050895A0919705B09198050895E0E0E0939905E0930B
:2025E0009A050895E0E0E0939705E0939805F4CFE1E0F0E0E093B705F093B805AFEAB5E0CF
:2026000003CFE091AD05F091AE05FA93EA93E091A905F091AA05FA93EA93E091AF05F09188
:20262000B005FA93EA93E091BB05F091BC05FA93EA93E0917405F0917505FA93EA93E091FE
:202640007605F0917705FA93EA930C941105E8EEF3E087CFE0E0EA87EB87EC87ED8708951C
:20266000E0E0EE83EF83E887E9870895E5E0F0E0E0939905F0939A050895D801E1E0F0E06C
:202680000E947E160E2EE2E0F0E00E947E160E2AE3E0F0E00E947E160E2AE4E0F0E00E9491
:2026A0007E1608950E2AA0919905B0919A050895E0E0F0E00E947E160895E1E0F0E00E94CF
:2026C0007E160895E2E0F0E00E947E160895D601E8E0F0E00E948A160895AE81BF8188859A
:2026E00099850895A0E0CD99A1E0E0E00E94791608950E2EA0E0CF99A1E00895E1E00E9485
:202700007916E0210895E0E00E947916E02108950E22D601E6E0F0E00895A0919505B091B7
:2027200096050895E1E0F0E0E093A705F093A8050895E0E0E093AB05E093AC050895E093CD
:202740003A05E0933B05E0933C05E0933D050895A0E00799A1E0E0E00E9479160E2E089516
:20276000AA85BB858C859D85A93EE3E0BE07E0E08E07E0E09E070895AA981A9AE8EBFBE04D
:20278000F0CE0E947F02E09386050895E0937E05F0937F050895E0E0E093A505E093A60528
:2027A0000895E0E0E0938205E0938305E1E0F0E0E0937C05F0937D050895E1E0F0E0E01718
:2027C000F10708950E946003E0E0E0937C05E0937D050895E1E0F0E0E0938205F093830583
:2027E0000895E0938005F09381050895E1E0F0E0E0931405F09315050895A0E0CA99A1E0E3
:20280000E0E00E9479160E2EA0E0CB99A1E00895E0E0E0933605E0933705E0933805E09349
:2028200039050895E0931405F09315050895E1E0F0E0E0932C05F0932D050895A091360504
:20284000B091370580913805909139050895AD33E0E0BE07E0E08E07E0E09E070895EEDF28
:20286000A932E0E0BE07E0E08E07E0E09E070895E5E1F0E060E070E0E0933605F09337050E
:2028800060933805709339050895D8DFA531E0E0BE07E0E08E07E0E09E070895A230E0E02F
:2028A000BE07E0E08E07E0E09E070895E0E047DFE6E1F5E00895A1E0B0E0A083B1830895D8
:2028C000A0913A05B0913B0580913C0590913D050895A932E0E0BE07E0E08E07E0E09E079B
:2028E0000895A2E0B0E0A083B1830895AF31E0E0BE07E0E08E07E0E09E070895A3E0B0E066
:20290000A083B1830895DCDFA333E0E0BE07E0E08E07E0E09E070895A4E0B0E0A083B183EB
:202920000895A5E0B0E0A083B1830895A0E0B0E0A083B18301E010E00895E0E0E0933E05A6
:20294000E0933F05E0934005E09341050895A0913E05B0913F05809140059091410508955F
:20296000E1E0F0E0E0938F05F0939005E6CFE8E1F5E0A9E0B0E0A083B1830895AB30E0E0AC
:20298000BE07E0E08E07E0E09E070895A333E0E0BE07E0E08E07E0E09E070895A531E0E0D3
:2029A000BE07E0E08E07E0E09E070895E0E0E0938F05E0939005C1CFE0E00E9479160E2E6F
:2029C0000895A0918F05B09190050895E8E1F5E0A8E0B0E0A083B1830895B9DFEAE0F0E046
:2029E00060E070E00E94A4160E2EEBCFE0E0E0934205E0934305E0934405E0934505EAE17C
:202A0000F5E00895A0914205B091430580914405909145050895E0E0E0934205E0934305AC
:202A2000E0934405E09345050895E0E0E0935E05E0935F05E0936005E0936105E093620588
:202A4000E0936305E0936405E0936505E0936605E0936705E0936805E09369050895A09196
:202A60000005B09101050895D601E0E0F0E00E9484160895E0910205F09103050895A0E00F
:202A8000B0E00E947E160E2EEFCF0E22D601E1E0F0E00E9484160E220895A0912C05B09132
:202AA0002D050BCEE0910405F09105050895D601E2E0F0E00E9484160E22E3E0F0E00E945F
:202AC00084160E22E4E0F0E00E9484160E2208954424552466247724882499240895BFDFE5
:202AE000ECCD0E94F00752DE0E9453087ADE0E945102E0938B05F0938C05A09186051FCC4C
:202B0000A0917E05B0917F05D8CD0E22A0918005B0918105D2CD0E22A0918B05B0918C0588
:202B2000CCCD0E94C805E0E0F0E0FA93EA930E947E03E0E0E0930005E09301050895E0E0C2
:202B4000E0932C05E0932D050895A1E0B0E00E947E160E220895E2E0F5E0A0E0B0E0A083B1
:202B6000B1830895E4E0F5E0A0E0B0E0A083B1830895E0E0E0938205E09383050895A09164
:202B80008205B0918305ABCCD601EBE0F0E00E948A16E0210895E0E0E093A305E093A40525
:202BA0000895E0919F05F091A005A0912805B0912905EA17FB070895EAE0F0E0CE16DF066D
:202BC0000895D601EAE0F0E00E948A16E0210895E0E0E0930005E0930105BDCFE6E0F5E02F
:202BE000A0E0B0E0A083B1830895E0912805F0912905319708950E94A4160E2EE2CF7ADC80
:202C0000A0916605B09167058091680590916905F2CFFA93EA93E091B105F091B20531976C
:202C2000FA93EA930E94A604ECCCE0E0E0932805E09329050895EFEFFFEFE0936E05F093B3
:202C40006F05E0937005F0937105E0937205F093730508952A93ED85FE85FA93EA93E9896F
:202C6000FA8909950895E889F9893497E88BF98B0895ED85FE85FA93EA93E989FA890995B2
:202C80000895A889B98914960E942517EE83FF83FA93EA930895A889B98914960E94251707
:202CA000EA87FB870895E991F991309639F080EA9FE00197F1F7A8953197C9F708950024A2
:202CC000AF0DB01D0895F195E195F0400895F09560957095E195FF4F6F4F7F4F08956F2FFB
:202CE000660F660B762F08958B2F880F880B982F0895EA17E1E009F0EE270895EA17FB07F4
:202D0000E1E009F0EE270895EA17FB07E1E009F4EE270895AE17BF07E1E00CF4EE270895D6
:202D2000AE17BF07E1E00CF0EE270895EA17FB07E1E00CF0EE270895AE17BF078607970771
:202D4000E1E00CF4EE270895EA17FB0768077907E1E00CF0EE270895FA9FF02DEB9FF00D62
:202D6000EA9FE02DF10D08957A9F702D6B9F700DF89F700DE99F700D6A9F602D710DFB9F1E
:202D8000600D711DE89F600D711D8827FA9FF02D610D781FEB9FF00D611D781FEA9FE02D1A
:202DA000F10D681F781F08952FD0D6DF0EF48BDF089538D0D9DF0EF48ADF0895002411247C
:202DC00090E1AA0FBB1F001C111C0E1A1F0A18F40E0E1F1E01C0A1609A9599F7FD01D001A0
:202DE000089512D0EBDF0EF46EDF0895E894B7FF04C0A095B09511966894F7FD64DFDEDF97
:202E0000FD010EF460DF0895E894F7FF02C05BDF6894B7FF06C0A095B095119600F8039440
:202E200000FA0895E89477FF02C051DF689497FF0BC00024A095B095809590951196801D9E
:202E4000901D00F8039400FA0895ED91FC9111970895ED91FD916D917D9108957E936E9388
:202E6000FE93EE9308950590F491E02D089500240A160B060895EA17FB076807790708955E
:1C2E80005A934A933A932A931A930A9308955D814C813B812A8119810881089529
:00000001FF
