:200000000C9498010C9400000C9400000C9400000C9400000C9400000C9400000C94000047
:200020000C9400000C9400000C9400000C9400000C9400000C9400000C9400000C940000C0
:200040000C94EE010C9400000C9400000C9400000C9400000C9400000C9400000C940000B1
:200060000C9400000C9400000C9400000C9400000C9400000C9400000C9400000C94000080
:200080000C9400000C9400000C9400001027E80364000A000100001000011000010020208D
:2000A000202020202020202020202020202020202020202020202020202020202020202040
:2000C00020202020202000496E69636A616C697A756A65206D61737A796E65005779637AAB
:2000E00079737A637A6F6E6F206D61737A796E65004D61737A796E61207A61696E69636A5F
:20010000616C697A6F77616E6100437A656B616D206E612070726574206777696E746F77C5
:20012000616E79005072616361005A616B726563696C656D2077737A7973746B6965207AD2
:200140006164616E652070756368617279004272616B2077796D6167616E65676F206369CF
:20016000736E69656E696120362062617200446F7A6F776E696B206B6C656A7520707265F6
:20018000746F77206E696520676F746F777900446F7A6F776E696B206B6C656A75206E6161
:2001A0006B726574656B206E696520676F746F77790057796C61637A206D61737A796E65F3
:2001C000206920706F637A656B616A2031206D696E757465004F64736C6F6E2069207A7218
:2001E00065736574756A206B757274796E65004D6F6E7465722033206E6965206E6163695E
:20020000736E616C20706564616C6100437A656B616D206E612072756368206C616E63755A
:2002200063686100506F707261772070726574207A2067727A79626B69656D2069206E6138
:200240006369736E696A2067757A696B005573756E2070726574207A6520737A637A656B95
:200260002069206E616369736E696A2067757A696B0057796D69656E206C756220646F6B02
:200280007265632067727A7962656B2069206E616369736E696A2067757A696B004D6F6E9A
:2002A0007465722033202D207A64656D6F6E74756A20707563686172206920706F747769D4
:2002C0006572647A004D6F6E7465722033202D2077797A776F6C207265637A6E69652063E5
:2002E0007A756A6E696B20707563686172610020202020202020202020202020202020203F
:200300002020202020202020202020202020202020202020202020202020000001002D4E21
:20032000414E00494E4600000100A7051C030000F894EE27ECBBF1E0F5BFE5BFE0936C0035
:20034000F8E1F1BDE1BD8DE0A2E0BB27ED938A95E9F780E090E1A0E0B1E0ED930197E9F74E
:20036000E8E2F3E085919591009761F0A591B59105901590BF01F00105900D920197E1F7B1
:20038000FB01F0CF8BBFEFEFEDBFE0E1EEBFC0E0D5E00C94E90D1A930A93E0919B001E2FD2
:2003A000E078D9F300919C00E12FEC7111F4E02F41C3F3CFE0919B00E072E1F3E881E09397
:2003C0009C0021960895009902C0979A01C09798019902C0969A01C0969808950A921A9251
:2003E000FA926A937A938A939A93AA93BA93EA93FA93EFB7EA93A6E3B5E00E947C10A6E490
:20040000B5E00E947C10AAE3B5E00E947C10AAE4B5E00E947C10AEE3B5E00E947C10AEE492
:20042000B5E00E947C10A2E4B5E00E947C10A2E5B5E00E947C10AEE5B5E00E947C10A2E688
:20044000B5E00E947C10A6E6B5E00E947C100C2C0D2809F4B8DFE991EFBFF991E991B99113
:20046000A9919991899179916991F990199009901895C99B12C0949AE0918305F09184051B
:20048000309751F4A5E8B5E00E948510E1E0F0E0E0938305F093840506C09498E0E0E0933A
:2004A0008305E093840508951A930A93A0918505B0918605179714F400E010E0A091850509
:2004C000B0918605E7E0F0E00E94C0140E2EA0E0C999A1E0E0E00E94AF14E02911F001E094
:2004E00010E0F801A7C20E948B10C99B02C0949AFCCF0E9490100431E0E01E075CF4C99B3E
:2005000006C0C99B02C0949AFCCF0E9490100F5F1F4FF1CFE4E1F0E0E0938505F093860578
:2005200089C20E9498100E94A010E0E30E94AC100E94AC102AC2E0E0E09382050E94981065
:200540000E94B110EA930E94FC0EE0E30E94B710E0938205F0E00895A9E8B5E00E9485101F
:200560000E94D0100E9498100E94D6100EC20E9498100E94E4100E94EA100E94F110E7E170
:200580000E94FA100E94EA10E7ECF0E00E94FF100EC20E949810EBE10E94FA100E94EA1091
:2005A000E1EFF0E00E94FF1002C20E949810ECE10E94FA100E94EA10EAE0F1E00E94FF107B
:2005C000F6C10E9498100E94E4100E94EA100E94F110E8E00E94FA100E94EA10E4E2F1E09E
:2005E0000E94FF10E4C10E949810EBE10E94FA100E94EA10EEEAF0E00E94FF1022960E9494
:200600009810E6E20E94FA100E94EA10EAE2F1E00E94FF10CCC10E949810E2E20E94FA108D
:200620000E94EA10EEE4F1E00E94FF10C0C1E881F981309759F40E9498100E94E4100E94D0
:20064000EA10EEE6F1E00E94FF102296A881B981119761F40E949810E5E20E94FA100E94D3
:20066000EA10EFE8F1E00E94FF102296A0C10E949810E5E20E94FA100E94EA10E2EBF1E017
:200680000E94FF1094C10E949810ECE10E94FA100E94EA10E5EDF1E00E94FF1088C10E94B6
:2006A0009810EFE10E94FA100E94EA10EFEEF1E00E94FF107CC10E949810EAE10E94FA101D
:2006C0000E94EA10ECE0F2E00E94FF1070C10E949810EBE20E94FA100E94EA10E4E2F2E007
:2006E0000E94FF1064C10E949810E7E20E94FA100E94EA10EDE4F2E00E94FF1058C10E94BA
:200700009810EDE20E94FA100E94EA10E2E7F2E00E94FF104CC10E949810ECE20E94FA10FD
:200720000E94EA10E5ECF2E00E94FF1040C10E949810EEE20E94FA100E94EA10EFEEF2E0B7
:200740000E94FF1034C11A930A931F9AEA81EA9331DEEB810E9404111F98198108814FC1EC
:200760000E943715E0E0E093820510E0AC81BD81119711F00C94FB030E9498100E94B11082
:20078000EA930E94FC0EE0E40E94B710F0E0E0933405F09335050E9498100E940C11E0E100
:2007A0000E94B7102E2F3327022E032A39F4E1E0F0E0E0939105F093920505C0E0E0E093E3
:2007C0009105E09392050E9498100E940C11E0E20E94B7102E2F3327022E032A39F4E1E043
:2007E000F0E0E0938F05F093900505C0E0E0E0938F05E09390050E9498100E94B110EA934C
:200800000E94FC0EE0E50E94B710F0E0E0932E05F0932F05AC81BD81119761F50E9498101E
:200820000E94B110EA930E94FC0EE0E60E9418110E941F110E941F110E94F80E0E94F80EA7
:2008400010E00E94F80E1E2FE12FF0E00E94A514A0916A05B0916B0580916C0590916D0512
:200860000E940215E0935605F09357056093580570935905E0919705F0919805309791F4EA
:200880001A93E2E0EA935FDFE1E0F0E0E0939705F0939805E0915605F0915705E0939905B4
:2008A000F0939A050E942511A0919905B0919A050E94AA140E94301529F0E0E0E093970560
:2008C000E0939805D6010E942E110E2EAC81BD810E943311E02199F00E9498100E94B1108C
:2008E000EA930E94FC0EE0E70E94B710F0E0E0933205F0933305E0939B05F0939C050E9491
:200900003E15269608950E9498100E94A010E0E40E94AC10EA930E94FC0EE09134050E94F8
:2009200038110E94A010E0E50E94AC10EA930E94FC0EE0912E050E9438110E94A010E0E629
:200940000E94AC10EA930E94FC0EE7E00E9438110E94A010E0E70E94AC10EA930E94FC0EBE
:20096000E5E00E9438110E943C11E0E10E94AC100E9418110E9498100E943C11E0E20E9451
:20098000AC10EA930E94FC0EE1E0EA930E94FC0E08950E9498100E94A010E0E80E94AC1029
:2009A000EA930E94FC0EE881EA930E94FC0E229608950E9498100E94A010E0E10E94AC106C
:2009C000EA930E94FC0EAB81AA2312F0EA8101C0E0E0EA930E94FC0E0E9498100E94A01042
:2009E000E0E20E94AC10EA930E94FC0EA981AA2312F0E88101C0E0E0EA930E94FC0E2496E8
:200A00000895959ACE9B03C00E944811FBCF08950E948B101F9AE4E6F0E00E945411BBDC4E
:200A20000E2F1127002E012A21F40E945811FFDDB2DC1F98099119910895E0E00799E1E0A5
:200A4000E03011F00C947905E0919505F0919605309739F46CDE1D9A0E945D110E94601128
:200A600047C0E130A0E0FA0731F41D980E945D110E9467113DC0E230A0E0FA0741F41E9A5C
:200A8000069903C00E946E1101C015DE31C0E330A0E0FA07D1F4069B17C049DEA09193056D
:200AA000B0919405129721F4E3E0F0E00E947811E0919305F0919405309721F4E2E0F0E04F
:200AC0000E9478110E947D1113C0E430A0E0FA0779F40E948411129729F40E945D110E9437
:200AE000671106C0E1E0F0E00E9478110E94891109C0E13039F4C7DD1D981E980E948F1168
:200B00000E949511E0919305F0919405089528970E94351540E050E020E030E00E94D01040
:200B20000E9498110E949E1101E010E00E948911E8E0F0E0CE16DF061CF00E94891102C0A1
:200B40000E94A411D8010E9433110E94AB110E94BC110E942E110E94BC110E9433110E94DA
:200B6000BC110E94C2110E94BC11E3E0F0E00E94C711E4E0F0E00E94C711E6E0F0E00E9471
:200B8000C711E7E0F0E00E94B414E02911F40C94F60619DCD8010E9433110E94AB11E029B7
:200BA00011F40C947406F801E130A0E0FA0759F5D9010E9433110E2ED601E8E0F0E00E9430
:200BC000C0140E220E94CA11E0E2FEE460E070E00E94DA14E0211E2ED601E8E0F0E00E9472
:200BE000C6140E2E0E94CA11E8EBFBE060E070E00E94DA14E021E12929F0C59A02E010E03F
:200C00000E949E1171C0E230A0E0FA0719F5CD9902C0C5981AC00E94CF11E1E00E94AF14AA
:200C2000E02159F099DC5FDDC598E1EAF6E861E070E0EE83FF83688779870E94CF110E941C
:200C4000DB1139F074DD0E949E11C298C69803E010E04AC0E330A0E0FA07E9F5A091A305FD
:200C6000B091A405119711F5A0913405B0913505E6E4F0E00E94C6140E2E0E94E011E1E051
:200C8000F0E00E94CC140E94E5110E94C0140E220E94EA110E942E11E02109F0A89AC798AB
:200CA000909AE0E0E093A305E093A405A0E0CC99A1E00E94EF11A091A305B091A4050E94A6
:200CC0002E11E02139F0909A0E94F4110E94FB1104E010E009C0E430A0E0FA0729F4CC9978
:200CE00003C0909805E010E0E0E00799E1E0E03011F00C94D106E0919505F091960530979D
:200D000059F4079907C013DD1D9A0E9498110E94601101C045C044C0E130A0E0FA0779F451
:200D200007990BC00E9405123CF01D980E9467110E94981140E050E001C032C031C0E23043
:200D4000A0E0FA07A9F4079911C00E9405126CF01E9A069909C021E030E00E949E110E94CB
:200D60006E110E94981101C0A6DC01C019C018C0E330A0E0FA0739F4069B04C0D8DC1E9864
:200D80000E947D110DC0E430A0E0FA0719F40E94A41106C0E630A0E0FA0711F40E948911BF
:200DA0000CC0E13051F4C3DC6EDC1D981E980E9489110E94981141E050E0EA85FB856C8505
:200DC0007D85EF5FFF4F6F4F7F4FEA87FB876C877D87EE81FF8168857985EF5FFF4F6F4FCB
:200DE0007F4FEE83FF8368877987ACCE0E943C152E96089588DDC89902C00DDCFCCF97DCC6
:200E000000DE95DCB4DB04DE92DCCC9B02C0909AFCCF0E94F4119098AB98A998AA9A1A983D
:200E2000C79861DB84DCB5DBE0918205E03001F50E94581195DCA0918F05B091900511976A
:200E4000A1F40E9495110E941112A99AE8EBFBE00E945411AA9A1A98E0EDF7E00E94541157
:200E60000E941112A99803DCFFCF0E941612DCCFE0E0E09382054BDEAD9A0E949511AD9893
:200E800046DE0E94951143DE0E94951140DE0E948F110E9484110E942E110E2E0E94841192
:200EA0000E94C2110E2A0E948411E3E0F0E00E94B414E02921F0C1DD0E947811EACFE0E0F5
:200EC000E0939305E09394050E9495110E94581147DCE1E0F0E00895CE9B0DC00E94481126
:200EE000E0E0E0937A05E0937B05E1E0F0E0E0937405F0937505CE9910C0A0917405B091B1
:200F00007505119731F413DCE0E0E0937405E0937505E1E0F0E00E941B12E0917A05F09131
:200F20007B0508951A930A931F9AE4E00E9404111F98002E012A79F4A091A105B091A205DA
:200F4000159719F4ACDB0E942012A1EAB5E00E9485100E9426120E94321261F40E9420123D
:200F6000A0917805B0917905119711F40E9437120E943F12E0917E05F0917F05BDC31A9353
:200F80000A931F9AE6E00E9404111F98002E012A79F4A091A105B091A205159719F4BBDBF3
:200FA0000E942012A1EAB5E00E9485100E9426120E94321261F40E942012A0917805B0912E
:200FC0007905119711F40E9437120E943F12E0917E05F0917F0590C31A930A931F9AE1E0F8
:200FE0000E9404111F98002E012A81F40E9458111EDB0E949511E0E0E0937C05E0937D05C0
:20100000E1E0F0E0E0937605F09377050E94321281F4A0917605B0917705119731F487DB5F
:20102000E0E0E0937605E0937705E1E0F0E00E944612E0917C05F0917D055EC30E948B1035
:20104000E0911405F0911505309729F4E1E0F0E00E944B12A7C0E130A0E0FA0709F5AF9AB7
:20106000A0E0CA99A1E00E945012A0E0CB99A1E00E94DB1199F0E0E0E0934605E09347054F
:20108000E0934805E09349050E945512E2E0F0E00E944B120E945F1294DA01C086DA82C051
:2010A000E230A0E0FA0769F40E9466120E946F123CF0AF980E945512E3E0F0E00E944B12F5
:2010C00071C0E330A0E0FA0759F40E9477123CF0AE9A0E945512E4E0F0E00E944B1262C0A1
:2010E000E430A0E0FA0761F40E94771244F0AE98C49A0E945512E5E0F0E00E944B1252C054
:20110000E530A0E0FA0769F40E9466120E9480123CF0C4980E945512E6E0F0E00E944B1268
:2011200041C0E630A0E0FA0759F40E9477123CF0AD9A0E945512E7E0F0E00E944B1232C09B
:20114000E730A0E0FA0759F40E9477123CF0AD980E945512E8E0F0E00E944B1223C0E83073
:20116000A0E0FA0751F40E9466120E94881224F0E9E0F0E00E944B1215C0E930A0E0FA0738
:2011800089F40E945512E0E0E0931405E093150501E010E0E1E0F0E0EC15FD0519F4E2E0BC
:2011A000F0E06F01A8C20E948B10E0911605F0911705309781F4E0E0E0934A05E0934B059E
:2011C000E0934C05E0934D050E94FB11E6E1F5E00E94901255C0E130A0E0FA0799F40E9422
:2011E00095120E9480120CF0AC9A0E9495120E946F123CF01C9A0E94FB11E6E1F5E00E9498
:201200009E123EC0E230A0E0FA0769F40E9495120E94A3123CF01C980E94FB11E6E1F5E066
:201220000E94AB122DC0E330A0E0FA0759F40E94B0123CF0AC980E94FB11E6E1F5E00E94C1
:20124000B9121EC0E430A0E0FA0741F40E94B01224F0E6E1F5E00E94BE1212C0E530A0E02E
:20126000FA0771F40E94FB11E6E1F5E00E94C312E3E0F0E0EC15FD0519F4E4E0F0E06F01A0
:201280003AC20E948B10E0911805F0911905309791F4E0E0E0934E05E0934F05E093500587
:2012A000E09351050E94CA12C398AA98E8E1F5E00E94901204C1E130A0E0FA0769F40E9412
:2012C000D4120E9488123CF01A9A0E94CA12E8E1F5E00E949E12F3C0E230A0E0FA07A1F4C3
:2012E0000E94EA11119721F40E94DD120E94E4120E94EB1244F0A99AC79A0E94CA12E8E1AD
:20130000F5E00E94AB12DBC0E330A0E0FA07A1F40E94D4120E94F41274F0A998A5E8B5E0DE
:20132000ED91FD913197FE93EE930E94CA12E8E1F5E00E94B912C3C0E430A0E0FA0739F4F9
:201340000E94CA12E8E1F5E00E94BE12B8C0E530A0E0FA07A9F40E94D412A531E0E0BE0771
:20136000E0E08E07E0E09E0754F0C39A1A980E94FC12E8E1F5E0A6E0B0E0A083B1839FC046
:20138000E630A0E0FA0771F40E94EB1254F0919AAB9A0E94CA12E8E1F5E0A7E0B0E0A083A8
:2013A000B1838DC0E730A0E0FA07D1F5A0E00599A1E00E9450120E9402130E942E11E02112
:2013C00011F00E94DD120E9402130E9433110E2EE0912E05F0912F050E94D4120E94A51466
:2013E0000E94D214E02131F0C39891980E94CA120E940713E0913005F09131050E94D412A0
:201400000E94A5140E94301554F4C3989198A5EAB5E00E9485100E94FC120E9407134FC0E8
:20142000E830A0E0FA07C9F40E940E130E943311E02131F0AB98AA9A0E94CA120E94E412EE
:201440000E940E130E942E11E02131F0AB98AA9A0E94CA120E94E41232C0E930A0E0FA079D
:20146000A1F40E94D412A630E0E0BE07E0E08E07E0E09E074CF0C7980E94CA12E8E1F5E083
:20148000AAE0B0E0A083B1831AC0EA30A0E0FA07B1F4E0918B05F0918C05E0938D05F09326
:2014A0008E050E94CA12E8E1F5E00E94C312E5E0F0E0EC15FD0519F4E6E0F0E06F011BC17F
:2014C0000E948B10E0911A05F0911B05309781F4E0E0E0935205E0935305E0935405E093CE
:2014E00055050E9417130E9490120E94D01003C1E130A0E0FA0729F40E9417130E949E126F
:20150000FAC0E230A0E0FA0769F40E9423130E94F4123CF0A898C19AC09A0E9417130E9412
:20152000AB12E9C0E330A0E0FA0731F5A0918D05B0918E050E9433110E2E0E94EA110E9493
:201540002E110E22A0919D05B0919E050E942E11E02159F40E94AC02D2D8E1E0F0E0E09338
:201560009D05F0939E05CF9906C0EAE1F5E00E94B9120E942C13BFC0E430A0E0FA0761F41E
:20158000D6D8E0E0E0939D05E0939E05C59A0E9417130E94BE12AFC0E530A0E0FA07E9F532
:2015A0000E942313E9E1F0E060E070E00E943613E1E00E94AF140E22A0E0C599A1E0E1E0C8
:2015C0000E94AF14E02139F0C69A0E941713A6E0B0E0A083B1830E942313E2E3F0E060E036
:2015E00070E00E9436130E94DB1131F00E942C130E94AC026CD8C598A0E0C599A1E00E942E
:201600005012A0E0CF99A1E00E94DB1129F08FD8EAE1F5E00E94B9126EC0E630A0E0FA071F
:2016200091F40E942313AA31E0E0BE07E0E08E07E0E09E073CF0C29A0E941713A7E0B0E0C8
:20164000A083B18358C0E730A0E0FA0759F40E943D133CF0C0980E941713A8E0B0E0A083B9
:20166000B18349C0E830A0E0FA0761F40E943D1344F0C598C1980E941713ABE0B0E0A08359
:20168000B18339C0E930A0E0FA0769F40E9423130E94F4123CF0C2980E941713AAE0B0E03A
:2016A000A083B18328C0EA30A0E0FA0759F40E943D133CF0C6980E941713ABE0B0E0A0837D
:2016C000B18319C0EB30A0E0FA07A9F40E9417130E94C312A2E3B5E0ED91FD913197FE9302
:2016E000EE93E7E0F0E0EC15FD0529F4E8E0F0E06F010E943F13F8010991199108950E943A
:2017000059130E942E110E945E13E02129F096DCE0930005F09301050E9465130E946A13A3
:201720000E946F130E947713E02129F03CDDE0930205F09303050E947C130E946A130E942F
:201740006F130E9481130E947713E02129F099DDE0930405F0930505E0910605F091070503
:201760000E946A130E946F130E948113D601E5E0F0E00E94BA140E94E5110E94BA140E22DC
:201780000E947713E02129F09BDEE0930605F09307050895AA24BB240E9492130E943F13F8
:2017A00008950E9499130E2ED6010E94C211E02199F00E9416120E949B130E94AA130E9411
:2017C000AF130E94B513E02139F00E94BB130E94C913E3E0F0E06F010E9499130E2E0E9496
:2017E00065130E94CF13D601E4E0F0E00E94B414E021A9F00E9416120E949B130E94AA1305
:201800000E94AF130E94B513E02149F00E94BB130E94D513E5E0F0E06F010E94C9130E94A1
:2018200099130E2E0E9465130E94CF130E947C13A1E0B0E00E94B4140E94E5110E94B41474
:20184000E021B9F00E9416120E949B130E94AA130E94AF130E94B513E02159F00E94BB13DD
:201860000E94D5130E94DC130E94C913E7E0F0E06F010E9499130E2E0E9465130E94CF13A0
:201880000E947C130E94CF13E0910605F09107050E94CF13D601E8E0F0E00E94C014E02120
:2018A00011F40C94120D0E94161216DB0E941B1293DB0E9446120E945402E0938705F093F8
:2018C0008805D5010E9433110E2EA0918205E1E00E94AF140E220E94AA130E94AF130E9410
:2018E000B513E02111F40C94120D0E94E3130E94E9130E2E0E94EE1321F014DB0E94F5139C
:20190000F6CFA0919F05B091A005119749F4049B05C00E94FB130E94E301F9CF0E94FB1350
:201920000E9401144CF00E940C1434F0E1E0EA93E3E0EA930E94A303EAD80E940114A4F0FB
:201940000E940C1434F0E1E0EA93E5E0EA930E94A3030E94E3130E94E9130E94111421F0CB
:201960000EDB0E94F513F7CFE0E0F0E0FA93EA930E94B003F60131966F01E8EEF3E0EC1547
:20198000FD051CF4E4E6F0E06F010E94E011E3E0F0E00E94CC140E2E0E947713E02141F0E9
:2019A0000E94C9130E9419140E94DC130E941F140E94E011139744F00E945F120E94D51366
:2019C0000E94DC130E941F140E94E011129734F00E945F120E94DC130E941F140E94E01135
:2019E0000E942C1524F40E945F120E941F14D2DE0E942614A0919B05B0919C050E94B4145B
:201A00000E2EA0919F05B091A0050E942E11E02149F00E94F3020E949102E0E0E09382052E
:201A2000CC24DD240895D601E8E0F0E00E94B4140E2ED5010E942E11E02119F0E1E0F0E0B1
:201A40005F01D601E9E0F0E00E94C0140E2ED5010E942E11E02111F40C94C00DA0E00299BF
:201A6000A1E00E945012D2010E942E11E029A1F00E942511A0915E05B0915F05809160050C
:201A8000909161050E942C1421F0AEE6B5E00E948510E1E0F0E02F01A0E00399A1E00E946C
:201AA0005012D3010E942E11E029A1F00E942511A0916205B0916305809164059091650557
:201AC0000E942C1421F0A0E7B5E00E948510E1E0F0E03F01A0E00499A1E00E945012D40178
:201AE0000E942E110E22D601EBE0F0E00E94C614E021A9F00E942F1421F0A2E7B5E00E9497
:201B000085100E940C1444F0A8E2B5E00E9485100E9426140E943914E1E0F0E04F01A0E0B8
:201B20000499A1E00E945012D4010E942E110E2A0E94EE13A9F00E942F1421F0A2E7B5E045
:201B40000E9485100E940C1444F0A8E2B5E00E9485100E9426140E943914E1E0F0E04F0156
:201B6000D2010E9433110E2ED3010E9433110E22D4010E943311E02119F0E1E0F0E05F01D0
:201B800008950C2C0D2821F5E0918205E03019F40E9416121DC00E9458110E94B0030E9467
:201BA0004B140E9451140E9419140E94DC130E941F140E944B140E949703E0912805F0912E
:201BC0002905FA93EA930E94C904E1E0F0E06F010895E0E0EBBBEABBE8BBEFEFE7BBE0E0D2
:201BE000E5BBEFEFE4BBE0E0E2BBEFEFE1BBE0E0E3B9EFEFE2B9E0E0E0936200E0936100B3
:201C0000E0936500EFE1E0936400E0E0E0BFE7E0E3BFE0E0E2BFE1BFEFBDEEBDEDBDECBDD2
:201C2000E7BDE6BDEBBDEABDE9BDE8BDE0937900E0937800E5BDE4BDE3BDE0938B00E09398
:201C40008A00E0938900E0938800E0938100E0938000E0938700E0938600E0938500E093BE
:201C60008400E0938300E0938200E0936A00EABFE9BFE1E0E7BFE0E0E0937D00EBB9E8E143
:201C8000EAB9E6E0E0939500E0E0E0939000E7E6E9B9E0E0E0939B00E8E1E0939A00E6E037
:201CA000E0939D00E0E0E0939800E7E6E0939900E0E8E8B9E0E0E0BDE6B9EDB9E09374007E
:201CC0007894E0E4FFE10E9454110E9498100E94D610EA9391D0CC24DD24E0E0E09356051E
:201CE000E0935705E0935805E09359050E949213AA24BB24E4E6F0E060E070E0E0935A0584
:201D0000F0935B0560935C0570935D050E94C913EEE3F0E060E070E0E0936A05F0936B05A3
:201D200060936C0570936D050E948F11ECEDF0E0E0933005F0933105E7E3F0E0E0932E053E
:201D4000F0932F05E6E4F0E0E0933405F0933505E0E0E0932A05E0932B050E944B140E9421
:201D60005114E0E0E0938005E0938105E0939705E0939805E0939905E0939A05E0939D05F6
:201D8000E0939E050E9420120E94FB13E0E0E093A305E093A405E093A505E093A605E09304
:201DA0008205E0937405E0937505E0937605E0937705E0937805E0937905E0937A05E093A0
:201DC0007B05E0937C05E0937D050E94E3130C2C0D2821F40E94FA066F01F9CF0E94E30120
:201DE0000E943902CEDE8BDC1EDEDBDCF7CFFFCF5F9BFECFECB108955D9BFECFE881ECB9D8
:201E000021960895EA81EA93F7DFA881B9810E9485102396089526970E94351510E0AC85F6
:201E2000BD85E0E0F0E0ED93FC93EA89FB893196EA8BFB8B3197E4912E2FE03011F40C94B9
:201E40003810E12FE03039F4253211F411E002C00E9460140CC1E130A9F4253219F40E9447
:201E6000601404C112E040E000E02D3211F401E0FEC02B3211F44BE2FAC0203211F440E272
:201E8000F6C002C0E23039F450E013E0203311F40068EDC004C0E33011F00C9437102033E9
:201EA00010F02A3308F007C0AAE05A9F502DE22FE0535E0FDCC0E22FE33649F40E94691433
:201EC000E889F989A481AA930E946F14CFC0E33741F40E9469140E9477140E9467101E2FF8
:201EE0000AC0E03761F40E9469140E9477140E9471101E2F086002600F7730E035C0E43681
:201F000011F0E93611F4046002C0E53731F4ECE8F0E0EE83FF8315E00DC0E83511F4086052
:201F200004C0E83711F00C943610E6E9F0E0EE83FF8314E002FF14C00E9469140E94811426
:201F4000AB85AA233AF4EA85FB850E949914EA87FB874DE2403011F01F5F01C00B7F04C0F8
:201F60000E9469140E94811400FD11C0151778F407FF08C002FF04C00B7F242F115001C013
:201F800020E301C020E20E9460145150EFCF312F01FF17C03030A1F003FF06C0EE81FF8127
:201FA0002591EE83FF8305C0AE81BF812D91AE83BF830E946014503009F051503150EACFA9
:201FC0004BC020E3EE81FF810E942815E887F987EE81FF813296EE83FF83E885F985AA8572
:201FE000BB85AE17BF0750F02F5FA885B985EA85FB85EA1BFB0BEA87FB87EFCF2A3328F0BD
:2020000003FF02C0295F01C0295D04FD1AC0213320F4A885B985119709F409C0531710F0A7
:2020200000FF01C013C020E207FF0BC020E3006102FF07C00B7F4A930E946F14503009F009
:2020400051500E946014503009F051503150A885B985129708F0B5CF00FF08C0503031F036
:202060005150E0E2EA930E946F14F8CF10E0DDCEAC85BD850E941A150E943C15649608952B
:20208000FF92F82E26971A930A93DE0114960E9495148D01E0E0EC83ED83EE83EF83DE01BF
:2020A00018960E9495140E941A15FA93EA931A930A93E2E0FFE0FA93EA93FE013896FA93FD
:2020C000EA93A9DE198108812896FF900895A991B991EE27FF276D91662311F03196FBCF17
:2020E0000895AA27BB27E991F9910590002011F01196FBCFFD0108950E941E15EF5FFF4F59
:202100006F4F7F4F0E9423150895ED91FD913196FE93EE9308951A930A9300E010E0089583
:20212000E0EDF7E0FA93EA930E94891494980895EAE5EA930E94FC0EE5EAEA930C94FC0EFB
:20214000E5E0EA930E94FC0EE2E8EA930E94FC0EE0E0EA930C94FC0EEA930E94FC0EE0E0CE
:202160000895E4E0EA930E94FC0EE3E8F5CFEA930E94FC0EE1E0EA930E94FC0E0E94F80E8B
:202180000E94F80E0E94F80E0E94F80E0E94F80E0E94F80E0E94F80E0E94F80E0C94F80E01
:2021A000E0E0E0938905E0938A050895E3E0EA930E94FC0EE0E8EA930E94FC0EE2E0EA93A3
:2021C0000E94FC0EE0E10895E3E2EA930E94FC0EE2E8C2CFEA930E94FC0EE0E9EA930C949D
:2021E000FC0EEEE9F0E0FA93EA9380E00E94401022969ECFEA930E94FC0EE2E8ADCFFA93B1
:20220000EA9380E00C944010EA930E94DA010E94CB010E2F11270895E4E0EA930E94FC0E8A
:20222000E3E8EA930E94FC0EE0E1EA930C94FC0EEA930E94FC0EE1E0EA930C94FC0E0E940F
:20224000F80E0E94F80E0C94F80EE0915605F091570560915805709159050895E0E0F0E0A7
:202260000E94B4140895E1E0F0E00E94B4140895EA930E94FC0E5CCFE5E0EA930E94FC0E7D
:20228000E2E8EA930E94FC0EE0E1EA930C94FC0EE0E0F0E0FA93EA930E941703E8EEF3E064
:2022A000FA93EA930C948914FA93EA930C948914E1E0F0E0FA93EA930895E0E9F1E0F4CFFB
:2022C000E1E0F0E0E0939505F09396050895E2E0F0E0E0939505F093960508950E9497030F
:2022E000E3E0F0E0E0939505F09396051E980895E0939305F09394050895E4E0F0E0E09302
:202300009505F09396050895A0919305B09194050895E0E0E0939505E09396050895E0E0F0
:20232000E0939305E0939405F4CFE8EEF3E0BCCFE0E0EA87EB87EC87ED870895E0E0EE8337
:20234000EF83E887E9870895E5E0F0E0E0939505F093960508950E2ED801E2E0F0E00E94E9
:20236000B4140E2AE3E0F0E00E94B4140E2AE4E0F0E00E94B41408950E2AA0919505B09149
:2023800096050895E2E0F0E00E94B41408950E94B414F2CFAE81BF81888599850895FADF31
:2023A000E0EAF6E861E070E00E94DA140E2EA0E0CF99A1E00895E0E00E94AF14E02108954F
:2023C000A0913205B091330508950E22D601E6E0F0E00895A0919105B09192050895E1E048
:2023E0000E94AF140E2E0895E1E0F0E0E093A305F093A4050895E0E0E0933A05E0933B0505
:20240000E0933C05E0933D050895AA85BB858C859D85A93EE3E0BE07E0E08E07E0E09E07EB
:202420000895AA981A9AE8EBFBE03ECF0E949B02E09382050895E0937A05F0937B050895E6
:20244000E0E0E093A105E093A2050895E0E0E0937E05E0937F05E1E0F0E0E0937805F0933B
:2024600079050895E1E0F0E0E017F10708950E949703E0E0E0937805E09379050895E1E0E9
:20248000F0E0E0937E05F0937F050895E0937C05F0937D050895E0931405F0931505089576
:2024A000E0E00E94AF140E2E0895E0E0E0933605E0933705E0933805E09339050895E1E042
:2024C000F0E0E0932C05F0932D050895A0913605B091370580913805909139050895AD3323
:2024E000E0E0BE07E0E08E07E0E09E070895EEDFA531E0E0BE07E0E08E07E0E09E07089581
:20250000A932E0E0BE07E0E08E07E0E09E070895A230E0E0BE07E0E08E07E0E09E07089556
:20252000A1E0B0E0A083B1830895A0913A05B0913B0580913C0590913D050895A2E0B0E041
:20254000A083B1830895AF31E0E0BE07E0E08E07E0E09E070895A3E0B0E0A083B1830895C4
:20256000E4DFA333E0E0BE07E0E08E07E0E09E070895A4E0B0E0A083B1830895A5E0B0E0C9
:20258000A083B1830895A0E0B0E0A083B18301E010E00895E0E0E0933E05E0933F05E093D2
:2025A0004005E09341050895A0913E05B0913F0580914005909141050895E1E0F0E0E09329
:2025C0008B05F0938C05E6CFE8E1F5E0A9E0B0E0A083B1830895E8DFAB30E0E0BE07E0E010
:2025E0008E07E0E09E070895A333E0E0BE07E0E08E07E0E09E070895E0E0E0938B05E0935C
:202600008C05C8CFA0918B05B0918C050895E8E1F5E0A8E0B0E0A083B1830895C5DFEAE04A
:20262000F0E060E070E00E94DA140E2EEBCFE0E0E0934205E0934305E0934405E093450506
:20264000EAE1F5E00895A0914205B091430580914405909145050895E0E0E0934205E093ED
:202660004305E0934405E093450508950E94DA140E2EA0E0CD99A1E00895E5DF64CFE0E075
:20268000E0935E05E0935F05E0936005E0936105E0936205E0936305E0936405E09365056E
:2026A000E0936605E0936705E0936805E09369050895A0910005B091010508950E2ED601D2
:2026C000E0E0F0E00E94BA140895E0910205F09103050895A0E0B0E00E94B414EFCF0E2257
:2026E000D601E1E0F0E00E94BA140E220895A0912C05B0912D05B7CDE0910405F0910505D7
:202700000895D601E2E0F0E00E94BA140E22E3E0F0E00E94BA140E22E4E0F0E00E94BA14DC
:202720000E2208954424552466247724882499240895BFDF98CD0E946C077DDE0E94EC07B8
:20274000A5DE0E945402E0938705F0938805A091820545CEA0917A05B0917B0584CD0E2232
:20276000A0917C05B0917D057ECD0E22A0918705B091880578CD0E948705E0E0F0E0FA934E
:20278000EA930E94B003E0E0E0930005E09301050895E0E0E0932C05E0932D050895A1E0F2
:2027A000B0E00E94B4140E220895E2E0F5E0A0E0B0E0A083B1830895E4E0F5E0A0E0B0E00E
:2027C000A083B1830895E0E0E0937E05E0937F050895A0917E05B0917F0540CDD601EBE093
:2027E000F0E00E94C014E0210895E0937E05F0937F050C94E301E0E0E0939F05E093A00585
:202800000895E0919B05F0919C05A0912805B0912905EA17FB070895EAE0F0E0CE16DF0618
:2028200008950E2ED601EAE0F0E00E94C014E0210895E0E0E0930005E0930105B6CFE6E03E
:20284000F5E0A0E0B0E0A083B1830895E0912805F0912905319708950E94DA14E2CFF5DCDB
:20286000A0916605B09167058091680590916905F3CFFA93EA930E94C904E0916E05F09162
:202880006F05FA93EA93E091A505F091A605FA93EA930C94D904E0E0E0932805E0932905EB
:2028A0000895EFEFFFEFE0936E05F0936F05E0937005F0937105E0937205F093730508956F
:2028C0002A93ED85FE85FA93EA93E989FA8909950895E889F9893497E88BF98B0895ED8548
:2028E000FE85FA93EA93E989FA8909950895A889B98914960E941A15EE83FF83FA93EA9330
:202900000895A889B98914960E941A15EA87FB870895E991F991309639F080EA9FE0019728
:20292000F1F7A8953197C9F708950024AF0DB01D0895F195E195F0400895F09560957095BB
:20294000E195FF4F6F4F7F4F08956F2F660F660B762F08958B2F880F880B982F0895EA177B
:20296000E1E009F0EE270895EA17FB07E1E009F0EE270895EA17FB07E1E009F4EE27089509
:20298000AE17BF07E1E00CF4EE270895AE17BF07E1E00CF0EE270895EA17FB07E1E00CF07F
:2029A000EE270895AE17BF0786079707E1E00CF4EE270895EA17FB0768077907E1E00CF08D
:2029C000EE2708957A9F702D6B9F700DF89F700DE99F700D6A9F602D710DFB9F600D711D46
:2029E000E89F600D711D8827FA9FF02D610D781FEB9FF00D611D781FEA9FE02DF10D681F34
:202A0000781F089504D0DEDF0EF497DF0895E89477FF02C092DF689497FF0BC00024A09501
:202A2000B095809590951196801D901D00F8039400FA0895ED91FC9111970895ED91FD91A4
:202A40006D917D9108957E936E93FE93EE9308950590F491E02D089500240A160B06089556
:202A6000EA17FB076807790708955A934A933A932A931A930A9308955D814C813B812A817A
:062A800019810881089590
:00000001FF
