:200000000C9459000C9400000C9400000C9400000C9400000C9400000C9400000C94000087
:200020000C9400000C9400000C9400000C9400000C9400000C9400000C9400000C940000C0
:200040000C948C000C9400000C9400000C9400000C9400000C9400000C9400000C94000014
:200060000C9400000C9400000C9400000C9400000C9400000C9400000C9400000C94000080
:200080000C9400000C9400000C9400001027E80364000A00010000100001100001000100CC
:2000A0002D4E414E00494E46000001005A059E000000F894EE27ECBBF1E0F5BFE5BFE09377
:2000C0006C00F8E1F1BDE1BD8DE0A2E0BB27ED938A95E9F780E090E1A0E0B1E0ED93019745
:2000E000E9F7EAEAF0E085919591009761F0A591B59105901590BF01F00105900D92019725
:20010000E1F7FB01F0CF8BBFEFEFEDBFE0E1EEBFC0E0D5E00C944F046A937A93AA93BA932E
:20012000EA93FA93EFB7EA93A0E0B5E00E940F05A8E0B5E00E940F05A4E0B5E00E940F0525
:20014000ACE0B5E00E940F05E991EFBFF991E991B991A991799169911895A0E5B5E00E94AB
:200160000F050E941805A037E7E1BE07E0E08E07E0E09E0709F4949A0E941805A03EEEE2F6
:20018000BE07E0E08E07E0E09E0719F494980E94210508950E942B05C19AC49ACE9B10C07E
:2001A000CB990DC0E8EEF3E0FA93EA930E942C06002E012A21F40E94300501E010E0EECFB4
:2001C0000E94340535C30E942B05A0E0CB99A1E0E0E00E9438050E943D050E22D5010E94EA
:2001E0003D05E02111F40C947A010E9405050E2F1127A0E0CE99A1E0E1E00E9438050E94D1
:20020000420511F00E943405A0E0CE99A1E0E0E00E9438050E94420511F00E9434050E944D
:2002200048050E944D05E4E0F0E00E944506E02111F00E9434050E9448050E943D050E2E10
:20024000D801E4E0F0E00E944506E02111F00E9430050E9454050E944D05E6E0F0E00E9444
:200260004506E02111F00E9434050E9454050E943D050E2ED801E6E0F0E00E944506E021DE
:2002800011F00E943005E2E0F0E0E017F10759F40E940505FF27662777270E9459050E9419
:2002A00062050E947D05E3E0F0E0E017F107A1F40E940505F0E0E0934405F09345050E94F5
:2002C0008105E0934605E0934705E0E0E0934A05E0934B050E947D05E5E0F0E0E017F1072E
:2002E00049F40E940505F0E0E0934805F09349050E947D05D8010E944D05E2E0F0E00E948F
:200300008705E3E0F0E00E948705E4E0F0E00E948705E5E0F0E00E948705E6E0F0E00E94D3
:2003200045060E2AD501E0E0F0E00E944B06E02919F0F50131965F01E8EEF3E0EA15FB050A
:2003400011F4AA24BB2474C2A0E09C99A1E0E0E00E948C051E2EA0E09C99A1E0E1E00E94A7
:200360008C05E12931F0E1E0F0E0E0934C05F0934D050895C89913C0A6E5B5E0ED91FD919A
:200380003196FE93EE93A0915605B0915705A93EE3E0BE071CF0C0980E94990503C0C09A2B
:2003A0000E94990508950E942B05E0911005F0911105309729F4E1E0F0E00E949F056CC189
:2003C000EF36A0E0FA0731F50E94A40511F5C09A66247724D401E0E0F0E00E944B060E2EED
:2003E000A0914C05B0914D050E94AA050E2AA0E0C899A1E0E0E00E944006E02909F0C39AF6
:200400000E94AF05959A0E94B505E3E0F0E00E949F0542C1E130A0E0FA07A9F40E94A405A5
:2004200089F4662477240E94AF05E0E0E0935805E0935905959A949A0E94B505E2E0F0E018
:200440000E949F0529C1E230A0E0FA0789F40E94C705A031E0E0BE07E0E08E07E0E09E07DE
:2004600034F00E94D005E3E0F0E00E949F0514C1E330A0E0FA0791F40E94DA05A432E0E003
:20048000BE07E0E08E07E0E09E073CF095980E94D005E4E0F0E00E949F05FEC0E430A0E0E1
:2004A000FA07C9F4CC9902C00E94DD050E94DA05AA31E0E0BE07E0E08E07E0E09E0754F0F4
:2004C0000E94D005E5E0F0E00E949F05CC9902C00E94DD05E1C0E530A0E0FA07D9F5A0E09A
:2004E000CC99A1E0E0E00E9440060E2EA0915405B09155050E94AA05E02961F094980E9494
:20050000E4050E94EA05E2E3F0E060E070E00E94ED051FC00E94E405A8E5B5E0ED91FD9110
:200520003196FE93EE93A0915805B091590512974CF00E94EA05E0E0E0935805E0935905DE
:20054000949805C0959AE6E0F0E00E949F050E94D005A2C0E630A0E0FA0791F40E94DA0529
:20056000A739E0E0BE07E0E08E07E0E09E073CF095980E94D005E7E0F0E00E949F058CC063
:20058000E730A0E0FA07A1F4E8DDCC9902C00E94DD050E94C705A135E0E0BE07E0E08E07A0
:2005A000E0E09E0724F0E5E0F0E00E949F0574C0E830A0E0FA0761F40E94C7050E94F605BA
:2005C00034F00E94D005E9E0F0E00E949F0564C0E930A0E0FA0751F40E94FE0534F0C79876
:2005E000929A0E94D0050E94EA0556C0EA30A0E0FA0759F40E94FE053CF0969A0E94D00551
:20060000EBE0F0E00E949F0547C0EB30A0E0FA0741F50E94FE0524F10E9448050E94AA0526
:200620000E2EA0914805B09149050E94AA050E220E9454050E94420569F0E0E0E093440537
:20064000E093450596980E94D005ECE0F0E00E949F0506C0E3E3F0E060E070E00E94ED05D6
:200660001BC0EC30A0E0FA0751F40E94C7050E94070624F0EDE0F0E00E949F050DC0ED30BF
:20068000A0E0FA0749F40E94D005E0E0E0931005E093110501E010E0CAC00E942B05E091B6
:2006A0001205F0911305309751F40E94A40531F4E2E1F5E0A1E0B0E0A083B183B8C0E13085
:2006C000A0E0FA0759F4CA9908C00E940F06E2E1F5E0A2E0B0E0A083B183A9C0E230A0E06E
:2006E000FA0789F4CA9B0EC00E940F06A0914805B0914905119731F4E2E1F5E0A3E0B0E00D
:20070000A083B18394C0E330A0E0FA0749F40E941906E2E1F5E0A4E0B0E0A083B18387C052
:20072000E430A0E0FA07A9F40E9423060E9493067CF4979AE1E0F0E0E0934A05F0934B05BA
:200740000E941906E2E1F5E0A5E0B0E0A083B1836EC0E530A0E0FA0799F50E942306A536DC
:20076000E0E0BE07E0E08E07E0E09E0744F1A0E0CF99A1E0E1E00E9440060E2EA091100571
:20078000B0911105EBE0F0E00E944506E02159F0939A97980E940F06E2E1F5E0A6E0B0E06F
:2007A000A083B1830CC0E5E6F0E060E070E0E0930405F0930505609306057093070537C0DE
:2007C000E630A0E0FA0771F40E9423060E94070644F00E940F06E2E1F5E0A7E0B0E0A083E6
:2007E000B18325C0E730A0E0FA0799F40E9423060E94F6056CF09398E1E0F0E0E09346057D
:20080000F0934705E2E1F5E0A8E0B0E0A083B1830EC0E830A0E0FA0751F40E940F06E2E1DC
:20082000F5E0A0E0B0E0A083B18301E010E0F801099119910895E0912405F09125053097C5
:2008400029F4B1DDE0932405F0932505E0912605F0912705309729F420DFE0932605F09357
:2008600027050895A0912405B09125050E94AA050E2EE0912605F0912705A1E0B0E00E9461
:200880004506E02159F0E0E0E0932405E0932505E6E2F5E0A0E0B0E0A083B1830895E0E069
:2008A000EBBBEABBE8BBEFEFE7BBE0E0E5BBE4BBE2BBEFEFE1BBE0E0E3B9EFEFE2B9E0E01F
:2008C000E0936200EFEFE0936100E0E0E0936500EFE1E0936400E0E0E0BFE7E0E3BFE0E0CA
:2008E000E2BFE1BFEFBDEEBDEDBDECBDE7BDE6BDEBBDEABDE9BDE8BDE0937900E093780055
:20090000E5BDE4BDE3BDE0938B00E0938A00E0938900E0938800E0938100E0938000E093A8
:200920008700E0938600E0938500E0938400E0938300E0938200E0936A00EABFE9BFE1E06E
:20094000E7BFE0E0E0937D00EBB9E8E1EAB9E6E0E0939500E0E0E0939000E7E6E9B9E0E071
:20096000E0939A00E0E8E8B9E0E0E0BDE6B9EDB9E09374007894E7E0F0E060E070E00E94A3
:200980005905EEE3F0E060E070E0E0934005F093410560934205709343050E946205442451
:2009A0005524929AE1E0F0E04F0166247724F2DBAA24BB24E0E0E0934405E0934505E09366
:2009C0004605E09347050E948105E0934A05E0934B05CC24DD240E94AF05E0E0E0934E0593
:2009E000E0934F050E9421050E94E4050E949905E8EBFBE0FA93EA930E942C061CDF32DF05
:200A0000B9DCA2DCE0DBFACFFFCF5F9BFECFECB108955D9BFECFE881ECB9219608950E94A7
:200A20008906EF5FFF4F6F4F7F4F0E948E060895A0915005B091510580915205909153052E
:200A40000895E0E0E0935005E0935105E0935205E093530508951A930A9300E010E00895BF
:200A6000E0E0EA930C940905E1E0EA930C9409050E9440060E2ED8010895E0E0F0E00E94D3
:200A800045060895E1E0F0E00E944506E0210895A0914605B09147050895E1E0F0E00E9479
:200AA00045060E2ED8010895A0914A05B0914B050895E0933C05F0933D0560933E057093D9
:200AC0003F050895E0914005F09141056091420570914305A0913C05B0913D0580913E05EE
:200AE00090913F050E947106E0933805F093390560933A0570933B050895E3E0EA930C9415
:200B00000905E0E0E0934805E093490508950E9445060E2AD80108950E9440060E2EA091F9
:200B20001005B0911105E3E0F0E00E944506E0210895E0E0E0935605E09357050895E093BE
:200B40001005F09311050895A0914405B091450511970895E1E0F0E00E9445060895E0E025
:200B6000E0934C05E0934D050895E0E0E0930805E0930905E0930A05E0930B05E093000511
:200B8000E0930105E0930205E09303050895A0910005B091010580910205909103050895EF
:200BA000E0E0E0930005E0930105E0930205E093030508950E94AD00EACFE1E0F0E0E093E6
:200BC0005405F09355050895E0E0E0935405E09355050895EAE0F0E0B2CFE0930005F09336
:200BE000010560930205709303050895A531E0E0BE07E0E08E07E0E09E070895C8DFA3331E
:200C0000E0E0BE07E0E08E07E0E09E070895A230E0E0BE07E0E08E07E0E09E070895E0E08A
:200C2000E0930405E0930505E0930605E09307050895E0E0E0930C05E0930D05E0930E05D2
:200C4000E0930F05ECCFA0910405B091050580910605909107050895E991F991309639F0F4
:200C600080EA9FE00197F1F7A8953197C9F70895F09560957095E195FF4F6F4F7F4F08953D
:200C8000EA17E1E009F0EE270895EA17FB07E1E009F0EE270895EA17FB07E1E00CF0EE27A3
:200CA00008957A9F702D6B9F700DF89F700DE99F700D6A9F602D710DFB9F600D711DE89F11
:200CC000600D711D8827FA9FF02D610D781FEB9FF00D611D781FEA9FE02DF10D681F781F61
:200CE000089504D0DEDF0EF4C3DF0895E89477FF02C0BEDF689497FF0BC00024A095B09539
:200D0000809590951196801D901D00F8039400FA0895ED91FD916D917D9108957E936E93BB
:120D2000FE93EE93089500240A160B0608060906089503
:00000001FF
