:200000000C949F010C9400000C9400000C9400000C9400000C9400000C9400000C94000040
:200020000C9400000C9400000C9400000C9400000C9400000C9400000C9400000C940000C0
:200040000C94EA010C9400000C9400000C9400000C9400000C9400000C9400000C940000B5
:200060000C9400000C9400000C9400000C9400000C9400000C9400000C9400000C94000080
:200080000C9400000C9400000C9400001027E80364000A000100001000011000010020208D
:2000A000202020202020202020202020202020202020202020202020202020202020202040
:2000C00020202020202000496E69636A616C697A756A65206D61737A796E65005779637AAB
:2000E00079737A637A6F6E6F206D61737A796E65004D61737A796E61207A61696E69636A5F
:20010000616C697A6F77616E6100437A656B616D206E612070726574206777696E746F77C5
:20012000616E79005072616361005A616B726563696C656D2077737A7973746B6965207AD2
:200140006164616E652070756368617279004272616B2077796D6167616E65676F206369CF
:20016000736E69656E696120362062617200446F7A6F776E696B206B6C656A7520707265F6
:20018000746F77206E696520676F746F777900446F7A6F776E696B206B6C656A75206E6161
:2001A0006B726574656B206E696520676F746F77790057796C61637A206D61737A796E65F3
:2001C000206920706F637A656B616A2031206D696E757465004F64736C6F6E2069207A7218
:2001E00065736574756A206B757274796E65004D6F6E7465722033206E6965206E6163695E
:20020000736E616C20706564616C6100437A656B616D206E612072756368206C616E63755A
:2002200063686100506F707261772070726574207A2067727A79626B69656D2069206E6138
:200240006369736E696A2067757A696B005573756E2070726574207A6520737A637A656B95
:200260002069206E616369736E696A2067757A696B0057796D69656E206C7562206E616B06
:200280007265632F646F6B7265632067727A7962656B2069206E616369736E696A2067756B
:2002A0007A696B004D6F6E7465722033202D207A64656D6F6E74756A207075636861722018
:2002C0006920706F7477696572647A004D6F6E7465722033202D2077797A776F6C207265C5
:2002E000637A6E696520637A756A6E696B2070756368617261002020202020202020202083
:200300002020202020202020202020202020202020202020202020202020202020202020DD
:200320002020202020202020000001002D4E414E00494E4600000100BB052A030000F8945B
:20034000EE27ECBBF1E0F5BFE5BFE0936C00F8E1F1BDE1BD8DE0A2E0BB27ED938A95E9F764
:2003600080E090E1A0E0B1E0ED930197E9F7E6E3F3E085919591009761F0A591B5910590D2
:200380001590BF01F00105900D920197E1F7FB01F0CF8BBFEFEFEDBFE0E1EEBFC0E0D5E011
:2003A0000C94BC0E1A930A93E0919B001E2FE078D9F300919C00E12FEC7111F4E02F91C00D
:2003C000F3CFE0919B00E072E1F3E881E0939C00219608956A937A93AA93BA93EA93FA93BF
:2003E000EFB7EA93A6E3B5E00E946911A6E4B5E00E946911AAE3B5E00E946911AAE4B5E004
:200400000E946911AEE3B5E00E946911AEE4B5E00E946911A2E4B5E00E946911A2E5B5E0E8
:200420000E946911AEE5B5E00E946911A2E6B5E00E946911A6E6B5E00E946911E991EFBFBE
:20044000F991E991B991A991799169911895C999949AA0E09499A1E00E9472110E94771156
:20046000E02121F0AFEAB5E00E9469110E9477110E2EA091AF05B091B0058091B1059091F7
:20048000B2050E947E11E02141F00E9485119498E0E0E0938305E093840508951A930A9340
:2004A00001E010E0F8011DC00E948F11C99B02C0949AFCCF0E9494110431E0E01E075CF483
:2004C000C99B06C0C99B02C0949AFCCF0E9494110F5F1F4FF1CFE4E1F0E0E0938505F093DB
:2004E00086050991199108950E949C110E94A4110E94B0110E94B411E0E023C2E0E0E09348
:2005000082050E949C110E94B8110E94B0110E94C111E0938205F0E008950E949C110E946B
:20052000A411E0E608C2A9E8B5E00E94D7110E94DD110E949C110E94E31103C20E949C113D
:200540000E94F1110E94FA110E94FE11E7E10E9407120E94FA11E7ECF0E0BAC00E949C11FD
:20056000EBE10E9407120E94FA11E1EFF0E0B0C00E949C11ECE10E9407120E94FA11EAE0E9
:20058000F1E0A6C00E949C110E94F1110E94FA110E94FE11E8E00E9407120E94FA11E4E2DD
:2005A000F1E096C00E949C11EBE10E9407120E94FA11EEEAF0E00E940F120E949C11E6E20F
:2005C0000E9407120E94FA11EAE2F1E081C00E949C11E2E20E9407120E94FA11EEE4F1E0B7
:2005E00077C0E881F981309751F40E949C110E94F1110E94FA11EEE6F1E00E940F12A881A4
:20060000B981119759F40E949C11E5E20E9407120E94FA11EFE8F1E00E940F125EC00E9402
:200620009C11E5E20E9407120E94FA11E2EBF1E04FC00E949C11ECE10E9407120E94FA11AD
:20064000E5EDF1E045C00E949C11EFE10E9407120E94FA11EFEEF1E03BC00E949C11EAE1A8
:200660000E9407120E94FA11ECE0F2E031C00E949C11EBE20E9407120E94FA11E4E2F2E067
:2006800027C00E949C11E7E20E9407120E94FA11EDE4F2E01DC00E949C11E4E30E940712A2
:2006A0000E94FA11E2E7F2E013C00E949C11ECE20E9407120E94FA11ECECF2E009C00E9485
:2006C0009C11E5E30E9407120E94FA11E6EFF2E0FA93EA9380E00E942D11229608951A934A
:2006E0000A931F9AEA81EA936CDEEB810E9416121F9819810881249608950E94FE1640E035
:2007000050E0E0E0E093820510E0AE81BF811197D1F50E949C110E94B8110E941E120E94F4
:20072000C111F0E0E0933405F09335050E949C110E9422120E942E120E94C1110E9432124D
:2007400039F4E1E0F0E0E0939105F093920505C0E0E0E0939105E09392050E949C110E942F
:200760002212E0E20E9437120E94321239F4E1E0F0E0E0938F05F093900505C0E0E0E093DD
:200780008F05E09390050E949C110E94B811E0E50E943712F0E0E0932E05F0932F050E9484
:2007A0003B121E2EAE81BF810E9442120E944812E4E0F0E00E945416E021E12961F10E94A0
:2007C0009C110E94B811E0E60E9437120E94321239F4E1E0F0E0E093B505F093B60505C07C
:2007E000E0E0E093B505E093B605E0916A05F0916B0560916C0570916D05A7E0B0E080E0C1
:2008000090E00E949716E0935605F09357056093580570935905E0919705F09198053097C9
:2008200091F41A93E2E0EA935ADFE1E0F0E0E0939705F0939805E0915605F0915705E09332
:200840009905F0939A050E944D12A0919905B0919A050E9432160E94F91629F0E0E0E09341
:200860009705E0939805D6010E9442120E943B12E02161F10E949C110E94B811E0E7EA93BF
:200880000E94E90F0E9456120E945A120E945A120E94E50F0E94E50F4E2F55270E94E50FDD
:2008A000F0E00E9460120024041605066CF4FA01AFEFB0E00E9492160E944812EA0FFB1F29
:2008C000E40FF51F0E9460120E9465120E940517CAC00E949C110E94A4110E941E120E9482
:2008E000B411E09134050E946E120E94A4110E947212E0912E050E946E120E94A411E0E607
:200900000E9477120E9456120E949C110E94A411E0E70E947712E5E00E946E120E947B12F4
:200920000E942E120E94B4110E9456120E949C110E947B12E0E2EA930E94E90F0E94B411A6
:20094000E1E0EA930E94E90F08950E940017AE81BF81A030E1E0BE076CF0EFEFF0E00E94F8
:20096000AF168F01AE81BF81EFEFF0E00E94B4169F0104C000E010E020E030E00E949C1106
:200980000E94A411E0E8EA930E94E90F0A930E94E90FAE81BF81A030E1E0BE072CF0AFEF6B
:2009A0000A02F001E20F06C0AF81AA2312F0EE8101C0E0E0EA930E94E90FAC81BD81A03042
:2009C000E1E0BE076CF0EFEFF0E00E94AF168F01AC81BD81EFEFF0E00E94B4169F0104C0A7
:2009E00000E010E020E030E00E949C110E947B120E941E120A930E94E90FAC81BD81A03055
:200A0000E1E0BE072CF0AFEF0A02F001E20F01C0EC81EA930E94E90F0E94071724C00E941D
:200A20009C110E94A4110E942E120E94B411EE810E946E120E94A411E0E20E947712EC8127
:200A40000E946E120E947B120E94B0110E94B411EA810E946E120E947B120E947212E88130
:200A6000EA930E94E90F28960895959A08950E948F111F9AE4E6F0E00E94841293DC0E2FBF
:200A80001127002E012A21F40E948812AADD8ADC1F9820C3E0E00799E1E0E03011F00C941B
:200AA000A805E0919505F0919605309749F407DE0E948D121D9A0E9493120E94961247C0E9
:200AC000E130A0E0FA0731F41D980E9493120E949D123DC0E230A0E0FA0741F41E9A0699F6
:200AE00003C00E94A41201C0B8DD31C0E330A0E0FA07D1F4069B17C0E2DDA0919305B091FA
:200B00009405129721F4E3E0F0E00E94AE12E0919305F0919405309721F4E2E0F0E00E9456
:200B2000AE120E94B31213C0E430A0E0FA0779F40E94BA12129729F40E9493120E949D12ED
:200B400006C0E1E0F0E00E94AE120E94BF1213C0E13089F46EDD1D981E980E94C512E09168
:200B6000B305F091B405309711F40E94CB120E94D4120E94EE12E0919305F091940508954E
:200B800028970E94001720E030E00E94DD110E94F1120E94F71201E010E00E94BF12E8E0E1
:200BA000F0E0CE16DF061CF00E94BF1202C00E94FD120E9404130E9419130E941F130E94AD
:200BC00019130E9424130E9419130E9429130E941913E3E0F0E00E943C160E941913E4E07D
:200BE000F0E00E943C16E02911F40C9461070E940413E02911F40C94C406F801E130A0E060
:200C0000FA0769F5D9010E9424130E2E0E942E130E220E943413E0E2FEE460E070E00E94B4
:200C20006216E0211E2ED601E8E0F0E00E944E160E2E0E943413E8EBFBE060E070E00E9475
:200C40006216E021E12951F0E8E0F0E0CE16DF060CF4C59A02E010E00E94F71295C0E2302C
:200C6000A0E0FA07D9F50E9439130E2ED601E8E0F0E00E944E16E0211E2EA0E0CD99A1E0D2
:200C80000E9472110E942E13E021E12911F0C59820C00E9434130E947E110E9440130E9452
:200CA000451359F040DCEDDCC598E1EAF6E861E070E0EC83FD836E837F830E9434130E94AA
:200CC0007E110E9440130E944A1339F0F8DC0E94F712C298C69803E010E056C0E330A0E0B5
:200CE000FA0711F00C94B306A091A305B091A405119711F5A0913405B0913505E6E4F0E0A9
:200D00000E944E160E2E0E944812E1E0F0E00E9454160E944F130E9448160E220E945413BB
:200D20000E941F13E02109F0A89AC798909AE0E0E093A305E093A405A0E0CC99A1E00E941B
:200D40007211A091A305B091A4050E941F13E02149F0909A0E9459130E9460130E946613D7
:200D600004E010E011C0E430A0E0FA0769F4029906C0E1E0F0E0E093A705F093A805CC9936
:200D800003C0909805E010E0E0E00799E1E0E03011F00C943607E0919505F0919605309796
:200DA00099F40E946F13A0E00399A1E00E944A1349F00E948D1283DC1D9A0E94F1120E940F
:200DC000961201C052C051C0E130A0E0FA0799F40E946F13A0E0C199A1E00E944A1349F0B1
:200DE0000E9477132CF01D980E949D120E94F11201C03BC03AC0E230A0E0FA07B1F4079972
:200E000011C00E9477136CF01E9A069909C021E030E00E94F7120E94A4120E94F11201C0DF
:200E20001CDC02C0C19821C020C0E330A0E0FA07B1F4069B13C043DC1E98A885B9858A85E2
:200E40009B85A136EAEEBE07E0E08E07E0E09E071CF00E94B31202C00E94BF1206C0E430C2
:200E6000A0E0FA0711F40E94FD1212C0E13081F426DCDFDB1D981E980E94BF120E94F112A4
:200E8000E091B305F091B405309711F40E94CB12E885F9856A857B85EF5FFF4F6F4F7F4FA2
:200EA000E887F9876A877B87EC81FD816E817F81EF5FFF4F6F4F7F4FEC83FD836E837F836C
:200EC00078CE0E9407172C96089503DDC89902C07EDBFCCFF4DBC9DDF2DB30DBC8DDEFDBCA
:200EE000CC9B02C0909AFCCF0E9459139098AB98A998AA9A1A98C798D7DAE1DB2FDBE091DD
:200F00008205E03001F50E948812F7DBA0918F05B09190051197A1F40E94EE120E94831384
:200F2000A99AE8EBFBE00E948412AA9A1A98E0EDF7E00E9484120E948313A99870DBFFCF24
:200F40000E948813DCCFE0E0E093820519DEAD9A0E94EE12AD9814DE0E94EE1211DE0E94A5
:200F6000EE120EDE0E94C5120E94BA120E9442120E94BA120E9429130E2A0E94BA12E3E0F3
:200F8000F0E00E943C16E02921F084DD0E94AE12EBCFE0E0E0939305E09394050E94EE127D
:200FA0000E948812AADBE1E0F0E00895E1E0F0E00E948D13E0917A05F0917B0508951A9334
:200FC0000A931F9AE4E00E9416121F98002E012A79F4A091A105B091A205159719F433DB2A
:200FE0000E949213A1EAB5E00E94D7110E9498130E94A41361F40E949213A0917805B091CF
:201000007905119711F40E94A9130E94B113E0917E05F0917F055EC01A930A931F9AE6E001
:201020000E9416121F98002E012A79F4A091A105B091A205159719F438DB0E949213A1EA0C
:20104000B5E00E94D7110E9498130E94A41361F40E949213A0917805B0917905119711F415
:201060000E94A9130E94B113E0917E05F0917F0531C01A930A931F9AE1E00E9416121F987D
:20108000002E012A81F40E948812ABDA0E94EE12E0E0E0937C05E0937D05E1E0F0E0E09372
:2010A0007605F09377050E94A41381F4A0917605B0917705119731F402DBE0E0E093760527
:2010C000E0937705E1E0F0E00E94B813E0917C05F0917D050991199108950E948F11E0919A
:2010E0001405F0911505309719F40E94BD13D8C0E130A0E0FA07D9F4AF9A0E94C4130E949B
:201100004A1399F0E0E0E0934605E0934705E0934805E09349050E94CF13E2E0F0E00E9473
:20112000D9130E94DE132EDA01C022DAB9C0E230A0E0FA0769F40E94E5130E94EE133CF099
:20114000AF980E94CF13E3E0F0E00E94D913A8C0E330A0E0FA0759F40E94F6133CF0AE9A3B
:201160000E94CF13E4E0F0E00E94D91399C0E430A0E0FA0761F40E94F61344F0AE98C49A03
:201180000E94CF13E5E0F0E00E94D91389C0E530A0E0FA0769F40E94E5130E94FF133CF0F2
:2011A000C4980E94CF13E6E0F0E00E94D91378C0E630A0E0FA0799F50E94C4130E9445135B
:2011C00021F00E94BD130E940714A0E0CA99A1E00E947211A0E0CB99A1E00E944A1321F0D1
:2011E0000E94BD130E9407140E94C4130E944A1331F0E3E0F0E00E94D9130E940714A0E0C9
:20120000CA99A1E00E947211A0E0CB99A1E00E94451321F0E7E0F0E00E94D91341C0E73018
:20122000A0E0FA0759F40E94F6133CF0AD9A0E94CF13E8E0F0E00E94D91332C0E830A0E08E
:20124000FA0759F40E94F6133CF0AD980E94CF13E9E0F0E00E94D91323C0E930A0E0FA07FC
:2012600051F40E94E5130E94141424F0EAE0F0E00E94D91315C0EA30A0E0FA0789F40E94FA
:20128000CF13E0E0E0931405E093150501E010E0E1E0F0E0EC15FD0519F4E2E0F0E06F011F
:2012A000CEC20E948F11E0911605F0911705309771F4E0E0E0934A05E0934B05E0934C05FE
:2012C000E0934D050E941C140E9421144DC0E130A0E0FA0789F40E9426140E94FF130CF0F8
:2012E000AC9A0E9426140E94EE132CF01C9A0E941C140E942F1438C0E230A0E0FA0759F4C8
:201300000E9426140E9434142CF01C980E941C140E943C1429C0E330A0E0FA0749F40E9417
:2013200041142CF0AC980E941C140E944A141CC0E430A0E0FA0741F40E94411424F0E6E1AE
:20134000F5E00E944F1410C0E530A0E0FA0761F40E941C140E945414E3E0F0E0EC15FD0586
:2013600019F4E4E0F0E06F016AC20E948F11E0911805F0911905309791F4E0E0E0934E05EF
:20138000E0934F05E0935005E09351050E945B14C398AA98E8E1F5E00E94211403C1E130FD
:2013A000A0E0FA0769F40E9465140E9414143CF01A9A0E945B14E8E1F5E00E942F14F2C044
:2013C000E230A0E0FA07B1F40E945413119721F40E946E140E9475140E9465140E947C1473
:2013E00044F0A99AC79A0E945B14E8E1F5E00E943C14D8C0E330A0E0FA07A1F40E94651498
:201400000E94841474F0A998A5E8B5E0ED91FD913197FE93EE930E945B14E8E1F5E00E9494
:201420004A14C0C0E430A0E0FA0739F40E945B14E8E1F5E00E944F14B5C0E530A0E0FA074D
:2014400081F40E9465140E948C1454F0C39A1A980E949414E8E1F5E0A6E0B0E0A083B18312
:20146000A1C0E630A0E0FA0781F40E9465140E94FF1354F0919AAB9A0E945B14E8E1F5E0CD
:20148000A7E0B0E0A083B1838DC0E730A0E0FA07D1F5A0E00599A1E00E949A140E949F14EF
:2014A0000E941F13E02111F00E946E140E949F140E9424130E2EE0912E05F0912F050E94CD
:2014C00065140E942D160E945A16E02131F0C39891980E945B140E94A414E0913005F09164
:2014E00031050E9465140E942D160E94F91654F4C3989198A5EAB5E00E94D7110E94941441
:201500000E94A4144FC0E830A0E0FA07C9F40E94AB140E942413E02131F0AB98AA9A0E9487
:201520005B140E9475140E94AB140E941F13E02131F0AB98AA9A0E945B140E94751432C005
:20154000E930A0E0FA07A1F40E946514A630E0E0BE07E0E08E07E0E09E074CF0C7980E94EF
:201560005B14E8E1F5E0AAE0B0E0A083B1831AC0EA30A0E0FA07B1F4E0918B05F0918C05C0
:20158000E0938D05F0938E050E945B14E8E1F5E00E945414E5E0F0E0EC15FD0519F4E6E00C
:2015A000F0E06F014CC10E948F11E0911A05F0911B05309781F4E0E0E0935205E0935305DA
:2015C000E0935405E09355050E94B4140E9421140E94DD1134C1E130A0E0FA0729F40E945B
:2015E000B4140E942F142BC1E230A0E0FA0769F40E94C0140E9484143CF0A898C19AC09A91
:201600000E94B4140E943C141AC1E330A0E0FA07F1F5A0918D05B0918E050E9424130E2E6D
:201620000E9454130E941F130E22A0919D05B0919E050E941F130E22A091A705B091A80517
:201640000E942413E021E1F40E94930224D8E1E0F0E0E0939D05F0939E05CF9917C0A0916C
:20166000A705B091A8050E944212D601E7E0F0E00E944816E02121F0A9EAB5E00E94D711A8
:20168000EAE1F5E00E944A140E94C914D8C0E430A0E0FA0761F413D8E0E0E0939D05E09376
:2016A0009E05C59A0E94B4140E944F14C8C0E530A0E0FA0711F00C94A00B0E94C014E9E10F
:2016C000F0E060E070E00E9462160E2EA0E0CD99A1E0E1E00E9437160E22A0E0C599A1E0AE
:2016E0000E94451339F0C69A0E94B414A6E0B0E0A083B1830E94C014E2E3F0E060E070E0F5
:201700000E9462160E2E0E943913E02139F00E94C9140E9493020E943703C598A0E0C5998E
:20172000A1E0E0E00E9437160E9440130E944A1331F00E945F03EAE1F5E00E944A147FC081
:20174000E630A0E0FA0791F40E94C014AA31E0E0BE07E0E08E07E0E09E073CF0C29A0E94B3
:20176000B414A7E0B0E0A083B18369C0E730A0E0FA07A1F40E94C0140E94341474F0009B7E
:2017800005C0A7EBB5E00E94D7113197C0980E94B414A8E0B0E0A083B18351C0E830A0E031
:2017A000FA0769F40E94C0140E9434143CF0C5980E94B414A9E0B0E0A083B18340C0E930EF
:2017C000A0E0FA0769F40E94C0140E947C143CF0C2980E94B414AAE0B0E0A083B1832FC033
:2017E000EA30A0E0FA0769F40E94C0140E947C143CF0C1980E94B414ABE0B0E0A083B183E8
:201800001EC0EB30A0E0FA07D1F40E94C0140E948C14ACF00E94B4140E945414A2E3B5E0A7
:20182000ED91FD913197FE93EE93E7E0F0E0EC15FD0529F4E8E0F0E06F010E94D314F80181
:201840000991199108950E94ED140E9442120E94F214E02129F041DCE0930005F09301052E
:201860000E94F8140E94FD140E9403150E940B15E02129F016DDE0930205F09303050E94D7
:2018800010150E94FD140E9403150E9415150E940B15E02129F069DDE0930405F0930505BF
:2018A000E0910605F09107050E94FD140E9403150E941515D601E5E0F0E00E9442160E94DE
:2018C0004F130E9442160E220E940B15E02129F06ADEE0930605F09307050895AA24BB2401
:2018E0000E9426150E94D31408950E942D150E2ED6010E942913E02199F00E9488130E94A7
:201900002F150E943E150E9443150E944915E02139F00E944F150E945D15E3E0F0E06F014D
:201920000E942D150E2E0E94F8140E946315D601E4E0F0E00E943C16E021A9F00E94881389
:201940000E942F150E943E150E9443150E944915E02149F00E944F150E946915E5E0F0E0BD
:201960006F010E945D150E942D150E2E0E94F8140E9463150E941015A1E0B0E00E943C162F
:201980000E944F130E943C16E021B9F00E9488130E942F150E943E150E9443150E94491593
:2019A000E02159F00E944F150E9469150E9470150E945D15E7E0F0E06F010E942D150E2E55
:2019C0000E94F8140E9463150E9410150E946315E0910605F09107050E9463150E942E1358
:2019E000E02111F40C94DF0D0E948813DFDA0E948D133FDB0E94B8130E944E02E0938705A5
:201A0000F0938805D5010E9424130E2EA0918205E1E00E9437160E220E943E150E94431544
:201A20000E944915E02111F40C94DF0D0E9477150E947D150E94821531F0C1DAE0937E05C7
:201A4000F0937F05F5CFA0919F05B091A005119739F4049B03C00E948915FBCF0E9489157F
:201A60000E948F154CF00E949A1534F0E1E0EA93E3E0EA930E946F0383D80E948F15B4F098
:201A80000E949A1534F0E1E0EA93E5E0EA930E946F030E9477150E947D150E949F1531F064
:201AA000BBDAE0937E05F0937F05F5CFE0E0F0E0FA93EA930E947D03A091B505B091B6052D
:201AC0000E9424130E2EA091B905B091BA050E941F13E021C9F0E0E0E093B505E093B60559
:201AE000E1E0F0E0E093B905F093BA050E948D02E4E0F0E00E9460120E946512EEEFFFEF25
:201B0000E0932805F0932905F60131966F01E8EEF3E0EC15FD051CF4E4E6F0E06F010E94DE
:201B20004812E3E0F0E00E9454160E2E0E940B15E02141F00E945D150E94A6150E947015E4
:201B40000E94AC150E944812139744F00E94DE130E9469150E9470150E94AC150E9448120F
:201B6000129734F00E94DE130E9470150E94AC150E9448120E94F51624F40E94DE130E9485
:201B8000AC15ACDE0E94B315A0919B05B0919C050E943C160E2EA0919F05B091A0050E9450
:201BA0001F13E02161F00E94D20294980E948D020E947402E0E0E0938205CC24DD2408956E
:201BC000D601E8E0F0E00E943C160E2ED5010E941F13E02119F0E1E0F0E05F01D601E9E021
:201BE000F0E00E9448160E2ED5010E941F13E02111F40C94870E042C0528A1F40E944D1201
:201C0000A0915E05B0915F0580916005909161050E94B91521F0AEE6B5E00E94D711E1E099
:201C2000F0E02F01062C0728A1F40E944D12A0916205B091630580916405909165050E94C5
:201C4000B91521F0A0E7B5E00E94D711E1E0F0E03F01A0E00499A1E00E949A14D4010E94C9
:201C60001F130E22D601EBE0F0E00E944E16E021C9F00E94BD1521F0A2E7B5E00E94D711A3
:201C80000E949A1564F0A8E2B5E00E94D711ADEAB5E00E94D7110E94B3150E94C715E1E097
:201CA000F0E04F01A0E00499A1E00E949A14D4010E941F130E2A0E948215C9F00E94BD15CF
:201CC00021F0A2E7B5E00E94D7110E949A1564F0A8E2B5E00E94D711ADEAB5E00E94D71147
:201CE0000E94B3150E94C715E1E0F0E04F01D2010E9424130E2ED3010E9424130E22D40181
:201D00000E942413E02119F0E1E0F0E05F0108950C2C0D2881F5E0918205E03019F40E94B8
:201D2000881329C00E9488120E947D030E94D3150E94D9150E94A6150E9470150E94AC15C0
:201D40000E94D3150E945F039498E0E0E093B905E093BA05E0912805F0912905FA93EA934F
:201D6000E091AD05F091AE05FA93EA930E94A504E1E0F0E06F010895E0E0EBBBEABBE8BB6B
:201D8000EFEFE7BBE0E0E5BBEFEFE4BBE0E0E2BBEFEFE1BBE0E0E3B9EFEFE2B9E0E0E09307
:201DA0006200E0936100E0936500EFE1E0936400E0E0E0BFE7E0E3BFE0E0E2BFE1BFEFBDF9
:201DC000EEBDEDBDECBDE7BDE6BDEBBDEABDE9BDE8BDE0937900E0937800E5BDE4BDE3BD6A
:201DE000E0938B00E0938A00E0938900E0938800E0938100E0938000E0938700E093860017
:201E0000E0938500E0938400E0938300E0938200E0936A00EABFE9BFE1E0E7BFE0E0E09320
:201E20007D00EBB9E8E1EAB9E6E0E0939500E0E0E0939000E7E6E9B9E0E0E0939B00E8E17E
:201E4000E0939A00E6E0E0939D00E0E0E0939800E7E6E0939900E0E8E8B9E0E0E0BDE6B996
:201E6000EDB9E09374007894E0E4FFE10E948412E0EDF7E00E9484120E949C110E94E3112C
:201E8000EA93A7D0CC24DD24E0E0E0935605E0935705E0935805E09359050E942615AA24B4
:201EA000BB24E4E6F0E060E070E0E0935A05F0935B0560935C0570935D050E945D15EEE3C6
:201EC000F0E060E070E0E0936A05F0936B0560936C0570936D050E94C512ECEDF0E0E0935F
:201EE0003005F0933105E4E1F0E0E0932E05F0932F05E6E4F0E0E0933405F0933505E0E03F
:201F0000E0932A05E0932B050E94D3150E94D915E0E0E0938005E0938105E0939705E0932F
:201F20009805E0939905E0939A05E0939D05E0939E050E9492130E948915E0E0E093A30554
:201F4000E093A405E093A505E093A605E093A905E093AA050E946013E093AB05E093AC058B
:201F6000E0E0E093AD05E093AE050E9485110E948D12E0E0E093B905E093BA05E0938205C0
:201F8000E0937405E0937505E0937605E0937705E0937805E0937905E0937A05E0937B05C5
:201FA000E0937C05E0937D050E9477150C2C0D2821F40E9465076F01F9CF0E942702A8DEF1
:201FC00042DCFEDD92DCF9CFFFCF5F9BFECFECB108955D9BFECFE881ECB921960895EA8171
:201FE000EA93F7DFA881B9810E94D7112396089526970E94FE1610E0AC85BD85E0E0F0E0E5
:20200000ED93FC93EA89FB893196EA8BFB8B3197E4912E2FE03011F40C942511E12FE03053
:2020200039F4253211F411E002C00E94E8150CC1E130A9F4253219F40E94E81504C112E090
:2020400040E000E02D3211F401E0FEC02B3211F44BE2FAC0203211F440E2F6C002C0E23031
:2020600039F450E013E0203311F40068EDC004C0E33011F00C942411203310F02A3308F04E
:2020800007C0AAE05A9F502DE22FE0535E0FDCC0E22FE33649F40E94F115E889F989A48105
:2020A000AA930E94F715CFC0E33741F40E94F1150E94FF150E9454111E2F0AC0E03761F46F
:2020C0000E94F1150E94FF150E945E111E2F086002600F7730E035C0E43611F0E93611F4B0
:2020E000046002C0E53731F4ECE8F0E0EE83FF8315E00DC0E83511F4086004C0E83711F0B2
:202100000C942311E6E9F0E0EE83FF8314E002FF14C00E94F1150E940916AB85AA233AF4FC
:20212000EA85FB850E942116EA87FB874DE2403011F01F5F01C00B7F04C00E94F1150E946D
:20214000091600FD11C0151778F407FF08C002FF04C00B7F242F115001C020E301C020E2A2
:202160000E94E8155150EFCF312F01FF17C03030A1F003FF06C0EE81FF812591EE83FF83D9
:2021800005C0AE81BF812D91AE83BF830E94E815503009F051503150EACF4BC020E3EE816A
:2021A000FF810E94F116E887F987EE81FF813296EE83FF83E885F985AA85BB85AE17BF0778
:2021C00050F02F5FA885B985EA85FB85EA1BFB0BEA87FB87EFCF2A3328F003FF02C0295F5A
:2021E00001C0295D04FD1AC0213320F4A885B985119709F409C0531710F000FF01C013C07F
:2022000020E207FF0BC020E3006102FF07C00B7F4A930E94F715503009F051500E94E815F1
:20222000503009F051503150A885B985129708F0B5CF00FF08C0503031F05150E0E2EA932B
:202240000E94F715F8CF10E0DDCEAC85BD850E94E3160E94051764960895FF92F82E269797
:202260001A930A93DE0114960E941D168D01E0E0EC83ED83EE83EF83DE0118960E941D1644
:202280000E94E316FA93EA931A930A93EFEEFFE0FA93EA93FE013896FA93EA93A9DE198191
:2022A00008812896FF900895A991B991EE27FF276D91662311F03196FBCF0895AA27BB2783
:2022C000E991F9910590002011F01196FBCFFD0108950E94E716EF5FFF4F6F4F7F4F0E94CF
:2022E000EC160895E1E00E9437160E2E0895A0E0C999A1E0E0E00E9437160895E0EAF6E85F
:2023000061E070E00E9462160895E0E0E093AF05E093B005E093B105E093B20508951A93C9
:202320000A9300E010E00895E0EDF7E0FA93EA930E94111694980895EAE5EA930E94E90F6D
:20234000E5EAEA930C94E90FE5E0EA930E94E90FE2E8EA930E94E90FE0E0EA930C94E90F07
:20236000E0E3EA930C94E90FE0E0EA930C94E90FE4E0EA930E94E90FE3E8EA930E94E90FF3
:20238000F3CFE1E0EA930E94E90F0E94E50F0E94E50F0E94E50F0E94E50F0E94E50F0E9413
:2023A000E50F0E94E50F0E94E50F0C94E50FED91FD913196FE93EE930895E0E0E093890526
:2023C000E0938A050895E3E0EA930E94E90FE0E8EA930E94E90FE2E0EA930E94E90FE0E10B
:2023E0000895E3E2EA930E94E90FE2E8EA930E94E90FBACFE0E9EA930C94E90FEEE9F0E075
:20240000FA93EA9380E00E942D11229695CFEA930E94E90FE2E8EA930E94E90FA5CFFA935D
:20242000EA9380E00E942D1122960895EA930E94E1010E94D2010E2F11270895E0E4EA93C1
:202440000C94E90FE4E0EA930E94E90FE3E8EA930E94E90FE0E1EA930C94E90FE0E1EA9313
:202460000C94E90F2E2F3327022E032A0895EA930E94E90F86CFAE81BF81E1E0F0E00E9405
:202480003C160895E0E0F0E00E943C160E2E0895A0913205B09133050895E0915605F09125
:2024A000570560915805709159050895E1E0EA930C94E90F0E94E50F0E94E50F0C94E50FE0
:2024C000E0933205F09333050895E0913205F0913305E0939B05F0939C050895EA930E94A6
:2024E000E90F2ACFE0E5EA930E94E90F3DCFEA930E94E90F39CFE5E0EA930E94E90FE2E83E
:20250000EA930E94E90FAACFFA93EA930C941116E1E0F0E0FA93EA930895E0E0E093B30537
:20252000E093B4050895E0E9F1E0EECFE1E0F0E0E0939505F09396050895E2E0F0E0E0931D
:202540009505F093960508950E945F03E3E0F0E0E0939505F09396051E980895E093930506
:20256000F09394050895E4E0F0E0E0939505F09396050895A0919305B09194050895E0E046
:20258000E0939505E09396050895E0E0E0939305E0939405F4CFE1E0F0E0E093B305F093AA
:2025A000B405ABEAB5E003CFE091A905F091AA05FA93EA93E091A505F091A605FA93EA93BC
:2025C000E091AB05F091AC05FA93EA93E091B705F091B805FA93EA930C940F05E8EEF3E0CC
:2025E00093CFE0E0E887E987EA87EB870895E0E0EC83ED83EE83EF830895E5E0F0E0E09333
:202600009505F09396050895D801E1E0F0E00E943C160E2EE2E0F0E00E943C160E2AE3E04A
:20262000F0E00E943C160E2AE4E0F0E00E943C1608950E2AA0919505B09196050895E0E03D
:20264000F0E00E943C160895E1E0F0E00E943C160895E2E0F0E00E943C160895D601E8E035
:20266000F0E00E9448160895AC81BD818E819F810895A0E0CD99A1E0E0E00E943716089503
:202680000E2EA0E0CF99A1E00895E1E00E943716E0210895E0E00E943716E02108950E222D
:2026A000D601E6E0F0E00895A0919105B09192050895E1E0F0E0E093A305F093A40508955F
:2026C000E0E0E093A705E093A8050895E0933A05E0933B05E0933C05E0933D050895A0E073
:2026E0000799A1E0E0E00E9437160E2E0895A885B9858A859B85A93EE3E0BE07E0E08E07D3
:20270000E0E09E070895AA981A9AE8EBFBE0FCCE0E947E02E09382050895E0937A05F0931B
:202720007B050895E0E0E093A105E093A2050895E0E0E0937E05E0937F05E1E0F0E0E0933B
:202740007805F09379050895E1E0F0E0E017F10708950E945F03E0E0E0937805E09379059C
:202760000895E1E0F0E0E0937E05F0937F050895E0937C05F0937D050895E1E0F0E0E093F7
:202780001405F09315050895A0E0CA99A1E0E0E00E9437160E2EA0E0CB99A1E00895E0E0D5
:2027A000E0933605E0933705E0933805E09339050895E0931405F09315050895E1E0F0E067
:2027C000E0932C05F0932D050895A0913605B091370580913805909139050895AD33E0E030
:2027E000BE07E0E08E07E0E09E070895EEDFA531E0E0BE07E0E08E07E0E09E070895A93263
:20280000E0E0BE07E0E08E07E0E09E070895E5E1F0E060E070E0E0933605F0933705609356
:202820003805709339050895A230E0E0BE07E0E08E07E0E09E070895E0E048DFE6E1F5E04C
:202840000895A1E0B0E0A083B1830895A0913A05B0913B0580913C0590913D050895A2E011
:20286000B0E0A083B1830895AF31E0E0BE07E0E08E07E0E09E070895A3E0B0E0A083B183AE
:202880000895E4DFA333E0E0BE07E0E08E07E0E09E070895A4E0B0E0A083B1830895A5E099
:2028A000B0E0A083B1830895A0E0B0E0A083B18301E010E00895E0E0E0933E05E0933F0592
:2028C000E0934005E09341050895A0913E05B0913F0580914005909141050895E1E0F0E006
:2028E000E0938B05F0938C05E6CFE8E1F5E0A9E0B0E0A083B1830895AB30E0E0BE07E0E041
:202900008E07E0E09E070895A333E0E0BE07E0E08E07E0E09E070895A531E0E0BE07E0E053
:202920008E07E0E09E070895E0E0E0938B05E0938C05C1CFE0E00E9437160E2E0895A091F0
:202940008B05B0918C050895E8E1F5E0A8E0B0E0A083B1830895B9DFEAE0F0E060E070E00C
:202960000E9462160E2EEBCFE0E0E0934205E0934305E0934405E0934505EAE1F5E008955C
:20298000A0914205B091430580914405909145050895E0E0E0934205E0934305E0934405E3
:2029A000E09345050895E0E0E0935E05E0935F05E0936005E0936105E0936205E0936305EA
:2029C000E0936405E0936505E0936605E0936705E0936805E09369050895A0910005B091AC
:2029E00001050895D601E0E0F0E00E9442160895E0910205F09103050895A0E0B0E00E94E6
:202A00003C160E2EEFCF0E22D601E1E0F0E00E9442160E220895A0912C05B0912D0514CE54
:202A2000E0910405F09105050895D601E2E0F0E00E9442160E22E3E0F0E00E9442160E22A4
:202A4000E4E0F0E00E9442160E2208954424552466247724882499240895BFDFF5CD0E940D
:202A6000D6075BDE0E94390883DE0E944E02E0938705F0938805A091820534CCA0917A0593
:202A8000B0917B05E1CD0E22A0917C05B0917D05DBCD0E22A0918705B0918805D5CD0E947B
:202AA000C005E0E0F0E0FA93EA930E947D03E0E0E0930005E09301050895E0E0E0932C05E3
:202AC000E0932D050895A1E0B0E00E943C160E220895E2E0F5E0A0E0B0E0A083B183089547
:202AE000E4E0F5E0A0E0B0E0A083B1830895E0E0E0937E05E0937F050895A0917E05B091FA
:202B00007F05C0CCD601EBE0F0E00E944816E0210895E0E0E0939F05E093A0050895E09198
:202B20009B05F0919C05A0912805B0912905EA17FB070895EAE0F0E0CE16DF060895D6018F
:202B4000EAE0F0E00E944816E0210895E0E0E0930005E0930105BDCFE6E0F5E0A0E0B0E055
:202B6000A083B1830895E0912805F0912905319708950E9462160E2EE2CF8FDCA0916605A1
:202B8000B09167058091680590916905F2CFFA93EA93E091AD05F091AE053197FA93EA9387
:202BA0000E94A50401CDE0E0E0932805E09329050895EFEFFFEFE0936E05F0936F05E09342
:202BC0007005F0937105E0937205F093730508952A93ED85FE85FA93EA93E989FA890995B6
:202BE0000895E889F9893497E88BF98B0895ED85FE85FA93EA93E989FA8909950895A88986
:202C0000B98914960E94E316EE83FF83FA93EA930895A889B98914960E94E316EA87FB87E8
:202C20000895E991F991309639F080EA9FE00197F1F7A8953197C9F708950024AF0DB01D8C
:202C40000895F195E195F0400895F09560957095E195FF4F6F4F7F4F08956F2F660F660B1E
:202C6000762F08958B2F880F880B982F0895EA17E1E009F0EE270895EA17FB07E1E009F0A0
:202C8000EE270895EA17FB07E1E009F4EE270895AE17BF07E1E00CF4EE270895AE17BF0786
:202CA000E1E00CF0EE270895EA17FB07E1E00CF0EE270895AE17BF0786079707E1E00CF4BC
:202CC000EE270895EA17FB0768077907E1E00CF0EE270895FA9FF02DEB9FF00DEA9FE02D0E
:202CE000F10D08957A9F702D6B9F700DF89F700DE99F700D6A9F602D710DFB9F600D711D3A
:202D0000E89F600D711D8827FA9FF02D610D781FEB9FF00D611D781FEA9FE02DF10D681F10
:202D2000781F08952FD0D6DF0EF48BDF089538D0D9DF0EF48ADF08950024112490E1AA0F57
:202D4000BB1F001C111C0E1A1F0A18F40E0E1F1E01C0A1609A9599F7FD01D001089512D0CB
:202D6000EBDF0EF46EDF0895E894B7FF04C0A095B09511966894F7FD64DFDEDFFD010EF496
:202D800060DF0895E894F7FF02C05BDF6894B7FF06C0A095B095119600F8039400FA08952A
:202DA000E89477FF02C051DF689497FF0BC00024A095B095809590951196801D901D00F811
:202DC000039400FA0895ED91FC9111970895ED91FD916D917D9108957E936E93FE93EE939C
:202DE00008950590F491E02D089500240A160B060895EA17FB076807790708955A934A9327
:182E00003A932A931A930A9308955D814C813B812A8119810881089577
:00000001FF
