:200000000C94A2010C9400000C9400000C9400000C9400000C9400000C9400000C9400003D
:200020000C9400000C9400000C9400000C9400000C9400000C9400000C9400000C940000C0
:200040000C94F9010C9400000C9400000C9400000C9400000C9400000C9400000C940000A6
:200060000C9400000C9400000C9400000C9400000C9400000C9400000C9400000C94000080
:200080000C9400000C9400000C9400001027E80364000A000100001000011000010020208D
:2000A000202020202020202020202020202020202020202020202020202020202020202040
:2000C00020202020202000496E69636A616C697A756A65206D61737A796E65005779637AAB
:2000E00079737A637A6F6E6F206D61737A796E65004D61737A796E61207A61696E69636A5F
:20010000616C697A6F77616E6100437A656B616D206E612070726574206777696E746F77C5
:20012000616E79005072616361005A616B726563696C656D2077737A7973746B6965207AD2
:200140006164616E652070756368617279004272616B2077796D6167616E65676F206369CF
:20016000736E69656E696120362062617200446F7A6F776E696B206B6C656A7520707265F6
:20018000746F77206E696520676F746F777900446F7A6F776E696B206B6C656A75206E6161
:2001A0006B726574656B206E696520676F746F77790057796C61637A206D61737A796E65F3
:2001C000206920706F637A656B616A2031206D696E757465004F64736C6F6E2069207A7218
:2001E00065736574756A206B757274796E65004D6F6E7465722033206E6965206E6163695E
:20020000736E616C20706564616C6100437A656B616D206E612072756368206C616E63755A
:2002200063686100506F707261772070726574207A2067727A79626B69656D2069206E6138
:200240006369736E696A2067757A696B005573756E2070726574207A6520737A637A656B95
:200260002069206E616369736E696A2067757A696B0057796D69656E206C7562206E616B06
:200280007265632F646F6B7265632067727A7962656B2069206E616369736E696A2067756B
:2002A0007A696B004D6F6E7465722033202D207A64656D6F6E74756A207075636861722018
:2002C0006920706F7477696572647A004D6F6E7465722033202D2077797A776F6C207265C5
:2002E000637A6E696520637A756A6E696B2070756368617261002020202020202020202083
:200300002020202020202020202020202020202020202020202020202020202020202020DD
:20032000202020202020202000302564003A000001002D4E414E00494E4600000100CD050F
:2003400030030000F894EE27ECBBF1E0F5BFE5BFE0936C00F8E1F1BDE1BD8DE0A2E0BB2724
:20036000ED938A95E9F780E090E1A0E0B1E0ED930197E9F7ECE3F3E085919591009761F05E
:20038000A591B59105901590BF01F00105900D920197E1F7FB01F0CF8BBFEFEFEDBFE0E102
:2003A000EEBFC0E0D5E00C946B101A930A93E0919B001E2FE078D9F300919C00E12FEC71BF
:2003C00011F4E02FA5C0F3CFE0919B00E072E1F3E881E0939C00219608950E941C130E9471
:2003E00022130E942813E0E0E093C505E093C60508956A937A93AA93BA93EA93FA93EFB7CF
:20040000EA93A6E3B5E00E942E13AAE3B5E00E942E13AEE3B5E00E942E13A2E4B5E00E9493
:200420002E13AFEBB5E00E943713A091BF05B091C005DC97D1F40E941C13A1ECB5E00E9498
:2004400037130E943D13DC9781F40E942213A3ECB5E00E9437130E944213DC9731F40E9460
:200460002813A5ECB5E00E943713E991EFBFF991E991B991A991799169911895C999949A3E
:20048000A0E09499A1E00E9447130E944C13E02121F0A3EBB5E00E942E130E944C130E2EDC
:2004A000A091B305B091B4058091B5059091B6050E945313E02141F00E945A139498E0E07D
:2004C000E0938705E093880508951A930A9301E010E0F8011DC00E946413C99B02C0949A22
:2004E000FCCF0E9469130431E0E01E075CF4C99B06C0C99B02C0949AFCCF0E9469130F5FD4
:200500001F4FF1CFE4E1F0E0E0938905F0938A050991199108950E9471130E9479130E942E
:2005200085130E948913E0E038C2E0E0E09386050E9471130E948D130E9485130E94961380
:20054000E0938605F0E008950E9471130E947913E0E61DC2CE9902C0979801C0979A089550
:20056000ADE8B5E00E9437130E94AC130E9471130E94B21312C20E9471130E94C0130E9466
:20058000C9130E94CD13E7E10E94D6130E94C913E7ECF0E0BAC00E947113EBE10E94D61392
:2005A0000E94C913E1EFF0E0B0C00E947113ECE10E94D6130E94C913EAE0F1E0A6C00E940E
:2005C00071130E94C0130E94C9130E94CD13E8E00E94D6130E94C913E4E2F1E096C00E94C2
:2005E0007113EBE10E94D6130E94C913EEEAF0E00E94DE130E947113E6E20E94D6130E944C
:20060000C913EAE2F1E081C00E947113E2E20E94D6130E94C913EEE4F1E077C0E881F98170
:20062000309751F40E9471130E94C0130E94C913EEE6F1E00E94DE13A881B981119759F405
:200640000E947113E5E20E94D6130E94C913EFE8F1E00E94DE135EC00E947113E5E20E94BC
:20066000D6130E94C913E2EBF1E04FC00E947113ECE10E94D6130E94C913E5EDF1E045C0C2
:200680000E947113EFE10E94D6130E94C913EFEEF1E03BC00E947113EAE10E94D6130E9494
:2006A000C913ECE0F2E031C00E947113EBE20E94D6130E94C913E4E2F2E027C00E9471132E
:2006C000E7E20E94D6130E94C913EDE4F2E01DC00E947113E4E30E94D6130E94C913E2E709
:2006E000F2E013C00E947113ECE20E94D6130E94C913ECECF2E009C00E947113E5E30E9455
:20070000D6130E94C913E6EFF2E0FA93EA9380E00E94E012229608951A930A931F9AEA810A
:20072000EA9352DEEB810E94E5131F9819810881249608950E943A1940E050E0E0E0E0935D
:20074000860510E0AE81BF811197D9F50E9471130E948D130E94ED130E949613F0E0E093A1
:200760003405F09335050E9471130E94F1130E94FD130E9496130E94011439F4E1E0F0E045
:20078000E0939505F093960505C0E0E0E0939505E09396050E9471130E94F1130E94061406
:2007A0000E9496130E94011439F4E1E0F0E0E0939305F093940505C0E0E0E0939305E0934F
:2007C00094050E9471130E948D130E940A140E949613F0E0E0932E05F0932F050E940E141C
:2007E0001E2EAE81BF810E9415140E941B14E4E0F0E00E948B18E021E12969F10E9471133E
:200800000E948D130E9420140E9496130E94011439F4E1E0F0E0E093B905F093BA0505C0C8
:20082000E0E0E093B905E093BA05E0916A05F0916B0560916C0570916D05A7E0B0E080E078
:2008400090E00E94CE18E0935605F09357056093580570935905E0919B05F0919C05309748
:2008600091F41A93E2E0EA9357DFE1E0F0E0E0939B05F0939C05E0915605F0915705E093ED
:200880009D05F0939E050E942414A0919D05B0919E050E9469180E94351929F0E0E0E093A0
:2008A0009B05E0939C05D6010E9415140E940E14E02151F10E9471130E948D130E942D1490
:2008C0000E9431140E9435140E9435140E9498110E9498114E2F55270E949811F0E00E940F
:2008E0003B140024041605066CF4FA01AFEFB0E00E94C9180E941B14EA0FFB1FE40FF51F69
:200900000E943B140E9440140E94411999C00E9471130E9479130E94ED130E948913E091F6
:2009200034050E9449140E9479130E940A140E948913E0912E050E9449140E9479130E94E0
:2009400020140E9489130E9431140E9471130E9479130E942D140E948913E5E00E94491405
:200960000E944D140E94FD130E9489130E9431140E9471130E944D140E9406140E9489137A
:200980000E9431140E9471130E944D14E0E8EA930E949C110E948913E1E0EA930E949C11E8
:2009A00008950E943C190E9456145CF00E945C140E94E6188F010E945C140E94EB189F01B2
:2009C00002C00E9461140E9471130E947913E0E8EA930E949C110A930E9466141CF00E94EF
:2009E000691406C0AF81AA2312F0EE8101C0E0E0EA930E949C110E946E145CF00E9474145F
:200A00000E94E6188F010E9474140E94EB189F0102C00E9461140E9471130E944D140E9493
:200A2000ED130A930E949C110E946E141CF00E94691401C0EC81EA930E949C110E94431983
:200A4000289608950E9471130E9479140E94FD130E943D131A971CF4E9E2F3E002C0EAE255
:200A6000F3E0FA93EA930E9482140E948F140E9442131A971CF4E9E2F3E002C0EAE2F3E065
:200A8000FA93EA930E9492140E948F14A091C505B091C6051A971CF4E9E2F3E002C0EAE2CB
:200AA000F3E0FA93EA930E949F1408950E9471130E9479140E9489130E943D131A971CF421
:200AC000E9E2F3E002C0EAE2F3E0FA93EA930E9482140E948F140E9442131A971CF4E9E20D
:200AE000F3E002C0EAE2F3E0FA93EA930E9492140E948F14A091C505B091C6051A971CF463
:200B0000E9E2F3E002C0EAE2F3E0FA93EA930E949F1408950E947113EBE0EA930E949C111D
:200B2000E2E8EA930E949C110E94FD130E94C913E091C105F091C2050E94AC14EA0FFB1FFB
:200B4000E093C705F093C8050E94AC14DD976CF0E091C705F091C805FC97E093C705F093F4
:200B6000C805A9ECB5E00E943713E091C305F091C4050E94B114EA0FFB1FE093C905F093D1
:200B8000CA050E94B114DD976CF0E091C905F091CA05FC97E093C905F093CA05ABECB5E06E
:200BA0000E943713E091C505F091C6050E94B614EA0FFB1FE093CB05F093CC050E94B61440
:200BC000DD9774F0E091CB05F091CC05FC97E093CB05F093CC05E0E0E093CB05E093CC0539
:200BE0000E94AC141A971CF4E9E2F3E002C0EAE2F3E0FA93EA93E091C705F091C8050E949C
:200C0000BB140E948F140E94B1141A971CF4E9E2F3E002C0EAE2F3E0FA93EA93E091C90550
:200C2000F091CA050E94BB140E948F140E94B6141A971CF4E9E2F3E002C0EAE2F3E0FA93F5
:200C4000EA93E091CB05F091CC050E94BB1408950E943C190E9471130E9479130E94FD1379
:200C60000E948913EE850E9449140E9479130E9406140E948913EC850E9449140E944D1429
:200C80000E9485130E948913EA850E9449140E944D140E940A140E948913E885EA930E94E1
:200CA00066145CF00E945C140E94E6188F010E945C140E94EB189F0102C00E9461140E945A
:200CC00071130E944D140E9420140A930E9466141CF00E94691406C0AF81AA2312F0EE819F
:200CE00001C0E0E0EA930E949C110E946E145CF00E9474140E94E6188F010E9474140E9411
:200D0000EB189F0102C00E9461140E9471130E944D140E942D140A930E949C110E946E143B
:200D20001CF00E94691406C0AD81AA2312F0EC8101C0E0E0EA930E949C110E944319609617
:200D40000895959A08950E9464131F9AE4E6F0E00E94C4142ADB0E2F1127002E012A21F45C
:200D60000E94C8145BDC21DB1F98099119910895E0E00799E1E0E03011F00C941607E091CA
:200D80009905F0919A05309749F4B6DC0E94CD141D9A0E94D3140E94D61447C0E130A0E018
:200DA000FA0731F41D980E94D3140E94DD143DC0E230A0E0FA0741F41E9A069903C00E94BB
:200DC000E41401C067DC31C0E330A0E0FA07D1F4069B17C091DCA0919705B0919805129794
:200DE00021F4E3E0F0E00E94EE14E0919705F0919805309721F4E2E0F0E00E94EE140E94C8
:200E0000F31413C0E430A0E0FA0779F40E94FA14129729F40E94D3140E94DD1406C0E1E0DD
:200E2000F0E00E94EE140E94FF1413C0E13089F41DDC1D981E980E940515E091B705F0915A
:200E4000B805309711F40E940B150E9414150E943A15E0919705F0919805089528970E9462
:200E60003A1920E030E040E050E00E94AC130E943D150E94431501E010E00E94FF14E8E022
:200E8000F0E0CE16DF061CF00E94FF1402C00E9449150E9450150E9465150E946B150E944F
:200EA00065150E9470150E9465150E9475150E946515E3E0F0E00E9473180E946515E4E08D
:200EC000F0E00E947318E02911F40C94E1080E945015E02911F40C943408F801E130A0E003
:200EE000FA0769F5DA010E9470150E2E0E947A150E220E948015E0E2FEE460E070E00E94E7
:200F00009918E0211E2ED601E8E0F0E00E9485180E2E0E948015E8EBFBE060E070E00E94D2
:200F20009918E021E12951F0E8E0F0E0CE16DF060CF4C59A02E010E00E94431595C0E230C1
:200F4000A0E0FA07D9F50E9485150E2ED601E8E0F0E00E948518E0211E2EA0E0CD99A1E068
:200F60000E9447130E947A15E021E12911F0C59820C00E9480150E9453130E948C150E94D7
:200F8000911559F0EDDA9ADBC598E1EAF6E861E070E0EE83FF83688779870E9480150E94D4
:200FA00053130E948C150E94961539F0A5DB0E944315C298C69803E010E056C0E330A0E064
:200FC000FA0711F00C942308A091A705B091A805119711F5A0913405B0913505E6E4F0E04C
:200FE0000E9485180E2E0E941B14E1E0F0E00E948B180E949B150E947F180E220E94A015BD
:201000000E946B15E02109F0A89AC798909AE0E0E093A705E093A805A0E0CC99A1E00E94E2
:201020004713A091A705B091A8050E946B15E02149F0909A0E94A5150E94AC150E94B215DD
:2010400004E010E011C0E430A0E0FA0769F4029906C0E1E0F0E0E093AB05F093AC05CC994B
:2010600003C0909805E010E0E0E00799E1E0E03011F00C94B608E0919905F0919A0530972A
:2010800019F50E94BB15A0E00399A1E00E94961549F00E94CD1430DB1D9A0E943D150E94D2
:2010A000D61411C0A0E00399A1E00E944713D9010E946B15E02131F0A4E7B5E00E943713B2
:2010C00021E030E052C051C0E130A0E0FA0799F40E94BB15A0E0C199A1E00E94961549F06A
:2010E0000E94C3152CF01D980E94DD140E943D1501C03BC03AC0E230A0E0FA07B1F4079990
:2011000011C00E94C3156CF01E9A069909C041E050E00E9443150E94E4140E943D1501C06E
:20112000B9DA02C0C19821C020C0E330A0E0FA07B1F4069B13C0E0DA1E98AA85BB858C85A3
:201140009D85A136EAEEBE07E0E08E07E0E09E071CF00E94F31402C00E94FF1406C0E43039
:20116000A0E0FA0711F40E94491512C0E13081F4C3DA7CDA1D981E980E94FF140E943D158A
:20118000E091B705F091B805309711F40E940B15EA85FB856C857D85EF5FFF4F6F4F7F4F4C
:2011A000EA87FB876C877D87EE81FF8168857985EF5FFF4F6F4F7F4FEE83FF836887798761
:2011C00068CE0E9441192E960895A1DBC89902C01BDAFCCF91DAB5DD8FDACDD9B4DD8CDA1A
:2011E000CC9B02C0909AFCCF0E94A5159098AB98A998AA9A1A98C7986ED97EDACCD9E091BF
:201200008605E03001F50E94C81494DAA0919305B09194051197A1F40E943A150E94CF15FA
:20122000A99AE8EBFBE00E94C414AA9A1A98E0EDF7E00E94C4140E94CF15A9980DDAFFCFB3
:201240000E94D415DCCFE0E0E093860507DEAD9A0E943A15AD9802DE0E943A15FFDD0E94E9
:201260003A15FCDD0E9405150E94FA140E9415140E94FA140E9475150E2A0E94FA14E3E088
:20128000F0E00E947318E02921F072DD0E94EE14EBCFE0E0E0939705E09398050E943A15BA
:2012A0000E94C81447DAE1E0F0E00895E1E0F0E00E94D915E0917E05F0917F0508951A93FD
:2012C0000A931F9AE4E00E94E5131F98002E012A79F4A091A505B091A605159719F4D0D9B4
:2012E0000E94DE15A5EAB5E00E9437130E94E4150E94F01561F40E94DE15A0917C05B0912A
:201300007D05119711F40E94F5150E94FD15E0918205F0918305B4C11A930A931F9AE6E0FF
:201320000E94E5131F98002E012A79F4A091A505B091A605159719F4D5D90E94DE15A5EA44
:20134000B5E00E9437130E94E4150E94F01561F40E94DE15A0917C05B0917D05119711F4BE
:201360000E94F5150E94FD15E0918205F091830587C11A930A931F9AE1E00E94E5131F98AF
:20138000002E012A81F40E94C81448D90E943A15E0E0E0938005E0938105E1E0F0E0E0933A
:2013A0007A05F0937B050E94F01581F4A0917A05B0917B05119731F49FD9E0E0E0937A0527
:2013C000E0937B05E1E0F0E00E940416E0918005F091810555C10E946413E0911405F09196
:2013E0001505309729F40E9409160E94ED01DAC0E130A0E0FA07D9F4AF9A0E9410160E94F2
:20140000961599F0E0E0E0934605E0934705E0934805E09349050E941B16E2E0F0E00E94D3
:2014200025160E942A16CBD801C0BFD8BBC0E230A0E0FA0769F40E9431160E943A163CF022
:20144000AF980E941B16E3E0F0E00E942516AAC0E330A0E0FA0759F40E9442163CF0AE9A49
:201460000E941B16E4E0F0E00E9425169BC0E430A0E0FA0761F40E94421644F0AE98C49A11
:201480000E941B16E5E0F0E00E9425168BC0E530A0E0FA0769F40E9431160E943A163CF0C2
:2014A000C4980E941B16E6E0F0E00E9425167AC0E630A0E0FA0799F50E9410160E9491151B
:2014C00021F00E9409160E944B16A0E0CA99A1E00E944713A0E0CB99A1E00E94961521F014
:2014E0000E9409160E944B160E9410160E94961531F0E3E0F0E00E9425160E944B16A0E0FF
:20150000CA99A1E00E944713A0E0CB99A1E00E94911521F0E7E0F0E00E94251643C0E7309F
:20152000A0E0FA0759F40E9442163CF0AD9A0E941B16E8E0F0E00E94251634C0E830A0E09C
:20154000FA0761F40E94421644F0AD98C49A0E941B16E9E0F0E00E94251624C0E930A0E09E
:20156000FA0759F40E9431160E9458162CF0C498EAE0F0E00E94251615C0EA30A0E0FA07C5
:2015800089F40E941B16E0E0E0931405E093150501E010E0E1E0F0E0EC15FD0519F4E2E0EE
:2015A000F0E06F016CC00E946413E0911605F0911705309771F4E0E0E0934A05E0934B050C
:2015C000E0934C05E0934D050E9460160E94651656C0E130A0E0FA07B1F40E946A160E943C
:2015E0003A160CF0AC9A0E946A16AD33E0E0BE07E0E08E07E0E09E072CF01C9A0E9460162E
:201600000E9473163CC0E230A0E0FA0759F40E946A160E9478162CF01C980E9460160E94E7
:2016200080162DC0E330A0E0FA0759F40E946A160E9458162CF0AC980E9460160E9485165F
:201640001EC0E430A0E0FA0751F40E946A160E94581624F0E6E1F5E00E948A1610C0E530C9
:20166000A0E0FA0761F40E9460160E948F16E3E0F0E0EC15FD0519F4E4E0F0E06F01F80195
:201680000991199108950E946413E0911805F0911905309791F4E0E0E0934E05E0934F058A
:2016A000E0935005E09351050E949616C398AA98E8E1F5E00E94651608C1E130A0E0FA0798
:2016C00091F40E94A016A230E0E0BE07E0E08E07E0E09E073CF01A9A0E949616E8E1F5E050
:2016E0000E947316F2C0E230A0E0FA07B1F40E94A015119721F40E94A9160E94B0160E9456
:20170000A0160E94B71644F0A99AC79A0E949616E8E1F5E00E948016D8C0E330A0E0FA077C
:20172000A1F40E94A0160E94581674F0A998A9E8B5E0ED91FD913197FE93EE930E949616AD
:20174000E8E1F5E00E948516C0C0E430A0E0FA0739F40E949616E8E1F5E00E948A16B5C0C9
:20176000E530A0E0FA0781F40E94A0160E94BF1654F0C39A1A980E94C716E8E1F5E0A6E099
:20178000B0E0A083B183A1C0E630A0E0FA0781F40E94A0160E943A1654F0919AAB9A0E9455
:2017A0009616E8E1F5E0A7E0B0E0A083B1838DC0E730A0E0FA07D1F5A0E00599A1E00E9485
:2017C000CD160E94D2160E946B15E02111F00E94A9160E94D2160E9470150E2EE0912E0586
:2017E000F0912F050E94A0160E9464180E949118E02131F0C39891980E9496160E94D716F0
:20180000E0913005F09131050E94A0160E9464180E94351954F4C3989198A9EAB5E00E946F
:2018200037130E94C7160E94D7164FC0E830A0E0FA07C9F40E94DE160E947015E02131F00C
:20184000AB98AA9A0E9496160E94B0160E94DE160E946B15E02131F0AB98AA9A0E9496169C
:201860000E94B01632C0E930A0E0FA07A1F40E94A016A630E0E0BE07E0E08E07E0E09E0772
:201880004CF0C7980E949616E8E1F5E0AAE0B0E0A083B1831AC0EA30A0E0FA07B1F4E091C5
:2018A0008F05F0919005E0939105F09392050E949616E8E1F5E00E948F16E5E0F0E0EC1592
:2018C000FD0519F4E6E0F0E06F01F80121C30E946413E0911A05F0911B05309781F4E0E0D0
:2018E000E0935205E0935305E0935405E09355050E94E7160E9465160E94AC1338C1E13093
:20190000A0E0FA0729F40E94E7160E9473162FC1E230A0E0FA0769F40E94F3160E945816C4
:201920003CF0A898C19AC09A0E94E7160E9480161EC1E330A0E0FA0711F00C94DE0CA09180
:201940009105B09192050E9470150E2E0E94A0150E946B150E22A091A105B091A2050E94AC
:201960006B150E22A091AB05B091AC050E947015E021E9F40E94B0020E946803E1E0F0E0ED
:20198000E093A105F093A205CF9917C0A091AB05B091AC050E941514D601E7E0F0E00E9417
:2019A0007F18E02121F0ADEAB5E00E943713EAE1F5E00E9485160E94FC16D9C0E430A0E0A8
:2019C000FA0769F40E947C03E0E0E093A105E093A205C59A0E94E7160E948A16C8C0E530B8
:2019E000A0E0FA0711F00C94380D0E94F316E9E1F0E060E070E00E9499180E2EA0E0CD9936
:201A0000A1E0E1E00E946E180E22A0E0C599A1E00E94911539F0C69A0E94E716A6E0B0E047
:201A2000A083B1830E94F316E2E3F0E060E070E00E9499180E2E0E948515E02139F00E94E8
:201A4000FC160E94B0020E945403C598A0E0C599A1E0E0E00E946E180E948C150E949615F3
:201A600031F00E947C03EAE1F5E00E9485167FC0E630A0E0FA0791F40E94F316AA31E0E0A6
:201A8000BE07E0E08E07E0E09E073CF0C29A0E94E716A7E0B0E0A083B18369C0E730A0E072
:201AA000FA07A1F40E94F3160E94781674F0009B05C0ABEBB5E00E9437133197C0980E9418
:201AC000E716A8E0B0E0A083B18351C0E830A0E0FA0769F40E94F3160E9478163CF0C5982F
:201AE0000E94E716A9E0B0E0A083B18340C0E930A0E0FA0769F40E94F3160E94B7163CF09A
:201B0000C2980E94E716AAE0B0E0A083B1832FC0EA30A0E0FA0769F40E94F3160E94B7165A
:201B20003CF0C1980E94E716ABE0B0E0A083B1831EC0EB30A0E0FA07D1F40E94F3160E9483
:201B4000BF16ACF00E94E7160E948F16A2E3B5E0ED91FD913197FE93EE93E7E0F0E0EC1596
:201B6000FD0529F4E8E0F0E06F010E940617F801CFC10E9420170E9415140E942517E02173
:201B800029F029DCE0930005F09301050E942B170E9430170E9436170E943E17E02129F059
:201BA00002DDE0930205F09303050E9443170E9430170E9436170E9448170E943E17E02174
:201BC00029F061DDE0930405F0930505E0910605F09107050E9430170E9436170E944817C3
:201BE000D601E5E0F0E00E9479180E949B150E9479180E220E943E17E02129F068DEE093C7
:201C00000605F09307050895AA24BB240E9459170E9406170E9422050E94ED0108950E9477
:201C200064130E9460170E2ED6010E947515E02199F00E94D4150E9462170E9471170E94D9
:201C400076170E947C17E02139F00E9482170E949217E3E0F0E06F010E9460170E2E0E9418
:201C60002B170E949A17D601E4E0F0E00E947318E021B9F00E94D4150E9462170E947117BD
:201C80000E9476170E947C17E02159F00E9482170E94A0170E94ED01E5E0F0E06F010E94CB
:201CA000A7170E9460170E2E0E942B170E949A170E944317A1E0B0E00E9473180E949B154E
:201CC0000E947318E021B9F00E94D4150E9462170E9471170E9476170E947C17E02159F0AF
:201CE0000E9482170E94A0170E94AD170E949217E7E0F0E06F010E9460170E2E0E942B175F
:201D00000E949A170E9443170E949A17E0910605F09107050E949A170E947A15E02111F48E
:201D20000C94880F0E94D415C1DA0E94D91521DB0E9404160E946502E0938B05F0938C05DE
:201D4000D5010E9470150E2EA0918605E1E00E946E180E220E9471170E9476170E947C17E7
:201D6000E02111F40C94880F0E94B4170E94BA170E94BF1799F0A3DAE0938205F0938305C3
:201D80000E94BA17D8010E946B15E02131F0A6E7B5E00E94371301E010E0E8CF0E94C6179E
:201DA0004CF00E94D11734F0E1E0EA93E3E0EA930E948C0353D80E94C617B4F00E94D117B2
:201DC00034F0E1E0EA93E5E0EA930E948C030E94B4170E94BA170E94D61731F09DDAE093B4
:201DE0008205F0938305F5CFE0E0F0E0FA93EA930E949A03A091B905B091BA050E9470159E
:201E00000E2EA091BD05B091BE050E946B15E021C9F0E0E0E093B905E093BA05E1E0F0E0FF
:201E2000E093BD05F093BE050E94A402E4E0F0E00E943B140E944014EEEFFFEFE0932805F9
:201E4000F0932905F60131966F01E8EEF3E0EC15FD051CF4E4E6F0E06F010E941B14E3E049
:201E6000F0E00E948B180E2E0E943E17E02141F00E94A7170E94DD170E94AD170E94E317F0
:201E80000E941B14139744F00E942A160E94A0170E94AD170E94E3170E941B14129734F0B8
:201EA0000E942A160E94AD170E94E3170E941B140E94311924F40E942A160E94E317A4DE69
:201EC0000E94EA17A0919F05B091A0050E9473180E2EA091A305B091A4050E946B15E02155
:201EE000B9F00E94EF020E941C130E9422130E942813E0E0E093C505E093C60594980E9418
:201F0000A4020E948B02E0E0E0938605CC24DD24099119910895D601E8E0F0E00E947318C0
:201F20000E2ED5010E946B15E02119F0E1E0F0E05F01D601E9E0F0E00E947F180E2ED501B7
:201F40000E946B15E02111F40C943210042C0528A1F40E942414A0915E05B0915F05809161
:201F60006005909161050E94F01721F0AEE6B5E00E943713E1E0F0E02F01062C0728A1F4EF
:201F80000E942414A0916205B091630580916405909165050E94F01721F0A0E7B5E00E94A9
:201FA0003713E1E0F0E03F01A0E00499A1E00E94CD16D4010E946B150E22D601EBE0F0E04A
:201FC0000E948518E021C9F00E94F41721F0A2E7B5E00E9437130E94D11764F0A8E2B5E043
:201FE0000E943713A1EBB5E00E9437130E94EA170E94FE17E1E0F0E04F01A0E00499A1E00F
:202000000E94CD16D4010E946B150E2A0E94BF17C9F00E94F41721F0A2E7B5E00E94371313
:202020000E94D11764F0A8E2B5E00E943713A1EBB5E00E9437130E94EA170E94FE17E1E08F
:20204000F0E04F01D2010E9470150E2ED3010E9470150E22D4010E947015E02119F0E1E038
:20206000F0E05F0108950C2C0D28A1F5E0918605E03029F40E94D4150E9456052BC00E9452
:20208000C8140E949A030E940A180E9410180E94DD170E94AD170E94E3170E940A180E9499
:2020A0007C039498E0E0E093BD05E093BE05E0912805F0912905FA93EA93E091B105F0914B
:2020C000B205FA93EA930E94D1040E948A05E1E0F0E06F010895E0E0EBBBEABBE8BBEFEF6D
:2020E000E7BBE0E0E5BBEFEFE4BBE0E0E2BBEFEFE1BBE0E0E3B9EFEFE2B9E0E0E093620020
:20210000E0936100E0936500EFE1E0936400E0E0E0BFE7E0E3BFE0E0E2BFE1BFEFBDEEBD4C
:20212000EDBDECBDE7BDE6BDEBBDEABDE9BDE8BDE0937900E0937800E5BDE4BDE3BDE0933E
:202140008B00E0938A00E0938900E0938800E0938100E0938000E0938700E0938600E093B3
:202160008500E0938400E0938300E0938200E0936A00EABFE9BFE1E0E7BFE0E0E0937D00B3
:20218000EBB9E8E1EAB9E6E0E0939500E0E0E0939000E7E6E9B9E0E0E0939B00E8E1E09325
:2021A0009A00E6E0E0939D00E0E0E0939800E7E6E0939900E0E8E8B9E0E0E0BDE6B9EDB900
:2021C000E09374007894E0E4FFE10E94C414E0EDF7E00E94C4140E9471130E94B213EA93C6
:2021E000ABD0CC24DD24E0E0E0935605E0935705E0935805E09359050E945917AA24BB24B6
:20220000E4E6F0E060E070E0E0935A05F0935B0560935C0570935D050E94A717EEE3F0E025
:2022200060E070E0E0936A05F0936B0560936C0570936D050E940515ECEDF0E0E093300553
:20224000F0933105E8E2F0E0E0932E05F0932F05E6E4F0E0E0933405F0933505E0E0E09398
:202260002A05E0932B050E940A180E941018E0E0E0938405E0938505E0939B05E0939C051E
:20228000E0939D05E0939E05E093A105E093A2050E94DE15E0E0E093A305E093A405E093E1
:2022A000A705E093A805E093A905E093AA05E093AD05E093AE050E94AC15E093AF05E093C7
:2022C000B005E0E0E093B105E093B2050E945A130E94CD14E0E0E093BD05E093BE05E09306
:2022E0008605E0937805E0937905E0937A05E0937B05E0937C05E0937D05E0937E05E0933B
:202300007F05E0938005E09381050E94B4170C2C0D2821F40E94E5086F01F9CF0E943E02B0
:20232000A2DE27DCF8DD7BDC0E94AA02F7CFFFCF5F9BFECFECB108955D9BFECFE881ECB938
:2023400021960895EA81EA93F7DFA881B9810E9437132396089526970E943A1910E0AC85F3
:20236000BD85E0E0F0E0ED93FC93EA89FB893196EA8BFB8B3197E4912E2FE03011F40C9474
:20238000D812E12FE03039F4253211F411E002C00E941F180CC1E130A9F4253219F40E949D
:2023A0001F1804C112E040E000E02D3211F401E0FEC02B3211F44BE2FAC0203211F440E26A
:2023C000F6C002C0E23039F450E013E0203311F40068EDC004C0E33011F00C94D712203302
:2023E00010F02A3308F007C0AAE05A9F502DE22FE0535E0FDCC0E22FE33649F40E9428182B
:20240000E889F989A481AA930E942E18CFC0E33741F40E9428180E9436180E9407131E2FC6
:202420000AC0E03761F40E9428180E9436180E9411131E2F086002600F7730E035C0E43612
:2024400011F0E93611F4046002C0E53731F4ECE8F0E0EE83FF8315E00DC0E83511F408600D
:2024600004C0E83711F00C94D612E6E9F0E0EE83FF8314E002FF14C00E9428180E944018B9
:20248000AB85AA233AF4EA85FB850E945818EA87FB874DE2403011F01F5F01C00B7F04C0F0
:2024A0000E9428180E94401800FD11C0151778F407FF08C002FF04C00B7F242F115001C048
:2024C00020E301C020E20E941F185150EFCF312F01FF17C03030A1F003FF06C0EE81FF811F
:2024E0002591EE83FF8305C0AE81BF812D91AE83BF830E941F18503009F051503150EACFA1
:202500004BC020E3EE81FF810E942819E887F987EE81FF813296EE83FF83E885F985AA8528
:20252000BB85AE17BF0750F02F5FA885B985EA85FB85EA1BFB0BEA87FB87EFCF2A3328F077
:2025400003FF02C0295F01C0295D04FD1AC0213320F4A885B985119709F409C0531710F062
:2025600000FF01C013C020E207FF0BC020E3006102FF07C00B7F4A930E942E18503009F001
:2025800051500E941F18503009F051503150A885B985129708F0B5CF00FF08C0503031F02E
:2025A0005150E0E2EA930E942E18F8CF10E0DDCEAC85BD850E941A190E9441196496089516
:2025C000FF92F82E26971A930A93DE0114960E9454188D01E0E0EC83ED83EE83EF83DE01B7
:2025E00018960E9454180E941A19FA93EA931A930A93E2EAF1E1FA93EA93FE013896FA93F4
:20260000EA93A9DE198108812896FF900895A991B991EE27FF276D91662311F03196FBCFD1
:202620000895AA27BB27E991F9910590002011F01196FBCFFD010895E0E0E093BF05E0931A
:20264000C0050895E0E0E093C105E093C2050895E0E0E093C305E093C40508950E941E199B
:20266000EF5FFF4F6F4F7F4F0E9423190895ED91FD913196FE93EE930895A091C105B091FD
:20268000C2050895A091C305B091C4050895E1E00E946E180E2E0895A0E0C999A1E0E0E051
:2026A0000E946E180895E0EAF6E861E070E00E9499180895E0E0E093B305E093B405E093A2
:2026C000B505E093B60508951A930A9300E010E00895E0EDF7E0FA93EA930E9448189498E2
:2026E0000895EAE5EA930E949C11E5EAEA930C949C11E5E0EA930E949C11E2E8EA930E948F
:202700009C11E0E0EA930C949C11E0E3EA930C949C11E0E0EA930C949C11E4E0EA930E9488
:202720009C11E3E8EA930E949C11F3CFE1E0EA930E949C110E9498110E9498110E94981125
:202740000E9498110E9498110E9498110E9498110E9498110C949811E0E0E0938D05E09381
:202760008E050895E3E0EA930E949C11E0E8EA930E949C11E2E0EA930E949C11E0E108951A
:20278000E3E2EA930E949C11E2E8EA930E949C11C0CFE0E9EA930C949C11EEE9F0E0FA93BC
:2027A000EA9380E00E94E01222969BCFEA930E949C11E2E8EA930E949C11ABCFFA93EA93A0
:2027C00080E00E94E01222960895EA930E94E4010E94D5010E2F11270895E0E4EA930C9441
:2027E0009C11E4E0EA930E949C11E3E8EA930E949C11E0E1EA930C949C11E0E1EA930C949C
:202800009C112E2F3327022E032A0895E0E2EA930C949C11E0E5EA930C949C11AE81BF81D0
:20282000E1E0F0E00E9473180895E0E0F0E00E9473180E2E0895A0913205B0913305089529
:20284000E0E6EA930C949C11E0915605F091570560915805709159050895E0E7EA930C9411
:202860009C11E1E0EA930C949C110E9498110E9498110C949811E0933205F093330508953F
:20288000E0913205F0913305E0939F05F093A0050895EA930E949C1124CFE5E0EA930E9458
:2028A0009C11E2E8EA930E949C11A7CFAE81BF81A030E1E0BE070895AE81BF81EFEFF0E0E0
:2028C000089500E010E020E030E008950E949C11EDCFAFEF0A02F001E20F0895AC81BD813F
:2028E000A030E1E0BE070895AC81BD81EFEFF0E00895EBE0EA930E949C11E2E8EA930E94AF
:202900009C1184CFE091C105F091C2050E9464180E942C1984E00E94E01226960895EDE213
:20292000F3E04CCFE091C305F091C4050E9464180E942C1984E00E94E01226960895E0915F
:20294000C505F091C6050E9464180E942C1984E00E94E01226960895A091C705B091C80500
:202960000895A091C905B091CA050895A091CB05B091CC0508950E9464180E942C1984E0F5
:202980000E94E01226960895FA93EA930C944818E1E0F0E0FA93EA930895E0E0E093B70519
:2029A000E093B8050895E0E9F1E0EECFE1E0F0E0E0939905F0939A050895E2E0F0E0E0938D
:2029C0009905F0939A0508950E947C03E3E0F0E0E0939905F0939A051E980895E093970551
:2029E000F09398050895E4E0F0E0E0939905F0939A050895A0919705B09198050895E0E0AE
:202A0000E0939905E0939A050895E0E0E0939705E0939805F4CFE1E0F0E0E093B705F09311
:202A2000B805AFEAB5E023CEE091AD05F091AE05FA93EA93E091A905F091AA05FA93EA9300
:202A4000E091AF05F091B005FA93EA93E091BB05F091BC05FA93EA93E0917405F0917505AF
:202A6000FA93EA93E0917605F0917705FA93EA930C942806E8EEF3E087CFE0E0EA87EB87E9
:202A8000EC87ED870895E0E0EE83EF83E887E9870895E5E0F0E0E0939905F0939A0508952E
:202AA000D801E1E0F0E00E9473180E2EE2E0F0E00E9473180E2AE3E0F0E00E9473180E2A54
:202AC000E4E0F0E00E94731808950E2AA0919905B0919A050895E0E0F0E00E9473180895BA
:202AE000E1E0F0E00E9473180895E2E0F0E00E9473180895D601E8E0F0E00E947F180895DA
:202B0000AE81BF81888599850895A0E0CD99A1E0E0E00E946E1808950E2EA0E0CF99A1E0ED
:202B20000895E1E00E946E18E0210895E0E00E946E18E02108950E22D601E6E0F0E00895B1
:202B4000A0919505B09196050895E1E0F0E0E093A705F093A8050895E0E0E093AB05E0935E
:202B6000AC050895E0933A05E0933B05E0933C05E0933D050895A0E00799A1E0E0E00E9499
:202B80006E180E2E0895AA85BB858C859D85A93EE3E0BE07E0E08E07E0E09E070895AA982C
:202BA0001A9AE8EBFBE0F0CE0E949502E09386050895E0937E05F0937F050895E0E0E09354
:202BC000A505E093A6050895E0E0E0938205E0938305E1E0F0E0E0937C05F0937D050895B4
:202BE000E1E0F0E0E017F10708950E947C03E0E0E0937C05E0937D050895E1E0F0E0E0934D
:202C00008205F09383050895E0938005F09381050895E1E0F0E0E0931405F0931505089590
:202C2000A0E0CA99A1E0E0E00E946E180E2EA0E0CB99A1E00895E0E0E0933605E0933705ED
:202C4000E0933805E09339050895E0931405F09315050895E1E0F0E0E0932C05F0932D05C6
:202C60000895A0913605B091370580913805909139050895A932E0E0BE07E0E08E07E0E00F
:202C80009E070895EEDFA531E0E0BE07E0E08E07E0E09E070895E5E1F0E060E070E0E093DA
:202CA0003605F093370560933805709339050895A333E0E0BE07E0E08E07E0E09E0708955A
:202CC000E0E050DFE6E1F5E00895A1E0B0E0A083B1830895A0913A05B0913B0580913C0584
:202CE00090913D050895A2E0B0E0A083B1830895AF31E0E0BE07E0E08E07E0E09E07089512
:202D0000A3E0B0E0A083B1830895A4E0B0E0A083B1830895A5E0B0E0A083B1830895A0E01B
:202D2000B0E0A083B18301E010E00895E0E0E0933E05E0933F05E0934005E0934105089503
:202D4000A0913E05B0913F0580914005909141050895E1E0F0E0E0938F05F0939005E6CFBB
:202D6000E8E1F5E0A9E0B0E0A083B1830895AB30E0E0BE07E0E08E07E0E09E070895A5311B
:202D8000E0E0BE07E0E08E07E0E09E070895E0E0E0938F05E0939005C9CFE0E00E946E1808
:202DA0000E2E0895A0918F05B09190050895E8E1F5E0A8E0B0E0A083B1830895C1DFEAE0EE
:202DC000F0E060E070E00E9499180E2EEBCFE0E0E0934205E0934305E0934405E09345059C
:202DE000EAE1F5E00895A0914205B091430580914405909145050895E0E0E0934205E09346
:202E00004305E0934405E09345050895E0E0E0935E05E0935F05E0936005E0936105E093C3
:202E20006205E0936305E0936405E0936505E0936605E0936705E0936805E093690508957C
:202E4000A0910005B09101050895D601E0E0F0E00E9479180895E0910205F0910305089583
:202E6000A0E0B0E00E9473180E2EEFCF0E22D601E1E0F0E00E9479180E220895A0912C0521
:202E8000B0912D052DCEE0910405F09105050895D601E2E0F0E00E9479180E22E3E0F0E0C3
:202EA0000E9479180E22E4E0F0E00E9479180E22089544245524662477248824992408950F
:202EC000BFDF0ECE0E94560974DE0E94B9099CDE0E946502E0938B05F0938C05A09186056B
:202EE000D6CBA0917E05B0917F05FACD0E22A0918005B0918105F4CD0E22A0918B05B09151
:202F00008C05EECD0E942E070E942205E0E0F0E0FA93EA930E949A03E0E0E0930005E09341
:202F2000010508950E94ED01E0E0E0932C05E0932D050895A1E0B0E00E9473180E220895AD
:202F4000E2E0F5E0A0E0B0E0A083B1830895E0E0E0932C05E0932D050895E4E0F5E0A0E017
:202F6000B0E0A083B1830895E0E0E0938205E09383050895A0918205B091830556CCD60101
:202F8000EBE0F0E00E947F18E0210895E0919F05F091A005A0912805B0912905EA17FB07B4
:202FA0000895EAE0F0E0CE16DF060895D601EAE0F0E00E947F18E0210895E0E0E0930005F4
:202FC000E0930105BDCFE6E0F5E0A0E0B0E0A083B1830895E0912805F0912905319708959B
:202FE0000E9499180E2EE2CF2FDCA0916605B09167058091680590916905F2CFFA93EA9365
:20300000E091B105F091B2053197FA93EA930E94D1040ACDE0E0E0932805E0932905089593
:20302000EFEFFFEFE0936E05F0936F05E0937005F0937105E0937205F093730508952A93C7
:20304000ED85FE85FA93EA93E989FA8909950895E889F9893497E88BF98B0895ED85FE85FA
:20306000FA93EA93E989FA8909950895A889B98914960E941A19EE83FF83FA93EA9308958A
:20308000A889B98914960E941A19EA87FB870895E991F991309639F080EA9FE00197F1F752
:2030A000A8953197C9F708950024AF0DB01D0895F195E195F0400895F09560957095E195A6
:2030C000FF4F6F4F7F4F08956F2F660F660B762F08958B2F880F880B982F0895EA17E1E0A9
:2030E00009F0EE270895EA17FB07E1E009F0EE270895EA17FB07E1E009F4EE270895AE177E
:20310000BF07E1E00CF4EE270895AE17BF07E1E00CF0EE270895EA17FB07E1E00CF0EE27A7
:203120000895AE17BF0786079707E1E00CF4EE270895EA17FB0768077907E1E00CF0EE2705
:203140000895FA9FF02DEB9FF00DEA9FE02DF10D08957A9F702D6B9F700DF89F700DE99F8B
:20316000700D6A9F602D710DFB9F600D711DE89F600D711D8827FA9FF02D610D781FEB9FB3
:20318000F00D611D781FEA9FE02DF10D681F781F08952FD0D6DF0EF48BDF089538D0D9DF51
:2031A0000EF48ADF08950024112490E1AA0FBB1F001C111C0E1A1F0A18F40E0E1F1E01C0EA
:2031C000A1609A9599F7FD01D001089512D0EBDF0EF46EDF0895E894B7FF04C0A095B095BB
:2031E00011966894F7FD64DFDEDFFD010EF460DF0895E894F7FF02C05BDF6894B7FF06C076
:20320000A095B095119600F8039400FA0895E89477FF02C051DF689497FF0BC00024A095CD
:20322000B095809590951196801D901D00F8039400FA0895ED91FC9111970895ED91FD919C
:203240006D917D9108957E936E93FE93EE9308950590F491E02D08957A936A93FA93EA932C
:20326000089500240A160B060895EA17FB076807790708955A934A933A932A931A930A9392
:1032800008955D814C813B812A81198108810895CF
:00000001FF
