:200000000C9459000C9400000C9400000C9400000C9400000C9400000C9400000C94000087
:200020000C9400000C9400000C9400000C9400000C9400000C9400000C9400000C940000C0
:200040000C948C000C9400000C9400000C9400000C9400000C9400000C9400000C94000014
:200060000C9400000C9400000C9400000C9400000C9400000C9400000C9400000C94000080
:200080000C9400000C9400000C9400001027E80364000A00010000100001100001000100CC
:2000A0002D4E414E00494E460000010054059E000000F894EE27ECBBF1E0F5BFE5BFE0937D
:2000C0006C00F8E1F1BDE1BD8DE0A2E0BB27ED938A95E9F780E090E1A0E0B1E0ED93019745
:2000E000E9F7EAEAF0E085919591009761F0A591B59105901590BF01F00105900D92019725
:20010000E1F7FB01F0CF8BBFEFEFEDBFE0E1EEBFC0E0D5E00C942A046A937A93AA93BA9353
:20012000EA93FA93EFB7EA93A0E0B5E00E94E804A8E0B5E00E94E804A4E0B5E00E94E8049D
:20014000ACE0B5E00E94E804E991EFBFF991E991B991A9917991699118950E94F104C19A9D
:20016000C49ACE9B10C0CB990DC0E8EEF3E0FA93EA930E94F205002E012A21F40E94F60461
:2001800001E010E0EECF0E94FA042DC3A0E5B5E00E94E8043197604070400E94FE04A03706
:2001A000E7E1BE07E0E08E07E0E09E0709F4949A0E94FE04A03EEEE2BE07E0E08E07E0E0A1
:2001C0009E0719F494980E94070508950E94F104A0E0CB99A1E0E0E00E9411050E941605C5
:2001E0000E22D5010E941605E02111F40C947D010E94DE040E2F1127A0E0CE99A1E0E1E0F6
:200200000E9411050E941B0511F00E94FA04A0E0CE99A1E0E0E00E9411050E941B0511F020
:200220000E94FA040E9421050E942605E4E0F0E00E940B06E02111F00E94FA040E942105D8
:200240000E9416050E2ED801E4E0F0E00E940B06E02111F00E94F6040E942D050E94260546
:20026000E6E0F0E00E940B06E02111F00E94FA040E942D050E9416050E2ED801E6E0F0E057
:200280000E940B06E02111F00E94F604E2E0F0E0E017F10759F40E94DE04FF27662777276A
:2002A0000E9432050E943B050E945605E3E0F0E0E017F107A1F40E94DE04F0E0E09344055F
:2002C000F09345050E945A05E0934605E0934705E0E0E0934A05E0934B050E945605E5E0CC
:2002E000F0E0E017F10749F40E94DE04F0E0E0934805F09349050E945605D8010E9426057A
:20030000E2E0F0E00E946005E3E0F0E00E946005E4E0F0E00E946005E5E0F0E00E94600573
:20032000E6E0F0E00E940B060E2AD501E0E0F0E00E941D06E02919F0F50131965F01E8EE0C
:20034000F3E0EA15FB0511F4AA24BB244CC2A0E09C99A1E0E0E00E946505E3E0F0E00E94D4
:200360000B06E02131F0E1E0F0E0E0934C05F0934D0508950E946D050E2ED401E7E0F0E0C7
:200380000E941706E02119F0F30131963F01ECEBF2E0E615F70534F4C098F40131964F016D
:2003A0006624772408950E94F104E0911005F0911105309729F4E1E0F0E00E9474054CC12A
:2003C000EF36A0E0FA0709F50E947905E9F4C09A66247724D401E0E0F0E00E941D060E2E97
:2003E000A0914C05B0914D050E947F050E2A0E946D05E02909F0C39A0E9484050E948B05BA
:20040000E3E0F0E00E94740527C1E130A0E0FA0779F40E94790559F4662477240E9484058A
:20042000949A0E948B05E2E0F0E00E94740514C1E230A0E0FA0789F40E949D05A031E0E0F5
:20044000BE07E0E08E07E0E09E0734F00E94A605E3E0F0E00E947405FFC0E330A0E0FA07AB
:2004600069F50E94B005A432E0E0BE07E0E08E07E0E09E0714F19598D401E0E0F0E00E9479
:2004800011060E2EA0E0C899A1E0E1E00E9406060E22A0914C05B0914D050E941605E02135
:2004A00019F0C09A66247724F40131974F010E94A605E4E0F0E00E947405CEC0E430A0E089
:2004C000FA0789F40E94B005AA31E0E0BE07E0E08E07E0E09E0734F00E94A605E5E0F0E027
:2004E0000E947405B9C0E530A0E0FA07B1F4CC990CC09498EAE0F0E00E947405E2E3F0E086
:2005000060E070E00E94B30507C0959AE6E0F0E00E9474050E94A6059FC0E630A0E0FA0707
:2005200091F40E94B005A739E0E0BE07E0E08E07E0E09E073CF095980E94A605E7E0F0E083
:200540000E94740589C0E730A0E0FA0779F40E94B005A135E0E0BE07E0E08E07E0E09E07C6
:2005600024F0E5E0F0E00E94740576C0E830A0E0FA0761F40E949D050E94BC0534F00E9426
:20058000A605E9E0F0E00E94740566C0E930A0E0FA0761F40E94C40544F0C798929A0E941B
:2005A000A605EAE0F0E00E94740556C0EA30A0E0FA0759F40E94C4053CF0969A0E94A605C9
:2005C000EBE0F0E00E94740547C0EB30A0E0FA0741F50E94C40524F10E9421050E947F051E
:2005E0000E2EA0914805B09149050E947F050E220E942D050E941B0569F0E0E0E0934405F1
:20060000E093450596980E94A605ECE0F0E00E94740506C0E3E3F0E060E070E00E94B305A5
:200620001BC0EC30A0E0FA0751F40E949D050E94CD0524F0EDE0F0E00E9474050DC0ED308F
:20064000A0E0FA0749F40E94A605E0E0E0931005E093110501E010E0C5C00E94F104E09160
:200660001205F0911305309751F40E94790531F4E2E1F5E0A1E0B0E0A083B183B3C0E130F5
:20068000A0E0FA0759F4CA9908C00E94D505E2E1F5E0A2E0B0E0A083B183A4C0E230A0E0EE
:2006A000FA0789F4CA9B0EC00E94D505A0914805B0914905119731F4E2E1F5E0A3E0B0E088
:2006C000A083B1838FC0E330A0E0FA0749F40E94DF05E2E1F5E0A4E0B0E0A083B18382C0D8
:2006E000E430A0E0FA07A9F40E94E9050E9465067CF4979AE1E0F0E0E0934A05F0934B0564
:200700000E94DF05E2E1F5E0A5E0B0E0A083B18369C0E530A0E0FA0771F50E94E905A536BF
:20072000E0E0BE07E0E08E07E0E09E071CF1A0E0CF99A1E0E1E00E946505EBE0F0E00E94FA
:200740000B06E02159F0939A97980E94D505E2E1F5E0A6E0B0E0A083B1830CC0E5E6F0E0FA
:2007600060E070E0E0930405F0930505609306057093070537C0E630A0E0FA0771F40E943E
:20078000E9050E94CD0544F00E94D505E2E1F5E0A7E0B0E0A083B18325C0E730A0E0FA07C4
:2007A00099F40E94E9050E94BC056CF09398E1E0F0E0E0934605F0934705E2E1F5E0A8E0F4
:2007C000B0E0A083B1830EC0E830A0E0FA0751F40E94D505E2E1F5E0A0E0B0E0A083B1830B
:2007E00001E010E0F801099119910895E0912405F0912505309729F4D6DDE0932405F09353
:200800002505E0912605F0912705309729F425DFE0932605F09327050895A0912405B091F8
:2008200025050E947F050E2EE0912605F0912705A1E0B0E00E940B06E02159F0E0E0E093A2
:200840002405E0932505E6E2F5E0A0E0B0E0A083B1830895E0E0EBBBEABBE8BBEFEFE7BB03
:20086000E0E0E5BBE4BBE2BBEFEFE1BBE0E0E3B9EFEFE2B9E0E0E0936200EFEFE093610046
:20088000E0E0E0936500EFE1E0936400E0E0E0BFE7E0E3BFE0E0E2BFE1BFEFBDEEBDEDBD4F
:2008A000ECBDE7BDE6BDEBBDEABDE9BDE8BDE0937900E0937800E5BDE4BDE3BDE0938B00F6
:2008C000E0938A00E0938900E0938800E0938100E0938000E0938700E0938600E093850052
:2008E000E0938400E0938300E0938200E0936A00EABFE9BFE1E0E7BFE0E0E0937D00EBB92D
:20090000E8E1EAB9E6E0E0939500E0E0E0939000E7E6E9B9E0E0E0939A00E0E8E8B9E0E075
:20092000E0BDE6B9EDB9E09374007894E7E0F0E060E070E00E943205EEE3F0E060E070E0B1
:20094000E0934005F093410560934205709343050E943B0544245524929AE1E0F0E04F01C1
:2009600066247724FADBAA24BB24E0E0E0934405E0934505E0934605E09347050E945A0519
:20098000E0934A05E0934B05CC24DD24E0E0E0934C05E0934D05E0934E05E0934F050E9469
:2009A0000705E8EBFBE0FA93EA930E94F2051EDF34DFE0DCCCDC0ADCFACFFFCF5F9BFECF22
:2009C000ECB108955D9BFECFE881ECB9219608950E945B06EF5FFF4F6F4F7F4F0E94600683
:2009E00008951A930A9300E010E00895E0E0EA930C94E204E1E0EA930C94E204A091500596
:200A0000B091510580915205909153050895E0E0E0935005E0935105E0935205E0935305DB
:200A200008950E9406060E2ED8010895E0E0F0E00E940B060895E1E0F0E00E940B06E02194
:200A40000895A0914605B09147050895E1E0F0E00E940B060E2ED8010895A0914A05B0919C
:200A60004B050895E0933C05F0933D0560933E0570933F050895E0914005F0914105609188
:200A8000420570914305A0913C05B0913D0580913E0590913F050E944306E0933805F093FA
:200AA000390560933A0570933B050895E3E0EA930C94E204E0E0E0934805E0934905089542
:200AC0000E940B060E2AD80108950E9406060E2EA0911005B09111050895A0E0C899A1E02F
:200AE000E0E00E9406060895E0931005F09311050895A0914405B091450511970895E1E022
:200B0000F0E00E940B060895E0E0E0934C05E0934D05959A0895E0E0E0930805E0930905DF
:200B2000E0930A05E0930B05E0930005E0930105E0930205E09303050895A0910005B091B6
:200B4000010580910205909103050895E0E0E0930005E0930105E0930205E093030508956E
:200B60000E94C600EACFE0930005F093010560930205709303050895A531E0E0BE07E0E096
:200B80008E07E0E09E070895D8DFA333E0E0BE07E0E08E07E0E09E070895A230E0E0BE07FE
:200BA000E0E08E07E0E09E070895E0E0E0930405E0930505E0930605E09307050895E0E0CB
:200BC000E0930C05E0930D05E0930E05E0930F05ECCFA0910405B091050580910605909182
:200BE00007050895E991F991309639F080EA9FE00197F1F7A8953197C9F70895F095609514
:200C00007095E195FF4F6F4F7F4F0895EA17E1E009F0EE270895EA17FB07E1E009F0EE27A3
:200C20000895EA17FB07E1E00CF4EE270895AE17BF07E1E00CF0EE270895EA17FB07E1E0E3
:200C40000CF0EE2708957A9F702D6B9F700DF89F700DE99F700D6A9F602D710DFB9F600D75
:200C6000711DE89F600D711D8827FA9FF02D610D781FEB9FF00D611D781FEA9FE02DF10DCA
:200C8000681F781F089504D0DEDF0EF4B7DF0895E89477FF02C0B2DF689497FF0BC000240D
:200CA000A095B095809590951196801D901D00F8039400FA0895ED91FD916D917D910895B4
:160CC0007E936E93FE93EE93089500240A160B060806090608954E
:00000001FF
