:200000000C9459000C9400000C9400000C9400000C9400000C9400000C9400000C94000087
:200020000C9400000C9400000C94A1000C9400000C9400000C9400000C9400000C9400001F
:200040000C948C000C9400000C9400000C9400000C9400000C9400000C9400000C94000014
:200060000C9400000C9400000C9400000C9400000C9400000C9400000C9400000C94000080
:200080000C9400000C9400000C9400001027E80364000A00010000100001100001000100CC
:2000A0002D4E414E00494E46000001008C059E000000F894EE27ECBBF1E0F5BFE5BFE09345
:2000C0006C00F8E1F1BDE1BD8DE0A2E0BB27ED938A95E9F780E090E1A0E0B1E0ED93019745
:2000E000E9F7EAEAF0E085919591009761F0A591B59105901590BF01F00105900D92019725
:20010000E1F7FB01F0CF8BBFEFEFEDBFE0E1EEBFC0E0D5E00C9407080E944309A0E0B5E003
:200120000E944C09A4E0B5E00E944C09A8E0B5E00E944C09ACE0B5E00E944C09A0E1B5E076
:2001400008C00E944309A4E1B5E00E944C09A8E1B5E00E94330CEF5FFF4F6F4F7F4F0E940F
:20016000380CE991EFBFF991E991B991A9917991699118951D98EA81FB81A0911405B091B3
:20018000150580911605909117050E94E30B0E94430C7CF01D9AE0E0E0931405E09315055F
:2001A000E0931605E0931705E881F9813196E883F983E881F98124960895ACE5B5E00E948F
:2001C0004C090E945509A037E7E1BE07E0E08E07E0E09E0709F4949A0E945509A03EEEE2D3
:2001E000BE07E0E08E07E0E09E0719F494980E945E0908950E946809139789F4059903C006
:200200000E946D0902C00E9474090E947A0911F00E9492090E949A0909F0C69810C0059978
:2002200003C00E946D0902C00E9474090E947A0911F00E9492090E949A0909F0C698089566
:20024000049903C0959A969801C095980895C89902C0C09801C0C09A0895E0916C05F091C0
:200260006D05309789F41F9AE0E0E0930805E0930905E0930A05E0930B05E1E0F0E00E9416
:20028000B2090E94B709A7C1E130A0E0FA0711F00C94A9010E94C10939F4E0917205F091FA
:2002A00073050E94CC0917C00E94D609A13CE3E0BE07E0E08E07E0E09E074CF0A2E7B5E07E
:2002C000ED91FD913197FE93EE930E94B709E0916E05F0916F05E0937005F0937105E091AB
:2002E0007805F09179050E94DF09EA17FB0769F40E94E4091C9B03C0E2E0F0E002C0E3E078
:20030000F0E0E0936C05F0936D050E94EA09AB3AE0E0BE07E0E08E07E0E09E07CCF00E941D
:20032000E4090E94F3090E94F909E0917805F09179050E94000A0E94B7091C9B03C0E2E057
:20034000F0E002C0E3E0F0E0E0936C05F0936D0542C1E230A0E0FA07E9F5089B03C00E9423
:20036000050A2EC00E94140AD29711F40E94190A0E94140AD79711F40E94200A0E94140ACE
:20038000DC9711F40E94270A0E94140AA134E0E0BE0711F40E942E0A0E94140AA634E0E0BF
:2003A000BE0711F40E94350A0E94140AAB34E0E0BE0711F40E943C0AE4E0F0E00E94B20990
:2003C0000E94430A31F0E2E0F0E00E94B2090E94F90901C1E330A0E0FA07E9F5099B03C0DF
:2003E0000E94050A2EC00E94140AD29711F40E94190A0E94140AD79711F40E94200A0E94CA
:20040000140ADC9711F40E94270A0E94140AA134E0E0BE0711F40E942E0A0E94140AA634E0
:20042000E0E0BE0711F40E94350A0E94140AAB34E0E0BE0711F40E943C0AE4E0F0E00E940A
:20044000B2090E94430A31F0E3E0F0E00E94B2090E94F909C0C0E430A0E0FA0779F40E9419
:20046000550A2CF40E945B0A0E94630A06C00E94E409E5E0F0E00E94B209ADC0E530A0E09E
:20048000FA0779F40E94550A2CF40E945B0A0E94630A06C00E94E409E6E0F0E00E94B2096F
:2004A0009AC0E630A0E0FA0779F40E94550A2CF40E945B0A0E94630A06C00E94E409E7E08B
:2004C000F0E00E94B20987C0E730A0E0FA0779F40E94550A2CF40E945B0A0E94630A06C0A6
:2004E0000E94E409E8E0F0E00E94B20974C0E830A0E0FA0711F5E0917405F0917505A0918F
:200500006E05B0916F05AE17BF072CF40E945B0A0E94630A11C0EAE0F0E00E94B2090E9488
:20052000B709E0917205F091730536960E94000A0E94E4090E94F3094EC0E930A0E0FA07CD
:2005400049F50E94C10919F40E945B0A14C00E94D609A13DE2E0BE07E0E08E07E0E09E0769
:2005600034F0A2E7B5E00E94680A0E94B709E0916E05F0916F05E0937005F09371050E9467
:20058000DF09989731F40E94E409EAE0F0E00E94B20921C0EA30A0E0FA07E9F41F98A99848
:2005A0000E94E4090E94F309ECE3F0E00E94000AE0E0E0937A05E0937B051C9B02C01C98F1
:2005C00001C01C9AEBE0F0E00E94B209E0E0E0938A05E0938B0508950E946E0AE0911C059E
:2005E000F0911D05309791F4E0918205F0918305309719F4E1E0F0E002C0EFE6F0E0E093CC
:200600001C05F0931D050E94730A7EC1EF36A0E0FA0739F4CF9B04C00E947D0A0E94860A5A
:2006200073C1E130A0E0FA07A9F4A0915005B09151050E948D0A0E94920AE8E2F0E060E0E9
:2006400070E00E94F30BE02121F00E947D0A0E94860A5AC1E230A0E0FA0789F40E949C0ACA
:20066000A031E0E0BE07E0E08E07E0E09E0734F00E94730AE3E0F0E00E94A50A45C1E3302A
:20068000A0E0FA07A9F40E94AA0AE5E0F0E060E070E00E94AD0A09F0C3980E94B80A3CF084
:2006A00095980E94730AE4E0F0E00E94A50A2CC1E430A0E0FA07C9F4CC9902C00E94C10A36
:2006C0000E94AA0AAA31E0E0BE07E0E08E07E0E09E0754F00E94730AE5E0F0E00E94A50A61
:2006E000CC9902C00E94C10A0FC1E530A0E0FA07B9F5A0E0CC99A1E00E94C80AA0916005E2
:20070000B09161050E948D0AE02961F094980E94CD0A0E94D30AE2E3F0E060E070E00E94B4
:20072000D60A1DC00E94CD0AA4E6B5E00E94680AA0916405B091650514974CF00E94D30AA5
:20074000E0E0E0936405E0936505949806C0959AC39AE6E0F0E00E94A50A0E94730AD4C008
:20076000E630A0E0FA07E1F40E94AA0AE2E8F0E060E070E00E94AD0A09F0C3980E949C0A98
:20078000A739E0E0BE07E0E08E07E0E09E073CF095980E94730AE7E0F0E00E94A50AB4C066
:2007A000E730A0E0FA07A1F408DDCC9902C00E94C10A0E949C0AA135E0E0BE07E0E08E079B
:2007C000E0E09E0724F0E5E0F0E00E94A50A9CC0E830A0E0FA0751F40E94B80A34F00E9456
:2007E000730AE9E0F0E00E94A50A8EC0E930A0E0FA0751F40E94DF0A34F0C798929A0E9489
:20080000730A0E94D30A80C0EA30A0E0FA07C1F40E94DF0AA4F0969A0E94730AE0918205E6
:20082000F0918305309719F4EBE0F0E002C0E7E5F4E0E0931C05F0931D050E94730A64C062
:20084000EB30A0E0FA07C9F40E94DF0AACF0F8DCA0915205B0915305119741F496980E9476
:20086000730AECE0F0E00E94A50A06C0E3E3F0E060E070E00E94D60A47C0E735A4E0FA07F8
:2008800031F50E94DF0A34F0CF9B04C0959896980E94730AD5DCA0E09699A1E0E0E00E9498
:2008A000E80B0E94920AE2E3F0E060E070E00E94F30B0E22A0E09599A1E0E0E00E94E80B8E
:2008C000E02121F0ECE0F0E00E94A50A1DC0EC30A0E0FA0751F40E949C0A0E94E80A24F06A
:2008E000EDE0F0E00E94A50A0FC0ED30A0E0FA0759F40E94730AE0E0E0931C05E0931D0548
:2009000001E010E00E94F00AC3C10E946E0AE0911E05F0911F05309759F4A0915005B091B8
:200920005105119721F4EEE1F5E00E94FA0AADC0E130A0E0FA07A1F4A0E0CA99A1E00E94C0
:20094000C80AA0916605B09167050E94FF0AE02131F00E94040BA2E0B0E0A083B18395C040
:20096000E230A0E0FA0781F4A0E0CA99A1E00E94100B0E94150BE02131F00E94040BA3E036
:20098000B0E0A083B18381C0E330A0E0FA0739F40E94040BA4E0B0E0A083B18376C0E43008
:2009A000A0E0FA0769F40E941A0B0E943D0C3CF4979A0E94040BA5E0B0E0A083B18365C004
:2009C000E530A0E0FA0789F50E941A0BA536E0E0BE07E0E08E07E0E09E0734F1A0E0CF9915
:2009E000A1E00E94100BA0911C05B0911D05EBE0F0E00E94ED0BE02159F0939A97980E9487
:200A0000230B0E94040BA6E0B0E0A083B1830CC0E5E6F0E060E070E0E0930405F09305058A
:200A2000609306057093070530C0E630A0E0FA0761F40E941A0B0E94E80A34F00E94040B9D
:200A4000A7E0B0E0A083B18320C0E730A0E0FA0791F40E941A0BAF31E0E0BE07E0E08E07AA
:200A6000E0E09E073CF09398EEE1F5E0A8E0B0E0A083B1830AC0E830A0E0FA0731F40E947D
:200A8000040B0E942A0B01E010E002C10E946E0AE0912205F09123053097B9F4A0E00A99EA
:200AA000A1E00E94100B0E94150BE02169F0AD9AAE980E942F0B11F4AA9802C0AB9AAF98DE
:200AC0000E94350B0E94FA0A8EC0E130A0E0FA07A9F40E94410BA531E0E0BE07E0E08E0773
:200AE000E0E09E0754F00E944A0BAD98AE9A0E94350BA2E0B0E0A083B18375C0E230A0E0B7
:200B0000FA0781F40A990DC00E942F0B11F4AA9A02C0AB98AF9A0E94350BA3E0B0E0A08364
:200B2000B18361C0E330A0E0FA0789F40E94410BA330E0E0BE07E0E08E07E0E09E0734F02B
:200B40000E94350BA4E0B0E0A083B1834CC0E430A0E0FA0749F40A9B06C00E94350BA5E098
:200B6000B0E0A083B1833FC0E530A0E0FA0731F5E0918605F09187053097F9F40E942F0B3A
:200B800039F4E1E0F0E0E0938805F093890505C0E0E0E0938805E0938905E1E0F0E0E093FC
:200BA0008A05F0938B05E0938605F0938705E2E2F5E0A6E0B0E0A083B18315C0E630A0E015
:200BC000FA0789F40A990FC0E6E3F5E00E942A0B0E94350B0E942A0BE0E0E0936C05E093E0
:200BE0006D0500E010E054C00E946E0AE0912405F0912505309759F5A0E0CF99A1E00E9420
:200C0000100BA0918605B09187050E948D0AE021E9F0A89902C0A89A01C0A898A99AA09163
:200C20008805B0918905119711F4AA9802C0AB9AAF98E0E0E0931005E0931105E0931205C0
:200C4000E0931305E4E2F5E00E94FA0A21C0E130A0E0FA07E9F4A0911005B09111058091CA
:200C6000120590911305AD33E0E0BE07E0E08E07E0E09E076CF0E0E0E0938605E0938705EC
:200C80000E94230BE4E2F5E00E942A0B01E010E0F801099119910895E0913005F09131050A
:200CA000309711F40E94510BE0913205F09133050E94580BE3E0F0E00E94ED0BE02129F0BD
:200CC00024DEE0933205F0933305E0913605F09137050E94580B0E94FF0A0E22A0918A05A4
:200CE000B0918B050E945E0BE02111F00E94630BE0913805F09139050E94580B0E94FF0AE9
:200D0000E02129F071DFE0933805F093390508950E946A0B0E2EE0913205F09133050E9405
:200D20006F0B0E220E946809E3E0F0E00E94ED0BE02131F00E94790B0E944A0B0E94810B5C
:200D40000E946A0B0E2EA0918205B09183050E948D0AE02131F00E94790B0E944A0B0E94A5
:200D6000810B0E946A0B0E2EE0913805F09139050E946F0B0E220E9468090E94FF0AE0211C
:200D800059F0E0E0E0933005E0933105E8E3F5E00E942A0B0E94810B08951F9A1C98099BA6
:200DA00003C00E94880BFBCF0E94930B0E94A90BA83EE3E0BE072CF40E94880B0E94AE0BBD
:200DC000F5CF0E94B10B0E94B10B1C98E0E0E0936A05E0936B05099B03C00E94880BFBCFF4
:200DE0000E94A90B1A972CF40E94880B0E94AE0BF7CF099903C00E94880BFBCFE0E0E093DF
:200E00006A05E0936B050E94A90B1A972CF40E94880B0E94AE0BF7CF099B03C00E94880B67
:200E2000FBCF0E94930BE8EBFBE00E94BC0B1F980895079931C0A0E00699A1E00E94C80A98
:200E4000A0917C05B0917D050E945E0BE02189F0C69AE1E0F0E0E0938405F0938505AEE709
:200E6000B5E00E94680AE1E0F0E0E0937C05F0937D05A0E00699A1E00E94100BA0917C0530
:200E8000B0917D050E948D0AE02131F0C698E0E0E0937C05E0937D05A0E00799A1E00E94EA
:200EA000100BA0918405B09185050E948D0AE02111F40C940608E0917E05F0917F053097E5
:200EC00031F4E0E0E0938005E09381059AC0E330A0E0FA0781F4E3E0F0E00E94C00BE0E019
:200EE000E0937E05E0937F05E0938405E09385050E94810B8BC0EB30A0E0FA0739F40E9428
:200F0000C50BE2E3F0E00E94C80B72C0EC30A0E0FA0739F40E94C50BE7E3F0E00E94C80B7A
:200F200067C0ED30A0E0FA0739F40E94C50BECE3F0E00E94C80B5CC0EE30A0E0FA0739F451
:200F40000E94C50BE1E4F0E00E94C80B51C0EF30A0E0FA0739F40E94C50BE6E4F0E00E9489
:200F6000C80B46C0E031A0E0FA0739F40E94C50BEBE4F0E00E94C80B3BC0E131A0E0FA07C5
:200F800029F40E94C50BE2E3F0E02CC0E231A0E0FA0729F40E94C50BE7E3F0E023C0E3318D
:200FA000A0E0FA0729F40E94C50BECE3F0E01AC0E431A0E0FA0729F40E94C50BE1E4F0E0EE
:200FC00011C0E531A0E0FA0729F40E94C50BE6E4F0E008C0E631A0E0FA07C1F40E94C50BF9
:200FE000EBE4F0E0E0937605F0937705EEE0F0E0E0937805F0937905E0E0E0937E05E093AD
:201000007F05E0E0E0938405E09385050895E0E0EBBBEABBE8BBEFEFE7BBE0E0E5BBEFEF8A
:20102000E4BBE0E0E2BBEFEFE1BBE0E0E3B9E0EFE2B9E0E0E0936200E0936100E093650033
:20104000EFE1E0936400E0E0E0BFE7E0E3BFE0E0E2BFE1BFEFBDEEBDEDBDECBDE7BDE6BD2F
:20106000EBBDEABDE9BDE8BDE0937900E0937800E1E0E5BDE0E0E4BDE3BDE0938B00E0932A
:201080008A00E0938900E0938800E0938100E0938000E0938700E0938600E0938500E0938A
:2010A0008400E0938300E0938200E0936A00EABFE9BFE1E4E7BFE0E0E0937D00EAB9E09362
:2010C0009A00E0E8E8B9E0E0E0BDE6B9EDB9E0937400AD98AE9AAB9AAF98E7E0F0E060E094
:2010E00070E0E0934805F093490560934A0570934B05EEE3F0E060E070E0E0934C05F09302
:201100004D0560934E0570934F05A0914805B091490580914A0590914B050E941B0CE093C6
:201120004405F0934505609346057093470544245524929AE1E0F0E04F0166247724AA242B
:20114000BB240E94F00AE0E0E0935405E0935505E0935605E0935705CC24DD24E09358055D
:20116000E0935905E0935A05E0935B050E945E090E94CD0AE0E0E0936205E0936305E0938F
:201180006605E0936705E0937405E0937505E0937605E0937705E0938205E0938305E093E7
:2011A0008605E09387050E94810BE0E0E0935205E0935305E0935605E09357050E94740966
:2011C000E2E0F0E0E0936605F0936705E0E0E0938805E0938905E0936C05E0936D050E9484
:2011E000E4090E94F309ECE3F0E00E94000AECE0F0E0E0937805F0937905E0E0E0938005D4
:20120000E0938105E0938A05E0938B05A89AA99AE8EEF3E00E94BC0BE8EEF3E00E94BC0B27
:20122000E0918005F0918105309711F402DEF8CFB4DD789431DD6CDD0E9427010E94FA00E4
:20124000F8DDA0918A05B0918B050E948D0A0E2E0E9468090E94FF0AE02199F00E942D019B
:20126000E0913005F0913105309711F40E94510BE0913605F0913705309711F40E94630B02
:20128000E0CFD8CFFFCF6A937A93AA93BA93EA93FA93EFB7EA9308950E94330CEF5FFF4F4F
:2012A0006F4F7F4F0E94380C0895A0915C05B0915D0580915E0590915F050895E0E0E09321
:2012C0005C05E0935D05E0935E05E0935F050895A0918005B09181050895E1E0F0E0E09370
:2012E0006805F09369050895E0E0E0936805E09369050895A0E0CB99A1E0E0E00E94E80B1B
:201300000E2EA0916605B0916705E1E0F0E00E94ED0B0E22A0E00799A1E0E1E00E94E80BF6
:20132000E0210895C69AE2E0F0E0E0936605F09367050895A0E0CB99A1E0E1E00E94E80BF8
:201340000E2EA0916605B0916705E2E0F0E00E94ED0B0E22A0E00799A1E0E1E00E94E80BB5
:20136000E0210895E0936C05F0936D050895E0E0E0931805E0931905E0931A05E0931B0553
:201380000895E0917005F0917105A0916E05B0916F05EA17FB070895FA93EA93E0916E05EC
:2013A000F0916F05FA93EA930C94BA00A0911805B091190580911A0590911B050895A091E8
:2013C0007205B09173050895E0E0E0936E05E0936F050895A0910805B091090580910A0569
:2013E00090910B050895E0E0E0937005E09371050895E9E1F0E0E0937A05F0937B050895C5
:20140000E0937205F09373050895E0917A05F0917B05D5DFEA0FFB1FFA93EA93E0E0F0E0F8
:20142000FA93EA930C94BA00A0917605B09177050895EEE3F3E0E0937405F0937505089518
:20144000E0E2F3E0E0937405F09375050895E2E0F3E0E0937405F09375050895E4EEF2E0B2
:20146000E0937405F09375050895E6ECF2E0E0937405F09375050895E8EAF2E0E09374052C
:20148000F09375050895A6DFEAEAF0E060E070E00E94F30B0E2EA0917A05B0917B05E0E0EC
:2014A000F0E00E94ED0BE0210895A0916E05B0916F0512970895E0917A05F0917B057FDF36
:2014C000EA0FFB1F69CFE0936E05F0936F050895ED91FD913196FE93EE9308951A930A937B
:2014E00000E010E00895E0E0E0930005E0930105E0930205E09303050895E0E0E0936405A0
:20150000E0936505959AC39A949AEDCFE2E0F0E0E0931C05F0931D050895E1E0F0E00E94DD
:20152000ED0B08950E2EA0910005B091010580910205909103050895A0910005B091010502
:2015400080910205909103050895E0931C05F0931D0508950E94DD00EFCF0E94F30B0E2EBE
:20156000A0E0C399A1E0E1E00E94E80BE0210895E3DFA531E0E0BE07E0E08E07E0E09E0743
:201580000895E1E0F0E0E0936005F09361050895E0E00E94E80B0E2E0895E0E0E0936005F9
:2015A000E09361050895EAE0F0E0CFCFE0930005F093010560930205709303050895BCDF3F
:2015C000A333E0E0BE07E0E08E07E0E09E070895A230E0E0BE07E0E08E07E0E09E070895AB
:2015E000E0E0E0935005E0935105E0935205E09353050895A1E0B0E0A083B1830895E2E0A1
:20160000F0E00E94ED0B0895E0E0E0930405E0930505E0930605E0930705EEE1F5E00895CC
:20162000E1E00E94E80B0E2E0895A0916805B091690573CFA0910405B0910505809106054B
:20164000909107050895E1E0F0E0E0935205F09353050895A0E0B0E0A083B1830895E09178
:201660008805F091890530970895E0E0E0930C05E0930D05E0930E05E0930F05E2E2F5E0FB
:201680000895A0910C05B0910D0580910E0590910F050895E1E0F0E0E0936605F0936705C4
:2016A00008950E94EC02E0933005F09331050895A0E0B0E00E94ED0B0E2E0ACEE0E0F0E0B1
:2016C0000E94ED0B08950E944605E0933605F09337050895A0913005B09131051ECFA1E091
:2016E000B0E00E94ED0B0E22A0918205B0918305E5CFE0E0E0933005E0933105E2E3F5E0B0
:20170000A9CFE1E0F0E0E0935005F093510508951D9A80EA9FE00197F1F71D9880EA9FE0C4
:201720000197F1F708951D9A80E49FE10197F1F71D9880E49FE10197F1F71D9A80E89EE3B8
:201740000197F1F71D9880E89EE30197F1F71C9A0895A0916A05B0916B050895AAE6B5E085
:20176000B7CE1D9A80E89EE30197F1F71D9880E89EE30197F1F70895FA93EA930C94CF0B85
:20178000E0938005F09381050895E2E0F0E0F8CFE0937605F0937705ECE0F0E00895E991B2
:2017A000F991309639F080EA9FE00197F1F7A8953197C9F70895F09560957095E195FF4FA2
:2017C0006F4F7F4F08956F2F660F660B762F0895EA17E1E009F0EE270895EA17FB07E1E0E9
:2017E00009F0EE270895EA17FB0768077907E1E00CF0EE2708957A9F702D6B9F700DF89F09
:20180000700DE99F700D6A9F602D710DFB9F600D711DE89F600D711D8827FA9FF02D610D48
:20182000781FEB9FF00D611D781FEA9FE02DF10D681F781F089504D0DEDF0EF4BCDF08955B
:20184000E89477FF02C0B7DF689497FF0BC00024A095B095809590951196801D901D00F820
:20186000039400FA0895ED91FD916D917D9108957E936E93FE93EE93089500240A160B066F
:20188000080609060895AE17BF07860797070895FFFFFFFFFFFFFFFFFFFFFFFFFFFFFFFF4B
:2018A000FFFFFFFFFFFFFFFFFFFFFFFFFFFFFFFFFFFFFFFFFFFFFFFFFFFFFFFFFFFFFFFF48
:2018C000FFFFFFFFFFFFFFFFFFFFFFFFFFFFFFFFFFFFFFFFFFFFFFFFFFFFFFFFFFFFFFFF28
:2018E000FFFFFFFFFFFFFFFFFFFFFFFFFFFFFFFFFFFFFFFFFFFFFFFFFFFFFFFFFFFFFFFF08
:20190000FFFFFFFFFFFFFFFFFFFFFFFFFFFFFFFFFFFFFFFFFFFFFFFFFFFFFFFFFFFFFFFFE7
:020000040001F9
:200000000C9459000C9400000C9400000C9400000C9400000C9400000C9400000C94000087
:200020000C9400000C9400000C94A1000C9400000C9400000C9400000C9400000C9400001F
:200040000C948C000C9400000C9400000C9400000C9400000C9400000C9400000C94000014
:200060000C9400000C9400000C9400000C9400000C9400000C9400000C9400000C94000080
:200080000C9400000C9400000C9400001027E80364000A00010000100001100001000100CC
:2000A0002D4E414E00494E46000001008C059E000000F894EE27ECBBF1E0F5BFE5BFE09345
:2000C0006C00F8E1F1BDE1BD8DE0A2E0BB27ED938A95E9F780E090E1A0E0B1E0ED93019745
:2000E000E9F7EAEAF0E085919591009761F0A591B59105901590BF01F00105900D92019725
:20010000E1F7FB01F0CF8BBFEFEFEDBFE0E1EEBFC0E0D5E00C9407080E944309A0E0B5E003
:200120000E944C09A4E0B5E00E944C09A8E0B5E00E944C09ACE0B5E00E944C09A0E1B5E076
:2001400008C00E944309A4E1B5E00E944C09A8E1B5E00E94330CEF5FFF4F6F4F7F4F0E940F
:20016000380CE991EFBFF991E991B991A9917991699118951D98EA81FB81A0911405B091B3
:20018000150580911605909117050E94E30B0E94430C7CF01D9AE0E0E0931405E09315055F
:2001A000E0931605E0931705E881F9813196E883F983E881F98124960895ACE5B5E00E948F
:2001C0004C090E945509A037E7E1BE07E0E08E07E0E09E0709F4949A0E945509A03EEEE2D3
:2001E000BE07E0E08E07E0E09E0719F494980E945E0908950E946809139789F4059903C006
:200200000E946D0902C00E9474090E947A0911F00E9492090E949A0909F0C69810C0059978
:2002200003C00E946D0902C00E9474090E947A0911F00E9492090E949A0909F0C698089566
:20024000049903C0959A969801C095980895C89902C0C09801C0C09A0895E0916C05F091C0
:200260006D05309789F41F9AE0E0E0930805E0930905E0930A05E0930B05E1E0F0E00E9416
:20028000B2090E94B709A7C1E130A0E0FA0711F00C94A9010E94C10939F4E0917205F091FA
:2002A00073050E94CC0917C00E94D609A13CE3E0BE07E0E08E07E0E09E074CF0A2E7B5E07E
:2002C000ED91FD913197FE93EE930E94B709E0916E05F0916F05E0937005F0937105E091AB
:2002E0007805F09179050E94DF09EA17FB0769F40E94E4091C9B03C0E2E0F0E002C0E3E078
:20030000F0E0E0936C05F0936D050E94EA09AB3AE0E0BE07E0E08E07E0E09E07CCF00E941D
:20032000E4090E94F3090E94F909E0917805F09179050E94000A0E94B7091C9B03C0E2E057
:20034000F0E002C0E3E0F0E0E0936C05F0936D0542C1E230A0E0FA07E9F5089B03C00E9423
:20036000050A2EC00E94140AD29711F40E94190A0E94140AD79711F40E94200A0E94140ACE
:20038000DC9711F40E94270A0E94140AA134E0E0BE0711F40E942E0A0E94140AA634E0E0BF
:2003A000BE0711F40E94350A0E94140AAB34E0E0BE0711F40E943C0AE4E0F0E00E94B20990
:2003C0000E94430A31F0E2E0F0E00E94B2090E94F90901C1E330A0E0FA07E9F5099B03C0DF
:2003E0000E94050A2EC00E94140AD29711F40E94190A0E94140AD79711F40E94200A0E94CA
:20040000140ADC9711F40E94270A0E94140AA134E0E0BE0711F40E942E0A0E94140AA634E0
:20042000E0E0BE0711F40E94350A0E94140AAB34E0E0BE0711F40E943C0AE4E0F0E00E940A
:20044000B2090E94430A31F0E3E0F0E00E94B2090E94F909C0C0E430A0E0FA0779F40E9419
:20046000550A2CF40E945B0A0E94630A06C00E94E409E5E0F0E00E94B209ADC0E530A0E09E
:20048000FA0779F40E94550A2CF40E945B0A0E94630A06C00E94E409E6E0F0E00E94B2096F
:2004A0009AC0E630A0E0FA0779F40E94550A2CF40E945B0A0E94630A06C00E94E409E7E08B
:2004C000F0E00E94B20987C0E730A0E0FA0779F40E94550A2CF40E945B0A0E94630A06C0A6
:2004E0000E94E409E8E0F0E00E94B20974C0E830A0E0FA0711F5E0917405F0917505A0918F
:200500006E05B0916F05AE17BF072CF40E945B0A0E94630A11C0EAE0F0E00E94B2090E9488
:20052000B709E0917205F091730536960E94000A0E94E4090E94F3094EC0E930A0E0FA07CD
:2005400049F50E94C10919F40E945B0A14C00E94D609A13DE2E0BE07E0E08E07E0E09E0769
:2005600034F0A2E7B5E00E94680A0E94B709E0916E05F0916F05E0937005F09371050E9467
:20058000DF09989731F40E94E409EAE0F0E00E94B20921C0EA30A0E0FA07E9F41F98A99848
:2005A0000E94E4090E94F309ECE3F0E00E94000AE0E0E0937A05E0937B051C9B02C01C98F1
:2005C00001C01C9AEBE0F0E00E94B209E0E0E0938A05E0938B0508950E946E0AE0911C059E
:2005E000F0911D05309791F4E0918205F0918305309719F4E1E0F0E002C0EFE6F0E0E093CC
:200600001C05F0931D050E94730A7EC1EF36A0E0FA0739F4CF9B04C00E947D0A0E94860A5A
:2006200073C1E130A0E0FA07A9F4A0915005B09151050E948D0A0E94920AE8E2F0E060E0E9
:2006400070E00E94F30BE02121F00E947D0A0E94860A5AC1E230A0E0FA0789F40E949C0ACA
:20066000A031E0E0BE07E0E08E07E0E09E0734F00E94730AE3E0F0E00E94A50A45C1E3302A
:20068000A0E0FA07A9F40E94AA0AE5E0F0E060E070E00E94AD0A09F0C3980E94B80A3CF084
:2006A00095980E94730AE4E0F0E00E94A50A2CC1E430A0E0FA07C9F4CC9902C00E94C10A36
:2006C0000E94AA0AAA31E0E0BE07E0E08E07E0E09E0754F00E94730AE5E0F0E00E94A50A61
:2006E000CC9902C00E94C10A0FC1E530A0E0FA07B9F5A0E0CC99A1E00E94C80AA0916005E2
:20070000B09161050E948D0AE02961F094980E94CD0A0E94D30AE2E3F0E060E070E00E94B4
:20072000D60A1DC00E94CD0AA4E6B5E00E94680AA0916405B091650514974CF00E94D30AA5
:20074000E0E0E0936405E0936505949806C0959AC39AE6E0F0E00E94A50A0E94730AD4C008
:20076000E630A0E0FA07E1F40E94AA0AE2E8F0E060E070E00E94AD0A09F0C3980E949C0A98
:20078000A739E0E0BE07E0E08E07E0E09E073CF095980E94730AE7E0F0E00E94A50AB4C066
:2007A000E730A0E0FA07A1F408DDCC9902C00E94C10A0E949C0AA135E0E0BE07E0E08E079B
:2007C000E0E09E0724F0E5E0F0E00E94A50A9CC0E830A0E0FA0751F40E94B80A34F00E9456
:2007E000730AE9E0F0E00E94A50A8EC0E930A0E0FA0751F40E94DF0A34F0C798929A0E9489
:20080000730A0E94D30A80C0EA30A0E0FA07C1F40E94DF0AA4F0969A0E94730AE0918205E6
:20082000F0918305309719F4EBE0F0E002C0E7E5F4E0E0931C05F0931D050E94730A64C062
:20084000EB30A0E0FA07C9F40E94DF0AACF0F8DCA0915205B0915305119741F496980E9476
:20086000730AECE0F0E00E94A50A06C0E3E3F0E060E070E00E94D60A47C0E735A4E0FA07F8
:2008800031F50E94DF0A34F0CF9B04C0959896980E94730AD5DCA0E09699A1E0E0E00E9498
:2008A000E80B0E94920AE2E3F0E060E070E00E94F30B0E22A0E09599A1E0E0E00E94E80B8E
:2008C000E02121F0ECE0F0E00E94A50A1DC0EC30A0E0FA0751F40E949C0A0E94E80A24F06A
:2008E000EDE0F0E00E94A50A0FC0ED30A0E0FA0759F40E94730AE0E0E0931C05E0931D0548
:2009000001E010E00E94F00AC3C10E946E0AE0911E05F0911F05309759F4A0915005B091B8
:200920005105119721F4EEE1F5E00E94FA0AADC0E130A0E0FA07A1F4A0E0CA99A1E00E94C0
:20094000C80AA0916605B09167050E94FF0AE02131F00E94040BA2E0B0E0A083B18395C040
:20096000E230A0E0FA0781F4A0E0CA99A1E00E94100B0E94150BE02131F00E94040BA3E036
:20098000B0E0A083B18381C0E330A0E0FA0739F40E94040BA4E0B0E0A083B18376C0E43008
:2009A000A0E0FA0769F40E941A0B0E943D0C3CF4979A0E94040BA5E0B0E0A083B18365C004
:2009C000E530A0E0FA0789F50E941A0BA536E0E0BE07E0E08E07E0E09E0734F1A0E0CF9915
:2009E000A1E00E94100BA0911C05B0911D05EBE0F0E00E94ED0BE02159F0939A97980E9487
:200A0000230B0E94040BA6E0B0E0A083B1830CC0E5E6F0E060E070E0E0930405F09305058A
:200A2000609306057093070530C0E630A0E0FA0761F40E941A0B0E94E80A34F00E94040B9D
:200A4000A7E0B0E0A083B18320C0E730A0E0FA0791F40E941A0BAF31E0E0BE07E0E08E07AA
:200A6000E0E09E073CF09398EEE1F5E0A8E0B0E0A083B1830AC0E830A0E0FA0731F40E947D
:200A8000040B0E942A0B01E010E002C10E946E0AE0912205F09123053097B9F4A0E00A99EA
:200AA000A1E00E94100B0E94150BE02169F0AD9AAE980E942F0B11F4AA9802C0AB9AAF98DE
:200AC0000E94350B0E94FA0A8EC0E130A0E0FA07A9F40E94410BA531E0E0BE07E0E08E0773
:200AE000E0E09E0754F00E944A0BAD98AE9A0E94350BA2E0B0E0A083B18375C0E230A0E0B7
:200B0000FA0781F40A990DC00E942F0B11F4AA9A02C0AB98AF9A0E94350BA3E0B0E0A08364
:200B2000B18361C0E330A0E0FA0789F40E94410BA330E0E0BE07E0E08E07E0E09E0734F02B
:200B40000E94350BA4E0B0E0A083B1834CC0E430A0E0FA0749F40A9B06C00E94350BA5E098
:200B6000B0E0A083B1833FC0E530A0E0FA0731F5E0918605F09187053097F9F40E942F0B3A
:200B800039F4E1E0F0E0E0938805F093890505C0E0E0E0938805E0938905E1E0F0E0E093FC
:200BA0008A05F0938B05E0938605F0938705E2E2F5E0A6E0B0E0A083B18315C0E630A0E015
:200BC000FA0789F40A990FC0E6E3F5E00E942A0B0E94350B0E942A0BE0E0E0936C05E093E0
:200BE0006D0500E010E054C00E946E0AE0912405F0912505309759F5A0E0CF99A1E00E9420
:200C0000100BA0918605B09187050E948D0AE021E9F0A89902C0A89A01C0A898A99AA09163
:200C20008805B0918905119711F4AA9802C0AB9AAF98E0E0E0931005E0931105E0931205C0
:200C4000E0931305E4E2F5E00E94FA0A21C0E130A0E0FA07E9F4A0911005B09111058091CA
:200C6000120590911305AD33E0E0BE07E0E08E07E0E09E076CF0E0E0E0938605E0938705EC
:200C80000E94230BE4E2F5E00E942A0B01E010E0F801099119910895E0913005F09131050A
:200CA000309711F40E94510BE0913205F09133050E94580BE3E0F0E00E94ED0BE02129F0BD
:200CC00024DEE0933205F0933305E0913605F09137050E94580B0E94FF0A0E22A0918A05A4
:200CE000B0918B050E945E0BE02111F00E94630BE0913805F09139050E94580B0E94FF0AE9
:200D0000E02129F071DFE0933805F093390508950E946A0B0E2EE0913205F09133050E9405
:200D20006F0B0E220E946809E3E0F0E00E94ED0BE02131F00E94790B0E944A0B0E94810B5C
:200D40000E946A0B0E2EA0918205B09183050E948D0AE02131F00E94790B0E944A0B0E94A5
:200D6000810B0E946A0B0E2EE0913805F09139050E946F0B0E220E9468090E94FF0AE0211C
:200D800059F0E0E0E0933005E0933105E8E3F5E00E942A0B0E94810B08951F9A1C98099BA6
:200DA00003C00E94880BFBCF0E94930B0E94A90BA83EE3E0BE072CF40E94880B0E94AE0BBD
:200DC000F5CF0E94B10B0E94B10B1C98E0E0E0936A05E0936B05099B03C00E94880BFBCFF4
:200DE0000E94A90B1A972CF40E94880B0E94AE0BF7CF099903C00E94880BFBCFE0E0E093DF
:200E00006A05E0936B050E94A90B1A972CF40E94880B0E94AE0BF7CF099B03C00E94880B67
:200E2000FBCF0E94930BE8EBFBE00E94BC0B1F980895079931C0A0E00699A1E00E94C80A98
:200E4000A0917C05B0917D050E945E0BE02189F0C69AE1E0F0E0E0938405F0938505AEE709
:200E6000B5E00E94680AE1E0F0E0E0937C05F0937D05A0E00699A1E00E94100BA0917C0530
:200E8000B0917D050E948D0AE02131F0C698E0E0E0937C05E0937D05A0E00799A1E00E94EA
:200EA000100BA0918405B09185050E948D0AE02111F40C940608E0917E05F0917F053097E5
:200EC00031F4E0E0E0938005E09381059AC0E330A0E0FA0781F4E3E0F0E00E94C00BE0E019
:200EE000E0937E05E0937F05E0938405E09385050E94810B8BC0EB30A0E0FA0739F40E9428
:200F0000C50BE2E3F0E00E94C80B72C0EC30A0E0FA0739F40E94C50BE7E3F0E00E94C80B7A
:200F200067C0ED30A0E0FA0739F40E94C50BECE3F0E00E94C80B5CC0EE30A0E0FA0739F451
:200F40000E94C50BE1E4F0E00E94C80B51C0EF30A0E0FA0739F40E94C50BE6E4F0E00E9489
:200F6000C80B46C0E031A0E0FA0739F40E94C50BEBE4F0E00E94C80B3BC0E131A0E0FA07C5
:200F800029F40E94C50BE2E3F0E02CC0E231A0E0FA0729F40E94C50BE7E3F0E023C0E3318D
:200FA000A0E0FA0729F40E94C50BECE3F0E01AC0E431A0E0FA0729F40E94C50BE1E4F0E0EE
:200FC00011C0E531A0E0FA0729F40E94C50BE6E4F0E008C0E631A0E0FA07C1F40E94C50BF9
:200FE000EBE4F0E0E0937605F0937705EEE0F0E0E0937805F0937905E0E0E0937E05E093AD
:201000007F05E0E0E0938405E09385050895E0E0EBBBEABBE8BBEFEFE7BBE0E0E5BBEFEF8A
:20102000E4BBE0E0E2BBEFEFE1BBE0E0E3B9E0EFE2B9E0E0E0936200E0936100E093650033
:20104000EFE1E0936400E0E0E0BFE7E0E3BFE0E0E2BFE1BFEFBDEEBDEDBDECBDE7BDE6BD2F
:20106000EBBDEABDE9BDE8BDE0937900E0937800E1E0E5BDE0E0E4BDE3BDE0938B00E0932A
:201080008A00E0938900E0938800E0938100E0938000E0938700E0938600E0938500E0938A
:2010A0008400E0938300E0938200E0936A00EABFE9BFE1E4E7BFE0E0E0937D00EAB9E09362
:2010C0009A00E0E8E8B9E0E0E0BDE6B9EDB9E0937400AD98AE9AAB9AAF98E7E0F0E060E094
:2010E00070E0E0934805F093490560934A0570934B05EEE3F0E060E070E0E0934C05F09302
:201100004D0560934E0570934F05A0914805B091490580914A0590914B050E941B0CE093C6
:201120004405F0934505609346057093470544245524929AE1E0F0E04F0166247724AA242B
:20114000BB240E94F00AE0E0E0935405E0935505E0935605E0935705CC24DD24E09358055D
:20116000E0935905E0935A05E0935B050E945E090E94CD0AE0E0E0936205E0936305E0938F
:201180006605E0936705E0937405E0937505E0937605E0937705E0938205E0938305E093E7
:2011A0008605E09387050E94810BE0E0E0935205E0935305E0935605E09357050E94740966
:2011C000E2E0F0E0E0936605F0936705E0E0E0938805E0938905E0936C05E0936D050E9484
:2011E000E4090E94F309ECE3F0E00E94000AECE0F0E0E0937805F0937905E0E0E0938005D4
:20120000E0938105E0938A05E0938B05A89AA99AE8EEF3E00E94BC0BE8EEF3E00E94BC0B27
:20122000E0918005F0918105309711F402DEF8CFB4DD789431DD6CDD0E9427010E94FA00E4
:20124000F8DDA0918A05B0918B050E948D0A0E2E0E9468090E94FF0AE02199F00E942D019B
:20126000E0913005F0913105309711F40E94510BE0913605F0913705309711F40E94630B02
:20128000E0CFD8CFFFCF6A937A93AA93BA93EA93FA93EFB7EA9308950E94330CEF5FFF4F4F
:2012A0006F4F7F4F0E94380C0895A0915C05B0915D0580915E0590915F050895E0E0E09321
:2012C0005C05E0935D05E0935E05E0935F050895A0918005B09181050895E1E0F0E0E09370
:2012E0006805F09369050895E0E0E0936805E09369050895A0E0CB99A1E0E0E00E94E80B1B
:201300000E2EA0916605B0916705E1E0F0E00E94ED0B0E22A0E00799A1E0E1E00E94E80BF6
:20132000E0210895C69AE2E0F0E0E0936605F09367050895A0E0CB99A1E0E1E00E94E80BF8
:201340000E2EA0916605B0916705E2E0F0E00E94ED0B0E22A0E00799A1E0E1E00E94E80BB5
:20136000E0210895E0936C05F0936D050895E0E0E0931805E0931905E0931A05E0931B0553
:201380000895E0917005F0917105A0916E05B0916F05EA17FB070895FA93EA93E0916E05EC
:2013A000F0916F05FA93EA930C94BA00A0911805B091190580911A0590911B050895A091E8
:2013C0007205B09173050895E0E0E0936E05E0936F050895A0910805B091090580910A0569
:2013E00090910B050895E0E0E0937005E09371050895E9E1F0E0E0937A05F0937B050895C5
:20140000E0937205F09373050895E0917A05F0917B05D5DFEA0FFB1FFA93EA93E0E0F0E0F8
:20142000FA93EA930C94BA00A0917605B09177050895EEE3F3E0E0937405F0937505089518
:20144000E0E2F3E0E0937405F09375050895E2E0F3E0E0937405F09375050895E4EEF2E0B2
:20146000E0937405F09375050895E6ECF2E0E0937405F09375050895E8EAF2E0E09374052C
:20148000F09375050895A6DFEAEAF0E060E070E00E94F30B0E2EA0917A05B0917B05E0E0EC
:2014A000F0E00E94ED0BE0210895A0916E05B0916F0512970895E0917A05F0917B057FDF36
:2014C000EA0FFB1F69CFE0936E05F0936F050895ED91FD913196FE93EE9308951A930A937B
:2014E00000E010E00895E0E0E0930005E0930105E0930205E09303050895E0E0E0936405A0
:20150000E0936505959AC39A949AEDCFE2E0F0E0E0931C05F0931D050895E1E0F0E00E94DD
:20152000ED0B08950E2EA0910005B091010580910205909103050895A0910005B091010502
:2015400080910205909103050895E0931C05F0931D0508950E94DD00EFCF0E94F30B0E2EBE
:20156000A0E0C399A1E0E1E00E94E80BE0210895E3DFA531E0E0BE07E0E08E07E0E09E0743
:201580000895E1E0F0E0E0936005F09361050895E0E00E94E80B0E2E0895E0E0E0936005F9
:2015A000E09361050895EAE0F0E0CFCFE0930005F093010560930205709303050895BCDF3F
:2015C000A333E0E0BE07E0E08E07E0E09E070895A230E0E0BE07E0E08E07E0E09E070895AB
:2015E000E0E0E0935005E0935105E0935205E09353050895A1E0B0E0A083B1830895E2E0A1
:20160000F0E00E94ED0B0895E0E0E0930405E0930505E0930605E0930705EEE1F5E00895CC
:20162000E1E00E94E80B0E2E0895A0916805B091690573CFA0910405B0910505809106054B
:20164000909107050895E1E0F0E0E0935205F09353050895A0E0B0E0A083B1830895E09178
:201660008805F091890530970895E0E0E0930C05E0930D05E0930E05E0930F05E2E2F5E0FB
:201680000895A0910C05B0910D0580910E0590910F050895E1E0F0E0E0936605F0936705C4
:2016A00008950E94EC02E0933005F09331050895A0E0B0E00E94ED0B0E2E0ACEE0E0F0E0B1
:2016C0000E94ED0B08950E944605E0933605F09337050895A0913005B09131051ECFA1E091
:2016E000B0E00E94ED0B0E22A0918205B0918305E5CFE0E0E0933005E0933105E2E3F5E0B0
:20170000A9CFE1E0F0E0E0935005F093510508951D9A80EA9FE00197F1F71D9880EA9FE0C4
:201720000197F1F708951D9A80E49FE10197F1F71D9880E49FE10197F1F71D9A80E89EE3B8
:201740000197F1F71D9880E89EE30197F1F71C9A0895A0916A05B0916B050895AAE6B5E085
:20176000B7CE1D9A80E89EE30197F1F71D9880E89EE30197F1F70895FA93EA930C94CF0B85
:20178000E0938005F09381050895E2E0F0E0F8CFE0937605F0937705ECE0F0E00895E991B2
:2017A000F991309639F080EA9FE00197F1F7A8953197C9F70895F09560957095E195FF4FA2
:2017C0006F4F7F4F08956F2F660F660B762F0895EA17E1E009F0EE270895EA17FB07E1E0E9
:2017E00009F0EE270895EA17FB0768077907E1E00CF0EE2708957A9F702D6B9F700DF89F09
:20180000700DE99F700D6A9F602D710DFB9F600D711DE89F600D711D8827FA9FF02D610D48
:20182000781FEB9FF00D611D781FEA9FE02DF10D681F781F089504D0DEDF0EF4BCDF08955B
:20184000E89477FF02C0B7DF689497FF0BC00024A095B095809590951196801D901D00F820
:20186000039400FA0895ED91FD916D917D9108957E936E93FE93EE93089500240A160B066F
:10188000080609060895AE17BF078607970708954B
:00000001FF
