:100000000C9459000C9400000C9400000C94000017
:100010000C9400000C9400000C9400000C94000060
:100020000C9400000C9400000C94A5000C940000AB
:100030000C9400000C9400000C9400000C94000040
:100040000C948C000C9400000C9400000C940000A4
:100050000C9400000C9400000C9400000C94000020
:100060000C9400000C9400000C9400000C94000010
:100070000C9400000C9400000C9400000C94000000
:100080000C9400000C9400000C9400001027E8036E
:1000900064000A00010000100001100001000100CE
:1000A0002D4E414E00494E460000010092059E0033
:1000B0000000F894EE27ECBBF1E0F5BFE5BFE0935C
:1000C0006C00F8E1F1BDE1BD8DE0A2E0BB27ED934E
:1000D0008A95E9F780E090E1A0E0B1E0ED93019727
:1000E000E9F7EAEAF0E085919591009761F0A59132
:1000F000B59105901590BF01F00105900D92019703
:10010000E1F7FB01F0CF8BBFEFEFEDBFE0E1EEBF1A
:10011000C0E0D5E00C9441060E948207A0E0B5E063
:100120000E948B07A4E0B5E00E948B07A8E0B5E031
:100130000E948B07ACE0B5E00E948B07A0E1B5E020
:100140000E948B07ACE8B5E008C00E948207A4E1DA
:10015000B5E00E948B07A8E1B5E00E94A809EF5F17
:10016000FF4F6F4F7F4F0E94AD09E991EFBFF991AB
:10017000E991B991A991799169911895ACE5B5E0AA
:100180000E948B070E949407A037E7E1BE07E0E0DA
:100190008E07E0E09E0709F4949A0E949407A03E1F
:1001A000EEE2BE07E0E08E07E0E09E0719F49498C7
:1001B0000E949D0708950E94A707139789F4059947
:1001C00003C00E94AC0702C00E94B3070E94B90797
:1001D00011F00E94D1070E94D90709F0C69810C0FB
:1001E000059903C00E94AC0702C00E94B3070E9499
:1001F000B90711F00E94D1070E94D90709F0C698EB
:100200000895049903C0959A969801C09598089509
:10021000C89902C0C09801C0C09A0895189A0F9B4F
:1002200030C0E0919005F0919105309779F4E0E0CD
:10023000E0938C05E0938D05E0938E05E0938F05A8
:10024000E1E0F0E0E0939005F0939105A0918C053A
:10025000B0918D0580918E0590918F050E94F107D8
:10026000A0E00F99A1E00E94F90759F0E0E0E093C7
:100270008A05E0938B05A9981898E0939005E09380
:100280009105A0E00F99A1E00E94FE07A0919005C2
:10029000B09191050E940308E02129F0E0E0E0938D
:1002A0009005E093910508950E940808E0911C05CF
:1002B000F0911D05309791F4E0918205F09183054E
:1002C000309719F4E1E0F0E002C0EFE6F0E0E093EF
:1002D0001C05F0931D050E940D0895C1EF36A0E0A6
:1002E000FA0761F4CF9B09C00E941708C39AC59A08
:1002F000949A0E940D080E941E0885C1E130A0E07A
:10030000FA07D9F4A0915005B09151050E94030855
:100310000E2E0E942508E8E2F0E060E070E00E9406
:100320006809E02149F00E941708C59AC39A949A77
:100330000E940D080E941E0866C1E230A0E0FA0784
:1003400089F40E942508A031E0E0BE07E0E08E07B6
:10035000E0E09E0734F00E940D08E3E0F0E00E9428
:100360002E0851C1E330A0E0FA07B9F40E94330827
:100370000E94F107A0E0C399A1E00E94F90709F0EB
:10038000C3980E94360844F0C59895980E940D08BD
:10039000E4E0F0E00E942E0836C1E430A0E0FA0765
:1003A000C9F4CC9902C00E943F080E943308AA31C8
:1003B000E0E0BE07E0E08E07E0E09E0754F00E9418
:1003C0000D08E5E0F0E00E942E08CC9902C00E94E2
:1003D0003F0819C1E530A0E0FA07D9F5A0E0CC99B3
:1003E000A1E00E94FE07A0916005B09161050E9406
:1003F0000308E02961F094980E9446080E944C0886
:10040000E2E3F0E060E070E00E944F0821C00E944B
:100410004608A4E6B5E0ED91FD913196FE93EE938A
:10042000A0916405B091650514974CF00E944C08AA
:10043000E0E0E0936405E0936505949807C0959A21
:10044000C39AC59AE6E0F0E00E942E080E940D08CB
:10045000DAC0E630A0E0FA0719F50E943308E2E8B6
:10046000F0E060E070E00E9468090E2EA0E0C39901
:10047000A1E00E94F90711F0C398C5980E942508D1
:10048000A739E0E0BE07E0E08E07E0E09E073CF021
:1004900095980E940D08E7E0F0E00E942E08B3C096
:1004A000E730A0E0FA07A1F469DECC9902C00E940F
:1004B0003F080E942508A135E0E0BE07E0E08E0776
:1004C000E0E09E0724F0E5E0F0E00E942E089BC0EB
:1004D000E830A0E0FA0751F40E94360834F00E9498
:1004E0000D08E9E0F0E00E942E088DC0E930A0E0A0
:1004F000FA0751F40E94580834F0C798929A0E9463
:100500000D080E944C087FC0EA30A0E0FA07C1F451
:100510000E945808A4F0969A0E940D08E091820566
:10052000F0918305309719F4EBE0F0E002C0E7E5C5
:10053000F4E0E0931C05F0931D050E940D0863C0D4
:10054000EB30A0E0FA07C9F40E945808ACF059DE7D
:10055000A0915205B0915305119741F496980E94CD
:100560000D08ECE0F0E00E942E0806C0E3E3F0E0A6
:1005700060E070E00E944F0846C0E735A4E0FA074B
:1005800029F50E94580834F0CF9B04C0959896989E
:100590000E940D0836DEA0E09699A1E00E94FE07B9
:1005A0000E942508E2E3F0E060E070E00E94680944
:1005B0000E22A0E09599A1E0E0E00E945D09E02113
:1005C00021F0ECE0F0E00E942E081DC0EC30A0E02D
:1005D000FA0751F40E9425080E94610824F0EDE01A
:1005E000F0E00E942E080FC0ED30A0E0FA0759F4A9
:1005F0000E940D08E0E0E0931C05E0931D0501E07A
:1006000010E00E946908C3C10E940808E0911E051D
:10061000F0911F05309759F4A0915005B091510504
:10062000119721F4EEE1F5E00E947308ADC0E130CE
:10063000A0E0FA07A1F4A0E0CA99A1E00E94FE0799
:10064000A0916605B09167050E947808E02131F01D
:100650000E947D08A2E0B0E0A083B18395C0E230A3
:10066000A0E0FA0781F4A0E0CA99A1E00E948908FD
:100670000E948E08E02131F00E947D08A3E0B0E0E6
:10068000A083B18381C0E330A0E0FA0739F40E946F
:100690007D08A4E0B0E0A083B18376C0E430A0E0A0
:1006A000FA0769F40E9493080E94B2093CF4979AF1
:1006B0000E947D08A5E0B0E0A083B18365C0E5306D
:1006C000A0E0FA0789F50E949308A536E0E0BE078E
:1006D000E0E08E07E0E09E0734F1A0E0CF99A1E0D2
:1006E0000E948908A0911C05B0911D05EBE0F0E087
:1006F0000E946209E02159F0939A97980E949C0801
:100700000E947D08A6E0B0E0A083B1830CC0E5E6BE
:10071000F0E060E070E0E0930405F093050560937D
:1007200006057093070530C0E630A0E0FA0761F4D3
:100730000E9493080E94610834F00E947D08A7E09F
:10074000B0E0A083B18320C0E730A0E0FA0791F4C5
:100750000E949308AF31E0E0BE07E0E08E07E0E0E2
:100760009E073CF09398EEE1F5E0A8E0B0E0A083AE
:10077000B1830AC0E830A0E0FA0731F40E947D0896
:100780000E94A30801E010E002C10E940808E09165
:100790002205F09123053097B9F4A0E00E99A1E06D
:1007A0000E9489080E948E08E02169F0AD9AAE98F7
:1007B0000E94A80811F4AA9802C0AB9AAF980E94B0
:1007C000AE080E9473088EC0E130A0E0FA07A9F4D9
:1007D0000E94BA08A531E0E0BE07E0E08E07E0E045
:1007E0009E0754F00E94C308AD98AE9A0E94AE08CE
:1007F000A2E0B0E0A083B18375C0E230A0E0FA07C8
:1008000081F40E990DC00E94A80811F4AA9A02C0A2
:10081000AB98AF9A0E94AE08A3E0B0E0A083B1838A
:1008200061C0E330A0E0FA0789F40E94BA08A3305F
:10083000E0E0BE07E0E08E07E0E09E0734F00E94B3
:10084000AE08A4E0B0E0A083B1834CC0E430A0E0E7
:10085000FA0749F40E9B06C00E94AE08A5E0B0E07E
:10086000A083B1833FC0E530A0E0FA0731F5E09105
:100870008605F09187053097F9F40E94A80839F4AD
:10088000E1E0F0E0E0938805F093890505C0E0E041
:10089000E0938805E0938905E1E0F0E0E0938A05C4
:1008A000F0938B05E0938605F0938705E2E2F5E08F
:1008B000A6E0B0E0A083B18315C0E630A0E0FA075F
:1008C00089F40E990FC0E6E3F5E00E94A3080E94A8
:1008D000AE080E94A308E0E0E0936C05E0936D058C
:1008E00000E010E054C00E940808E0912405F09157
:1008F0002505309759F5A0E0CF99A1E00E9489081D
:10090000A0918605B09187050E940308E021E9F0D7
:10091000A89902C0A89A01C0A898A99AA091880590
:10092000B0918905119711F4AA9802C0AB9AAF98BB
:10093000E0E0E0931005E0931105E0931205E093E9
:100940001305E4E2F5E00E94730821C0E130A0E065
:10095000FA07E9F4A0911005B091110580911205F4
:1009600090911305AD33E0E0BE07E0E08E07E0E0D4
:100970009E076CF0E0E0E0938605E09387050E9417
:100980009C08E4E2F5E00E94A30801E010E0F80111
:10099000099119910895E0913005F0913105309752
:1009A00011F40E94CA08E0913205F09133050E94CB
:1009B000D108E3E0F0E00E946209E02129F024DEA2
:1009C000E0933205F0933305E0913605F091370559
:1009D0000E94D1080E9478080E22A0918A05B09149
:1009E0008B050E94D708E02111F00E94DC08E091FD
:1009F0003805F09139050E94D1080E947808E0215D
:100A000029F071DFE0933805F093390508950E94CD
:100A1000E3080E2EE0913205F09133050E94E808BC
:100A20000E220E94A707E3E0F0E00E946209E021A5
:100A300031F00E94F2080E94C3080E94FA080E9446
:100A4000E3080E2EA0918205B09183050E94030851
:100A5000E02131F00E94F2080E94C3080E94FA08C7
:100A60000E94E3080E2EE0913805F09139050E94AE
:100A7000E8080E220E94A7070E947808E02159F09A
:100A8000E0E0E0933005E0933105E8E3F5E00E9413
:100A9000A3080E94FA080895079934C0A0E00699B7
:100AA000A1E00E94FE07A0917C05B0917D050E9407
:100AB000D708E021A1F0C69AE1E0F0E0E0938405D8
:100AC000F0938505AEE7B5E0ED91FD913196FE938B
:100AD000EE93E1E0F0E0E0937C05F0937D05A0E08B
:100AE0000699A1E00E948908A0917C05B0917D053E
:100AF0000E940308E02131F0C698E0E0E0937C0515
:100B0000E0937D05A0E00799A1E00E948908A091EB
:100B10008405B09185050E940308E02111F40C942E
:100B20004006E0917E05F0917F05309731F4E0E0DA
:100B3000E0938005E09381059EC0E330A0E0FA07D2
:100B4000A1F4E3E0F0E00E940109E0E0E0937E051B
:100B5000E0937F05E0938405E09385050E94FA0801
:100B60000E9406091C981D988BC0EB30A0E0FA0784
:100B700029F40E940B090E940E0972C0EC30A0E01B
:100B8000FA0729F40E940B090E941B0969C0ED3085
:100B9000A0E0FA0729F40E940B090E94280960C00E
:100BA000EE30A0E0FA0739F40E940B090E943509E3
:100BB0001C9A1D9855C0EF30A0E0FA0741F40E943E
:100BC0000B090E943C090E9406091C9848C0E031AC
:100BD000A0E0FA07B9F1E131A0E0FA0729F40E9498
:100BE0000B090E940E093CC0E231A0E0FA0729F48B
:100BF0000E940B090E941B0933C0E331A0E0FA07F1
:100C000029F40E940B090E9428092AC0E431A0E0BF
:100C1000FA0739F40E940B090E9435091C9A1D98A5
:100C20001FC0E531A0E0FA0749F40E940B090E94B9
:100C300006091C981D9A0E943C0912C0E631A0E0EA
:100C4000FA07F1F4E2E0F0E00E940109EBE4F0E0E1
:100C5000E0937605F09377050E9406091C9A1D9A89
:100C6000E8E0F0E0E0937805F0937905E0E0E093C8
:100C70007E05E0937F05E0E0E0938405E093850541
:100C80000895E0E0EBBBEABBE8BBEFEFE7BBE0E0D9
:100C9000E5BBEFEFE4BBE0E0E2BBEFEFE1BBE0E0A0
:100CA000E3B9EFE3E2B9E0E0E0936200E0936100D2
:100CB000E0936500EFE1E0936400E0E0E0BFE7E08F
:100CC000E3BFE0E0E2BFE1BFEFBDEEBDEDBDECBDD7
:100CD000E7BDE6BDEBBDEABDE9BDE8BDE093790047
:100CE000E0937800E1E0E5BDE0E0E4BDE3BDE09342
:100CF0008B00E0938A00E0938900E0938800E09302
:100D00008100E0938000E0938700E0938600E09309
:100D10008500E0938400E0938300E0938200E093F9
:100D20006A00EABFE9BFE1E4E7BFE0E0E0937D00ED
:100D3000EAB9E0939A00E0E8E8B9E0E0E0BDE6B99E
:100D4000EDB9E0937400AD98AE9AAB9AAF98E7E036
:100D5000F0E060E070E0E0934805F09349056093AF
:100D60004A0570934B05EEE3F0E060E070E0E0933D
:100D70004C05F0934D0560934E0570934F05A0917F
:100D80004805B091490580914A0590914B050E9414
:100D90009009E0934405F0934505609346057093F0
:100DA000470544245524929AE1E0F0E04F0166247F
:100DB0007724AA24BB240E946908E0E0E09354054C
:100DC000E0935505E0935605E0935705CC24DD24C8
:100DD000E0935805E0935905E0935A05E0935B05CD
:100DE0000E949D070E944608E0E0E0936205E093C0
:100DF0006305E0936605E0936705E0937405E0936F
:100E00007505E0937605E0937705E0938205E0931E
:100E10008305E0938605E09387050E94FA08E0E0E9
:100E2000E0935205E0935305E0935605E093570590
:100E30000E94B307E2E0F0E0E0936605F0936705F7
:100E4000E0E0E0938805E0938905E0936C05E0938A
:100E50006D05E0936E05E0936F05E0937005E093F8
:100E60007105ECE3F0E0E0937205F0937305E8E0C0
:100E7000F0E0E0937805F0937905E0E0E0938005F9
:100E8000E0938105E0938A05E0938B05A89AA99ADF
:100E9000C59A0E9443090E944309E0918005F091A0
:100EA0008105309711F4F8DDF8CF0F9902C0189A38
:100EB000FCCF1898C59878946EDDA9DDA9D97BD9A7
:100EC000EBDDA0918A05B0918B050E9403080E2EE0
:100ED0000E94A7070E947808E02191F09FD9E09135
:100EE0003005F0913105309711F40E94CA08E09165
:100EF0003605F0913705309711F40E94DC08E1CFF8
:100F0000DBCFFFCF6A937A93AA93BA93EA93FA93CB
:100F1000EFB7EA9308950E94A809EF5FFF4F6F4F64
:100F20007F4F0E94AD090895A0915C05B0915D05C9
:100F300080915E0590915F050895E0E0E0935C0587
:100F4000E0935D05E0935E05E0935F050895A09151
:100F50008005B09181050895E1E0F0E0E093680537
:100F6000F09369050895E0E0E0936805E093690572
:100F70000895A0E0CB99A1E0E0E00E945D090E2E6B
:100F8000A0916605B0916705E1E0F0E00E9462097A
:100F90000E22A0E00799A1E0E1E00E945D09E021B6
:100FA0000895C69AE2E0F0E0E0936605F0936705E5
:100FB0000895A0E0CB99A1E0E1E00E945D090E2E2A
:100FC000A0916605B0916705E2E0F0E00E94620939
:100FD0000E22A0E00799A1E0E1E00E945D09E02176
:100FE0000895E5E0F0E060E070E00E9468090E2EF0
:100FF0000895E1E00E945D09E0210895E0E00E948B
:101000005D090E2E0895E1E0F0E00E946209089566
:101010001A930A9300E010E00895E0E0E0930005E1
:10102000E0930105E0930205E09303050895E0E0F5
:10103000E0936405E0936505959A0895E2E0F0E099
:10104000E0931C05F0931D050895A0910005B09153
:10105000010580910205909103050895E0931C0518
:10106000F0931D0508950E94BE00EFCFEEDFA5317D
:10107000E0E0BE07E0E08E07E0E09E070895E1E0D3
:10108000F0E0E0936005F09361050895E0E0E093FF
:101090006005E09361050895EAE0F0E0DFCFE093BA
:1010A0000005F09301056093020570930305089510
:1010B000CCDFA333E0E0BE07E0E08E07E0E09E0770
:1010C0000895A230E0E0BE07E0E08E07E0E09E0772
:1010D0000895E0E0E0935005E0935105E093520558
:1010E000E09353050895A1E0B0E0A083B183089593
:1010F000E2E0F0E00E9462090895E0E0E093040578
:10110000E0930505E0930605E0930705EEE1F5E0C1
:101110000895E1E00E945D090E2E0895A0916805F2
:10112000B091690570CFA0910405B091050580913B
:101130000605909107050895E1E0F0E0E09352057F
:10114000F09353050895A0E0B0E0A083B183089523
:10115000E0918805F091890530970895E0E0E093EB
:101160000C05E0930D05E0930E05E0930F05E2E218
:10117000F5E00895A0910C05B0910D0580910E0544
:1011800090910F050895E1E0F0E0E0936605F0939B
:10119000670508950E945401E0933005F0933105EE
:1011A0000895A0E0B0E00E9462090E2ED0CEE0E0EB
:1011B000F0E00E94620908950E94C503E09336059D
:1011C000F09337050895A0913005B09131051BCFFC
:1011D000A1E0B0E00E9462090E22A0918205B091C8
:1011E0008305E5CFE0E0E0933005E0933105E2E3ED
:1011F000F5E0A9CFE1E0F0E0E0935005F093510570
:101200000895E0938005F093810508951898199842
:101210001A981B980895E2E0F0E0F3CFE2E3F0E0E3
:10122000E0937605F09377051898199A1A981B9809
:101230001C981D980895E7E3F0E0E0937605F0939D
:101240007705189819981A9A1B981C981D98089554
:10125000ECE3F0E0E0937605F093770518981998A1
:101260001A981B9A1C981D980895E1E4F0E0E09309
:101270007605F0937705CACFE6E4F0E0E0937605D3
:10128000F09377050895E8EEF3E0FA93EA930C946F
:101290004909E991F991309639F080EA9FE0019788
:1012A000F1F7A8953197C9F70895F0956095709575
:1012B000E195FF4F6F4F7F4F0895EA17E1E009F086
:1012C000EE270895EA17FB07E1E009F0EE270895FD
:1012D000EA17FB0768077907E1E00CF0EE270895AD
:1012E0007A9F702D6B9F700DF89F700DE99F700DA8
:1012F0006A9F602D710DFB9F600D711DE89F600D51
:10130000711D8827FA9FF02D610D781FEB9FF00D5E
:10131000611D781FEA9FE02DF10D681F781F089569
:1013200004D0DEDF0EF4C1DF0895E89477FF02C039
:10133000BCDF689497FF0BC00024A095B095809502
:1013400090951196801D901D00F8039400FA089561
:10135000ED91FD916D917D9108957E936E93FE9335
:10136000EE93089500240A160B0608060906089550
:00000001FF
